S011000053656E736F724D43552E73726563B4
S113000038070020112100000D2100000D210000FF
S113001000000000000000000000000000000000DC
S11300200000000000000000000000000D2100009E
S113003000000000000000000D2100000522000067
S11300400D2100000D2100000D2100000D210000F4
S1130050651A00000D2100000D21000000000000C1
S11300600D210000ED190000FD1900000000000042
S11300700D2100000D2100000D2100000D210000C4
S11300800D2100000D2100000D21000010B5064CCB
S11300902378002B07D1054B002B02D0044800E045
S11300A000BF0123237010BDB00000200000000039
S11300B07033000008B5084B002B03D007480849EB
S11300C000E000BF07480368002B03D0064B002B59
S11300D000D0984708BDC0460000000070330000FF
S11300E0B4000020703300000000000010B5164B6F
S11300F04022996982B00A439A616A4600231370C8
S113010069460520114B9847114B05209847114A21
S1130110012311780B43137053780E4C5BB2002B00
S1130120FADB40220C4B0D48002198470C4B10225F
S11301301A60227802231343237063785BB2002B86
S1130140FBDB02B010BDC04600040040F51E0000F9
S1130150591F000000180040C5320000B002002002
S113016000E100E000230122036043608372022364
S113017002724272C3727047F0B583B06A460023BC
S11301805370D3704B68051C13700B7A0878937006
S11301900C1C164B6946984700231F2D00D8144B9E
S11301A00721A27A29408900E07A002A01D0082296
S11301B01043EA0892009A1896690F278F40BE43AD
S11301C08840311C01439161627A002A06D15A6940
S11301D00121A9408A435A6103B0F0BD01215A6943
S11301E0A9400D1C15435D61F6E7C04631200000AF
S11301F000180040F0B54D4644465F465646F0B4FC
S11302008846051C01684046408807228146CB6920
S11302101A42FCD14246537A002B00D07AE04A6855
S1130220534B404613404B60037A002B64D0427A10
S1130230038892035B0013438022120213434B6230
S11302402A6800230124022607E0107E064207D113
S1130250013328899BB2984255D9107E0442F4D0C8
S1130260107E0223034200D16EE01376528B4120AC
S1130270134249D120200023282282468C46072796
S1130280934601200226191C494500D16AE06246C2
S1130290538B52461A4268D02A68D3691F42FCD154
S11302A042465268535C62465A4413702A680023DB
S11302B007E0147E264207D101332C899BB29C426D
S11302C04DD9147E2042F4D06246538B042201316E
S11302D01A42D9D061461E22AB7A101C002B13D0CF
S11302E02C680720E3691842FCD14868C0239B02AC
S11302F003434B60101C07E0427A038892035B00BF
S113030013434B629CE712203CBC90469946A2469C
S1130310AB46F0BD937A48688022D20202434A6019
S11303204B622A6800230124022607E0107E06425D
S113033007D1013328899BB2984202D9107E044226
S1130340F4D001230B766AE7538B580700D491E766
S11303505168C0239B020B4353601820D4E76146C5
S11303601222B9E761460022B6E74120CCE7C04635
S1130370FFFFFBFFF0B544464D465F465646F0B4DA
S11303808846016883B00B68051C1B014046DB0FDF
S113039044880193437A002B00D076E04A68824B6C
S11303A013404B604246137A002B36D04046527AB3
S11303B0038892035B0013438022120213434B62AF
S11303C02A6800230126022707E0107E074207D18E
S11303D0013328899BB298424BD9107E0642F4D04F
S11303E04A68714B13404B602B680222187E02420C
S11303F000D1B8E01A765B8B41201A423ED14346C5
S11304005A7A012392031A43434618887823000A30
S113041003435B0013434B6208E0434612885B7A54
S113042052009B031343012213434B622A680023A7
S11304300126022707E0107E074207D101332889ED
S11304409BB2984215D9107E0642F4D04A68564BA6
S113045013404B602B680222187E02422FD15A8B24
S1130460500731D55968C02292020A435A601820B5
S113047004E04A684C4B122013404B6003B03CBC70
S113048090469946A246AB46F0BD837A80224868DE
S1130490D20202434A604B622A68002301260227E3
S11304A007E0107E074207D1013328899BB29842A6
S11304B002D9107E0642F4D001230B766EE71A7639
S11304C05B8B41201A42D9D1013CA4B23748A446DF
S11304D06346824620228C46002493460727012047
S11304E00226191C51452CD06246538B5A461A4297
S11304F058D0EB7A002B04D0019B002B38D0012973
S113050038D02A68D3691F42FCD1631C9BB22822CD
S1130510994663469B5C4246526813552A680023F9
S113052007E0147E264207D101332C899BB29C42FA
S113053028D9147E2042F4D04C46013989B2514561
S1130540D2D1AB7A61462A68A1460020002B1ED185
S11305500724D3691C42FCD12823CA5C41464B685A
S113056049465A548AE75A8B500700D57AE746E73A
S11305700029C6D1624653688022D20213436246E0
S11305805360DAE7AB7A61461220002BE0D00724EF
S1130590D3691C42FCD14A68C0239B0213434B60BD
S11305A02A68D5E7412069E7FFFFFBFFFFFF000052
S11305B0F0B54D4644465F465646F0B48046016069
S11305C00C1C081C694985B0151C894688470127FD
S11305D0674B821C3E1C196A9640321C0A431A62FD
S11305E0061C2B7B0E366946F6B20B70301C614B31
S11305F09847301C604B9847604B287B00219847F4
S113060023681C209A0706D505B03CBC9046994641
S1130610A246AB46F0BD266805203E40F4D1142323
S1130620236041460B6802AC181C9A46C8478146B1
S1130630E86980236670E6702370A7702E6A00282C
S11306407AD020704E4A000C0223C0B2211C637081
S113065093469047002E69D02670360CF0B20227DC
S1130660211C6770D847AB8A4646F380EB8A3381F6
S11306702A7E8023002A4DD02A69002A00D0134301
S11306802421AA68695C1343002902D08021C9058A
S11306900B43A96A002900D00B432C21695C002973
S11306A03FD08022120513432D22AA5C002A02D0D7
S11306B08022120413432E22AA5C002A02D0802234
S11306C0D2031343564632682E49134333608023C2
S11306D05B0073604B460E33DBB2181C99468B46A5
S11306E08847061C288E2A68274BFA272749BF000B
S11306F070435743984698470A3078437C00301A31
S11307000019211C0138224B9847041EFF2C18D9CC
S1130710402079E71F4B9B781F407B1E9F41FB01C4
S1130720AAE7802189048A42BED1BAE75046012152
S1130730194B9847061C8FE750460021164B9847E3
S11307407FE74846D8476B68FA21C90059434B1ED6
S11307501818C0470138FF28DAD8FF2300041B0407
S1130760184004435646F46000204DE76D1900001C
S113077000040040F51E0000591F0000A9180000E5
S113078031200000891F0000A925000000CA9A3BFF
S11307904526000000200041F518000008B501239B
S11307A08372C372014B984708BDC04675030000AD
S11307B008B501238372C372014B984708BDC04634
S11307C0F501000000000000D0B594B0061C002123
S11307D050226846364B9847301C9B210122354FE6
S11307E0B847002802D0012014B0D0BD324B0020FD
S11307F098472A4B284A314C0021A047284A294BC4
S11308002F4C80185941284A284BA0472D4B984714
S1130810301C37216A4601232B4CA0470028E2D123
S1130820009B2A4A13600B2BDDD1294B9B7C002BA8
S113083010D0301C54216A460123A0470028D2D18D
S1130840009B04221A430092301CD2B25421B847B0
S11308500028C8D1301C55211E22B8470028C2D117
S1130860301C56210A22B8470028BCD1301C57211D
S11308701422B8470028B6D1301C33210122B847CE
S11308800028B0D1301C34210122B847431E9841BE
S1130890AAE7C046C046C046E803000000000000C6
S11308A0571B000000000000581B0000000000005F
S11308B0C53200000D0C00006D1E00004927000029
S11308C00927000001000020410C00003001002035
S11308D098000020C046C04610B5084C03230849C0
S11308E02370152363701022A01C0131054B984717
S11308F0201C1221044B984710BDC046CC00002098
S113090098000020B3320000A10C000070B5244C04
S113091082B000236A461370201C35210123214D27
S1130920A847C0B200282FD16A461378DA072DD41D
S11309301D4E201C0021321C1023A847002803D080
S11309401A4B9A6801329A60321C1032201C122110
S11309500C23A847002803D0144BDA680132DA606C
S1130960321C1632201C1A210C23A847002811D14E
S1130970321C1C32201C22210C23A847002803D03F
S11309800A4B5A6901325A6102B070BD201C084BEF
S11309909847F9E7054B1A6901321A61E8E7C0463E
S11309A044000020410C00000C0000203001002015
S11309B0C907000038B5C823C35A041C012B02D947
S11309C00278012A00D038BD4278113AD2B2122AF4
S11309D0F9D8684992008A5897468178C078227974
S11309E000026379120402430A431B061A43624B52
S11309F05A61624B9847E6E7614B9847E3E75E4BE1
S1130A0082781B789342DED15E4C0322227013223B
S1130A106270E01CA3705C4922225C4B9847201C46
S1130A2025215B4B9847CEE78378DBB2012B00D1BD
S1130A3096E0514B00225A74C5E7132BC3D1554D90
S1130A40811C1022281C544B98470028BBD1A27C3F
S1130A506B1E4C4C1A700323237017236370291CDC
S1130A60A01C1022494B9847201C1221484B984740
S1130A70A9E7414B82781B789342A4D1414C0322CD
S1130A80227019226270E01CA370444918223F4B63
S1130A909847201C1B213E4B984794E73A4B404A09
S1130AA01A60404A5A60404A9A60404ADA60012219
S1130AB01A8202225A8203229A820422DA820522AC
S1130AC01A8306225A8307229A830822DA83092288
S1130AD01A8478E72C4CFE21E38A354D01339BB20E
S1130AE0E382238B890501339BB22383638B013318
S1130AF09BB26383238A01339BB22382638A0133CB
S1130B009BB26382A38A01339BB2A382A38B01337A
S1130B109BB2A383E38B01339BB2E383238C013326
S1130B209BB22384E068A847FE21E0602068890521
S1130B30A847FE21206060688905A847FE216060FF
S1130B40A0688905A847A0603DE78378DBB2012B44
S1130B5009D0094B00229A741648174B984732E77C
S1130B60054A53742FE7044A12489374124B98476A
S1130B7029E7C046D4320000980000207523000005
S1130B800D090000CC0000200C000020B33200004E
S1130B90A10C0000990000209532000030010020D3
S1130BA0CDCCCC3DCDCC4C3E9A99993ECDCCCC3ECF
S1130BB0F927000044000020C907000010B5041CF8
S1130BC0221C114B0430103221689847012300285D
S1130BD001D0181C10BD62680721D3691942FCD1E9
S1130BE0116802230B4313601020002303E0618982
S1130BF001338B4204D2518B0842F8D00023E8E73A
S1130C00102353830023E4E7B105000010B584B03A
S1130C106C46217062704468806801A9002300AAB0
S1130C204A600B7202224B720430044B4A800C80DF
S1130C309847431E984104B010BDC046B107000058
S1130C40F0B5474680B484B001AC051C0020207286
S1130C5060729046A8686A461F1C002313801170B6
S1130C6000AB6A68029304300123211C0A4E63809E
S1130C702280B047031C0120002B09D1A8684346F9
S1130C8063600430054B211C67809847431E9841DC
S1130C9004B004BC9046F0BDB10700009D070000FD
S1130CA0F0B5414CDE23474680B42370CBB21A1C06
S1130CB02232D2B23D4D012A55D9032663700B0A64
S1130CC0B0461E1C22360427F6B2BC460322022775
S1130CD0012E57D92A80E355DF270023BC4600297B
S1130CE008D11AE0571CBFB20133A6542F803A1C16
S1130CF08B4212DAC65C371C2237FFB2012FF1D8BF
S1130D006746A754971C0132BFB292B21036013322
S1130D10A6542F803A1C8B42ECDB254E33685B686B
S1130D20002B00D09847234B002098470023021C37
S1130D30191C80185941204F184B174A80185941E3
S1130D40174A184BB8471D4B984733682A88D86808
S1130D50211C1B4B984733681B68002B00D0984715
S1130D6004BC9046F0BD1033A37005239C460B0AC7
S1130D701E1CDF2222366270F6B20422904603273C
S1130D80012EA7D8DF22E2551033624646462A8058
S1130D90A3556246A0E7C046BFCF6A00000000002A
S1130DA0C0CF6A00000000001C02002018020020CE
S1130DB0F00200206D1E0000092700000100002041
S1130DC0B5120000C046C04680B582B000AF021C18
S1130DD0FB1D1A70FB1D1B78DE2B17D14A4ACA2350
S1130DE0D35A9BB2002B04D0484B5B685A1C474B28
S1130DF05A60454ACA230021D152434ACC230021D8
S1130E00D154414AC8230021D15279E0FB1D1B78FB
S1130E10DF2B04D13C4ACC230121D15470E03A4A5F
S1130E20CC23D35CDBB2002B08D0FB1DFA1D127857
S1130E30103A1A70344ACC230021D154324ACA23BE
S1130E40D35A9BB2002B15D12F4AC823D35A9AB236
S1130E50FB1D1B789BB2134399B22B4AC823D15272
S1130E60294ACA23D35A9BB2013399B2264ACA23C8
S1130E70D15245E0244ACA23D35A9BB2012B17D13D
S1130E80214AC823D35A9AB2FB1D1B789BB21B027A
S1130E909BB2134399B21C4AC823D1521A4ACA239B
S1130EA0D35A9BB2013399B2174ACA23D15227E0CD
S1130EB0154ACA23D35A9BB2023B134AF91D097837
S1130EC0D154114ACA23D35A9BB25A1E0E49C8237D
S1130ED0CB5A9BB29A420AD10D4B1B689B680A4AB3
S1130EE0101C9847084ACA230021D15208E0064A38
S1130EF0CA23D35A9BB2013399B2034ACA23D152AB
S1130F00BD4602B080BDC04648010020300100202B
S1130F10F0020020014B18607047C046F002002028
S1130F20F0B544465F4656464D46F0B4051C93B0B2
S1130F302960081CB24F0C1C9046B8472268012354
S1130F40061C0520134206D013B03CBC90469946BB
S1130F50A246AB46F0BD2268022111408A461C20FD
S1130F600029F1D1A74AB01C116A83400B431362D4
S1130F702D22914642464A4413780E360AA9F6B207
S1130F800B70301CA04B9847301CA04B984743462D
S1130F904B444646187800219D4B9847F37A2968BC
S1130FA06B712423F35C081CAB712523F35C894625
S1130FB0EB71F37E2B72337F6B72B84753466A46EC
S1130FC01387368A80230E30B246DB019E4200D15D
S1130FD0CDE000D8E7E0C023DB019E4200D1EEE083
S1130FE080231B029E4200D0E5E0032608960026DB
S1130FF04146424643460968D2685B6902910392BE
S113100004934146097E424605912623D35C069308
S113101053689B46002B00D1B2E080235B059B45BF
S113102000D0ABE02723D35C0021002B00D1DCE00F
S11310304646737E002B02D0B37E4A4693732A68D9
S1131040D369002BFCD14B469981029E03995A46E1
S11310503143049E53463143059E114319433302E1
S1131060069E19437307194342462723D35C002B7A
S113107001D1042319434346187F5B7E46469B02F5
S113108040021843737F1B0218432423F35C5B0460
S113109018432523F35C1B041843F37A184333895C
S11310A0FF2B00D18FE080225204114318432C23DC
S11310B04646F35C002B03D1564B9B789A0701D527
S11310C0802319432A68D369002BFCD14B4658600E
S11310D02A68D369002BFCD14E46316041460CAEE0
S11310E0096B7370F370B370434680229B6B0E914F
S11310F04146C96B32704246526B1093464B119174
S113110046490F929B460022231C8A46141C98468B
S1131110A3000EAAD058E1B200282CD0431C04D05E
S11311203070000CC0B2311CD0470134042CEFD114
S1131130281C002118223A4B0C3098470022EA85DB
S1131140AA626A620023AA853022AB543122AB54CE
S11311503222AB543322AB542868B847314B32495E
S1131160041C9847314BA400E5500020ECE6082607
S1131170089600263CE74046D847CFE7002157E7CA
S113118027234246D35C002B25D0089B0093106A8A
S1131190916A331C0EAA264EB047002800D0D3E62D
S11311A06A46118F44E780239B019E4203D1102697
S11311B0089601261CE710260896002618E708263C
S11311C00896012614E7F37E002B00D16FE78023F5
S11311D0DB0419436BE7116AC0B2164B09919847B7
S11311E0089A011C00920998D3E7124BC0B2166A00
S11311F098470EAA011C104B301C9847CDE7C046F7
S11312006D19000000040040F51E0000591F000085
S1131210A918000000200041F5180000312000004A
S1131220C53200008D19000065130000F40200208F
S1131230A9160000891F00007D16000010B58279F0
S1131240031C04681C20002A00D110BD9B8D0520BE
S1131250002BFAD1237E5A07F7D5E369002BFCD182
S1131260638BDBB29A0605D002221A4206D062834F
S11312701A20EAE7238D00200B80E6E704221A42B5
S113128002D062831E20E0E701221A4202D0628368
S11312901320DAE71022134204D0638B42201A434E
S11312A06283D2E720221342E4D0638B41201A43A5
S11312B06283CAE7F0B5474680B4071C1720002AAA
S11312C002D104BC9046F0BDFB791C20002BF8D061
S11312D03D68EB69002BFCD10223944601260022D1
S11312E098462B7E1E4207D11D4B02E0013B002B8A
S11312F034D02C7E2642F9D07C79501C80B28B5C91
S1131300012C25D01C1C021CF8793B68002802D053
S1131310F88D002813D06346013B9BB29C46002BFA
S1131320DFD12B7E9A0708D40D4B022102E0013B4A
S1131330002B13D02A7E1142F9D00020C1E7D869CE
S11313400028FCD11C85187E44460442FBD0E2E709
S11313500C5C0232240292B21C43D5E71220B0E79F
S1131360FFFF000080B588B000AF021CFB1D1A709F
S1131370FB1D1A78C04B9200D358BB61BB691B6834
S11313807B61BB69BB60BB681B68DB69002BFAD15E
S11313907B691B7EDAB23B1C12331A807B699B7D0E
S11313A0DBB21A1C3B1C1233391C123109880A4067
S11313B01A80BA693023D35CB96931228A5C13403C
S11313C0DAB23B1C10331A803B1C12331A880123F7
S11313D0134044D0BB69DB8D9BB2002B3CD0BB696E
S11313E09B6A1B78DAB23B1C1C331A80BB699B6A6C
S11313F05A1CBB699A62BB695B79012B12D1BB6928
S11314009B6A1B78DBB21B029AB23B1C1C331B8801
S113141013439AB23B1C1C331A80BB699B6A5A1C47
S1131420BB699A623B1C1C331B88DB05DB0D9AB23B
S11314307B691A85BB69DB8D9BB2013B9BB2BA69A0
S1131440191CD185002B06D17B6901221A757B6991
S113145002229A7503E002E07B6901221A753B1CA3
S113146012331A880223134011D07B6902221A75A1
S1131470BA6933230021D1543B1C10331A88012349
S1131480134004D0BB69DB68BA69101C98473B1C45
S113149012331A880423134000D1A4E0BB699B8D46
S11314A09BB2002B00D19BE07B695B8B9BB2D9B2D2
S11314B03B1C1F333F220A401A703B1C1F331A780F
S11314C00823134007D03B1C1F333A1C1F321278E9
S11314D008218A431A703B1C1F331B78002B00D150
S11314E069E03B1C1F331A78022313400CD0BA69FD
S11314F032231A21D1547B695B8B9BB202221343A2
S11315009AB27B695A834AE03B1C1F331A7804233E
S113151013400CD0BA6932231E21D1547B695B8BF2
S11315209BB2042213439AB27B695A8337E03B1C73
S11315301F331A78012313400CD0BA6932231321C4
S1131540D1547B695B8B9BB2012213439AB27B69B2
S11315505A8324E03B1C1F331A78102313400CD009
S1131560BA6932234221D1547B695B8B9BB210222E
S113157013439AB27B695A8311E03B1C1F331A78D8
S1131580202313400BD0BA6932234121D1547B6903
S11315905B8B9BB2202213439AB27B695A833B1C18
S11315A010331A88042313401DD0BB695B69BA69E0
S11315B0101C984717E07B691B8D9AB23B1C0E33B5
S11315C0D205D20D1A80BB695B6A3A1C0E321288AE
S11315D0D2B21A70BB691B69BA69101C984702E041
S11315E07B6904221A753B1C12331A88102313409A
S11315F010D07B6910221A757B6910221A763B1C65
S113160010331A881023134004D0BB69DB69BA690C
S1131610101C98473B1C12331A882023134010D007
S11316207B6920221A757B6920221A763B1C1033B1
S11316301A880823134004D0BB699B69BA69101C3B
S113164098473B1C12331A880823134010D07B6937
S113165008221A757B6908221A763B1C10331A88F3
S11316602023134004D0BB691B6ABA69101C984735
S1131670BD4608B080BDC046F4020020031C10B56E
S113168049084020994200D210BD002400E0041C07
S1131690601CC91A80B28B42F9D94020FF2CF3D8C0
S11316A014800020F0E7C046F0B5564644465F4635
S11316B04D46F0B487B0049210AA12780E1C011C97
S11316C05143041C4020B14206D907B03CBC9046AB
S11316D09946A246AB46F0BD002B54D1101C002104
S11316E0221C6F4CA0470127341C3F26834600254B
S11316F00020002100220023B446B8460AE09D429F
S113170057D0019E009F331CB94666464A46013EA7
S1131710B4462FD36646203E44D44746B740B94624
S113172066464746B740BA4692185B414746174358
S113173003975E464F463E4231D0039E1F1C321C27
S11317403B1C361BAF410096019757464E46074354
S11317500E43BA46B1469D421ED81BD05046494658
S11317609D42CCD991461E1C331C66464A46013E16
S1131770B446CFD2494B484A121A8B41120C190471
S1131780114389B202E00021012B17D0049F0020ED
S113179039809AE79442E1D982468946DEE7161CED
S11317A01F1CCCE720266746F71B4646FE40B14681
S11317B0B6E79442A5D991461E1CD5E7101C002318
S11317C0221C374CA047770F0022F600B946B246D8
S11317D003920127041C0D1C039B0026DBB2059316
S11317E0B046002200233F2618E05846191C021C6C
S11317F00B1C001BA9410090019161464046014326
S11318008C469D423BD838D0E0469D4222D81FD01A
S113181000980199021C0B1C013E21D3301C203876
S11318202FD4391C8140009192185B41391C11431B
S1131830381CB0408B4651460140844600980291C2
S11318404946084002990143CFD1101C191CCEE728
S11318509442DDD9101C191C021C0B1C013EDDD264
S1131860039A61460F4E8B1ADB08B3420FD901323B
S11318700392082AB0D1402027E79442C4D9C44631
S1131880C2E72021881B391CC1400091CCE7059890
S113189041030B4399B279E7000000000100000006
S11318A049270000FF1F000030B50F4C83B0237898
S11318B0051C002B09D0002907D162781D20551B77
S11318C06A1E95416D4228400CE06B461D700D2048
S11318D06946064B98470D20054B984701236570D0
S11318E02370002003B030BD80020020F51E0000EC
S11318F0591F0000134B98420ED0134B984209D144
S113190001291DD0002919D0022911D0032901D1A0
S11319100E4800E00020704701290DD0002909D0AD
S1131920022903D00329F5D10948F4E70948F2E76D
S11319300948F0E70948EEE70948ECE70948EAE70F
S11319400948E8E700080042000C004202001900C0
S1131950030009000300080002001800030004004B
S11319600300050002001E0002001F00044B984201
S113197004D0044BC0184342584170470020FCE790
S11319800008004200F4FFBD7047C04670B5084C23
S1131990084B2278002A07D1074D084E2A606A6056
S11319A001221E605E6022708000195070BDC04626
S11319B08402002088020020F4020020891900001B
S11319C030B583B001AC051C05490222201C054B2F
S11319D09847281C044B9847205603B030BDC04696
S11319E020330000B33200006D19000008B5024B2B
S11319F000201B68984708BD8802002008B5024BE8
S1131A0001205B68984708BD880200201723002A3C
S1131A1001D0181C7047074B8900CA58002A06D009
S1131A20121A501E82411D2352421340F1E7C8503E
S1131A300023EEE7B00200201723002901D0181C70
S1131A40704700231F2804D901228240DA60002352
S1131A50F5E7034B01228240DA600023EFE7C0463A
S1131A6000180040F8B50C4C00230C4D0C4F2370AB
S1131A700126321C29699A40114206D02A619B0032
S1131A80DB59002B00D0984723780133DBB2237055
S1131A900F2BEED9F8BDC046FC0200200018004010
S1131AA0B002002000B583B06A46802313700B781F
S1131AB053704B7893708B786946D370014B984779
S1131AC003B000BD3120000070B582B06B46012523
S1131AD00B4C0026694608205D709E701D70A0475F
S1131AE0084B802252005A6169466B4605201E70DD
S1131AF05D70A04709206946A04702B070BDC0468A
S1131B00A51A0000004400410B4B1A68002A05D1B5
S1131B10EFF31081002905D008490A701A680132D0
S1131B201A60704772B6BFF35F8F054A1170034A9B
S1131B3001211170F2E7C0469002002094020020B7
S1131B4030000020084B1A68013A1A601B68002B09
S1131B5009D1064B1B78002B05D0054B01221A70C6
S1131B60BFF35F8F62B6704790020020940200209A
S1131B703000002010B508282CD81B4B80001B58BF
S1131B809F461A4C0220236818400BD01849102293
S1131B90CB681A42FCD023685A071DD4154801E0CB
S1131BA0124B186910BD124A5023D35C00205A0707
S1131BB0F8D50E4BD868F5E780200002F2E70B4B0E
S1131BC05869EFE70A4B186A0B4B8005800FC34036
S1131BD0181CE7E70020E5E7084B00209847A368B6
S1131BE01B041B0C5843DDE724330000980200203B
S1131BF000080040006CDC0200127A00891F00001B
S1131C00F0B54F464646C0B4454BC222D2009A6056
S1131C10444B1E215A6885B08A4304210A435A6002
S1131C20414D02236A4613700024E0B26946013430
S1131C30A847182CF9D13D4B1B689B0E3F2B6CD049
S1131C409B023F2213433A4F00247B60394B3C6094
S1131C50BB603A680423324E13433B60336A40222C
S1131C60934380221343344A13403362336A02227B
S1131C7013433362314B914698476B466A465C7016
S1131C8006231370FA2301932D4B69460120147225
S1131C9054729846984701202A4CA0476A4601236B
S1131CA0694600201370A8470020274B98473B68DB
S1131CB04A4613433B60301CB2841021C368184A5F
S1131CC01942FBD0BB681020D3627B689362002367
S1131CD09384D36812491842FBD03B68D0229BB24C
S1131CE08B84CB681340D02BFBD1184A002313728A
S1131CF053729372D372012201926A465370137223
S1131D0053726946072300201370C0470020A04780
S1131D1005B00CBC90469946F0BD0D4B93E7C04608
S1131D200008004000400041F51E000024608000CF
S1131D3098020020DC053F1CFFFCFFFF551D00003E
S1131D40791D0000291E0000591F000000040040F6
S1131D503F7C0000064B082299690A4305499A61B1
S1131D6001230B7001220B781A42FCD17047C04644
S1131D7000040040000C0040F8B50D784B782D02AB
S1131D80061C071C0543002B02D08023DB021D43E5
S1131D904B7A002B02D080231B031D434C68012C7B
S1131DA00FD9671E274031D1022C06D0022300220E
S1131DB001325B009C42FBD8170280235B0337434C
S1131DC01D430B7A002B02D080239B031D43124A30
S1131DD053785BB2002BFBDB104B9847104B0E4A39
S1131DE01E7051780C4B49B20029FADB9F60191C14
S1131DF04A78094B52B2002AFADB5968802252020F
S1131E000A4015435D60074B9847F8BD80232702BD
S1131E109B0237431D43D4E7000C0040091B00001C
S1131E20080C0040451B00000C4A10B5041C5378F4
S1131E305BB2002BFBDB0A4B98470A4B07491C702B
S1131E404A78064B52B2002AFADB596880225202C1
S1131E500A435A60044B984710BDC046000C00402A
S1131E60091B0000040C0040451B00001A4AF8B589
S1131E70051C53785BB2002BFBDB184B9847184BBF
S1131E80154A1D705378144C5BB2002BFADB606862
S1131E90144BC004C00E9847114B061C1D70676894
S1131EA0114BFF02FF0F1D7063785BB2002BFBDB4D
S1131EB0094B99680D4B090A8CB29847002F03D03F
S1131EC00134E640301CF8BD012CFBD9301C211C28
S1131ED0074B9847061CF5E7000C0040091B00005F
S1131EE0040C0040751B0000080C0040451B00005A
S1131EF0A925000038B50D78114B2D02041C0543AB
S1131F009847104B10491C704888104B4A880005AC
S1131F1013404B804A880E4B000F134080224B80A5
S1131F20D2014B88084C1342FBD16188074B020253
S1131F300B4013436380ADB2064B9847658038BDB0
S1131F40091B0000020C0040000C0040FFF0FFFFE2
S1131F50FFBFFFFF451B000010B5074B041C98474B
S1131F60064B80221C70064BD20159880A435A80C2
S1131F70044B984710BDC046091B0000020C0040EA
S1131F80000C0040451B0000F0B5474680B4204CCF
S1131F90051CA0471F4B204E1D7075881F4F2D0533
S1131FA02D0FB84773785BB2002BFBDBA0471C4BAB
S1131FB0194A1D705378184C5BB2002BFADB606829
S1131FC0184BC004C00E9847154B061C1D7063685F
S1131FD0DB02DB0F9846144B1D7063785BB2002B59
S1131FE0FBDB0D4B9968090A8CB2B8474346002BBA
S1131FF005D00134E640301C04BC9046F0BD012CF1
S1132000F9D9301C211C094B9847061CF3E7C0463C
S1132010091B0000020C0040000C0040451B00009E
S1132020040C0040751B0000080C0040A9250000AA
S113203070B5C2090023002A03D14309254ADB01F4
S11320409B181F22104001228240101CCA78002ACB
S113205019D10A78802A39D08024120664022243D6
S11320604C780225261CAE4307D18C78002C29D14C
S11320708024A402224358604C78013C012C04D8EB
S1132080154C224001E0586000220504A0242D0CC8
S1132090E4052C4314439C62D024050C24062C43F1
S11320A014439C62CC78002C09D1540303D58A785C
S11320B0012A0DD058614A78013A012A00D970BD2D
S11320C09860FCE7C024E4022243D4E70022C7E777
S11320D09861F0E700440041FFFFFBFF7047C046F2
S11320E008B5054B9847054B9847054B9847054B52
S11320F09847054B984708BD011C0000C91A000009
S1132100DD200000ED000000DD200000FEE7C046F9
S11321102049214808B5814209D0204B984206D273
S1132120C243D2189208013292001D4B98471D48B1
S11321301D4B984207D2C243D21892080132920032
S113214000211A4B98471A4A1A4BFF218A439A6076
S1132150194A902302215B00D150184B3022997BFD
S1132160914320220A439A73997B0C2291430822BB
S11321700A439A73997B0322914302220A439A7376
S11321800F4B802259680A435A600E4B98470E4BF6
S11321909847FEE77033000000000020B0000020E4
S11321A0B3320000B000002034030020C532000028
S11321B00000000000ED00E0007000410048004114
S11321C00040004149320000B9230000024B0422C0
S11321D09A6110229A61704700440041024B042224
S11321E05A6110225A6170470044004108B5034BFC
S11321F05B7C002B01D0024B984708BD980000205F
S1132200D9080000024B80225200DA617047C046B0
S11322100044004190B593B000AF3B1D8022D2052D
S11322201A603B1D00225A603B1DFF221A813B1D90
S113223000229A723B1D0022DA723B1D9622920103
S11322401A623A1D24230121D1543A1D2523012168
S1132250D1543A1D26230021D1543A1D27230021AD
S1132260D1543B1D00229A623B1D88225203DA603E
S11322703A1D2C230021D1543A1D2D230021D15481
S11322803B1D00221A633B1D00225A633B1D0022A2
S11322909A633B1D0022DA633B1D00225A613B1DF9
S11322A000221A823B1D0022DA763B1D00221A7698
S11322B03B1D00221A773B1D00225A763B1D132238
S11322C09A763B1D00225A773B1DC4229203DA60A2
S11322D03B1D012252421A633B1D012252425A63A2
S11322E03B1D1C4A9A633B1D1B4ADA631B4B5A690C
S11322F03B1D1A623B1D00221A823B1C47330222FB
S11323001A703C1C47341649164A3B1D081C111C04
S11323101A1C154B9847031C2370114B1C68201C76
S1132320124B9847031CDAB21F231340DBB201227D
S1132330111C99400B1C1A1C0D4B1A60084B1B688E
S1132340DB69002BFAD12368022213432360BD46C4
S113235013B090BD0200180002001900980000207C
S113236000030020000C0042210F0000C1190000EE
S113237000E100E038B50C4D0C4B2C68201C98474C
S11323801F23184001238340094A181C8023D0507E
S11323902A68D369002BFCD123680222934323606B
S11323A0044B984738BDC04600030020C119000003
S11323B000E100E01522000090B58BB000AF634B44
S11323C09847634B98473B1C00221A703B1C012220
S11323D05A703B1C00229A703B1C01221A703B1C51
S11323E00820191C5B4B98475B4B802252005A61B2
S11323F03B1C0220191C574B98473B1C0420191CFA
S1132400544B9847544B04225A61534B10225A613F
S11324103B1D181C514B98473B1D05221A603B1D60
S113242001221A723B1D00225A603B1D0222DA72FD
S11324303B1D01229A723B1D0520191C484B9847ED
S11324403B1D09221A603B1D00225A603B1D0720D8
S1132450191C434B9847434B181C07210022424B3D
S1132460984707200021414B98473B1C27331F22E4
S11324701A703F4B181C3F4B9847021C3B1C2633D9
S11324801A703D4B01221A70BFF35F8F62B63B494D
S113249001223B4B89181A1C1023081C111C1A1CFE
S11324A0384B984700233B620023FB613B1C1233EB
S11324B000221A803B1C263301221A70324B181C4E
S11324C0324B9847021C3B1C26331A70304B181CA5
S11324D0304B98473B1C1B3300221A703B1C1A33A9
S11324E000221A703B1C1B331B78002B06D13B1CAB
S11324F01A331B78DB0118481B1800E0002308225C
S11325000121081C9040021C7A617A699A61224B6D
S113251098473C1C2734214A3B1C1233101C191CBD
S11325201F4B9847031C23703B1C27331B78002B3D
S11325300BD13B1C12331B883B1C12331B889BB2F0
S1132540DBB2181C174B9847E3E7E2E7E1200000F1
S113255015220000A51A0000004400416501000096
S113256079010000ED2100000D1A0000391A000065
S113257050000020BD0B0000300000209800002017
S11325800CA08000B332000044000020C907000002
S113259034000020150F0000D908000000030020BB
S11325A03D120000C90D0000002934D0012300228F
S11325B010B488422CD301242407A14204D28142BE
S11325C002D209011B01F8E7E400A14204D28142CE
S11325D002D249005B00F8E7884201D3401A1A434B
S11325E04C08A04202D3001B5C0822438C08A04282
S11325F002D3001B9C082243CC08A04202D3001B38
S1132600DC082243002803D01B0901D00909E3E7B1
S1132610101C10BC7047002801D00020C04307B430
S1132620024802A14018029003BDC046D900000030
S11326300029F0D003B5FFF7B9FF0EBC4243891A55
S11326401847C046002941D010B4041C4C40A4468D
S113265001230022002900D54942002800D5404228
S113266088422CD301242407A14204D2814202D2FD
S113267009011B01F8E7E400A14204D2814202D21D
S113268049005B00F8E7884201D3401A1A434C081A
S1132690A04202D3001B5C0822438C08A04202D350
S11326A0001B9C082243CC08A04202D3001BDC0878
S11326B02243002803D01B0901D00909E3E7101CB9
S11326C06446002C00D5404210BC7047002806D058
S11326D003DB0020C043400801E08020000607B46B
S11326E0024802A14018029003BDC0461900000030
S11326F00029EBD003B5FFF7A7FF0EBC4243891AAC
S11327001847C0467047C046002B11D1002A0FD18C
S1132710002900D1002802D00021C943081C07B4B5
S1132720024802A14018029003BDC046D9FFFFFF32
S113273003B4684601B5029800F044F8019B9E4634
S113274002B00CBC7047C0469C460304F0B51B0C99
S113275017043F0C150C1E1C041C000C7E436B4319
S113276047434543FB18300C1818874202D980238D
S11327705B02ED18030CED1863465C434A433604D0
S1132780360CA118000480194919F0BDF0B583B0C6
S1132790161C1F1C0090019100F0B8F9041C0D1CBC
S11327A0221C2B1C301C391CFFF7CEFF009A019B06
S11327B0121A8B410899201C0A604B60291C03B033
S11327C0F0BDC046F0B583B0141C1D1C00900191EF
S11327D000F078FB221C2B1C061C0F1CFFF7B4FF17
S11327E0009A019B121A8B410899301C0A604B60B5
S11327F0391C03B0F0BDC046F8B543024400C50F10
S11328004E024800240E2A1C9B09000EC90FB6096B
S11328108D425BD0221A002A00DC89E000281DD1F9
S1132820002E00D075E0580704D00F221A40042A65
S113283000D004338021C90419402A1C00293AD04D
S11328400134FF2C00D17FE09B015B0A5B02E4B200
S1132850E405580AD20720431043F8BDFF2CE2D008
S11328608021C9040E431B2A00DD2DE1311C2020E8
S1132870D140821A9640721E96410E439B1B58010A
S1132880D1D59B019F09381C00F022F9421F9740C3
S113289094425BDC141B1F231B1B3A1C9F40611CCE
S11328A03B1CCA405F1EBB4113430024BBE7131EFD
S11328B0B9D100230022DB08FF2C04D1002B43D024
S11328C08020C00303435B025B0ABFE7211A00298F
S11328D040DD002823D0FF2CA5D08020C00406436F
S11328E01B2900DDEEE0301C2027C840791A8E40F9
S11328F0711E8E4106439B19590100D493E701349C
S1132900FF2C55D0714901221A400B405B08134338
S113291089E7013A002AB1D0FF2CA4D183E7002E25
S113292000D180E701390029E5D0FF2CD8D17AE71E
S1132930002A1BD1621CD2B2012A4BDD9F1B7A01F3
S113294023D5F71A0D1C9EE700237FE75F4BA41ADB
S11329503B4068E7002946D1611CC8B2012829DD43
S1132960FF2924D0F3185B080C1C5CE7002C13D05F
S1132970FF2818D08024E404524223431B2A4DDD4F
S11329800123F31A041C0D1C79E7002F00D07AE709
S11329900023002200248EE7002B3BD0D243002AE0
S11329A0EFD0FF28EAD1331CFF240D1C3BE7FF24A2
S11329B0002380E7002C5CD1002B00D180E0002EA6
S11329C000D130E79B19580100D42CE73F4A012479
S11329D0134028E7002C15D1002B40D1002E63D0E2
S11329E0331C0D1C1FE7002C21D1002B54D0C943EC
S11329F0002904D0FF284CD01B2958DD01239B1942
S1132A00041C79E7002B19D1002E48D0331C0D1C6F
S1132A10FF2408E7331C041C0D1C04E71C1C2025A0
S1132A20D440AA1A93405A1E93412343A9E7FF288E
S1132A302FD08024E40449422343DDE7FF24002E01
S1132A4000D1F0E68022DB08D203134204D0F6085A
S1132A50164201D1331C0D1CDB00FF24E3E6002EDB
S1132A6000D1E0E69A1B500100D420E7F31A0D1CB4
S1132A70D9E6002B0DD0FF24002E00D1D3E680220E
S1132A80DB08D2031342E7D0F6081642E4D1331C24
S1132A90E2E7331CFF24C6E6331C041CC3E6802390
S1132AA000229B04FF2406E7231C002203E71C1CCE
S1132AB02027CC40791A8B40591E8B4123439EE733
S1132AC0331CB0E6012616E70126D7E6FFFFFFFB1D
S1132AD01C2101231B04984201D3000C10391B0A4A
S1132AE0984201D3000A08391B09984201D300090E
S1132AF0043902A2105C40187047C0460403020265
S1132B00010101010000000000000000F0B544468E
S1132B105F4656464D46F0B41C1C85B0002900DAC9
S1132B20DBE00F1C0021061C8A46101C191C002C1B
S1132B3000DAC9E00196009089468046002951D107
S1132B40B84200D871E0FFF7C3FF002809D0202362
S1132B504546311C1B1A85408740D940A8460F437F
S1132B6086404246150C13041B0C291C381C9B463A
S1132B70FFF71AFD5B464343041C291C381C994685
S1132B80FFF756FD330C08041843814509D9404426
S1132B90631E804500D978E1814500D875E1023C87
S1132BA040444946411A8946081C291CFFF7FCFC8D
S1132BB05A464243071C291C48469346FFF738FDF2
S1132BC036040904360C0E43B34507D946447B1E2C
S1132BD0B04502D8023FB34500D81F1C2404274344
S1132BE0002403E0B94211D9002400275246381CBE
S1132BF0211C002A03D03B1C00215842A14105B0EE
S1132C003CBC90469946A246AB46F0BD081CFFF773
S1132C105FFF041E00D0BFE0B94500D242E1019D30
S1132C200099071C8D424741E0E7002804D10120A8
S1132C300021FFF7B9FC80464046FFF749FF002812
S1132C4052D1414644460B043C1B1B0CA3460D0CBD
S1132C5000930124291C5846FFF7A6FC009F8146D7
S1132C604743291C5846FFF7E3FC330C0904194376
S1132C708F4208D94B464144013B884502D88F42D4
S1132C8000D91AE19946C91B8B46081C291CFFF779
S1132C908BFC009B291C4343071C58460093FFF7F9
S1132CA0C7FC3604009D0904360C0E43B54207D90F
S1132CB046447B1EB04502D8023FB54200D81F1CD3
S1132CC049460E04374391E75246D243031C0C1C79
S1132CD0924600215842A1412CE7002746428F41E9
S1132CE0012149428A4620E720231B1A4246351C0B
S1132CF082403C1CDD40DC4087402B1C150C3B43D0
S1132D00291C8640201C009317049046FFF74CFCB6
S1132D103F0C011C794381468B46201C291CFFF77C
S1132D2087FC009C0904230C19438B450CD94B46A2
S1132D304144013B884500D9BDE08B4500D8BAE049
S1132D4002225242914441445C460C1B201C291C23
S1132D500194FFF729FC391C4143041C8B4601985C
S1132D60291CFFF765FC009A090413041B0C194382
S1132D708B4509D94144631E884500D997E08B45AA
S1132D8000D894E0023C41445B46CB1A49469B463A
S1132D900B041C4300975DE7009D20231B1A4A4641
S1132DA08240DD401543391C009AD9408240884650
S1132DB0311C0092D9403A1C82400B1C13430193EE
S1132DC02F0C2B041B0C391C40460293FFF7ECFB21
S1132DD0029A81464243391C40469346FFF728FC39
S1132DE0019A0904130C19438B450AD94B46491916
S1132DF0013B8D425DD88B455BD902235B429944EC
S1132E0049195A468A1A101C391C0392FFF7CCFB45
S1132E10029B80464343391C03989B46FFF708FCFA
S1132E20019A090413041B0C19438B450AD9434620
S1132E304919013B8D4238D88B4536D902235B4270
S1132E40984449195D464D1BAB464946009D0F0405
S1132E50424617432A04120C3B042D0C1B0C380C5D
S1132E60111C594342436B436843D3180D0C5B193F
S1132E708C469A4202D98022520280181D0C4019B5
S1132E8083450CD303D00024B0E61C1C89E66546B8
S1132E902A041B04120C9B18A6409E42F3D2013F45
S1132EA00024A3E600240127A0E69846CAE71C1CD8
S1132EB06AE79946A5E7994646E7022252429144B9
S1132EC04144E0E6F0B55F4656464D464446F0B40C
S1132ED00D1C85B0061C92469846029001910392FF
S1132EE01F1C141C8346A946002B59D1AA4269D938
S1132EF0101CFFF7EDFD00280AD020231B1A311CFB
S1132F00D94085400B1C2B43864084409946B346E8
S1132F10250C23041B0C291C48469846FFF744FB48
S1132F204646071C4643291C4846FFF781FB5A4680
S1132F300904130C19438E4209D909197B1E8C42CA
S1132F4000D957E18E4200D854E1023F0919891B88
S1132F508946081C291CFFF727FB43464343061CEC
S1132F60291C48469846FFF763FB5A461304090494
S1132F701B0C1943884508D90919731E8C4200D9C2
S1132F8036E1023E884500D832E138043043002758
S1132F90391C05B03CBC90469946A246AB46F0BDF0
S1132FA0019A934262D8181CFFF792FD041E60D167
S1132FB0019B9F4200D22CE1029F03998F42604102
S1132FC00027E5E7002A04D101200021FFF7ECFAED
S1132FD0041C201CFFF77CFD002800D0B9E023046A
S1132FE02D1B1B0CA946260C98460127311C48466C
S1132FF0FFF7DAFA41464143051C8A464846311C2C
S1133000FFF716FB5A460804130C1843824507D9E8
S113301000196B1E844202D8824500D910E11D1CA0
S11330205346C31A181C311C9A46FFF7BDFA414691
S11330304143814688465046311CFFF7F9FA5A4607
S1133040130409041B0C194388450BD94B46091971
S1133050013B8C4200D9CFE0884500D8CCE0022364
S11330605B42994428044946084391E7002700201D
S11330708EE720231B1A424657468240DF401743FF
S1133080524682400192321CDA40291CD9408540C4
S1133090131C2B4302933D0C3B041B0C8846081C59
S11330A0291C9A46FFF780FA534643438146291C5C
S11330B040469B46FFF7BCFA029A0904130C1943D5
S11330C08B4506D94B46C919013B8F4200D8ABE06A
S11330D099465A468A1A101C291C9346FFF764FA2B
S11330E053464343291C804658469A46FFF7A0FAA4
S11330F0029A090415042D0C29438A4506D943462E
S1133100C919013B8F4200D886E098465746CF1B29
S1133110BA464946019F0804424610433D042D0C1B
S113312003043F0C1B0C020C291C594355437B43DD
S11331307A43EB180F0CDB198C469D4202D9802789
S11331407F02D2191D0C521992455FD356D0002725
S11331501EE720231B1A311C2F1CD940DF40854059
S11331600B1C84402B4386400193B3462304260C56
S11331701B0C381C311C9846FFF716FA4246424392
S1133180051C311C381C9146FFF752FA019F0904B3
S11331903B0C1943894507D909196B1E8C424DD83C
S11331A089454BD9023D09194A468A1A101C311C1B
S11331B09246FFF7F9F943464343071C311C504636
S11331C09946FFF735FA019A090413041B0C1943B5
S11331D0894507D909197B1E8C422DD889452BD9DD
S11331E0023F09194B46CB1A2D0499462F43FDE69D
S11331F01E1CCAE61F1CAAE6994633E761460A0468
S11332001B04120C9B18A6409E42A0D20138002732
S1133210BEE600270120BBE68A4500D875E70223F5
S11332205B429844C91971E78B4500D850E70223E3
S11332305B429944C9194CE71F1CD3E71D1CB3E733
S1133240023D0019ECE6C04670B50E4B0E4D00244D
S1133250ED1AAD101E1CAC4204D0A300F3589847DD
S11332600134F8E700F070F8084B094D0024ED1A1A
S1133270AD101E1CAC4204D0A300F358984701348F
S1133280F8E770BD54330000543300005433000099
S11332905833000030B50023934208D0C55C013395
S11332A0CC18013C2478A542F6D0281B00E000206D
S11332B030BD10B50023934203D0CC5CC454013319
S11332C0F9E710BD031C8218934202D01970013330
S11332D0FAE77047F8090000FE090000C60900007B
S11332E0280A0000C60900003A0A0000C6090000C6
S11332F0720A0000C6090000C6090000C6090000E1
S1133300C6090000C6090000C6090000C60900007D
S11333109C0A0000D40A00004A0B0000DA090000ED
S1133320090A0000A01B0000D41B0000D41B0000ED
S1133330B81B0000B81B0000BE1B0000C41B00002B
S1133340821B0000A61B0000F8B5C046F8BC08BCF0
S11333509E467047B5000000F8B5C046F8BC08BCEE
S10B33609E4670478D00000039
S10B3368A4F7FF7F010000003F
S1133370BFF35F8F01380028FAD17047CDCCCC3D24
S1133380CDCC4C3E9A99993ECDCCCC3E0100020066
S113339003000400050006000700080009000000FF
S11333A001000000DD210000CD210000B50900006E
S11333B0000300200000000029000000500000204D
S11333C000080042000000000000000000000000AF
S11333D090010000900100000000000000000000C7
S11333E000000000FFFFFFFF0000000002000E00CD
S11333F002000F00000000000000000000000000B8
S1133400D7000000000000000000000000000000E1
S11334100000000000000000000000000008070099
S9032111CA
