:020000040040BA
:1080000048800020E9324100E5324100113541004D
:1080100015354100193541001D35410000000000B3
:108020000000000000000000000000005DE64000CD
:10803000E53241000000000015E740002135410015
:10804000E5324100E5324100E5324100E5324100D0
:1080500049FD4000E5324100E532410000000000EA
:10806000551141009D11410000000000E930410020
:10807000FD30410000000000ED1141003D124100C3
:108080000000000000000000E532410001834000D4
:1080900011834000E5324100E5324100E532410004
:1080A000E5324100E5324100000000000000000020
:1080B00000000000E5324100E5324100E5324100B8
:1080C000E5324100E5324100E532410010B5054C92
:1080D000237833B9044B13B10448AFF30080012374
:1080E000237010BDAC0F0020000000009CF2410086
:1080F00008B5064B1BB106480649AFF30080064899
:10810000036813B1054B03B1984708BD0000000098
:108110009CF24100B00F00209CF2410000000000E2
:108120002DE9F04F0701DFF8D4816B4B58F8075069
:1081300083B006460024284601949847674B824640
:108140002846984700EA0A0A1AF4005908EB070380
:1081500079D11AF4805F2CD11AF4507F09D1B9F18A
:10816000000F06D1019B0BB15D4B984703B0BDE8F2
:10817000F08F47445B4B78685B4C40F20221984794
:108180001AF4807F04BF02232B6028464FF400516D
:10819000A04728464FF48051A047544B03EBC60636
:1081A00070680028DED000210B4601AA504CA04781
:1081B000D8E708EB0703022158684A4B984728463E
:1081C0004FF48051484B9847002402E00134631C6F
:1081D00002D02B6A9A07F9D5464BF200991853F84A
:1081E0003600496802232B6001442B6B01F8023CE6
:1081F00002E00134631C0FD02B6A9807F9D5601C8C
:108200000AD02B6B01F8013C002402E00134631C0E
:108210005ED02B6AD907F9D5344B1A44506828B17F
:1082200000210B4601AADFF8C8C0E047013493D013
:10823000314B53F8360000288ED000210B4601AA9E
:108240002B4CA04788E75868264B4FF4007198479D
:1082500028464FF40051244B984702E00134631C38
:1082600033D02B6A5A07F9D54FF00009214BF200A1
:10827000991853F836004B6802210344296013F81B
:10828000013C6B6302E00134611C1BD02B6AD807F0
:10829000F9D5DFF858B05A44506828B100210B4690
:1082A00001AADFF84CC0E04701343FF452AF5BF85D
:1082B000360000283FF44DAF00210B4601AA0C4CBC
:1082C000A04746E74FF00109E3E74FF00109CDE78A
:1082D0004FF00109A0E700BF018440000584400081
:1082E000D5E64000C5BA4000F9834000E80F002001
:1082F000D9EA4000D80F0020C80F002054D1410017
:1083000008B50020014B984708BD00BF21814000FF
:1083100008B50120014B984708BD00BF21814000EE
:1083200008B5A1F10E03012B02D84FF0FF3008BDB4
:10833000120222F07F4222F0FF0242F0B442C9B2A0
:108340001143014B984708BD6D00002010B582B065
:10835000802928BF802103460091054C054814213F
:108360001522A047002814BF1020002002B010BD25
:1083700001000020000A0E40802908B50A4601D9F4
:10838000112008BD01460E4B0E48920098470D483B
:108390000D494FF4800304331A18A2F580028B4272
:1083A00052F8042C43F8042CF5D1084B084812214C
:1083B00000229847002814BF1020002008BD00BFED
:1083C00025414100F80F00200002400021834000B9
:1083D000000A0E4008B51321024B034800229847BB
:1083E00008BD00BF21834000000A0E40014B03601E
:1083F000704700BF050000A58162036A704700BF97
:10840000006A7047C06A704738B5062810D8DFE8A0
:1084100000F010161C222B3704001B4D1B4C287833
:108420000121A0470121A878A04768780121A04731
:1084300038BD154A154B10780021984738BD124AAF
:10844000124B50780021984738BD0F4A0F4B907857
:108450000021984738BD0C4D0C4C28780021A047CE
:10846000A8780021A04738BD074D084C2878002186
:10847000A047A8780021A04768780021A04738BD10
:10848000014D024CF5E700BFB8390020AD074100AF
:108490002DE9F043614C2178012983B01ED0604B57
:1084A0001B782BB35F4C2378013BDBB2042B23708A
:1084B00000F08680032B77D0022B51D05A4E5B4DB3
:1084C00030780121A84701217078A847B0780121B0
:1084D000A8470523237003B0BDE8F083544B554CE7
:1084E000186800231A460093A04703B0BDE8F08344
:1084F000514B1B78052B0BD8DFE803F0373D434980
:108500005103494E4D4DB078A8477078A84721785F
:108510000129E0D9434D2B78002BDCD0484F3A7825
:10852000002A52D15E1EF6B2012E2E70D3D1DFF892
:108530000081444BD8F800009847002863D1DFF849
:10854000F490002300934FF4FA72D8F8000002214F
:10855000C84722785200013201232A703B70BAE7E3
:10856000394A3A4B10789847B5E72F4A334B107881
:1085700098472178CCE72C4A304B5078984721789F
:10858000C6E7294A2D4B907898472178C0E7264EB8
:108590002A4D3078A847B078A8472178B8E7224E0E
:1085A000264D3078A847AEE71F4D204C2878012192
:1085B000A04768780121A047A8780121A0478AE751
:1085C0001D4A224B1078984785E7DFF864801D4BE1
:1085D000D8F80000984760B9DFF858900026334675
:1085E000D8F8000000960221FA22C8473E702B7886
:1085F00098E70022D8F80000009213460121DFF826
:108600003490C847EAE70022D8F8000000923146CB
:108610001346DFF82090C84793E700BFB439002025
:10862000F9110020F8110020B8390020AD074100F1
:10863000B039002049F94000AC390020550841000C
:10864000FA110020C1FB4000BB3900200984400022
:10865000F0B50C4C03780C4A47788678237083B0C9
:108660000A4D0092FA210122002309486770A67082
:10867000A847084A0346D0F1010038BF0020136024
:1086800003B0F0BDB839002091844000FDF84000EF
:1086900074D14100B03900202DE9F0432E4FDFF8AE
:1086A000E09083B0804638680C46C84700284AD11D
:1086B0002A4E2B4B2B4D3078012C94BF00226200A8
:1086C00001211A70A84770780121A847B0780121CC
:1086D000A8472548DFF8ACE02449254A80F8008007
:1086E000244B14704046002506268EF800500E706C
:1086F0009847012C386811D1174CC84718B9002089
:1087000003B0BDE8F083002320681B4C00931A4699
:108710000121A047002003B0BDE8F083B045EBD0B5
:108720000221FA222B46144C0095A047134B3E68B9
:10873000984729460246009530462B46A047002020
:1087400003B0BDE8F083002238680B4D0092134659
:108750000121A847ACE700BFB0390020B83900209C
:10876000F8110020AD074100AC390020BB390020D2
:10877000B43900200984400049F94000A1F04000CC
:10878000C1FB4000F911002010B5074A074B1468DF
:1087900082B0984700230246194620460093044CB5
:1087A000A04702B010BD00BFB0390020A1F04000CA
:1087B00049F9400080B5B6B000AF78603960002359
:1087C000C7F8D430384B1B681A4607F10803104627
:1087D00019460A22354B9847C7F8D000D7F8D03051
:1087E0005A1CC7F8D02007F1D80213442C2203F8F2
:1087F000D02CD7F8D030C7F8D43007F10802D7F81A
:10880000D4301344386819460A22284B9847C7F8D1
:10881000D000D7F8D020D7F8D430134407F1D802CD
:1088200013442C2203F8D02CD7F8D020D7F8D4301A
:1088300013440133C7F8D43007F10802D7F8D43015
:108840001A44D7F8D430C3F1C803104679681A46E1
:10885000174B984707F108031846164B9847C7F877
:10886000D400D7F8D430002B1AD0134B93F89F3094
:10887000002B0ED0114B1B68002B0AD00F4B1B682E
:108880001A6807F1080310461946D7F8D4200C4B94
:10889000984707F108031846D7F8D410094B9847B2
:1088A000D837BD4680BD00BF74390020D5FE4000DA
:1088B000594A4100E1484100AC010020FC11002070
:1088C0007D1041006D92400080B5B6B000AF786079
:1088D0000023C7F8D430274B1B681A4607F108035A
:1088E000104619460A22244B9847C7F8D000D7F8FB
:1088F000D0305A1CC7F8D02007F1D80213442C22DC
:1089000003F8D02CD7F8D03007F108021A44D7F872
:10891000D030C3F1C803104679681A46174B984700
:1089200007F108031846164B9847C7F8D400D7F844
:10893000D430002B1AD0134B93F89F30002B0ED05D
:10894000114B1B68002B0AD00F4B1B681A6807F1EC
:10895000080310461946D7F8D4200C4B984707F166
:1089600008031846D7F8D410094B9847D837BD46A6
:1089700080BD00BF74390020D5FE4000594A410037
:10898000E1484100AC010020FC1100207D104100B5
:108990006D9240002DE9F04F834C844B844EDFF8FC
:1089A0007C82DFF87C92834F834DA7B08246002102
:1089B0000DA864229847C4F800A0534602E00A209C
:1089C000A847236818680DA96422B0470028F6D18B
:1089D0000DA87A49DFF844A26422C04710B30DA85D
:1089E00077496422D047002848D076490DA86422F0
:1089F000D0470146C0B10DA873496422D047002872
:108A00003FD00DA871490722D04798B99DF83B3057
:108A1000312B78D06E4B83F89E0023686D4918681F
:108A2000B847CCE701460220C8472368694918685F
:108A3000B847C4E70DA868490922D04783460DA866
:108A4000BBF1000F3CD1DFF8B4C1E047A0F109034E
:108A5000032B0ED926AB03440DF13D0103F866BC90
:108A60005E485F4B07229847DFF894C1E047002833
:108A7000D3D023685B491868B847A0E701460120B6
:108A8000D2E7DFF8A0C1E0470238042865D8DFE864
:108A900000F0120D08030800236853491868B8470E
:108AA0008DE7236851491868B84788E7236850491B
:108AB0001868B84783E7236841491868B8477EE7D4
:108AC0004C490922D04700284CD00DA84A49092218
:108AD000D047E8B90DA8494988470928C9D026AA2E
:108AE0001044002200F8662C9DF83D30302B00F039
:108AF000E280312BBDD13949414A01230B619047B6
:108B00000028B6D189E7324A012382F89E3084E7F3
:108B10000DA83C490D22D04700282CD1374B0DA879
:108B20009847A0F10E034D2B8246A2D826AA0244F4
:108B30000023194602F8663CDFF870C032484F2225
:108B4000E0470DF14101AAF10D02254B2E4898474F
:108B5000236820491868B84731E723682B4918680B
:108B6000B8472CE723681D491868B8472368284987
:108B70001868B84723E70DA82649DFF8A0A00D2202
:108B8000C047002800F0A0800DA823490722D04745
:108B9000002849D19DF83B30312B00F0A2800C4ACF
:108BA00082F89F0039E700BFFC11002059424100C4
:108BB000310F410049104100EDF2400080D14100E9
:108BC000A0D4410094D141009CD14100CCD14100BE
:108BD000AC0100208CD14100D4D14100183E0020CE
:108BE000594A4100E0D14100BCD14100B0D141001F
:108BF000A8D14100E8D14100FCD14100E148410049
:108C0000C1FF400008D24100E6010020C4D141006C
:108C1000F4D1410018D2410030D24100A5494100B1
:108C2000999A4000299C40000DA87F496422D047B2
:108C3000002800F0A7800DA87C496422D047834615
:108C4000002800F0C3800DA879496422D0478346EC
:108C5000002800F0A6800DA876490722D0470028FA
:108C600044D10DA87449884717287FF6A8AE08AAF2
:108C700009AB009201930AA90BAA0CAB02910392D3
:108C800004930DF13B006D49DFF830C206AA07AB33
:108C9000E04707287FF4EDAE0AA90EC9DFF820C22D
:108CA0006748E0470998DFF81CC206A90EC9009082
:108CB0006348E047B1E6634BDFF8B8C11A61E047AB
:108CC00000287FF4D6AEA8E65F4A604BDFF8F8C113
:108CD0005F484FF4FA71E04723685D491868B84768
:108CE0006DE65C49012381F89F3096E60DA85A494C
:108CF0000322D047002800F06E810DA85749642256
:108D0000D047002800F05C810DA855496422D04767
:108D10008346002800F0DC800DA852496422D04729
:108D200000287CD00DA85049DFF8A0A16422C047DC
:108D300000286FD00DA84D490622D047002800F02A
:108D40006D810DA84A490C22D047002840F083814C
:108D50009DF84030302B00F07681DFF8E8C00D231D
:108D60000C228CF814300E238CF816208CF8153059
:108D700040498847236800283FF450AE3E491868B0
:108D8000B8471CE623683D491868B8473C4B3D4846
:108D90009847DFF8ECC03C48E04739493B488847F2
:108DA0000DE6DFF8F0C03A48E0473A493A488847CC
:108DB000384A3A4890473A4B9847236839491868E7
:108DC000B847DFF8ECC08CF800B0F8E52D4A364B18
:108DD00092F8200059469847DFF8A8C0324A9CF81C
:108DE0009800594690473220A847264BDFF8B8C074
:108DF00093F820000121E04722492B4A91F898007E
:108E000001219047236829491868B847284B83F8FF
:108E100000B0D4E50F4A012382F89D30CFE5254804
:108E200025498847CBE500BF38D2410054D24100E4
:108E30006CD241009CD24100E1484100A4D24100E3
:108E400060140E40183E002028D241007C220020F1
:108E500068120020AC010020BCD2410044D3410084
:108E600054D341009CD44100A8D44100B8D441005F
:108E7000E4D44100C1FF4000E0D1410044D24100B0
:108E8000992B410064020020A0020020DC02002097
:108E900088010020CD0E41006C0100203C01002023
:108EA000850741007CD24100AD07410060D24100FE
:108EB0000012002000140E40ED834000DD4441000C
:108EC00041BB40004DBC400029444100A549410040
:108ED000236875491868DFF890A2B847734A744848
:108EE00059469047DAF81C10704B72489847DFF8E3
:108EF0007CC2DAF81400E0476C4A01466E4890479D
:108F00000BF1010B0120A847BBF1030F0AF13C0A4A
:108F1000E4D1236869491868DFF854A2B847634B65
:108F2000DAF800106648DFF84CB29847DFF87CC1E9
:108F3000DAF81C106348E047DAF820105B4A624810
:108F400090470120A847594BDAF828105F48984706
:108F5000DAF83410DFF854C15D48E047DAF824103D
:108F6000524A5C4890470120A8475B4B0AF1380AF7
:108F70009A45D4D1DFF800C24C4ADCF800105748BB
:108F800090470120D847564BDFF820C11968554853
:108F9000E0475549554A08689047444B01465448B4
:108FA0009847DFF8D8C1E047404A0146514890470A
:108FB0005148524B9847DFF8F4C04F48E047FEE471
:108FC0004F4B504898475048DFF834C1E0474F486E
:108FD0004B498847F3E44E49344A4E4890474E4A3D
:108FE000324B4E494E4898474E49DFF8C0C04E4874
:108FF000E0470AA90BAA0CAB4C48DFF884C1E04754
:109000000C990A9A00910B9B4949DFF878C14948AD
:10901000E0474849254A48489047D0E40DF13A01D5
:109020000A22464B46489847DFF85CC12368454909
:1090300040F60D22ACF800201868B8472368404974
:109040001868B847BBE440490E230C220B750D236A
:109050008A754B758CE60DA83C490C22D04770B13F
:109060000DA83B490A22D047824600287FF4A7ACCE
:109070003848394B984751460920C8479FE410208B
:109080000CA9364A90479DF83030012B07D0002BB1
:109090007FF495AC236832491868B8478FE4236899
:1090A00030491868B8478AE460D34100A53B4100C5
:1090B00074D341007CD3410094D3410030D54100AA
:1090C000ACD34100B8D34100CCD34100E4D341003C
:1090D000FCD3410020D44100140500203CD44100C1
:1090E0008438002058D441007838002089EC4000B2
:1090F00074D441008CD4410068120020E5F3400094
:10910000AD1041003C010020540100206C01002002
:10911000D8D24100C0D2410000D34100F4D2410076
:10912000E0D24100B40100200CD3410060140E4095
:1091300020D341000412002030D34100594A41009D
:109140004C020020C0D44100183E0020F4D441005D
:1091500014D5410020D54100C988400025084100B0
:109160000CD5410004D5410064020020190F4100D4
:109170001C030020EDF240006C200020C1F04000F4
:10918000E5BA4000914441005602002010B5044A5F
:10919000044B14680A4601462068984710BD00BF7A
:1091A000FC1100207D1041002DE9F041DFF8B8806E
:1091B000244C0D46002107460B46D8F80000052236
:1091C000A0470128044605D01F48204B984701209E
:1091D000BDE8F0811E4E33682B44B3F5406F1CD2BE
:1091E0001C4B1C6934BB5DB11B48234631683A5D9A
:1091F00001330C4482F08002AB4202551C46F5D18B
:109200003368D8F80000154C00211D440A460B466F
:109210003560A0470020BDE8F08100210B460A46DA
:10922000D8F800000D4DA8470D48084B9847204638
:10923000BDE8F081326808480A4B394610442A4696
:109240009847DDE735EB400070D64100C988400003
:1092500074200020183E00201C23002079E94000E3
:1092600094D641002541410060140020F8B5154C0A
:10927000236807460E463BB10021184605220B46DF
:10928000114DA847012801D00120F8BD0F4D2A68D3
:109290003244B2F5007F08D30546002120680C4C0B
:1092A0000A460B46A0472846F8BD2A6809480A4BDB
:1092B00010443946324698472B681E442E600025DC
:1092C000EBE700BF6014002035EB40001C310020AC
:1092D00079E940007C200020254141002DE9F04F34
:1092E000814D824E824F95E80F00ADF2345D29AC7E
:1092F00007C424F8023B00211B0C87220DF1B300A8
:1093000098352370B04795E80F004FAC07C4002193
:1093100088220DF5A5702380B0470021962275A8FC
:10932000B04700219BA89922B0473878C0B20021ED
:10933000012806910BD06F4C6F4D20680B466422BC
:10934000A847012807D06D486D4B984701200DF2C2
:10935000345DBDE8F08F96216A4A6B4B6B4D4FA888
:10936000A84707A84FA96A4B9847052800F09C809A
:109370000DF1A60300939621664ADFF8E881664E58
:109380004FAB75A8A84775A9962229A8C04729A957
:10939000C2A81322B04700285ED1C59B002B6FD115
:1093A000012206920DF140095C4B5D49DFF8B8A13E
:1093B000DFF8B8B1484698470021C2A8D0474846D0
:1093C000D8474946024605ABC2A8DFF8A4C1E0472A
:1093D00058B1012500212068524C0A460B46A0478F
:1093E00028460DF2345DBDE8F08F4F4BC2A8984778
:1093F0004E4B4F4A1B69002B36D102F13201069BBE
:109400000293009201914FAB4A484B4A9621A847DC
:109410004A4D484928461222B047064600BB4848F4
:10942000DFF8DC90C847434996229BA8C0479BA819
:10943000D847444B9BAA02440DF51B7E19889B78A4
:109440002EF8001070469370C84728463546C1680C
:10945000D04701233B70BDE7294E3B48B047B8E7F2
:109460003A48274B9847B4E7069B029302F1320132
:10947000009201914FAB364A2E489621A847C7E784
:109480000DF140094946C2A8642204ABDFF8E4C0EC
:10949000E04700289DD106AA48462E492E4B984702
:1094A000069A013206927FE74FA82C4B9847002876
:1094B0003FF45EAF2A48124EB0470DF1A6024FAB03
:1094C00000929621134A75A8A84775A99622254BA4
:1094D00029A8984729A9C2A813220F4B984700280A
:1094E0003FF477AFB9E700BF40D541005942410092
:1094F000182300206414002035EB40005CD74100A5
:10950000C9884000B0D64100E6010020294441004E
:109510008DDE4000B8D6410099D54000914441000D
:1095200084D7410079E9400085DC4000183E0020E6
:10953000B40100207C2200201CD74100E43B002025
:1095400035020020F0DB4100F0D6410044D7410055
:1095500030D7410034D44100DD44410091E1400066
:10956000C0D64100594A4100D1DC4000E1484100E9
:10957000EDD940003DD8400038B50C4B1B780BB9F5
:10958000012038BD0A4C0B4D206800210B46C82233
:10959000A84701280346F3D1074A20681370002129
:1095A000064C0A460B46A047002038BD1823002071
:1095B0006414002035EB40006814002079E9400075
:1095C00038B50E4B1B780BB9012038BDC8200C4BA9
:1095D0000C4C0D4D984700210B4620686422A8478B
:1095E00001280346F0D1094A206813700021084C75
:1095F0000A460B46A047002038BD00BF7820002057
:10960000EDF240006414002035EB40007020002093
:1096100079E9400000B589B00A480B4B6946984784
:1096200058B10A480A490B4B984718B10A480B4BE6
:109630009847012009B05DF804FB094B01489847A1
:10964000EFE700BF9000002005DF4000A6000020EB
:1096500092000020CDE340008CD74100C988400033
:10966000A5E040002DE9F041264C2078C0B2012849
:1096700088B00CD0244D254E286800210B4664226A
:10968000B047012806D02248224B9847012008B055
:10969000BDE8F0812048214B6946984708BB204A25
:1096A000009B934225D8DFF86C801E4F1A491E4B51
:1096B000384612229847064608BB1C48C0471C483B
:1096C000C0471C4BF9683846984701232370002196
:1096D0002868194C0A460B46A047304608B0BDE83A
:1096E000F08104280CBF15481548DFF82880C047D2
:1096F000DBE7144B98470028D5D00126E7E712484E
:10970000C047FAE7782000206414002035EB4000C1
:109710004CD84100C9884000A400002005DF40006B
:109720007F841E00BC39002099D54000F8D7410045
:1097300020D84100D1DC400079E94000B0D7410099
:10974000DCD741001596400030D841002DE9F04F9C
:1097500085B00024A14D02940394A847A049A14ECE
:109760000860A847A04AA14BD2F800A0DFF8F88211
:10977000DFF8F8929E4FDFF8F8B2306030220194A3
:1097800025461A70DFF858C29A4EDCF80000002116
:109790000B460A22B047012800F0AB80DFF8D4C2A4
:1097A0009CF80030012B664600F0C880924E33785A
:1097B000012B00F0CF80914E914AF368934200F262
:1097C0008E80884EDFF82CC2306800210B460122C3
:1097D000E04701286ED18B490B782BB324B30026C8
:1097E00089498A48DFF890C202AB31442246E047FB
:1097F000034688F800300120002B40F0C080029B17
:10980000D9F80020E41A1A441E44C9F80020B847C9
:10981000002CE5D17D487E4B984788F80000002851
:1098200040F0D4800120B847DFF8F8C19CF8003040
:109830002BB325B3002677497048DFF83CC203AB51
:1098400031442A46E047034688F800300120002BC7
:1098500040F09B80039BDBF80020ED1A1A441E4465
:10986000CBF80020B847002DE5D16448684B9847F5
:1098700088F80000002840F0A4800120B847DFF8F5
:1098800064C1654EDCF8000000210B460A46B04773
:10989000624991F89F30B3B9534A1368CAEB030188
:1098A0009A46C7293FF66EAF4F4E6420B847D6F8A8
:1098B00000A067E75A48DFF884C1E047574991F8AC
:1098C0009F30002BE8D0484EDDF804C033683246A4
:1098D000CAEB0306B44546D331469A46E1E7304623
:1098E000DFF848C1E0474F494F4A00230B709047CB
:1098F00067E7DFF85CC1DCF8003023B1DCF800304A
:10990000B3F5406F52D9DFF840C1DCF8003023B125
:10991000DCF80030B3F5007F3DD9DFF8C4C03E4E1F
:10992000DCF8000000210B460A46B047DFF844C1CE
:109930009CF80030012B66467FF438AF33483B4932
:109940008847002333702F4A2B4E13703378012B36
:109950007FF431AF2948DFF8D4C0E0473149002314
:109960000B70337027E731460092314B31489847EE
:10997000009A01961368CAEB03019A4691E7834265
:109980007CD02D482D4A904744E7834222D02C4872
:109990002A4A904769E72B4B2B4EDCF800201D48E4
:1099A0002A499847002335683360B6E7254B284E8F
:1099B000DCF80020144827499847002334683360B6
:1099C000A1E70146244E2548B04756E724481B4EE0
:1099D000B04727E723481949884746E789EA400006
:1099E0006014002064140020743900207C220020C0
:1099F000EDF2400035EB400070200020BC39002023
:109A00007F841E00182300206C140020E43B0020FB
:109A1000CDDB40001C2F002079E94000AC01002084
:109A200048D94100782000206596400085DC400040
:109A3000B587400074D94100A0D84100C9884000D2
:109A400000D94100254141001C3100207C2000202C
:109A5000742000201C230020A53B410024D9410094
:109A6000BCD84100D0D841005C1400206C200020FC
:109A70001423002068140020EDD940000148024959
:109A80008847C7E678D84100C9884000014B0122C9
:109A90001A7070477033002010B503460B480C4A0B
:109AA00050F8230082B08DF80430ADF806109047CE
:109AB000084B186840B101A905220023064CA047B5
:109AC00010F1FF3018BF012002B010BDB800002017
:109AD000C98840007433002079E9400008B5044B80
:109AE00093F89E301BB100200146024B984708BDF9
:109AF000AC010020999A400070B53F4C2378012BAF
:109B000084B044D022D3022B3FD13C4BD3F89C20CD
:109B1000002A68D0D3F89020002A64DD0721384A53
:109B20000091002501927833029503953548364916
:109B3000364E4FF48072B047012858D03448354B28
:109B400098472946344B0B20984750E02B4B5A6AD4
:109B5000002A43D09A69002A40DD0721284A009153
:109B6000002501920295039526482749274E4FF478
:109B70008072B047012806D02848264B98472946CE
:109B80000B20254B98470123237004B070BD1B4B5D
:109B90001A6EF2B15A6D002A1BDD0721184A009196
:109BA000002501923C330295039516481649174E3D
:109BB0004FF48072B047012807D00146184B19486E
:109BC000984729460B20144B98470223237004B072
:109BD00070BDFF21104B0A209847F6E7FF210E4B7E
:109BE0000A209847CFE70A20FF210B4B9847032311
:109BF000237004B070BD00BF6933002064020020F0
:109C000078330020FD27410094DA4100CDED40007B
:109C1000E0DA4100C9884000999A400098DA410092
:109C2000B5874000BCDA4100014B1878704700BF8F
:109C30006A33002038B50E4A0E490F4B90680F4D1D
:109C4000022200241A700C70A84721460C4B0120F8
:109C500098470C4A0C4B147098470C480C4B98478B
:109C600028B10C48A84721460B200B4B984738BD1C
:109C7000F0000020713300206A330020C9884000C2
:109C80009986400069330020F99A4000A001002025
:109C90003D1A410004DB4100999A400038B50B4B56
:109CA0000B4A18690B4D0C4B0C4C04211170984752
:109CB0000B4B98472846A04705F13C00A04705F10B
:109CC0007800A047074B0848984738BDF0000020AF
:109CD0006A33002064020020C9884000412B410003
:109CE000E1184100411A4100A001002038B5094D9A
:109CF000094C2846A04705F13C00A04705F1780033
:109D0000A047064B06489847064B64209847064BE9
:109D1000984738BD64020020612B41005D1A410064
:109D2000A0010020EDF240007995400010B50C4BE9
:109D30000C4AD8680C4B82B00321117098470B4A2B
:109D40000B4B14689847002302461946009320469F
:109D5000084CA0470121084B0220984702B010BDD3
:109D6000F00000206A330020C98840006C330020D6
:109D7000A1F0400049F940009986400010B5054B1C
:109D8000054C186882B000231A4600930121A047B1
:109D900002B010BD6C33002049F9400070B50F4D82
:109DA0000F4E68690F4C82B005233370A04733789B
:109DB00055F82300A0470C4A0C4B1568984700241F
:109DC00002462146234628460094094DA8472146CD
:109DD000084B0320984702B070BD00BFF000002080
:109DE0006A330020C98840006C330020A1F0400095
:109DF00049F940009986400010B5054B054C18689C
:109E000082B000231A4600930121A04702B010BD82
:109E10006C33002049F9400070B51C481C4C1D4DA6
:109E20001D4EA0471D48A0471D48A0476420A847D5
:109E30001C4A1D4B906906221A70B047002001464B
:109E40001A4B98471A4B98470446C0B9194E40F62A
:109E5000C410A847D6F8B430002B0BDD164C0B48C5
:109E6000A0470E48A0470E48A047D6F8B400134BB1
:109E7000984770BD2146124B0D20984770BD114880
:109E8000B04700210E4B0520984770BD64020020AA
:109E9000212B4100EDF24000C9884000A0020020C3
:109EA000DC020020F00000206A3300209986400088
:109EB000DD924000AC010020B92B41004D1841005B
:109EC000999A400028DB410038B5054D054C2846DD
:109ED000A04705F13C00A04705F17800A04738BD38
:109EE00064020020F12B410090B587B002AF01233E
:109EF000FB73BB1D102019467A4B9847BB79012B89
:109F000004D0794B00221A70FB7BE7E0102001217E
:109F1000764B9847764B9847764B0093764841F2BC
:109F2000883100220023754CA0470246744B1A600A
:109F3000734B1B68002B02D17248734B9847704BD0
:109F40001C68724B9847034600220092204600216D
:109F50001A4600236E4CA04700206E4B98470346DC
:109F6000FB71FB79012B17D16B48674B98476B4806
:109F7000654B984702E00120694B98470020694BE8
:109F800098470346022B07D0574B1B78DBB283F070
:109F90000103DBB2002BEED10120614B9847FB7926
:109FA000002B07D0504B1B78DBB283F00103DBB2F0
:109FB000002BD1D14C4B00221A70514B1B68002250
:109FC00000921846012100220023514CA0474C4B1F
:109FD0001B680022009218460321002200234C4CEB
:109FE000A047FB79002B78D14F4800214FF40C7229
:109FF0004E4B984700204C494D4B984703461A4614
:10A000004C4B1A704B4B1B780B2B04D14A483E4BE0
:10A010009847FB7B62E0494849494A4A4A4B98477E
:10A020000346FB73FB7B002B06D00123FB734748E1
:10A03000354B9847FB7B51E0424B1B689B69023BC9
:10A04000404A1268927802FB03F2414B1A603D4B82
:10A050001B689B783A4A126802FB03F23D4B1A6078
:10A060003C4B1B68B3F5162F06D20123FB733A480D
:10A07000254B9847FB7B31E00023FB733748384B77
:10A0800098470346002B06D00123FB7335481E4B2F
:10A090009847FB7B22E0344B01221A600023BB600F
:10A0A00018E03249BA6813461B019B1A9B000B4407
:10A0B00018331B68002B0ADD0122BB6802FA03F388
:10A0C000DAB22B4B1B781343DAB2294B1A70BB68F8
:10A0D0000133BB60BB68022BE3DDFB7B1846143702
:10A0E000BD4690BD25084100703300206D08410039
:10A0F000BDA840008D9A40008CD94100FDF8400079
:10A10000643300209CD94100C9884000A1F0400080
:10A1100049F9400065B24000C0D94100D4D941009E
:10A12000EDF24000DDA840003431002059424100EA
:10A1300059D5400030310020FCD9410014DA4100EB
:10A140002C3100202831002065DF400018DA410062
:10A15000243100202031002040DA410064DA41003F
:10A16000AD00410074DA4100AC010020640200201F
:10A170006833002070B5084E084D032401211220D9
:10A18000B0470748A84700211220B0470448A84715
:10A19000013CF3D170BD00BFAD0741008500002038
:10A1A0008AB220002DE9F04F734A744B5068DFF8F3
:10A1B00058A2734E734F744D87B001241C708DF8F4
:10A1C0000E408DF80F40D047704B2146062098472F
:10A1D0003378002B40F0A4806D4B6E4C694801939E
:10A1E000A0476D48DFF82492A0476C48A0476C4B0D
:10A1F0006C4898476C4B98476C4B002401201C60BE
:10A20000019B9847214697F82000A847214697F8D8
:10A210005C00A847214697F89800A84721461120DE
:10A22000A8476348D0472146624B20469847624A78
:10A23000624B107005221A60614B9847614B98473A
:10A24000614BDFF8CCC11022C3F880202046C3F850
:10A2500080210121E04720465C4B984796F800B0EA
:10A260005B4CDFF81C815846BBF1000F7ED1C8471C
:10A27000584A594890470DF10E015846A0470F2003
:10A280000DEB0001A0479DF80E000028E6D19DF8D7
:10A290000F30524A012B01D09047DFE7504B9847CF
:10A2A000504B9847504B98475048D0474348464AF0
:10A2B0004F4B1021072404601160984798F8003034
:10A2C000002B3FD101200146304B4A4E98470020D9
:10A2D000019B984711200121A8473068E8B1464BFF
:10A2E0009847054600283FD0444F00240134306889
:10A2F000DFF8008104A90A220023B847AC42F5D157
:10A30000D8F800000C2200238DF81420ADF8163088
:10A3100018B105A905223A4CA04707B0BDE8F08F57
:10A32000002197F82000A847002197F85C00A84773
:10A3300097F898000021A8473378002B3FF44CAFE2
:10A34000134B01932F4B0A209847012197F82000C7
:10A35000A847012197F85C00A84797F898000121C9
:10A36000A84700233370ADE73068CBE7002388F8B7
:10A37000003007B0BDE8F08FF00000206A33002005
:10A38000B400002064020020AD074100998640001F
:10A390009D244100292C4100A0020020DC02002065
:10A3A0005D1A4100A0010020C1954000AC010020D1
:10A3B00050DB410059D540007C33002010E000E024
:10A3C0001DFD40005509410000E100E0F508410095
:10A3D000250841008500002025CA820075A14000A3
:10A3E000E108410049074100E1FC400068DB410011
:10A3F000898740007433002089EC400035EB400031
:10A4000079E94000EDF24000C98840007132410016
:10A410006D08410010B582B0C3B201900D2B2FD84A
:10A42000DFE813F08C009B00AE00BA0034003C0063
:10A430005900BA00BA006A000E007E0030008300A6
:10A44000824B1B78022B1BD1BDF8062080490123CB
:10A450009340D8B20B781AB1012A01D0022A00D158
:10A4600003437C4A0B701278022A40F2E0807A4A59
:10A4700012789A4200F0D8800B200021774B984741
:10A4800002B010BD714B1B78012BF9D1744B98476A
:10A49000E8B9744B984700286FD018E06B4C2378CC
:10A4A000022B00F09A80042B00F09480062B00F021
:10A4B0008F806D4A6D4B0024146098476C4B984711
:10A4C000C8206C4B9847204621466B4B98476B4BF6
:10A4D000984702B010BD5D4C237803F0FB02012ABF
:10A4E000CED0022B6CD0042B03D0062BEFD1644BC3
:10A4F0009847644B9847EAE7544B1B78042B00F0CD
:10A500008180062B7CD0032B57D0052B00F089804F
:10A51000022B7AD05C4B98475C4B984702B010BD39
:10A520004A4B1B78042BD2D1E3E7484B1B78062B10
:10A53000A6D1534B9847564B9847A1E7434B1B78FE
:10A54000042B5AD0062B56D0022B2FD0032B74D0BD
:10A55000052B78D0012BDFD192E73C4B1B78042BE5
:10A5600046D0062B42D0022B19D0032B62D0052BEC
:10A5700066D03D4B1B68012BA9D1464B98477FE71E
:10A58000324B1B78032B47D0042B7FF479AF3D4B24
:10A590009847414B984773E72C4C2378A1E73F4BF2
:10A5A00018680028E5D03E4B9847E2E73B4B186817
:10A5B0000028B1D03A4B9847AEE73A4B9847A9E705
:10A5C000364B1868002882D0354B984723788AE7A5
:10A5D0002B4B98472B4B98476BE7304B186800285C
:10A5E0003FF467AF2E4B984723785CE7244B98479E
:10A5F000244B9847BDE7224B9847224B98478BE75F
:10A600001F4B98471F4B984784E7244B1868002836
:10A6100080D0234B98477DE7224B9847224B9847A1
:10A620002EE7224B984775E71B4B984728E7204BAE
:10A63000984725E71B4B98479BE71A4B98476BE7D2
:10A640001A4B984795E7194B984765E76A330020FE
:10A65000713300206933002068330020999A40004C
:10A66000E99E400065964000AC01002079954000CD
:10A67000C1954000EDF2400059D540009D9D40003D
:10A68000C99E4000ED9C400075A14000A5A140007E
:10A690009D9C4000359C40002D9D4000783300205B
:10A6A000ADEF40007D9D4000199E4000F99D4000A7
:10A6B000F99A4000F0B585B01A4B0093002213467A
:10A6C00019491A481A4CA0471A4B0146186028B37A
:10A6D0000A200421184B194C98472060C8B1002566
:10A6E0002B46174E8DF80C5003A90522ADF80E50DD
:10A6F000144F154DB047154E01E03220A847206891
:10A7000003A964220023B0470128F6D10398B84773
:10A71000F3E70F480F4B984705B0F0BD0E4B0F48BD
:10A720009847D5E7DD9A4000E09304007CDB4100C8
:10A73000FDF840006C33002001E940007433002034
:10A7400079E9400015A44000EDF2400035EB4000EF
:10A75000B4DB4100C9884000A53B41008CDB4100CF
:10A7600010B5074A074B1268187892F82230116822
:10A77000054C527C003318BF0123A04710BD00BF19
:10A78000843300208A33002055B64000F8B5C50058
:10A79000344C291804EB810101268A68530903F51A
:10A7A000001303F207735B0202F01F02DB6B06FA71
:10A7B00002F2134001F1080110D18979B14206D0AB
:10A7C000284404EB80040423A3730220F8BD264A26
:10A7D0001278002AF4D0254A1360F1E78B79042B14
:10A7E0002AD0012B03D0032B18D11846F8BD1E4BDD
:10A7F0001B782BB11D4B1A68D20330D500221A608A
:10A800002918890063181A4F02269E736750012782
:10A8100000215F7483F822109B7BE4E7054404EB7E
:10A8200085041449144A154B10700C609847A07B9E
:10A83000831E58425841F8BD0C4B8E711A6832B9CC
:10A8400009490F4A0E705A601E600220F8BD064A80
:10A850000C480D4B0021117098470220F8BD0220D2
:10A86000F8BD00BF0C0100208033002010E000E0A4
:10A87000801A0600843300208A33002061A740003C
:10A88000C0E1E40025CA82008500002038B5084DEB
:10A89000084A2B68998941F6093009049047044613
:10A8A00018B12868044B12309847204638BD00BFC5
:10A8B00084330020F9B640002DB7400010B504489D
:10A8C000044A054B0424FF2184731170984710BD7E
:10A8D0000C0100208A3300201DB640002DE9F04F06
:10A8E000054695B0002800F0EA8004249E4B1878B5
:10A8F000002800F0DE80204615B0BDE8F08F45F25C
:10A9000008504FF4D571B047002840F0F7804FF061
:10A9100000093B68DB7BDA0700F1FC8045F203109D
:10A920000021B047002800F0E080DFF874923D6815
:10A93000DFF868A2C8473B68000CA881DA7BD5071E
:10A940003AD58A4B9847002800F0CF80DAF80030DB
:10A95000874D5A7D8748997C02F0070EC2F3C302E7
:10A9600055F82E5050F822004FF47A7202FB05F28F
:10A9700000FB02F289091A6040F07981587E93F851
:10A9800018C0D97E93F81AE01D7FDA7D800040EA76
:10A990008C20490040EA9E1041EAD511C0F30B001B
:10A9A00001F007010130023100FA01F102F00F025B
:10A9B00001FA02F2920A5A6099896F4D090443F232
:10A9C0000710B047002800F090803B68DFF8CCA16A
:10A9D000DA7BD00730D5998941F237100904A847AE
:10A9E000002800F08280012500952B466348DFF89F
:10A9F000B8C100210822E047002876D0294604A8E3
:10AA00005F4B9847002870D05E4B984700286CD069
:10AA10009DF8103003F00F03012B00F02382C0F0EB
:10AA20001C82022B40F019829DF81230DB093B6832
:10AA300014BF302220221A744B4D534B287898476C
:10AA400003281AD93B68DFF854A1DA7BD10712D565
:10AA50009989DFF824B1090441F23710B047002882
:10AA600044D041F206100221D84700283ED0DAF83F
:10AA7000003004225A74454B9847454B984758B1CB
:10AA80003B68DFF818B1DA7BD20703D51B7C102BAB
:10AA900000F2FA803D4B98473A68DFF80081D37B9B
:10AAA000D90700F1D98028780023937300287FF418
:10AAB00022AF384B9847204615B0BDE8F08F364B93
:10AAC0009847012804467FF411AF344FDFF8DC804B
:10AAD0003B68294ED8731D749D81C04729464FF4A9
:10AAE0008040B04700287FF40AAF1F4D3B682878AC
:10AAF00003249C7300287FF4FEAEDAE7284B9847C6
:10AB0000451C3FF404AFC0F30B00B0F5D57FECD18A
:10AB1000A146FEE640F63505DFF888A0DFF880B0F4
:10AB20000EE0B9F1000F14BF51464FF4FC1144F28E
:10AB30002950B04750B1D847002878DB013D05D0F7
:10AB400041F237100021B0470028EAD13B680222C9
:10AB5000DA734FF480400021B0470028C5D041F29D
:10AB60006905DFF83C8025E08A3300208DA840008D
:10AB700068DF410028DF4100F9B6400033110800CA
:10AB8000A5B840000DB9400045B6400061A740009F
:10AB900051B64000D5B640008DA740008433002058
:10ABA00025B7400000801F4051B74000D9B6400093
:10ABB000013D9AD0AF49DFF8FC9244F20150B04712
:10ABC000002892D0C0470028F2DA00F0C040B0F16F
:10ABD000804F04D13B68DA7B42F00802DA7345F615
:10ABE00002300021DFF8D082B04700283FF47DAF6B
:10ABF0003B68A14D01229A8141F203104FF480314C
:10AC0000C04700283FF471AF9C4B984700283FF4A1
:10AC10006CAF2B689A7CC2F38302013A032A00F2DC
:10AC20007C81DFE812F077017D012401680041009A
:10AC30000FD53A68D37B43F00803D373DB077FF566
:10AC40006DAE45F602300021B04700287FF466AEB5
:10AC50004BE73B68DB7BF1E741F210104FF40071EA
:10AC6000B04700283FF442AFD8F800201BE7597ED8
:10AC7000987EDA7E090441EA00210A43C2F31502F4
:10AC8000013252025A6097E64FF0010ACDF800A057
:10AC900053467B487B49DFF804C24022E047002846
:10ACA0003FF424AF04A85146774B984700283FF45F
:10ACB0001DAF764B984700283FF418AFC8470006F1
:10ACC0003FF514AF9DF8203003F00F030F2B3FF436
:10ACD000E1AE9DF82D309DF82C2053EA02227FF43E
:10ACE00005AFC047DBF800301A6883F822A002FAEB
:10ACF0000AF21A60CEE640221A745A7D93F819E0DF
:10AD00006349644893F818C09D7E02F00708C2F3B7
:10AD1000C30251F8281050F822004FEA8E0242EA8E
:10AD20008C224FF47A7E0EFB01F142EA951200FB71
:10AD300001F0C2F30B0240F6FF718A42186011D095
:10AD4000D97E1D7FD87D490041EAD51101F0070168
:10AD50000132023102FA01F100F00F0201FA02F2AF
:10AD6000920A5A60998943F207100904B0470028F3
:10AD70003FF4BBAE3B681B7C3F2B40F2B18000210F
:10AD800000914548454D4FF400720123A847002823
:10AD90003FF4ABAEDFF82481322503A8C047013D64
:10ADA000ADB200283FF4A1AE002DF6D13B68039A66
:10ADB0005D7E187E997EAB0043EA802343EA9111C1
:10ADC000C1F30B0140F6FF7302F0020299425FFAF1
:10ADD00082FA4FF032050DF1100B73D05846C04780
:10ADE0000135ADB200283FF480AE7F2DF6D92C4D51
:10ADF000DFF8CC802878C047032818D92878C047C6
:10AE00000428804670D02749274B082818BF1946C8
:10AE100043F20610B04700283FF468AEC847020668
:10AE20003FF564AE3B68214A83F811809047204B80
:10AE3000984710B1BAF1000F58D14FF00A0841F20B
:10AE400010104FF40071B04708F1FF3800286AD1A4
:10AE500018F0FF083FF44AAEF1E7DAF800301022AC
:10AE60001A74E9E5DAF800301A221A74E4E530229F
:10AE70001A7442E700801F40843300208DA84000F0
:10AE80000611080001FFFF80A5B840000DB9400081
:10AE900068DF410084DF41000811080051B740001D
:10AEA0008A3300200002B7010000B70161A740000B
:10AEB00051B6400025B74000F9B6400001B8400047
:10AEC00045B640005846C0470135ADB200283FF4B2
:10AED0000CAE362DF6D1049A3B6852085A607DE7D5
:10AEE000124B134D9847A8E7124991E743F2061019
:10AEF0001149B04700283FF4F9ADC84703063FF5B4
:10AF0000F5AD3B680D4A1A60012283F82220074BF9
:10AF1000984792E714221A74EFE612221A74ECE6AC
:10AF200022221A74E9E63A68BDE500BF61A7400035
:10AF30008A3300200001B7010001B903007519032D
:10AF400008B508B1002008BD084B98470028F9D182
:10AF5000074B1B781BB1074B1B68D87B08BD064B02
:10AF60009847044B1B68D87B08BD00BF8DA74000E5
:10AF70008A33002084330020D5B6400008B508B1DC
:10AF8000002008BD084B98470028F9D1074B1B78D3
:10AF90001BB1074B1B68586808BD064B9847044B0C
:10AFA0001B68586808BD00BF8DA740008A33002089
:10AFB00084330020D5B64000002070472DE9F04FC3
:10AFC0008B4683B0924628B14FF00409484603B03F
:10AFD000BDE8F08F264B984781460028F6D1254CD6
:10AFE000254D264E264F04E0B847C20514D4013C37
:10AFF00009D02B68DFF88880998941F20D10090487
:10B00000B0470028F0D11F4B1B783BB34FF0050928
:10B01000484603B0BDE8F08F2B681B48DB7B1B4A1A
:10B02000BAF1010F98BF10461B0701D44FEA4B2B12
:10B030000123009359464FF400725346144CA04725
:10B040000028E0D0C047134B0340002BDBD1124A4D
:10B05000124BA2F800A0A3F800A0B7E70020104B05
:10B0600098474FF00509484603B0BDE8F08F00BF90
:10B070008DA74000410D030084330020F9B6400045
:10B0800025B740008A33002012111000111108006A
:10B0900051B74000000058E4883300207E33002080
:10B0A000D5B6400010B5074B0C469847034618B973
:10B0B000054A1380052010BD034B1A88141B1C8001
:10B0C000002010BDA5B840008833002010B5124BF9
:10B0D0000446984708B9052010BD104B9CB91B8841
:10B0E0007BB90F4B1B88012B05D043F20C100021BC
:10B0F0000C4CA04750B10C4B1B7813B900200B4BE4
:10B100009847002010BD00221A80EAE7014643F26A
:10B110000C10A047EFE700BF0DB9400088330020B6
:10B120007E330020F9B640008A330020D5B64000B7
:10B1300070B5154684B018B10424204604B070BD23
:10B140000391184B9847039904460028F5D1164BF4
:10B15000164A1B681648DB7B164E012D88BF104629
:10B160001B074FF0010358BF490200934FF40072D0
:10B170002B46B04730B9104B1B7873B105242046DD
:10B1800004B070BD0D4B98470D4B0340002BF2D11E
:10B190000C4A0D4B15801D80CFE700200B4B9847C4
:10B1A000ECE700BF8DA74000843300201991100008
:10B1B0001891080051B740008A33002025B740009D
:10B1C000000058E4883300207E330020D5B64000CC
:10B1D00010B5074B0C469847034618B9054A13802B
:10B1E000052010BD034B1A88141B1C80002010BDC5
:10B1F000B1B940008833002010B5144B044698477D
:10B2000008B9052010BD124B94B91B88E3B9114B46
:10B210001B88012B12D043F20C1000210E4B9847D3
:10B2200060B90E4B1B78002BEBD10D4B9847E8E72C
:10B2300000221A80074B1B88012BECD1074B1B788F
:10B2400013B90020064B9847002010BD1DBA4000DE
:10B25000883300207E330020F9B640008A33002076
:10B26000D5B6400010B50F4B0446984701280DD0C5
:10B2700007D3022803D10C4B00221A5510BD012020
:10B2800010BD094B1B5D1BB1022010BD032010BD7A
:10B290002046064B984710F0030F0CBF02200020F9
:10B2A00010BD00BFDDA840008C33002041AF40003E
:10B2B00008B50020014B984708BD00BF65B24000AB
:10B2C00008B50120014B984708BD00BF65B240009A
:10B2D00038B5054B0D4604469847400001382860B4
:10B2E000024B2046984738BD7DAF400065B2400014
:10B2F00008B50146014B0020984708BDD1B2400077
:10B3000008B50146014B0120984708BDD1B2400065
:10B31000014B1870012070478C330020014B58708E
:10B32000012070478C33002008B50020014B98475E
:10B3300008BD00BFB9AF400008B50120014B9847D8
:10B3400008BD00BFB9AF4000012070470120704721
:10B3500010B50B4B14460122984720B102280CBFB0
:10B360000220012010BD20460121064B984708B15C
:10B37000012010BD044B9847003018BF012010BDBC
:10B38000BDAF4000A5B04000CDB0400008B50A46B2
:10B39000024B01460020984708BD00BF51B3400052
:10B3A00008B50A46024B01460120984708BD00BF78
:10B3B00051B3400010B50B4B14460122984720B101
:10B3C00002280CBF0220012010BD20460121064B9F
:10B3D000984708B1012010BD044B9847003018BFB2
:10B3E000012010BD31B14000D1B14000F9B14000A1
:10B3F00008B50A46024B01460020984708BD00BF29
:10B40000B5B3400008B50A46024B014601209847F3
:10B4100008BD00BFB5B34000012808B501D901201F
:10B4200008BD4001014B1B58984708BDC4DF4100CF
:10B43000012808B501D9012008BD034B03EB4013D7
:10B4400008465B68984708BDC4DF410001288CBFEF
:10B4500000200120704700BF012808B501D9012054
:10B4600008BD034B03EB4010C368984708BD00BFFD
:10B47000C4DF4100012808B501D9012008BD044BF3
:10B4800003EB401308465B691146984708BD00BFAF
:10B49000C4DF4100012808B501D9012008BD044BD3
:10B4A00003EB401308469B691146984708BD00BF4F
:10B4B000C4DF41002DE9F0410C46904670B9002AE6
:10B4C0000ADD084E084F8D18214630683B6801346C
:10B4D0009847AC42F8D14046BDE8F0814FF0FF30CC
:10B4E000BDE8F081143E00200C3E00200138022807
:10B4F0002DE9F0410E46154610D89AB10B4FDFF8F2
:10B500003080002401E0A5420CD0315D3868D8F8C5
:10B5100000309847002804F10104F4DA4FF0FF30BE
:10B52000BDE8F0812846BDE8F08100BF143E002050
:10B53000103E00202DE9F00101F03F03CF0543EA62
:10B54000000003D50E0530D540F484504FF0804301
:10B550004C0448BF40F400601A611D4601F4805459
:10B56000586104E013F41F0F2CD1DA0724D44FF0F4
:10B5700080422B6C002CF5D113F41B0FF5D0D2F8C0
:10B5800004C09768D668D569516D4FF080080523CF
:10B59000C2F80080C2F804C09760D660D5615165DA
:10B5A00013602046BDE8F00170478D044CBF40F4A5
:10B5B000865040F48250C9E78B0415D40120BDE8C1
:10B5C000F0017047802057689668D568D469516D3E
:10B5D00010600523002057609660D560D4615165E6
:10B5E0001360BDE8F00170474FF0804319461B6CB3
:10B5F0004FF0FF3003F03003202B4FF08042DDD0BE
:10B6000001380B6CF6D14FF0800C57689668D568FE
:10B61000D469516DC2F800C00523DCE710B5084BB2
:10B62000122098474FF08043722211244FF4E060BB
:10B6300005219A60DA615C655860196010BD00BF31
:10B640002D32410000280CBF04200020704700BFAD
:10B65000012070473BB34FF080434900586D40F4E0
:10B66000807058651A4B994227D801331846B3FBAE
:10B67000F1F301FB03F1401A08BB0BBB19464FF075
:10B680008043042A586820F0FF005860586841EA57
:10B690000001596017D0082A4FF080430CBFC02228
:10B6A0000022DA6070474FF080434900586D20F463
:10B6B00080705865064B9942D7D90021DFE70133E6
:10B6C000013BD9B2DBE74FF080438022DA6070475C
:10B6D000FF0D2707704700BF4FF0804300205A68D6
:10B6E0004FF4106122F460525A6018611A46596191
:10B6F000136CDB07FCD5704770B54FF08043002416
:10B700005A68074D22F460525A605E6826F400467B
:10B710000A465E6001469C612046A84770BD00BF96
:10B7200035B540004FF08043186A704730B400F1DF
:10B7300010054FF08044236AC370190E1A0C1B0ABF
:10B740000170427083700430A842F4D130BC70475D
:10B75000F8B50E469DF818504FF0804104464868F1
:10B760004DB340F4004048604FF080409707416877
:10B7700041F4C0514160416814BF41F4005121F4CB
:10B78000005114F4004F41600CBF4FF4A0204FF45F
:10B790008030E5034FF0804121D443EA02458D61BA
:10B7A000A1030CD4670320D425030AD4E10248BFC7
:10B7B00040F4002005E020F400404860D4E740F465
:10B7C00020100B49DFF834E00A4F0A800A4D3B8015
:10B7D000214632460024CEF80040A847F8BDC2F307
:10B7E000080540F400108D61EBE740F48010E8E7B5
:10B7F000903300209233002035B540009433002070
:10B80000F0B44FF0804401E0920717D4226C214B32
:10B8100013404FF08041002BF6D04F688E68CD6802
:10B82000CC694A6D8020052308604F608E60CD6032
:10B83000CC614A650B600020F0BC7047164A174C7B
:10B84000174D136826882D880C6B0460043306FBA3
:10B8500005F08342136002D219E0130117D40A6C79
:10B860000C4B13404FF08044002BF6D06768A6685D
:10B87000E568E169626D8020052320606760A6604D
:10B88000E560E161626523600020F0BC7047012043
:10B89000F0BC7047000060C094330020903300205B
:10B8A0009233002030B4174B1B88840703FB01F14F
:10B8B00001D19A071ED04FF080435A6842F40052DB
:10B8C0005A604FF080430024C3F800015B680E4AC1
:10B8D0009B044FF0804354BF8D080D460120C3F8F0
:10B8E0000451C3F81441C3F82001136819441160CE
:10B8F00030BC70474FF080435A6822F400525A60BF
:10B90000DFE700BF9033002094330020F0B44FF005
:10B91000804001E052041BD4026C214B13404FF0D5
:10B920008041002BF6D040F20223C1F820314F684D
:10B930008E68CD68CC694A6D8020052308604F6011
:10B940008E60CD60CC614A650B600020F0BC704712
:10B95000144A1548154B128800881B6800FB02F238
:10B960009A4202D919E0130117D40A6C0C4B134008
:10B970004FF08044002BF6D06768A668E568E1695F
:10B98000626D8020052320606760A660E560E1614C
:10B99000626523600020F0BC70470120F0BC704756
:10B9A000000060C0923300209033002094330020C8
:10B9B00030B4184B1B88840703FB01F101D19A07AF
:10B9C00020D04FF080435A6842F400525A604FF042
:10B9D00080430024C3F808015B680F4A9B044FF0C2
:10B9E000804354BF8D080D464FF48070C3F80C514E
:10B9F000C3F81C41C3F820011368194411600120E9
:10BA000030BC70474FF080435A6822F400525A60AD
:10BA1000DDE700BF9033002094330020F0B44FF0F6
:10BA2000804001E012041DD4026C224B13404FF001
:10BA30008041002BF6D0D1F804C08F68CE68CD6964
:10BA40004C6D8020052240F202230860C1F804C03A
:10BA50008F60CE60CD614C650A60C1F82031002056
:10BA6000F0BC7047144A1548154B128800881B68B3
:10BA700000FB02F29A4202D919E0930617D40A6C2D
:10BA80000C4B13404FF08044002BF6D06768A6683B
:10BA9000E568E169626D8020052320606760A6602B
:10BAA000E560E161626523600020F0BC7047012021
:10BAB000F0BC7047000060C092330020903300203B
:10BAC0009433002040F2022319400162704700BF06
:10BAD000436819B923F001034360704743F0010341
:10BAE0004360704730B484688568AC4203D0846892
:10BAF0008568A542FBD161B104F47C10050D05EB0E
:10BB00008505C0F3034000EB4500650248BF0C30DB
:10BB100008604AB104F4FE41080B00EB8000C1F359
:10BB2000032101EB4001116043B1C4F3021202EBA7
:10BB3000820204F00F0404EB42021A6030BC70472A
:10BB40002DE9F003446814F0010C06D00C2986BFDF
:10BB50000C394FF4800C4FF0000C1D4C0768A4FB0F
:10BB60000356F60806EB8608A4FB0295A3EB4803F0
:10BB7000ED0843EA061605EB8508A2EB480246EA03
:10BB80000535A4FB0163DB0845EA022545EA0C0202
:10BB900003EB8306A1EB460142EA035347F001029F
:10BBA00043EA014102608369DB07FCD50123C361DD
:10BBB0008160036823F001030360C36943F0040359
:10BBC000C361C06ABDE8F00300F00100704700BF28
:10BBD000CDCCCCCCF0B4C468C568049EAC4203D0D4
:10BBE000C468C568A542FBD1A1B104F47F452F0B01
:10BBF000C4F3021007EB870CC5F3032504F00F070D
:10BC000000EB800007EB400005EB4C05642707FBC9
:10BC1000005008604AB104F4F810010D8D00C0F323
:10BC20000340294400EB410111604BB104F07C5208
:10BC3000110F01EB8101C2F3036202EB41021A60B2
:10BC400016B1C4F342543460F0BC70472DE9F007DC
:10BC50002C4C079D2C4FDFF8B4C0A4FB0386F608DC
:10BC6000A4FB02A806EB8609A7FB01A76D05A3EBC1
:10BC7000490345EA06767F094FEAD80546EA036696
:10BC800005EB8509A4FB0738A4FB01A346EA05558B
:10BC9000DB08ACFB016CA2EB49024FEAD80845EA8D
:10BCA0000246A4FB03A44FEA9C1508EB880802682F
:10BCB00003EB830A46EA0515A7EB4807E4082F4380
:10BCC00004EB8404A1EB4A0142F00202A3EB44031B
:10BCD00047EA0121026041EA03318369DB07FCD5B1
:10BCE0000123C361C160036823F002030360C369D9
:10BCF00043F00403C361C06ABDE8F00700F002002E
:10BD0000704700BFCDCCCCCC1F85EB51D34D62101A
:10BD100000230361704700BF014B4361704700BFC0
:10BD20000000010110B4AC220260034691E8050056
:10BD3000B0FBF2F21209541E4FF6FE7084420CD88A
:10BD40001A628A685A6040F202215022C3F8201118
:10BD50001A6000205DF8044B704701205DF8044B29
:10BD6000704700BFC16070474069704743699B07D7
:10BD700046BFC16100200120704700BF4369DB0757
:10BD800043BF83690B700020012070470B01934271
:10BD900010B415D8D20002EB5302B2FBF3F3DA0869
:10BDA000541E4FF6FE718C4203F0070306D842EA98
:10BDB0000343036200205DF8044B70470120FAE75B
:10BDC000C900D30003EB5103B3FBF1F3DA08541EAF
:10BDD0004FF6FE718C4203F00703EFD8416841F43F
:10BDE00000214160E3E700BF2DE9F843194B1A4EEB
:10BDF000C0F8E4300D4600234FF088094FF02408C6
:10BE00004FF4807C4FF400274FF400314360044628
:10BE1000436233608362C0F80090C0F80080C0F8CD
:10BE200000C00760016095B129680C4B984770B954
:10BE3000D5F808C06B682F69E96862684CEA0303AB
:10BE40003B430B431A4333606260BDE8F883012033
:10BE5000BDE8F88300415355983300208DBD400064
:10BE600040230360704700BF10230360704700BF8A
:10BE700081607047C160704743699B0743BFC1F34E
:10BE80000801C16100200120704700BF4369DB0742
:10BE900005D58369C3F308030B60002070470120B8
:10BEA000704700BF4369DB07FCD58369C3F3080310
:10BEB0000B600020704700BF38B5002104460B4BD3
:10BEC0000B489847022C07D820460A4DA84703285C
:10BED00001D12046A84708B1012038BD2046064BB5
:10BEE000984700280CBF0020042038BDD1BA40007C
:10BEF00060140E4019B4400059B4400008B5044B1A
:10BF0000984718B102280CBF0320012008BD00BFCC
:10BF100019B440002DE9F04F184C83B00E46154679
:10BF200098468146A047044618B9012003B0BDE8F1
:10BF3000F08F134B484601A99847019B18FB04F268
:10BF400003FB04432A449A4203D9042003B0BDE80A
:10BF5000F08FB8F1000F0FD0DFF828B04FEA442A75
:10BF60000027294632464846D847013725445644DB
:10BF70000028DAD14745F4D30020D7E74DB440007C
:10BF800031B4400075B440002DE9F04F184C83B037
:10BF90000E46154698468146A047044618B901202A
:10BFA00003B0BDE8F08F134B484601A99847019BA9
:10BFB00018FB04F203FB04432A449A4203D90420E9
:10BFC00003B0BDE8F08FB8F1000F0FD0DFF828B054
:10BFD0004FEA442A0027294632464846D8470137C7
:10BFE000254456440028DAD14745F4D30020D7E74A
:10BFF0004DB4400031B4400095B4400010B5144633
:10C0000082B0032929D8DFE801F01C1307020123BD
:10C010001360002002B010BD114B9847431EDBB2E5
:10C02000012B16D9042814D0082812D00120F1E7DA
:10C0300001A90C4B9847019B00200133236002B0FB
:10C0400010BD094B9847002814BF0320002002B000
:10C0500010BD0020207002B010BD0420DAE700BF40
:10C060004DB4400031B4400019B4400030B5124C1A
:10C07000124D8BB0204603A904AA05ABA84709AB13
:10C080002046009306A907AA08AB0D4CA047089DBF
:10C09000079C05980399049A069B2D0445EA44548D
:10C0A000204340EAC12141EA4210A3F2BC7340EAB6
:10C0B00043600BB030BD00BF60140E40E5BA4000D5
:10C0C000D5BB400070B4194A0026334652F8084CDC
:10C0D00074B10568AC4210D00133032B02F10C029D
:10C0E000F4D13EB9022914BF1220002070BC704761
:10C0F0000136F1E7002070BC704752F8045C846898
:10C10000A542E9D11588C488A542E5D109B110201E
:10C11000ECE7074A03EB430302EB830370BC5B8944
:10C12000B3F5807F14BF002010207047A833002093
:10C13000A03300202DE9F04103690E4601F1090505
:10C14000002B4ED0446994F80CC00CF00807FFB2E5
:10C150000022A35C202B02F101020DD0052B08BFA9
:10C16000E523A3F141011FB119299CBF2033DBB2A4
:10C17000082A05F8013BECD1237A202B1AD0294656
:10C180002E230CF0100C01F8043B5FFA8CFC0135F7
:10C19000E21D12F8013F202BA3F141070AD0BCF1A8
:10C1A000000F03D0192F9CBF2033DBB205F8013BF1
:10C1B0008D42EED1E37A3372A37FE77F217F627FE6
:10C1C0001B0443EA07630B4343EA02233360627EA6
:10C1D000237E43EA0223B380E27DA37D43EA022368
:10C1E000F38000242C70B56935B1F36923B103697C
:10C1F00023B9002400232B55BDE8F081028C4FF6B3
:10C20000FF739A42F5D0C76938880028F1D0DFF86B
:10C210002C800DE0F369013B9C4204F1010405EB25
:10C220000403E6D203F8010C37F814000028E1D02B
:10C230000021C0470028EDD1DBE700BF29E5400021
:10C240002DE9F843C56A8D4204460E4602D00379B3
:10C2500073B916B90020BDE8F8836078174D04F172
:10C26000300132460123A84720BBE662BDE8F883CF
:10C2700000F1300841464078DFF844902A46012317
:10C28000C847B8B9E369226A20711A449542E0D2DE
:10C29000E778012F01D8DCE7E3691D44013F2A4616
:10C2A000607841460123FFB2C847012FF4D1002E28
:10C2B000D0D0D2E70120BDE8F88300BF15BF400011
:10C2C00089BF40002DE9F84F0021314B05469847C2
:10C2D000034650B92B78032B0AD000212D4B6878E8
:10C2E0000A469847031C18BF01231846BDE8F88F7B
:10C2F0006B79002BF1D005F13001E8620B4605F5B2
:10C300000C7203F8010B93424FF00004F9D12A6933
:10C31000EB6885F81822C2F3072B4FEA124A4FEA5E
:10C32000134C4FEA136E52204FEA1269C3F30728E9
:10C330006122AA2685F819B285F81AA24FF0410B9E
:10C340004FF0720A552785F81C3285F82F6285F860
:10C35000300085F8310085F8322085F8172285F8FD
:10C360001B9285F81D8285F81EC285F81FE285F8AC
:10C370002E7285F833B085F816B285F814A285F8C8
:10C3800015A268786A69044E0123B0476C71A4E76E
:10C3900041C24000FDBF400089BF400008B508B160
:10C3A00003780BB9092008BDC3888B42FAD1044B2E
:10C3B0004078984710F0010F0CBF0020032008BD03
:10C3C000FDBE400070B504460A4640781D4D04F19C
:10C3D00030010123A84708B1032070BD94F82F1243
:10C3E00094F82E22184B42EA012212B29A4201D04E
:10C3F000022070BD94F8682094F8696094F8665043
:10C4000094F86710114B120442EA06622A4342EA8A
:10C41000012222F07F429A42EBD094F8842094F8D3
:10C42000855094F8821094F88300120442EA056261
:10C430000A4342EA002020F07F40C01A18BF0120C2
:10C4400070BD00BF15BF400055AAFFFF4641540014
:10C450002DE9F04103681C78303C092C154602D8C0
:10C460005A783A2A15D0BD4B1C680C6074B12378F9
:10C47000B3B1BB4B60789847C30711D405B310F034
:10C48000040F0CBF00200A20BDE8F0810C20BDE89D
:10C49000F08102330360002CE5D00B20BDE8F08171
:10C4A000002020706070AF4B9847C70702D503206B
:10C4B000BDE8F0813DB1460705D50A20BDE8F08111
:10C4C0002846BDE8F08120460021A74DA847012855
:10C4D00007D00026032800F0BF80C0B10D20BDE8C2
:10C4E000F08194F8F231002BF8D094F8F82194F808
:10C4F000F91194F8F63194F8F761120442EA0162F6
:10C50000134343EA062631462046A847E2E794F85B
:10C510003C2094F83B3043EA0223B3F5007FDDD1A1
:10C5200094F8471094F8463053EA01210DD194F85D
:10C53000562094F8570094F8543094F8551012048B
:10C5400042EA0062134343EA012194F84000E161AA
:10C55000431E012BE070C1D894F83D30A370002B2E
:10C56000BCD05A1E1A42B9D194F8425094F84120D6
:10C5700042EA052215072281B0D194F8447094F85C
:10C58000435055EA07250FD194F852C094F85380D0
:10C5900094F8505094F851704FEA0C4C4CEA086CE7
:10C5A0004CEA050545EA072594F83FC094F83E702B
:10C5B00057EA0C2792D000FB01FC07EB12106044F5
:10C5C00085428BD32D1AB5FBF3F3002B86D040F6B2
:10C5D000F575AB4240F2C0804FF6F575AB4200F204
:10C5E000A0800225023330443744A361A062276251
:10C5F000002A3FF473AF6744022D676200F08F801A
:10C6000003EB430203F0010303EB5203012503F2A2
:10C61000FF13B1EB532FFFF461AF4FF0FF32002354
:10C62000032D2261E3601AD0504E514930882570A5
:10C630000130002280B23080E0801346E262227135
:10C6400015460846CA58944208BF1D500C33242B87
:10C65000F8D10020BDE8F0810120BDE8F08194F818
:10C66000611094F86020637142EA012232446261F1
:10C670006078404E04F130010123B0470028D3D147
:10C6800094F82F1294F82E223B4B42EA012212B268
:10C690009A42C9D194F8320094F8336094F830206B
:10C6A00094F83110354B000440EA0660024342EA38
:10C6B00001229A42B8D194F8160294F8176294F8BD
:10C6C000142294F81512000403F1FF5340EA0660A7
:10C6D00003F500530243203342EA01229A42A3D1D8
:10C6E00094F81E7294F81A6294F81F8294F81BC290
:10C6F00094F81C2294F8183294F81D0294F8191238
:10C700003F04360447EA086746EA0C663A43334377
:10C7100042EA002243EA0123E260236184E75B00EE
:10C7200075E7023330443744A361A0622762002AD0
:10C730007FF4D4AE94F85E5094F85F7094F85C2067
:10C7400094F85D002D0445EA07652A4342EA002279
:10C750009B00626203255AE7012543E7C4330020AA
:10C76000FDBE4000B9BE4000C5C340009C33002060
:10C77000A033002015BF400055AAFFFF525261416F
:10C780002DE9F0410378022B04460D4648D0032BD7
:10C7900029D0012B03D04FF0FF30BDE8F081016AB2
:10C7A000294F05EB550601EB5621B8470028F2D179
:10C7B000C6F30803216A2344013601EB56212046C3
:10C7C00093F83080B8470028E5D1C6F30806344412
:10C7D00094F8303048EA0320EB074CBF0009C0F35F
:10C7E0000B00BDE8F081016A174B01EBD5119847AA
:10C7F0000028D0D1AD0005F4FE7505F130032344C7
:10C800002C44D87899785A7894F83030000640EA69
:10C81000014040EA0220184320F07040BDE8F0815A
:10C82000016A094B01EB152198470028B3D16D002F
:10C8300005F4FF7563191C4693F8303094F8310005
:10C8400043EA0020BDE8F08141C24000F8B58368AA
:10C850000446012B0D46E18003D0006882699342B3
:10C8600001D30220F8BDB3B90378032B10D0002305
:10C87000E3600389AB42F4D9436A03EB15132361E8
:10C8800005F00F0500EB4510303060610020F8BD69
:10C89000436A002BEBD086783601B54219D3012BC1
:10C8A000DFD9AD1B9A42ADB2DBD9114F08E00128A8
:10C8B000D7D9206882699A42D3D9AE4209D80D46A9
:10C8C0001946B847A91B421C034689B2EFD1012083
:10C8D000F8BDE3608269023B023A93423BBF817834
:10C8E000826A002301FB032303EB15132361C7E7CF
:10C8F00081C740002DE9F0410378022B04460D4624
:10C9000016465BD0032B39D0012B04D00220012323
:10C910002371BDE8F081016ADFF8D48005EB55078B
:10C9200001EB5721C0470028F1D1C7F3080315F0E8
:10C9300001052344F2B206D093F8301001F00F0144
:10C9400041EA0212D2B283F83020216A0137012372
:10C9500001EB572123712046C0470028D7D1C7F3E8
:10C960000807002D3FD12744C6F3032697F830303F
:10C9700023F00F031E4387F83060C8E7016A1C4BA1
:10C9800001EBD51198470028C1D1AD0005F4FE7523
:10C9900005F1300323442544DA78120602F0704290
:10C9A0001643C6F30727310C320E85F830605F70EE
:10C9B0009970DA7001232371BDE8F081016A0C4B94
:10C9C00001EB152198470028A1D16D0005F4FF75F2
:10C9D0006219C6F3072382F83130012382F83060F0
:10C9E0002371BDE8F081C6F307162744C3E700BFF3
:10C9F00041C240002DE9F0410546884601BBC668AA
:10CA000083695EB39E4228BF01262E4F34460FE055
:10CA1000012E25D9022B10D9022428462146B847D9
:10CA200038B3411C21D0012807D0A64218D0AB69E9
:10CA300001349C42ECD2012CEFD80120BDE8F081FA
:10CA40000129FAD983699942F7D21E4B98470128E8
:10CA5000F3D9AB698342F1D84646D6E70126D4E73D
:10CA60000020BDE8F0810128E7D14FF0FF30BDE89C
:10CA7000F081AB69A342E0D9284621466FF07042AD
:10CA8000114EB0470028EED1B8F1000F0BD0B8F12D
:10CA9000010FD2D9AB699845CFD2414628462246EC
:10CAA000B0470028DFD12B69EC605A1C06D0013B4F
:10CAB00001222B616A712046BDE8F0812046BDE865
:10CAC000F08100BF81C74000F5C840002DE9F84F54
:10CAD000C5880135ADB204460E4615B90420BDE83F
:10CAE000F88F0369002BF9D015F00F0708D0006804
:10CAF00000EB471330336361E5800020BDE8F88F19
:10CB0000C16801330361006861B18278013A12EAB9
:10CB10001512EDD1012902D98269914206D3022072
:10CB2000BDE8F88F0289AA42D8D9E1E7344B98478B
:10CB300001288046F3D9B0F1FF3F1CD020688269FC
:10CB400042450ED9A8F10206C4F80C808269023A67
:10CB500096423BBF8178826A002601FB0626266149
:10CB6000C6E7002EBAD0E168264B9847804628B920
:10CB70000720BDE8F88F0120BDE8F88F0128CED04E
:10CB8000B0F1FF3FF7D02068DFF87C900021C84764
:10CB90000028F0D12268014602F1300302F50C7240
:10CBA00003F8011B9342FBD123689A69A8F102069E
:10CBB000023A96423BBF9A6A9978002201FB06220C
:10CBC000DA624FF0000A4FF0010B0BE083F804B07B
:10CBD0002068C8470AF1010A0028CCD12368DA6A24
:10CBE0000132DA62236898785FFA8AF290424FF055
:10CBF0000001EBD8D96A8A1ADA622068A4E700BF7C
:10CC000081C74000F5C9400041C240002DE9F0470E
:10CC1000FF2704463D460420424EDFF8148109E018
:10CC2000BCF10F0F1DD0FF25204600213E4B984739
:10CC300000284CD1216900294DD02068B047002838
:10CC400045D162691378002B40D0E52BD17AEAD028
:10CC50002E2BE8D001F03F0C0907E1D4BCF10F0FF7
:10CC600049D159062FD5E188577B218403F0BF05B0
:10CC700092F80DE0BE45D6D11178D4F81CC02B4BEC
:10CC800001F03F01013901EB410001EB8000012778
:10CC90004FF6FF7907E0FE2812D82CF810100F4647
:10CCA000013043451BD013F8011F02EB010A515C10
:10CCB0009AF801A041EA0A21002FECD14945F0D0B1
:10CCC0007746FF25B0E79D42ADD1D1E70420002390
:10CCD0002361BDE8F0870028F9D1BDE8F08713781B
:10CCE0005B0604D5FE28EBD800232CF81030013D5C
:10CCF000EDB2774698E77DB902F10A06014601E0F8
:10CD000012F8013FCD0145EA510153FA81F1B242D7
:10CD1000C9B2F5D18F42E0D04FF6FF732384BDE84E
:10CD2000F08700BF41C24000CDCA4000C7E04100CB
:10CD3000D4E041002DE9F843C588018C144B4FF62F
:10CD4000FF72914208BF2946044698470246E0B95F
:10CD5000104EDFF844904FF0E50801270AE06369C0
:10CD600083F8008023681F71E388AB420DD2C84767
:10CD7000024638B921692068B0470246014620467C
:10CD8000002AECD0042A08BF02221046BDE8F8832E
:10CD90004DC8400041C24000CDCA40002DE9F04FCF
:10CDA0004FF0FF0885B0524FDFF84C91DFF84CA1EF
:10CDB0000546464608E00F293ED0FF2628460021BA
:10CDC0004C4B9847002834D128682969B84780BB64
:10CDD0006C692278002A78D0E37AE52A03F03F01D3
:10CDE000EBD01B07E7D40F2926D08EB9944604F167
:10CDF0000A062246034601E012F801CFD90141EAB2
:10CE000053035CFA83F3B242DBB2F5D1434510D051
:10CE10004FF6FF72AB692A84DA7AD207CDD404F1D7
:10CE20000B0614F8011B13F8012B9142C5D1B44233
:10CE3000F7D105B0BDE8F08FEB69002BBED05106ED
:10CE40003FD5E98894F80D80298402F0BF06617B04
:10CE50004145B2D12278DFF8A8B022F04002013A71
:10CE600002EB420C02EB8C0C4FF6FF78012203E040
:10CE7000404535D1CB452CD01BF8010F04EB000EFB
:10CE8000205C9EF801E040EA0E20002AF0D00CF170
:10CE900001028DE80A100392D047DDF808C0BCF10A
:10CEA000FE0F02469DE80A001AD833F81C000292D1
:10CEB000D047029A82429DE80A0011D1DDF80CC0E9
:10CEC000D8E7B2427FF479AFC1E7042005B0BDE8EE
:10CED000F08F2078400606D52AB133F81C3013B104
:10CEE0008846FF266AE7013EF6B2884666E700BF3D
:10CEF00041C24000CDCA4000D4E0410075E5400089
:10CF0000C7E041002DE9F04FD0F818A0C56989B0FD
:10CF10000AF1FF360446324605AB12F8011F03F84A
:10CF2000011B08A98B42F8D19DF81F300193DA0745
:10CF300056D4B14F019B9B0700F1C2804FF001090D
:10CF400020460021B847002847D18246AB4EDFF883
:10CF5000B482054605E01D46C0470346002840F060
:10CF6000CE8021692068B047034605F1010C2046B8
:10CF70000121002B40F0C38062691278E52A01D0BC
:10CF8000002AE8D10DB9B4F806A01FFA8CF54D457A
:10CF9000E2D1B9F1010F40F0B68020682169B047B5
:10CFA000D8B96569014605F120022B4603F8011B3B
:10CFB0009342FBD1A26905F10B002B4612F8011B2D
:10CFC00003F8011B8342F9D1A369DB7A03F018034C
:10CFD0002B73236801221A71002009B0BDE8F08F7D
:10CFE0000023854FDFF820828AF80B304FF00109CB
:10CFF000E3610DF11F0B324605AB13F8011B02F87C
:10D00000011F5B45F9D1B9F1050F57D92888294689
:10D010004A4600E01846D30343EA520231F8023F81
:10D0200010FA82F292B2002BF4D1072302F00F0023
:10D0300000F13001392988BF00F13701013B03A815
:10D040001844C2F30F124170002AEFD108A9194405
:10D050007E2001F8140C002B4FD09AF800102029E4
:10D0600014D0514603E011F8010F20280ED00132F0
:10D070009A42F8D1072B0BD808A91944013311F8AB
:10D08000141C0AF802100132072A07D8072BF3D91B
:10D0900020210AF802100132072AF7D92046002180
:10D0A000B84710BB2046C047F8B909F101091FFA7B
:10D0B00089F9B9F1640F9ED107208EE74A46B4E79B
:10D0C0002B88002B3FF43AAF002301339BB235F895
:10D0D0001320002AF9D14A4A193382FB0319DB17BE
:10D0E000C3EBA9091FFA89F92AE704287FF475AF71
:10D0F000019B8AF80B30E5611CE71A46C6E7184623
:10D1000009B0BDE8F08F51462046B84703460028D5
:10D11000F5D1A269834602F10B0012F8013B4FEAF8
:10D12000CB1141EA5B0B53FA8BFB82425FFA8BFB1C
:10D13000F3D109F1FF391FFA89F9DFF8D080CDF872
:10D1400000B0CB4620682169B04703460028D6D1FD
:10D150005FFA8BFA6569009BD4F81C906B730AF137
:10D16000FF3202EB42010F27034602EB8101EF720F
:10D170002873A876E87602464FF6FF77FF2010E086
:10D1800039F8113005F80E300132AE444FEA132C55
:10D19000002B08BF3B460D2A01F101018EF801C0AA
:10D1A0000CD0BB4218F802E0EAD105EB0E0C0132BC
:10D1B0000D2A05F80E008CF80100F2D14FF6FF722F
:10D1C000934202D039F811300BB94AF0400A85F881
:10D1D00000A023680B4A01211971204600219047C5
:10D1E000034600288BD10BF1FF3B1FFA8BFBBBF1F1
:10D1F000000FA7D1D1E600BF4DC8400041C240009A
:10D200004FECC44ECDCA40009DCD4000C8E0410067
:10D210002DE9F04104460D46A369164FDFF858800A
:10D220009D4220D2012D0BD920462946B8470646FB
:10D23000C8B1012804D0013018D0A3699D4202D39F
:10D240000220BDE8F081002229462046C047012285
:10D2500068B92369591C02D0134423616271A36920
:10D2600035469D42DED30020BDE8F0810120BDE8B7
:10D27000F08100BF81C74000F5C840002DE9F04FA4
:10D280000B782F2B83B08946064600F033815C2B48
:10D2900000F030810024B46099F800001F2840F2AB
:10D2A0003281A74D01E019F8010F2F28FBD05C282F
:10D2B000F9D01F28F76940F2EC802F282DD05C2888
:10D2C0002BD00121A7F1020BCA460124A84700B3C5
:10D2D0007F2809D822281CD09A4A01E0984218D009
:10D2E00012F8013F002BF9D12BF8020F1AF8010FA9
:10D2F0001F2804F1010340F2CE802F280FD05C28B4
:10D300000DD0B3F5807F04D001211C46A84700282A
:10D31000DED1062003B0BDE8F08F0024012399443C
:10D320004FF0000B002CF4D007EB440030F8022D36
:10D33000202A01D02E2A02D1013CF7D1E9E70023AF
:10D3400027F81430B36907EB440003F10B012022E6
:10D3500003F8012B8B42FBD1BB1E4FF0000A01E00A
:10D360000AF1010A33F8022F202AF9D02E2AF7D029
:10D37000BAF1000F01D04BF0030B034633F8021D46
:10D380002E2901D0013CF9D14FF0000C1046E046A7
:10D3900008230AF1010A78B320281FD02E281BD0B9
:10D3A0009C4520D254457AD07F2800F283802B28D8
:10D3B00000F09080644A02E0884200F08B8012F80E
:10D3C000011F0029F8D1A0F14101192900F2A6801E
:10D3D00048F00208C0B280E0544560D04BF0030B27
:10D3E00037F81A00D5E70B2B00F0A680544558D02B
:10D3F000A2454BF0030B54D9B1690878E52875D0E4
:10D40000082B04BF4FEA88025FFA82F808F00C0389
:10D410000C2B68D008F00300032864D01BF0020F27
:10D4200009D108F00302012A08BF4BF0100B042BAE
:10D4300008BF4BF0080B81F80BB030460021434B7E
:10D440009847D0B9424B30469847B369DB7AB0B9B8
:10D4500059073FF55FAF7369DA7AD20668D55C7D0C
:10D460001A7DD87E997E42EA042241EA002343EAEB
:10D470000243B36099F8000017E7B369DB7A042828
:10D480007FF448AF13F0040F08BF052003B0BDE8D8
:10D49000F08F0024012399444FF0040B42E70B2B3B
:10D4A0004AD04FEA88025FFA82F8A2460B234FF077
:10D4B000080C95E700218DE80810A8479DE80810A2
:10D4C00048B3244A10444BF0020B10F8800C00289B
:10D4D0007FF46DAF4BF0030B5F20B16901F80C00D6
:10D4E0000CF1010C7CE74BF0020B97E7052008706C
:10D4F000B16985E709F101090024B46099F80000D9
:10D500001F283FF6CEAE30462146104B9847746137
:10D5100003B0BDE8F08F4BF0020BDBE7A0F1610137
:10D52000192997BF2038C0B2C0B248F00108D4E72B
:10D53000052003B0BDE8F08F4BF0030B0B235BE736
:10D5400029E54000B4E04100C0E041004DC8400082
:10D550009DCD400034E04100F0B410B10B20F0BC90
:10D5600070470B4D2B685BB10A4C07462646225884
:10D57000934208BF87510C302428F8D100221A703A
:10D5800009B100230B7029600020F0BC704700BF78
:10D59000C4330020A03300202DE9F04FADF50F7DFE
:10D5A000002303601646019102F01E029A4B0446C6
:10D5B00005A901A8984702AB0EAA0B930C9206F09E
:10D5C0001F0730B116F01C0F1AD10DF50F7DBDE805
:10D5D000F08F0199914B05A898470A9D0028F1D139
:10D5E000002D00F0AB8037F001080CBF00210121B5
:10D5F00005A88B4B984716F01C0F1BD0002850D065
:10D600000428E2D1874B1A682AB1DA681AB19B69FB
:10D610001220002BD9D105A8834B984747F0080763
:10D620000A9D0028D1D1380700F18A80059E27F095
:10D63000010811E00028C8D1EB7AD9063ED4B20720
:10D6400001D5DB0735D406F00803DBB2059E1BB11C
:10D6500047F0200727F00108F36A0798BDF81AC0C1
:10D66000724AE3612562002352F8081CB1422AD0B5
:10D670000133032B02F10C02F6D16A4A1368002B26
:10D6800000F09A80D368002B00F095809369002BFE
:10D6900000F0AC800023022063620DF50F7DBDE831
:10D6A000F08FEB7A13F0110F03D17607BBD508206A
:10D6B0008BE707200DF50F7DBDE8F08F04200DF5F9
:10D6C0000F7DBDE8F08F52F8041C8142D0D1118843
:10D6D0006145CDD15900534AC81802EB80004089FA
:10D6E000B8F1000F61D1013080B2194402EB810220
:10D6F000013350816362002B52D0A771687DA97EEF
:10D700002A7DEB7E42EA002241EA032343EA0243F8
:10D710002361AB7FE87F297F6A7F26601B0443EA91
:10D7200000630B43002043EA0223E360A060A06192
:10D73000F388A3800DF50F7DBDE8F08F062041E74B
:10D740003B4B984795F815C0AB7E297DEA7E059E38
:10D75000A8734FEA104841EA0C2143EA0222C0F3C1
:10D760000729002385F81080000E4FF0010C52EAC3
:10D77000014885F80F906874EB722B776B77AB7765
:10D78000EB77AB76EB762B756B7586F804C03FF4C0
:10D790005FAFE045D6F82C9002D0B369984527D307
:10D7A00002200DF50F7DBDE8F08F00287FF472AFE9
:10D7B0004FF4807099E70123590001EB030C4FEA05
:10D7C0008C0C02EB0C0042F80C60DDF81CB0BDF8CC
:10D7D0001AA0C0F804B04FF0000CA0F808A0A0F800
:10D7E0000AC0B8F1000FE3D140467CE70223E3E72B
:10D7F000304641460F4B984700287FF4E6AE059827
:10D800000D4B08F1FF324946C260984700287FF46B
:10D81000DCAE059E1CE700BF51C440007DD2400035
:10D82000C5C04000A033002005CF4000A833002031
:10D830006DC0400011D2400041C240002DE9F04FC0
:10D840009B4606460023CBF8003083B00D460068A7
:10D85000B188624B1446984728B9B3791F0605D49E
:10D86000D80707D4072003B0BDE8F08F022003B02B
:10D87000BDE8F08FB168F7687F1ABC4238BF274611
:10D88000002F00F0A880C1F30803DFF85881DFF80B
:10D890005891002B3ED130688378013B03EA512335
:10D8A00013F0FF034BD072698169A2F1020C0239B7
:10D8B0008C4571D28278816A02FB0C1100296BD0F1
:10D8C0007C0A01EB030A43D01919914288BFC3EBCC
:10D8D0000204E3B2407829465246C047B379002893
:10D8E00061D15A0604D5B369CAEB03039C425FD8E1
:10D8F0006202B168AB181144B160DBF80010BF1AC6
:10D9000011441D46CBF8001065D0B168C1F308037F
:10D91000002BC0D0C3F5007203F12804BA4228BF1F
:10D920003A4634442B46002AE5D0AB18294614F871
:10D93000015B01F8015B9942F9D1B168DBE729BBD2
:10D940003269012A28D9511C2CD030687261ABE7AA
:10D95000B269524514D0B3795B0606F1280409D5A3
:10D96000012340782146C847B379E0B923F040034A
:10D970003068B3714078214652460123C04788B9C8
:10D98000B168C6F818A0C1F30803C3E7716901299B
:10D9900002D98269914218D3B37963F07F03B371DE
:10D9A000022060E7B37963F07F03B37101205AE787
:10D9B00005EB432303F5007006F1280212F8011B62
:10D9C00003F8011B8342F9D192E70193044A90477F
:10D9D000019B0246B5E7002045E700BF9DC340001C
:10D9E00081C7400015BF400089BF40002DE9F84FB6
:10D9F0001E460446002333600F460068A1886F4B23
:10DA00001546984728B9A379180604D4990705D470
:10DA10000720BDE8F88F0220BDE8F88FE268D54204
:10DA200009D3A16843F02003914288BFE160A3714C
:10DA30000020BDE8F88F002DF3D0DFF888A1A268A0
:10DA4000C2F30803002B6BD1206890F802C00CF1E0
:10DA5000FF3C0CEA522C1CF0FF0B0DD1002A40F0C9
:10DA600089802169002900F08E80012900F09F80C3
:10DA70004A1C78D020686161A279530666D4616936
:10DA80008269A1F10208023A904580F09080817885
:10DA9000826A08FB0122002A00F089805FEA55298A
:10DAA0000BEB020831D009EB0B028A4288BFCBEBAB
:10DAB00001094078394642465FFA89F3D047002889
:10DAC00051D1A269C8EB0208C1450FD907EB482222
:10DAD00004F1280304F50A7012F8011B03F8011B76
