S0100000427261696E4D43552E7372656343
S214408000F0630020250B4100210B41004D0D41003F
S214408010510D4100550D4100590D41000000000032
S21440802000000000000000000000000031CA4000D0
S214408030210B410000000000E9CA40005D0D4100F0
S214408040210B4100210B4100210B4100210B410037
S214408050D9E24000210B4100210B41000000000006
S214408060E5F340002DF44000000000006D0941009B
S21440807081094100000000007DF44000CDF440003E
S2144080800000000000000000210B4100210B4100D1
S214408090210B4100210B4100210B4100210B4100E7
S2144080A0210B4100210B41000000000000000000B1
S2144080B000000000210B4100210B4100210B410034
S2144080C0210B4100210B4100210B410010B5054C0E
S2144080D0237833B9044B13B10448AFF3008001232F
S2144080E0237010BD940D00200000000004C0410025
S2144080F008B5064B1BB106480649AFF30080064854
S214408100036813B1054B03B1984708BD0000000053
S21440811004C04100980D002004C04100000000004B
S214408120014B0360704700BF050000A510B51B4B10
S2144081301B7882B043B91A4B1B78042B0CD8DFE867
S21440814003F0161B20250D00164B174C186800230D
S2144081501A4600930121A04702B010BD134C0E20D2
S214408160A0470C20A0470D20A04702B010BD0F4BE3
S2144081700E20984702B010BD0C4B0D20984702B019
S21440818010BD0A4B0C20984702B010BD074C0E207D
S214408190A0470C20A04702B010BD00BFBC1E002068
S2144081A0B41E0020B81E002009DE400079EB4000D7
S2144081B0F0B50E4C03780E4A47788678237083B025
S2144081C0002300920B480C4D6770FA210122A670DE
S2144081D0A8470A4B186010B1002003B0F0BD014616
S2144081E0074B08489847012003B0F0BDC01E00204A
S2144081F02D81400038A94100BDDD4000B81E00205A
S214408200450E410044A941002DE9F0473F4E404FFE
S21440821082B0054630688846B847002853D13D4C62
S21440822001210E20A04701210D20A0470C2001214E
S214408230A047394A394B157083F80080052D07D87A
S214408240DFE805F003323B382C550E200021A047CE
S214408250052D07D130682D4CB847A0B9002002B094
S214408260BDE8F087B8F1000FF4D12D4B346898473D
S214408270002302461946204600932A4CA047002079
S21440828002B0BDE8F08700232068264C00931A46CB
S2144082900121A047002002B0BDE8F08700210E2053
S2144082A0A0470C200021A0470D200021A047052D07
S2144082B0D0D0D7E70E200021A0470C200021A047B1
S2144082C0052DC7D0CEE7002422462346012130683C
S2144082D0DFF850900094C847114BD6F800A0984756
S2144082E021460246009450462346C84797E7012158
S2144082F00E20A04701210C20A0470D200121A047B9
S2144083003068024CB8470028A8D0BCE7B81E00200A
S21440831081E040001DEB4000B41E0020BC1E002043
S214408320FDD4400009DE40002DE9F04FA7B00646D8
S21440833000210DA864228D4BDFF8F8828C4D8D4FBE
S214408340DFF8F4928C4C9847B24601E00A20A047EA
S214408350DAF800000DA96422A8470028F6D10DA837
S2144083608649844E6422B847002800F081800DA8D4
S21440837083490622B04780B90DF13A0081490C2264
S214408380B047002879D00DF13A007F495E22B047C9
S2144083900028DBD189F80000D8E70DA87B49642285
S2144083A0B04700286DD00DA879496422B047002810
S2144083B06AD00DA877496422B047002868D00DA837
S2144083C075496422B0478346002872D00DA8734989
S2144083D06422B04700287ED00DA871496422B04779
S2144083E08346002800F085800DA86E496422B04779
S2144083F0002800F0B0800DA86B495E4E6422B84756
S2144084008346002800F01A810DA868496422B047C8
S2144084108346002800F028810DA865490722B0470A
S214408420002870D10DA8634EB04717288ED908AAE9
S21440843009AB009201930AAE0BAA0CAB02960392CC
S21440844004930DF13B005C495C4E06AA07ABB0476F
S21440845007287FF47BAF0AA90EC9594E5948B04742
S2144084600998594E06A90EC900905648B0476DE780
S21440847056485749574A904768E7012389F80030DD
S21440848064E75548C04761E764215348C0475DE705
S214408490524B5348514E98475248B0475248B047BF
S2144084A0524A5348534E90475348C047012333706F
S2144084B04CE7524A4A48514E9047504B4948984795
S2144084C04948B0474E4A4A4890474E48C047494BAD
S2144084D083F800B03AE74C493C483E4EB0474B4ADA
S2144084E03F484A4E9047494B3E4898473E48B047DB
S2144084F02CE75946464A0A2090474648C0473D4BD7
S21440850083F800B022E70DA843490322B04700286D
S21440851000F0BA800DA841496422B047002800F018
S214408520CF800DA83E496422B0478346002800F01D
S214408530D6800DA83B496422B047002800F0298128
S2144085400DA839496422B047002800F0C3800DA921
S2144085503648C047FAE601210A202D4EB047344837
S214408560C047244A00231370F0E600BFF9144100C8
S214408570F1F14000E11B410049D7400070A941009D
S214408580A4A94100ACA94100BCA94100D0A9410022
S21440859008AA410014AA410038AA41005CAA41003A
S2144085A078AA410098AA4100B8AA4100D0AA410042
S2144085B000AB4100811B410008AB41007D174100E4
S2144085C04DA8400060140E4059A9400054000020B9
S2144085D080A9410009F34000E4A94100C1034100DD
S2144085E0A0000020D00000200001002015F9400027
S2144085F030010020B00D002020AA4100D9034100E0
S21440860025F9400044AA410068AA410005044100FB
S2144086101DEB400088AA410020AB4100A8AB4100BA
S214408620B8AB4100C8AA41000CAA410000AD4100C9
S214408630A8AA4100450E41000C100020574B574E4B
S21440864059460B20984759460920B0473220A04744
S21440865001210B20B04701210920B0475048C047B0
S214408660504A82F800B071E64F4B50484E4E9847FD
S2144086704F48B0474F48B0474F4A90474F48C0478B
S214408680484B83F800B061E64D494E484E4EC047D1
S2144086904E4A4F494F48C0474F495048C0470AA9DD
S2144086A00BAA0CAB4E48B0470C9900910A9A0B9B0C
S2144086B04C494D4E4D48B0474C494D48C04745E65D
S2144086C04C4A3C484B4E90474B484A4B9847384854
S2144086D0B0473BE60146494E0120B04736E646489D
S2144086E04749484A484E904759464848C047F16926
S2144086F04748C047474B7069984701464648C04779
S2144087000BF1010B0120A047BBF1030F06F1300629
S214408710EAD1394841493B4A414E90473168414841
S214408720DFF854B1C047F1693F48C047316A3F4817
S214408730C0470120A047B16A3D48C047716B3D48DD
S214408740C047716A3C48C0470120A0473B4A38367C
S2144087509642E3D13A4B3B4E19683B48B04701201E
S214408760D8473A4A3A481168B0473A4B3A4E1868A2
S214408770B047344A334E014638489047384B9847BE
S21440878001463848B0473848384A90473648B04798
S214408790DCE53748374B9847D8E500BF1DEB40002F
S2144087A0C4AA4100B00D00208DF140008800002092
S2144087B06C0000203C000020D5EA4000E0AA4100C2
S2144087C03CAB410024AB4100F1A7400064AB410004
S2144087D058AB410044AB41002C1B002070AB41001D
S2144087E060140E4084AB410031174100B40D0020A8
S2144087F094AB41003DF3400054000020E58B400020
S214408800C4AB410009F34000A0000020D8AB4100B3
S214408810E0AB4100D9F14000F8AB410020AD41004B
S2144088204001002010AC41001CAC410030AC41007F
S21440883048AC410060AC410084AC410038030020A5
S21440884014100020450E4100A0AC4100A81D002099
S214408850BCAC4100A41D00205DD04000D8AC410017
S2144088601DD54000F0AC4100180E002041D8400015
S21440887000140E402181400049D740002DE9F04FBA
S21440888083B00DF1080A3E4BDFF83481DFF828B19B
S214408890DFF830913B4E3C4F00244AF8044D984751
S2144088A03A4A3B4B106030221A7000210B460A228F
S2144088B0384DA847012831D0DFF80CC19CF800306D
S2144088C0012B654644D098F8003013B30CB300250E
S2144088D008E001993368641A0B4401200D44336064
S2144088E0B84774B198F80030002BF2D02A48DFF829
S2144088F0DCC00BEB050122465346E04789F80000F2
S214408900E7E72548254A904789F8000040BB012004
S214408910B8471E4D0A20B8472868C6E7DFF894C017
S214408920DCF8003023B1DCF80030B3F5007F1CD90A
S214408930DFF858C01A4DDCF8000000210B460A4606
S214408940A847DFF884C09CF80030012B6546BAD1B2
S2144089501148144A9047002388F800302B70B2E73D
S2144089600146114B11489847D1E7114B114DDCF8A1
S214408970002011481149984700232C682B60D7E700
S2144089805DCE40001410002049D740001010002053
S2144089902412002009CF4000C41E00203DC64000DF
S2144089A04DCD4000F5C64000450E410030AD41007B
S2144089B0C5134100201200201C100020C0120020C9
S2144089C0BC1200201C120020181000205DC440007D
S2144089D0F8B5144C144D0E46002107460B46206849
S2144089E00522A847012802D001252846F8BD0F4D8C
S2144089F02B683344B3F5007F08D305460021206832
S214408A000B4C0A460B46A0472846F8BD2A6809483C
S214408A10094B10443946324698472B681E442E6010
S214408A200025EBE71010002009CF40002012002060
S214408A304DCD4000C0120020C51341002DE9F04145
S214408A403C4B3D4D0FCBADF52C7D05AC07C42A788D
S214408A5024F8023B00211B0C012A237004911ED0EF
S214408A6005A922A81322354EB047C0B9259B002B36
S214408A7034D10122049209AC314B3249324F204660
S214408A809847002122A8B8472046304B98472146B1
S214408A9002462F4C22A803ABA047044620B1012033
S214408AA00DF52C7DBDE8F0812A4BDFF8D88022A852
S214408AB09847049B0093284A284BDFF8CCC02848A8
S214408AC09621E047D8F80000DFF8C0C0214664226F
S214408AD02346E047012813D02046E1E709AC21466B
S214408AE022A8642202AB1F4FB8470028D7D104AA59
S214408AF020461D491D4B9847049A01320492BBE715
S214408B001B4817491222B04780B91A481A4B984753
S214408B1017481A4CC168B8470021D8F800000A46E2
S214408B200B4601262E70A0470020B9E7124B14488A
S214408B309847EDE798AD4100BC12002009C04000C0
S214408B403117410050AD410041C74000811B4100F4
S214408B505DC44000F5C6400058AD41002C1B0020C7
S214408B6024120020ADC2400098AC41007D17410061
S214408B70C41E002074AD4100450E41004DCD40005E
S214408B8080AD410010100020C916410009CF4000BA
S214408B9038B50C4B1B780BB9012038BD0A4C0B4D31
S214408BA0206800210B466422A8470128034600D0CF
S214408BB038BD074A206813700021064C0A460B460B
S214408BC0A047F5E7BC1200201010002009CF400057
S214408BD0181000204DCD4000014B01221A707047FE
S214408BE0C614002010B5094B82B08DF804001868F2
S214408BF0ADF8061040B101A905220023044CA04759
S214408C0010F1FF3018BF012002B010BDF81600204A
S214408C104DCD400008B500200146014B984708BDA1
S214408C20E58B4000014B1878704700BFC714002002
S214408C302DE9F04F474ADFF88081474B474CDFF835
S214408C407CA1DFF87C91464D464F474E4FF0010BD6
S214408C5083B05946052082F800B098474046A04762
S214408C6008F16000A047414B0024594607201C608D
S214408C70D04759460820D04721460920D0472146AC
S214408C800B20D0473A4B3B48984721463A4B204624
S214408C9098473A4A3A4B10700522D8F814001A60A2
S214408CA0C847D8F84400C847D8F87400C84735487D
S214408CB0C847354B9847354B35491022C3F8802076
S214408CC02046C3F88021884795F80090B9F1000FF8
S214408CD00BD10020224CB8472E48B0472E4B214699
S214408CE0002098472B78002B31D100242B4B2C703A
S214408CF0204698472A4B2B4D9847D8F81400A8474B
S214408D00D8F84400A847D8F87400A8471D48A84794
S214408D101C482549254B98471C4B194910220720CB
S214408D2008601A602146D04721460820D047204B8D
S214408D30ADF8064018680C238DF8043020B1234661
S214408D4001A905221B4CA04703B0BDE8F08F84F86C
S214408D500090BEE7C714002009824000B9044100D5
S214408D60F8200020F50A410001000020241B0020C6
S214408D70450E4100A8AD4100C9BF4000C4140020C4
S214408D8010E000E0540000202DEC400000E100E040
S214408D90FDEB400025CA820049EB4000E9EB40006D
S214408DA099EA400019EE4000C0AD410009F340008A
S214408DB0F81600204DCD4000A00000201DEB4000DE
S214408DC08DF1400070B51C4A1C4B1D4C1D4E84B0A6
S214408DD0022500210120157098471B4B00250121D4
S214408DE007201D70A04701210820A0476420B047F7
S214408DF029460720A04729460820A0476420B047B8
S214408E00124B5A6A22B9124B1248984704B070BDAA
S214408E10114A029507218DE8060003950F48104930
S214408E20104C4FF48072A0470128ECD001460E4B00
S214408E300E489847E7E700BFC71400200982400065
S214408E401DEB400049D74000EC200020A000002049
S214408E5011F9400030010020FC160020CD024100F0
S214408E60D4AD4100A1D14000450E4100D8AD4100EF
S214408E7010B50021054C0920A0470B200021A04733
S214408E80034B186808B1034B984710BD1DEB4000D4
S214408E90FC16002081D340002DE9F0412A4C2B4D92
S214408EA0E06A2B4F2B4EA847D4F88C00A8470120E9
S214408EB0B8472046B0470546002838D104F1600040
S214408EC0B0470646002826D1E06ADFF8B880224D33
S214408ED0C047D4F88C00C0472049214A214B096836
S214408EE011603046042231461A70A8471E4B9847F8
S214408EF000BB40F6B830B84701210020A8471B4CBD
S214408F001148A0471A48A0471A48A0471A4B1B4882
S214408F109847BDE8F08129460B20194B194D9847D4
S214408F20E06AA847D4F88C00A847BDE8F0810B203B
S214408F300021F2E714481549154B98473146104B27
S214408F4005209847D5E700BFA0000020D5D94000AF
S214408F5049D740001D044100098240007C1E002085
S214408F60C0140020C71400203D8A4000C1034100C1
S214408F70D00000200001002015F9400030010020FC
S214408F80E58B400001D4400054000020FCAD410079
S214408F9009F3400038B5094D094C2846A04705F16D
S214408FA03000A04705F16000A047064B06489847AA
S214408FB0064B64209847064B984738BDA0000020D3
S214408FC0D903410025F940003001002049D7400030
S214408FD0918B400010B50A490A4A0C680A4B82B089
S214408FE003211170984700230246194600932046F5
S214408FF0064CA0470121064B0220984702B010BD00
S214409000F0200020C7140020FDD4400009DE4000B8
S2144090100982400010B5054B054C186882B0002305
S2144090201A4600930121A04702B010BDF020002050
S21440903009DE400030B50B4B0B4A1D680B4B83B026
S21440904005211170984700240246214623462846AB
S2144090500094074DA8472146064B0320984703B087
S21440906030BD00BFF0200020C7140020FDD44000D3
S21440907009DE40000982400010B5054B054C1868D3
S21440908082B000231A4600930121A04702B010BDCB
S214409090F020002009DE40002DE9F04385B00DF1B8
S2144090A00F0110203D4B98479DF80F10012906D020
S2144090B03B4B00221A70012005B0BDE8F083394BC7
S2144090C0394C3A4E10209847394B9847394B0093C5
S2144090D000221346384841F28831A04730600446A3
S2144090E0002850D0354BDFF81481DFF8B490344D6B
S2144090F0344F984700230246194620460093C047FF
S2144091000020A84701282BD00028F9D199F8004024
S214409110DFF88CE0002CF3D1009401218EF800405B
S214409120224623463068C0470321224623463068FD
S2144091300094C047244B254821464FF40C7298476C
S214409140234B224920469847224B0B28187020D0A4
S2144091502148224B984788B9214B01221A60ABE739
S2144091602048214CB8472148B8470020A04702284D
S214409170FBD199F80030002BF7D1C1E71C48114BC2
S2144091809847012098E701460E4B1A48984734689E
S214409190A8E719480B4B984701208DE749EB40005C
S2144091A0C614002091EB4000BDDD4000F4200020B6
S2144091B0D5954000D98B400024AE4100FDD44000F8
S2144091C07D9F4000450E4100F9144100C814002020
S2144091D0C9BF4000C5140020BCAE41009DE340001E
S2144091E0241B002068AE4100F59540007CAE41004F
S2144091F0CCAE410040AE4100A4AE410009DE400086
S21440920030B587B0C3B205900C2B27D8DFE803F003
S2144092103E4B5A652C653265656807652800564B97
S2144092201B78022B1AD15548BDF816200178544CAD
S214409230013101239340C9B2DDB2017023781AB1DF
S214409240012A01D0022A00D12B430229237073D968
S214409250052B6BD00B2000214A4B984707B030BDFA
S214409260454B1B78012BF9D1474B984750B9474B94
S2144092709847F3E7404B1B7803F0FB02012AEDD0FA
S214409280042B39D0424B984707B030BD3A4B1B7839
S214409290042B34D0022B3ED0032B36D0052B31D0B6
S2144092A0012B25D1DAE7344B1B78042B30D0022B28
S2144092B0D4D0032B32D0052B3BD0364B1B68012B2A
S2144092C0E0D1D4E72C4B1B78032B2AD0042BC5D1F6
S2144092D0314B9847314B9847C0E7274B1B78CFE731
S2144092E0254B1B78042B0AD0032B0ED0052B09D018
S2144092F02B4B984707B030BD274B9847C2E7264BC5
S2144093009847F5E7274B9847F2E7274B9847EFE70C
S214409310214B9847D1E7254B9847E9E7224B98479A
S214409320CBE7214B9847224B984797E71B4B9847EC
S21440933094E71C4B9847C0E7012908BF02211D4A05
S2144093401D4B08BF0170019201EB4101002207202E
S21440935003EB011300900292039218481849194CE7
S2144093604FF48072A04701283FF478AF0146164B71
S2144093701648984772E700BFC7140020EC2000202C
S214409380ED200020E58B400099904000C58D4000C0
S21440939035904000241B0020958F4000D58F40001C
S2144093A0318C40007990400015904000718E40000E
S2144093B0998E4000FC160020A0000020CD024100FF
S2144093C0D4AD4100A1D14000450E4100D8AD41008A
S2144093D0F0B585B01A4B00930022134619491A4837
S2144093E01A4CA0471A4B0146186028B3194D0A205C
S2144093F00421194B194C98472060C8B100252B46CC
S214409400174E8DF80C5003A90522ADF80E50154F97
S214409410154DB047154E01E03220A847206803A9F5
S21440942064220023B0470128F6D10398B847F3E7F3
S2144094300F48A84705B0F0BD064D0E48A847D6E7EA
S214409440158C4000E0930400ECAE4100BDDD4000CA
S214409450F0200020450E4100D5CC4000F8160020F4
S2144094604DCD40000192400049D7400009CF400012
S214409470FCAE410040AE410010B5074A074B1268AB
S214409480187892F822301168054C527C003318BF89
S2144094900123A04710BD00BF041700200A17002074
S2144094A06DA34000F8B5C500344C291804EB810183
S2144094B001268A68530903F5001303F207735B021B
S2144094C002F01F02DB6B06FA02F2134001F10801BC
S2144094D010D18979B14206D0284404EB8004042395
S2144094E0A3730220F8BD264A1278002AF4D0254AF3
S2144094F01360F1E78B79042B2AD0012B03D0032B82
S21440950018D11846F8BD1E4B1B782BB11D4B1A6858
S214409510D20330D500221A602918890063181A4FE2
S21440952002269E736750012700215F7483F822103D
S2144095309B7BE4E7054404EB85041449144A154B29
S21440954010700C609847A07B831E58425841F8BD67
S2144095500C4B8E711A6832B909490F4A0E705A6020
S2144095601E600220F8BD064A0C480D4B00211170C3
S21440957098470220F8BD0220F8BD00BF0C0000202E
S2144095800217002010E000E0801A060004170020B2
S2144095900A17002079944000C0E1E40025CA820002
S2144095A00100002038B5084D084A2B68998941F6D5
S2144095B0093009049047044618B12868044B123015
S2144095C09847204638BD00BF0417002011A440002D
S2144095D045A4400010B50448044A054B0424FF2126
S2144095E084731170984710BD0C0000200A170020A5
S2144095F035A340002DE9F04F054695B0002800F011
S214409600EA8004249E4B1878002800F0DE8020462E
S21440961015B0BDE8F08F45F208504FF4D571B0470D
S214409620002840F0F7804FF000093B68DB7BDA0704
S21440963000F1FC8045F203100021B047002800F0FE
S214409640E080DFF874923D68DFF868A2C8473B6860
S214409650000CA881DA7BD5073AD58A4B9847002874
S21440966000F0CF80DAF80030874D5A7D8748997CE5
S21440967002F0070EC2F3C30255F82E5050F82200EF
S2144096804FF47A7202FB05F200FB02F289091A6077
S21440969040F07981587E93F818C0D97E93F81AE046
S2144096A01D7FDA7D800040EA8C20490040EA9E100B
S2144096B041EAD511C0F30B0001F007010130023139
S2144096C000FA01F102F00F0201FA02F2920A5A6021
S2144096D099896F4D090443F20710B047002800F0FF
S2144096E090803B68DFF8CCA1DA7BD00730D59989EB
S2144096F041F237100904A847002800F0828001256F
S21440970000952B466348DFF8B8C100210822E047A1
S214409710002876D0294604A85F4B9847002870D08A
S2144097205E4B984700286CD09DF8103003F00F032E
S214409730012B00F02382C0F01C82022B40F01982DD
S2144097409DF81230DB093B6814BF302220221A7481
S2144097504B4D534B2878984703281AD93B68DFF877
S21440976054A1DA7BD10712D59989DFF824B10904D0
S21440977041F23710B047002844D041F2061002218B
S214409780D84700283ED0DAF8003004225A74454BB9
S2144097909847454B984758B13B68DFF818B1DA7B95
S2144097A0D20703D51B7C102B00F2FA803D4B98471E
S2144097B03A68DFF80081D37BD90700F1D980287852
S2144097C00023937300287FF422AF384B98472046F7
S2144097D015B0BDE8F08F364B9847012804467FF415
S2144097E011AF344FDFF8DC803B68294ED8731D74C8
S2144097F09D81C04729464FF48040B04700287FF4FB
S2144098000AAF1F4D3B68287803249C7300287FF4DA
S214409810FEAEDAE7284B9847451C3FF404AFC0F34A
S2144098200B00B0F5D57FECD1A146FEE640F63505F7
S214409830DFF888A0DFF880B00EE0B9F1000F14BF63
S21440984051464FF4FC1144F22950B04750B1D84726
S214409850002878DB013D05D041F237100021B047A3
S2144098600028EAD13B680222DA734FF48040002198
S214409870B0470028C5D041F26905DFF83C8025E0B6
S2144098800A170020A59540007CAF41003CAF410040
S21440989011A4400033110800BDA5400025A6400095
S2144098A05DA340007994400069A34000EDA34000CA
S2144098B0A5944000041700203DA4400000801F40AF
S2144098C069A44000F1A34000013D9AD0AF49DFF8BB
S2144098D0FC9244F20150B047002892D0C04700287E
S2144098E0F2DA00F0C040B0F1804F04D13B68DA7B3A
S2144098F042F00802DA7345F602300021DFF8D082E3
S214409900B04700283FF47DAF3B68A14D01229A81C5
S21440991041F203104FF48031C04700283FF471AF46
S2144099209C4B984700283FF46CAF2B689A7CC2F358
S2144099308302013A032A00F27C81DFE812F07701C5
S2144099407D012401680041000FD53A68D37B43F07F
S2144099500803D373DB077FF56DAE45F60230002172
S214409960B04700287FF466AE4BE73B68DB7BF1E709
S21440997041F210104FF40071B04700283FF442AF58
S214409980D8F800201BE7597E987EDA7E090441EA23
S21440999000210A43C2F31502013252025A6097E68A
S2144099A04FF0010ACDF800A053467B487B49DFF8CC
S2144099B004C24022E04700283FF424AF04A85146A2
S2144099C0774B984700283FF41DAF764B98470028C2
S2144099D03FF418AFC84700063FF514AF9DF8203057
S2144099E003F00F030F2B3FF4E1AE9DF82D309DF8AA
S2144099F02C2053EA02227FF405AFC047DBF8003044
S214409A001A6883F822A002FA0AF21A60CEE64022CA
S214409A101A745A7D93F819E06349644893F818C05D
S214409A209D7E02F00708C2F3C30251F8281050F892
S214409A3022004FEA8E0242EA8C224FF47A7E0EFBD8
S214409A4001F142EA951200FB01F0C2F30B0240F628
S214409A50FF718A42186011D0D97E1D7FD87D49009B
S214409A6041EAD51101F007010132023102FA01F153
S214409A7000F00F0201FA02F2920A5A60998943F204
S214409A8007100904B04700283FF4BBAE3B681B7C78
S214409A903F2B40F2B180002100914548454D4FF4A0
S214409AA000720123A84700283FF4ABAEDFF82481BC
S214409AB0322503A8C047013DADB200283FF4A1AE11
S214409AC0002DF6D13B68039A5D7E187E997EAB00EA
S214409AD043EA802343EA9111C1F30B0140F6FF733A
S214409AE002F0020299425FFA82FA4FF032050DF117
S214409AF0100B73D05846C0470135ADB200283FF42E
S214409B0080AE7F2DF6D92C4DDFF8CC802878C04724
S214409B10032818D92878C0470428804670D027499B
S214409B20274B082818BF194643F20610B0470028AE
S214409B303FF468AEC84702063FF564AE3B68214A2C
S214409B4083F811809047204B984710B1BAF1000F28
S214409B5058D14FF00A0841F210104FF40071B04748
S214409B6008F1FF3800286AD118F0FF083FF44AAEE3
S214409B70F1E7DAF8003010221A74E9E5DAF8003036
S214409B801A221A74E4E530221A7442E700801F4015
S214409B9004170020A59540000611080001FFFF802D
S214409BA0BDA5400025A640007CAF410098AF4100CF
S214409BB00811080069A440000A1700200002B701F7
S214409BC00000B7017994400069A340003DA44000DE
S214409BD011A4400019A540005DA340005846C04768
S214409BE00135ADB200283FF40CAE362DF6D1049ABE
S214409BF03B6852085A607DE7124B134D9847A8E7DA
S214409C00124991E743F206101149B04700283FF445
S214409C10F9ADC84703063FF5F5AD3B680D4A1A60F7
S214409C20012283F82220074B984792E714221A74A1
S214409C30EFE612221A74ECE622221A74E9E63A6833
S214409C40BDE500BF799440000A1700200001B70127
S214409C500001B9030075190308B508B1002008BD16
S214409C60084B98470028F9D1074B1B781BB1074B88
S214409C701B68D87B08BD064B9847044B1B68D87BAF
S214409C8008BD00BFA59440000A1700200417002016
S214409C90EDA3400008B508B1002008BD084B984722
S214409CA00028F9D1074B1B781BB1074B1B68586837
S214409CB008BD064B9847044B1B68586808BD00BF54
S214409CC0A59440000A17002004170020EDA340008A
S214409CD0002070472DE9F04F8B4683B0924628B15E
S214409CE04FF00409484603B0BDE8F08F264B98472E
S214409CF081460028F6D1254C254D264E264F04E0B9
S214409D00B847C20514D4013C09D02B68DFF88880D8
S214409D10998941F20D100904B0470028F0D11F4B35
S214409D201B783BB34FF00509484603B0BDE8F08FBB
S214409D302B681B48DB7B1B4ABAF1010F98BF1046C5
S214409D401B0701D44FEA4B2B0123009359464FF48F
S214409D5000725346144CA0470028E0D0C047134B2F
S214409D600340002BDBD1124A124BA2F800A0A3F806
S214409D7000A0B7E70020104B98474FF0050948462B
S214409D8003B0BDE8F08F00BFA5944000410D03002E
S214409D900417002011A440003DA440000A170020EC
S214409DA0121110001111080069A44000000058E488
S214409DB00817002000170020EDA3400010B5074B01
S214409DC00C469847034618B9054A1380052010BD2F
S214409DD0034B1A88141B1C80002010BDBDA54000F4
S214409DE00817002010B5124B0446984708B90520BE
S214409DF010BD104B9CB91B887BB90F4B1B88012BA1
S214409E0005D043F20C1000210C4CA04750B10C4B2F
S214409E101B7813B900200B4B9847002010BD00223A
S214409E201A80EAE7014643F20C10A047EFE700BF6E
S214409E3025A64000081700200017002011A4400067
S214409E400A170020EDA3400070B5154684B018B13F
S214409E500424204604B070BD0391184B98470399DC
S214409E6004460028F5D1164B164A1B681648DB7B7D
S214409E70164E012D88BF10461B074FF0010358BFF2
S214409E80490200934FF400722B46B04730B9104B4E
S214409E901B7873B10524204604B070BD0D4B98471F
S214409EA00D4B0340002BF2D10C4A0D4B15801D8004
S214409EB0CFE700200B4B9847ECE700BFA594400047
S214409EC004170020199110001891080069A440005A
S214409ED00A1700203DA44000000058E40817002060
S214409EE000170020EDA3400010B5074B0C469847DE
S214409EF0034618B9054A1380052010BD034B1A883F
S214409F00141B1C80002010BDC9A640000817002066
S214409F1010B5144B0446984708B9052010BD124B9F
S214409F2094B91B88E3B9114B1B88012B12D043F21E
S214409F300C1000210E4B984760B90E4B1B78002B37
S214409F40EBD10D4B9847E8E700221A80074B1B8859
S214409F50012BECD1074B1B7813B90020064B9847D2
S214409F60002010BD35A7400008170020001700202D
S214409F7011A440000A170020EDA3400010B50F4B77
S214409F800446984701280DD007D3022803D10C4B2E
S214409F9000221A5510BD012010BD094B1B5D1BB198
S214409FA0022010BD032010BD2046064B984710F0F7
S214409FB0030F0CBF0220002010BD00BFF5954000E7
S214409FC00C170020599C400008B50020014B9847CC
S214409FD008BD00BF7D9F400008B50120014B984753
S214409FE008BD00BF7D9F400038B5054B0D46044672
S214409FF09847400001382860024B2046984738BDB5
S21440A000959C40007D9F400008B50146014B0020CE
S21440A010984708BDE99F400008B50146014B01201E
S21440A020984708BDE99F4000014B187001207047D3
S21440A0300C170020014B5870012070470C17002069
S21440A04008B50020014B984708BD00BFD19C400092
S21440A05008B50120014B984708BD00BFD19C400081
S21440A060012070470120704710B50B4B1446012263
S21440A070984720B102280CBF0220012010BD204680
S21440A0800121064B984708B1012010BD044B984764
S21440A090003018BF012010BDD59C4000BD9D40003B
S21440A0A0E59D400008B50A46024B01460020984709
S21440A0B008BD00BF69A0400008B50A46024B0146ED
S21440A0C00120984708BD00BF69A0400010B50B4B63
S21440A0D014460122984720B102280CBF02200120D6
S21440A0E010BD20460121064B984708B1012010BDFF
S21440A0F0044B9847003018BF012010BD499E4000D1
S21440A100E99E4000119F400008B50A46024B0146B2
S21440A1100020984708BD00BFCDA0400008B50A46BD
S21440A120024B01460120984708BD00BFCDA0400025
S21440A130012808B501D9012008BD4001014B1B5834
S21440A140984708BDD8AF4100012808B501D901207D
S21440A15008BD034B03EB401308465B68984708BDB1
S21440A160D8AF410001288CBF00200120704700BFB7
S21440A170012808B501D9012008BD034B03EB401068
S21440A180C368984708BD00BFD8AF4100012808B54E
S21440A19001D9012008BD044B03EB401308465B6918
S21440A1A01146984708BD00BFD8AF4100012808B502
S21440A1B001D9012008BD044B03EB401308469B69B8
S21440A1C01146984708BD00BFD8AF41002DE9F04181
S21440A1D00C46904670B9002A0ADD084E084F8D1886
S21440A1E0214630683B6801349847AC42F8D1404637
S21440A1F0BDE8F0814FF0FF30BDE8F081042100203B
S21440A200FC200020013802282DE9F0410E46154674
S21440A21010D89AB10B4FDFF83080002401E0A542F9
S21440A2200CD0315D3868D8F800309847002804F1E3
S21440A2300104F4DA4FF0FF30BDE8F0812846BDE86F
S21440A240F08100BF04210020002100202DE9F0010C
S21440A25001F03F03CF0543EA000003D50E0530D595
S21440A26040F484504FF080434C0448BF40F40060B4
S21440A2701A611D4601F48054586104E013F41F0F20
S21440A2802CD1DA0724D44FF080422B6C002CF5D129
S21440A29013F41B0FF5D0D2F804C09768D668D5697A
S21440A2A0516D4FF080080523C2F80080C2F804C004
S21440A2B09760D660D561516513602046BDE8F001D1
S21440A2C070478D044CBF40F4865040F48250C9E736
S21440A2D08B0415D40120BDE8F001704780205768F4
S21440A2E09668D568D469516D106005230020576084
S21440A2F09660D560D46151651360BDE8F001704743
S21440A3004FF0804319461B6C4FF0FF3003F030038C
S21440A310202B4FF08042DDD001380B6CF6D14FF049
S21440A320800C57689668D568D469516DC2F800C0ED
S21440A3300523DCE710B5084B122098474FF08043C2
S21440A340722211244FF4E06005219A60DA615C6560
S21440A3505860196010BD00BFB10A410000280CBF0C
S21440A36004200020704700BF012070473BB34FF0E9
S21440A37080434900586D40F4807058651A4B9942A6
S21440A38027D801331846B3FBF1F301FB03F1401A1B
S21440A39008BB0BBB19464FF08043042A586820F090
S21440A3A0FF005860586841EA0001596017D0082AF3
S21440A3B04FF080430CBFC0220022DA6070474FF057
S21440A3C080434900586D20F480705865064B99428A
S21440A3D0D7D90021DFE70133013BD9B2DBE74FF0A5
S21440A3E080438022DA607047FF0D2707704700BF22
S21440A3F04FF0804300205A684FF4106122F46052B8
S21440A4005A6018611A465961136CDB07FCD57047D1
S21440A41070B54FF0804300245A68074D22F46052CE
S21440A4205A605E6826F400460A465E6001469C61B5
S21440A4302046A84770BD00BF4DA240004FF0804365
S21440A440186A704730B400F110054FF08044236A14
S21440A450C370190E1A0C1B0A0170427083700430C8
S21440A460A842F4D130BC7047F8B50E469DF8185057
S21440A4704FF08041044648684DB340F40040486081
S21440A4804FF080409707416841F4C05141604168B1
S21440A49014BF41F4005121F4005114F4004F4160C0
S21440A4A00CBF4FF4A0204FF48030E5034FF08041BE
S21440A4B021D443EA02458D61A1030CD4670320D41E
S21440A4C025030AD4E10248BF40F4002005E020F40A
S21440A4D000404860D4E740F420100B49DFF834E0F1
S21440A4E00A4F0A800A4D3B80214632460024CEF869
S21440A4F00040A847F8BDC2F3080540F400108D613F
S21440A500EBE740F48010E8E7101700201217002011
S21440A5104DA2400014170020F0B44FF0804401E0F4
S21440A520920717D4226C214B13404FF08041002BEA
S21440A530F6D04F688E68CD68CC694A6D802005237A
S21440A54008604F608E60CD60CC614A650B6000202D
S21440A550F0BC7047164A174C174D136826882D884E
S21440A5600C6B0460043306FB05F08342136002D292
S21440A57019E0130117D40A6C0C4B13404FF080447B
S21440A580002BF6D06768A668E568E169626D8020B2
S21440A590052320606760A660E560E1616265236030
S21440A5A00020F0BC70470120F0BC7047000060C03F
S21440A5B014170020101700201217002030B4174B35
S21440A5C01B88840703FB01F101D19A071ED04FF088
S21440A5D080435A6842F400525A604FF08043002449
S21440A5E0C3F800015B680E4A9B044FF0804354BF9B
S21440A5F08D080D460120C3F80451C3F81441C3F832
S21440A600200113681944116030BC70474FF08043F6
S21440A6105A6822F400525A60DFE700BF1017002045
S21440A62014170020F0B44FF0804001E052041BD4D1
S21440A630026C214B13404FF08041002BF6D040F285
S21440A6400223C1F820314F688E68CD68CC694A6DC8
S21440A6508020052308604F608E60CD60CC614A65DF
S21440A6600B600020F0BC7047144A1548154B128802
S21440A67000881B6800FB02F29A4202D919E01301D7
S21440A68017D40A6C0C4B13404FF08044002BF6D086
S21440A6906768A668E568E169626D802005232060EA
S21440A6A06760A660E560E161626523600020F0BCFB
S21440A6B070470120F0BC7047000060C012170020B1
S21440A6C0101700201417002030B4184B1B8884073E
S21440A6D003FB01F101D19A0720D04FF080435A681E
S21440A6E042F400525A604FF080430024C3F80801F9
S21440A6F05B680F4A9B044FF0804354BF8D080D465D
S21440A7004FF48070C3F80C51C3F81C41C3F82001C5
S21440A710136819441160012030BC70474FF08043E5
S21440A7205A6822F400525A60DDE700BF1017002036
S21440A73014170020F0B44FF0804001E012041DD4FE
S21440A740026C224B13404FF08041002BF6D0D1F8DC
S21440A75004C08F68CE68CD694C6D8020052240F2DB
S21440A76002230860C1F804C08F60CE60CD614C659E
S21440A7700A60C1F820310020F0BC7047144A1548E2
S21440A780154B128800881B6800FB02F29A4202D9D9
S21440A79019E0930617D40A6C0C4B13404FF08044D4
S21440A7A0002BF6D06768A668E568E169626D802090
S21440A7B0052320606760A660E560E161626523600E
S21440A7C00020F0BC70470120F0BC7047000060C01D
S21440A7D0121700201017002014170020436819B9DC
S21440A7E023F001034360704743F001034360704722
S21440A7F030B484688568AC4203D084688568A542D6
S21440A800FBD161B104F47C10050D05EB8505C0F362
S21440A810034000EB4500650248BF0C3008604AB173
S21440A82004F4FE41080B00EB8000C1F3032101EB6A
S21440A8304001116043B1C4F3021202EB820204F0FD
S21440A8400F0404EB42021A6030BC70472DE9F00357
S21440A850446814F0010C06D00C2986BF0C394FF41E
S21440A860800C4FF0000C1D4C0768A4FB0356F608FE
S21440A87006EB8608A4FB0295A3EB4803ED0843EAE3
S21440A880061605EB8508A2EB480246EA0535A4FB0A
S21440A8900163DB0845EA022545EA0C0203EB830622
S21440A8A0A1EB460142EA035347F0010243EA014165
S21440A8B002608369DB07FCD50123C36181600368BE
S21440A8C023F001030360C36943F00403C361C06A15
S21440A8D0BDE8F00300F00100704700BFCDCCCCCC03
S21440A8E0F0B4C468C568049EAC4203D0C468C5686A
S21440A8F0A542FBD1A1B104F47F452F0BC4F302104F
S21440A90007EB870CC5F3032504F00F0700EB800028
S21440A91007EB400005EB4C05642707FB005008603A
S21440A9204AB104F4F810010D8D00C0F303402944E9
S21440A93000EB410111604BB104F07C52110F01EB6A
S21440A9408101C2F3036202EB41021A6016B1C4F3FE
S21440A95042543460F0BC70472DE9F0072C4C079DFC
S21440A9602C4FDFF8B4C0A4FB0386F608A4FB02A86D
S21440A97006EB8609A7FB01A76D05A3EB490345EA4D
S21440A98006767F094FEAD80546EA036605EB850951
S21440A990A4FB0738A4FB01A346EA0555DB08ACFB3D
S21440A9A0016CA2EB49024FEAD80845EA0246A4FBEE
S21440A9B003A44FEA9C1508EB8808026803EB830A59
S21440A9C046EA0515A7EB4807E4082F4304EB840442
S21440A9D0A1EB4A0142F00202A3EB440347EA0121FD
S21440A9E0026041EA03318369DB07FCD50123C3617A
S21440A9F0C160036823F002030360C36943F00403A5
S21440AA00C361C06ABDE8F00700F00200704700BFAF
S21440AA10CDCCCCCC1F85EB51D34D621000230361C7
S21440AA20704700BF014B4361704700BF0000010103
S21440AA3010B4AC220260034691E80500B0FBF2F287
S21440AA401209541E4FF6FE7084420CD81A628A6869
S21440AA505A6040F202215022C3F820111A600020AA
S21440AA605DF8044B704701205DF8044B704700BF0B
S21440AA70C16070474069704743699B0746BFC161E4
S21440AA8000200120704700BF4369DB0743BF83694E
S21440AA900B700020012070470B01934210B415D86C
S21440AAA0D20002EB5302B2FBF3F3DA08541E4FF621
S21440AAB0FE718C4203F0070306D842EA0343036262
S21440AAC000205DF8044B70470120FAE7C900D30028
S21440AAD003EB5103B3FBF1F3DA08541E4FF6FE7155
S21440AAE08C4203F00703EFD8416841F400214160EF
S21440AAF0E3E700BF2DE9F843194B1A4EC0F8E4309F
S21440AB000D4600234FF088094FF024084FF4807C10
S21440AB104FF400274FF400314360044643623360ED
S21440AB208362C0F80090C0F80080C0F800C007609C
S21440AB30016095B129680C4B984770B9D5F808C0A4
S21440AB406B682F69E96862684CEA03033B430B4332
S21440AB501A4333606260BDE8F8830120BDE8F8839D
S21440AB60004153551817002099AA4000402303601F
S21440AB70704700BF10230360704700BF8160704776
S21440AB80C160704743699B0743BFC1F30801C16179
S21440AB9000200120704700BF4369DB0705D5836965
S21440ABA0C3F308030B60002070470120704700BFC6
S21440ABB04369DB07FCD58369C3F308030B600020B9
S21440ABC0704700BF38B5002104460B4B0B489847EA
S21440ABD0022C07D820460A4DA847032801D1204614
S21440ABE0A84708B1012038BD2046064B98470028A4
S21440ABF00CBF0020042038BDDDA7400060140E4086
S21440AC0031A1400071A1400008B5044B984718B1E7
S21440AC1002280CBF0320012008BD00BF31A1400020
S21440AC202DE9F04F184C83B00E461546984681469F
S21440AC30A047044618B9012003B0BDE8F08F134B77
S21440AC40484601A99847019B18FB04F203FB0443BE
S21440AC502A449A4203D9042003B0BDE8F08FB8F1E5
S21440AC60000F0FD0DFF828B04FEA442A00272946C5
S21440AC7032464846D8470137254456440028DAD15C
S21440AC804745F4D30020D7E765A1400049A14000DE
S21440AC908DA140002DE9F04F184C83B00E46154666
S21440ACA098468146A047044618B9012003B0BDE83F
S21440ACB0F08F134B484601A99847019B18FB04F2B6
S21440ACC003FB04432A449A4203D9042003B0BDE858
S21440ACD0F08FB8F1000F0FD0DFF828B04FEA442AC3
S21440ACE00027294632464846D84701372544564429
S21440ACF00028DAD14745F4D30020D7E765A14000C5
S21440AD0049A14000ADA1400010B5144682B00329C9
S21440AD1029D8DFE801F01C13070201231360002046
S21440AD2002B010BD114B9847431EDBB2012B16D91B
S21440AD30042814D0082812D00120F1E701A90C4BB2
S21440AD409847019B00200133236002B010BD094B99
S21440AD509847002814BF0320002002B010BD0020F2
S21440AD60207002B010BD0420DAE700BF65A14000A5
S21440AD7049A1400031A1400030B5124C124D8BB075
S21440AD80204603A904AA05ABA84709AB2046009372
S21440AD9006A907AA08AB0D4CA047089D079C059836
S21440ADA00399049A069B2D0445EA4454204340EAFE
S21440ADB0C12141EA4210A3F2BC7340EA43600BB0A3
S21440ADC030BD00BF60140E40F1A74000E1A840002F
S21440ADD070B4194A0026334652F8084C74B10568D8
S21440ADE0AC4210D00133032B02F10C02F4D13EB931
S21440ADF0022914BF1220002070BC70470136F1E7CC
S21440AE00002070BC704752F8045C8468A542E9D1C3
S21440AE101588C488A542E5D109B11020ECE7074A59
S21440AE2003EB430302EB830370BC5B89B3F5807F7F
S21440AE3014BF00201020704728170020201700203D
S21440AE402DE9F843C56A8D4204460E4602D0037982
S21440AE5073B916B90020BDE8F8836078174D04F141
S21440AE60300132460123A84720BBE662BDE8F8839E
S21440AE7000F1300841464078DFF844902A460123E6
S21440AE80C847B8B9E369226A20711A449542E0D2AD
S21440AE90E778012F01D8DCE7E3691D44013F2A46E5
S21440AEA0607841460123FFB2C847012FF4D1002EF7
S21440AEB0D0D0D2E70120BDE8F88300BF21AC4000E7
S21440AEC095AC40002DE9F84F0021314B0546984798
S21440AED0034650B92B78032B0AD000212D4B6878B7
S21440AEE00A469847031C18BF01231846BDE8F88F4A
S21440AEF06B79002BF1D005F13001E8620B4605F581
S21440AF000C7203F8010B93424FF00004F9D12A6902
S21440AF10EB6885F81822C2F3072B4FEA124A4FEA2D
S21440AF20134C4FEA136E52204FEA1269C3F30728B8
S21440AF306122AA2685F819B285F81AA24FF0410B6D
S21440AF404FF0720A552785F81C3285F82F6285F82F
S21440AF50300085F8310085F8322085F8172285F8CC
S21440AF601B9285F81D8285F81EC285F81FE285F87B
S21440AF702E7285F833B085F816B285F814A285F897
S21440AF8015A268786A69044E0123B0476C71A4E73D
S21440AF9041AE400009AD400095AC400008B508B150
S21440AFA003780BB9092008BDC3888B42FAD1044BFD
S21440AFB04078984710F0010F0CBF0020032008BDD2
S21440AFC009AC400070B504460A4640781D4D04F171
S21440AFD030010123A84708B1032070BD94F82F1212
S21440AFE094F82E22184B42EA012212B29A4201D01D
S21440AFF0022070BD94F8682094F8696094F8665012
S21440B00094F86710114B120442EA06622A4342EA59
S21440B010012222F07F429A42EBD094F8842094F8A2
S21440B020855094F8821094F88300120442EA056230
S21440B0300A4342EA002020F07F40C01A18BF012091
S21440B04070BD00BF21AC400055AAFFFF46415400EA
S21440B0502DE9F04103681C78303C092C154602D88F
S21440B0605A783A2A15D0BD4B1C680C6074B12378C8
S21440B070B3B1BB4B60789847C30711D405B310F003
S21440B080040F0CBF00200A20BDE8F0810C20BDE86C
S21440B090F08102330360002CE5D00B20BDE8F08140
S21440B0A0002020706070AF4B9847C70702D503203A
S21440B0B0BDE8F0813DB1460705D50A20BDE8F081E0
S21440B0C02846BDE8F08120460021A74DA847012824
S21440B0D007D00026032800F0BF80C0B10D20BDE891
S21440B0E0F08194F8F231002BF8D094F8F82194F8D7
S21440B0F0F91194F8F63194F8F761120442EA0162C5
S21440B100134343EA062631462046A847E2E794F82A
S21440B1103C2094F83B3043EA0223B3F5007FDDD170
S21440B12094F8471094F8463053EA01210DD194F82C
S21440B130562094F8570094F8543094F8551012045A
S21440B14042EA0062134343EA012194F84000E16179
S21440B150431E012BE070C1D894F83D30A370002BFD
S21440B160BCD05A1E1A42B9D194F8425094F84120A5
S21440B17042EA052215072281B0D194F8447094F82B
S21440B180435055EA07250FD194F852C094F853809F
S21440B19094F8505094F851704FEA0C4C4CEA086CB6
S21440B1A04CEA050545EA072594F83FC094F83E70FA
S21440B1B057EA0C2792D000FB01FC07EB12106044C4
S21440B1C085428BD32D1AB5FBF3F3002B86D040F681
S21440B1D0F575AB4240F2C0804FF6F575AB4200F2D3
S21440B1E0A0800225023330443744A361A062276220
S21440B1F0002A3FF473AF6744022D676200F08F80E9
S21440B20003EB430203F0010303EB5203012503F271
S21440B210FF13B1EB532FFFF461AF4FF0FF32002323
S21440B220032D2261E3601AD0504E51493088257074
S21440B2300130002280B23080E0801346E262227104
S21440B24015460846CA58944208BF1D500C33242B56
S21440B250F8D10020BDE8F0810120BDE8F08194F8E7
S21440B260611094F86020637142EA012232446261C0
S21440B2706078404E04F130010123B0470028D3D116
S21440B28094F82F1294F82E223B4B42EA012212B237
S21440B2909A42C9D194F8320094F8336094F830203A
S21440B2A094F83110354B000440EA0660024342EA07
S21440B2B001229A42B8D194F8160294F8176294F88C
S21440B2C0142294F81512000403F1FF5340EA066076
S21440B2D003F500530243203342EA01229A42A3D1A7
S21440B2E094F81E7294F81A6294F81F8294F81BC25F
S21440B2F094F81C2294F8183294F81D0294F8191207
S21440B3003F04360447EA086746EA0C663A43334346
S21440B31042EA002243EA0123E260236184E75B00BD
S21440B32075E7023330443744A361A0622762002A9F
S21440B3307FF4D4AE94F85E5094F85F7094F85C2036
S21440B34094F85D002D0445EA07652A4342EA002248
S21440B3509B00626203255AE7012543E74417002015
S21440B36009AC4000C5AB4000C5AF40001C170020EC
S21440B3702017002021AC400055AAFFFF52526141E1
S21440B3802DE9F0410378022B04460D4648D0032BA6
S21440B39029D0012B03D04FF0FF30BDE8F081016A81
S21440B3A0294F05EB550601EB5621B8470028F2D148
S21440B3B0C6F30803216A2344013601EB5621204692
S21440B3C093F83080B8470028E5D1C6F308063444E1
S21440B3D094F8303048EA0320EB074CBF0009C0F32E
S21440B3E00B00BDE8F081016A174B01EBD511984779
S21440B3F00028D0D1AD0005F4FE7505F13003234496
S21440B4002C44D87899785A7894F83030000640EA38
S21440B410014040EA0220184320F07040BDE8F08129
S21440B420016A094B01EB152198470028B3D16D00FE
S21440B43005F4FF7563191C4693F8303094F83100D4
S21440B44043EA0020BDE8F08141AE4000F8B583688D
S21440B4500446012B0D46E18003D000688269934282
S21440B46001D30220F8BDB3B90378032B10D00023D4
S21440B470E3600389AB42F4D9436A03EB15132361B7
S21440B48005F00F0500EB4510303060610020F8BD38
S21440B490436A002BEBD086783601B54219D3012B90
S21440B4A0DFD9AD1B9A42ADB2DBD9114F08E0012877
S21440B4B0D7D9206882699A42D3D9AE4209D80D4678
S21440B4C01946B847A91B421C034689B2EFD1012052
S21440B4D0F8BDE3608269023B023A93423BBF817803
S21440B4E0826A002301FB032303EB15132361C7E79E
S21440B4F081B340002DE9F0410378022B04460D4607
S21440B50016465BD0032B39D0012B04D002200123F2
S21440B5102371BDE8F081016ADFF8D48005EB55075A
S21440B52001EB5721C0470028F1D1C7F3080315F0B7
S21440B53001052344F2B206D093F8301001F00F0113
S21440B54041EA0212D2B283F83020216A0137012341
S21440B55001EB572123712046C0470028D7D1C7F3B7
S21440B5600807002D3FD12744C6F3032697F830300E
S21440B57023F00F031E4387F83060C8E7016A1C4B70
S21440B58001EBD51198470028C1D1AD0005F4FE75F2
S21440B59005F1300323442544DA78120602F070425F
S21440B5A01643C6F30727310C320E85F830605F70BD
S21440B5B09970DA7001232371BDE8F081016A0C4B63
S21440B5C001EB152198470028A1D16D0005F4FF75C1
S21440B5D06219C6F3072382F83130012382F83060BF
S21440B5E02371BDE8F081C6F307162744C3E700BFC2
S21440B5F041AE40002DE9F0410546884601BBC6688D
S21440B60083695EB39E4228BF01262E4F34460FE024
S21440B610012E25D9022B10D9022428462146B847A8
S21440B62038B3411C21D0012807D0A64218D0AB69B8
S21440B63001349C42ECD2012CEFD80120BDE8F081C9
S21440B6400129FAD983699942F7D21E4B98470128B7
S21440B650F3D9AB698342F1D84646D6E70126D4E70C
S21440B6600020BDE8F0810128E7D14FF0FF30BDE86B
S21440B670F081AB69A342E0D9284621466FF070427C
S21440B680114EB0470028EED1B8F1000F0BD0B8F1FC
S21440B690010FD2D9AB699845CFD2414628462246BB
S21440B6A0B0470028DFD12B69EC605A1C06D0013B1E
S21440B6B001222B616A712046BDE8F0812046BDE834
S21440B6C0F08100BF81B34000F5B440002DE9F84F4B
S21440B6D0C5880135ADB204460E4615B90420BDE80E
S21440B6E0F88F0369002BF9D015F00F0708D00068D3
S21440B6F000EB471330336361E5800020BDE8F88FE8
S21440B700C16801330361006861B18278013A12EA88
S21440B7101512EDD1012902D98269914206D3022041
S21440B720BDE8F88F0289AA42D8D9E1E7344B98475A
S21440B73001288046F3D9B0F1FF3F1CD020688269CB
S21440B74042450ED9A8F10206C4F80C808269023A36
S21440B75096423BBF8178826A002601FB0626266118
S21440B760C6E7002EBAD0E168264B9847804628B9EF
S21440B7700720BDE8F88F0120BDE8F88F0128CED01D
S21440B780B0F1FF3FF7D02068DFF87C900021C84733
S21440B7900028F0D12268014602F1300302F50C720F
S21440B7A003F8011B9342FBD123689A69A8F102066D
S21440B7B0023A96423BBF9A6A9978002201FB0622DB
S21440B7C0DA624FF0000A4FF0010B0BE083F804B04A
S21440B7D02068C8470AF1010A0028CCD12368DA6AF3
S21440B7E00132DA62236898785FFA8AF290424FF024
S21440B7F00001EBD8D96A8A1ADA622068A4E700BF4B
S21440B80081B34000F5B5400041AE40002DE9F04F11
S21440B8104FF0FF0885B0524FDFF84C91DFF84CA14F
S21440B8200546464608E00F293ED0FF26284600211A
S21440B8304C4B9847002834D128682969B84780BBC4
S21440B8406C692278002A78D0E37AE52A03F03F0133
S21440B850EBD01B07E7D40F2926D08EB9944604F1C7
S21440B8600A062246034601E012F801CFD90141EA12
S21440B87053035CFA83F3B242DBB2F5D1434510D0B2
S21440B8804FF6FF72AB692A84DA7AD207CDD404F138
S21440B8900B0614F8011B13F8012B9142C5D1B44294
S21440B8A0F7D105B0BDE8F08FEB69002BBED051064E
S21440B8B03FD5E98894F80D80298402F0BF06617B65
S21440B8C04145B2D12278DFF8A8B022F04002013AD2
S21440B8D002EB420C02EB8C0C4FF6FF78012203E0A1
S21440B8E0404535D1CB452CD01BF8010F04EB000E5C
S21440B8F0205C9EF801E040EA0E20002AF0D00CF1D1
S21440B90001028DE80A100392D047DDF808C0BCF16A
S21440B910FE0F02469DE80A001AD833F81C00029231
S21440B920D047029A82429DE80A0011D1DDF80CC049
S21440B930D8E7B2427FF479AFC1E7042005B0BDE84E
S21440B940F08F2078400606D52AB133F81C3013B164
S21440B9508846FF266AE7013EF6B2884666E700BF9D
S21440B96041AE4000CDB64000E8B0410049C9400075
S21440B970DBB041002DE9F04FD0F818A0C56989B07A
S21440B9800AF1FF360446324605AB12F8011F03F8AB
S21440B990011B08A98B42F8D19DF81F300193DA07A6
S21440B9A056D4B14F019B9B0700F1C2804FF001096E
S21440B9B020460021B847002847D18246AB4EDFF8E4
S21440B9C0B482054605E01D46C0470346002840F0C1
S21440B9D0CE8021692068B047034605F1010C204619
S21440B9E00121002B40F0C38062691278E52A01D01D
S21440B9F0002AE8D10DB9B4F806A01FFA8CF54D45DB
S21440BA00E2D1B9F1010F40F0B68020682169B04715
S21440BA10D8B96569014605F120022B4603F8011B9B
S21440BA209342FBD1A26905F10B002B4612F8011B8D
S21440BA3003F8011B8342F9D1A369DB7A03F01803AC
S21440BA402B73236801221A71002009B0BDE8F08FDD
S21440BA500023854FDFF820828AF80B304FF001092B
S21440BA60E3610DF11F0B324605AB13F8011B02F8DC
S21440BA70011F5B45F9D1B9F1050F57D928882946EA
S21440BA804A4600E01846D30343EA520231F8023FE2
S21440BA9010FA82F292B2002BF4D1072302F00F0084
S21440BAA000F13001392988BF00F13701013B03A876
S21440BAB01844C2F30F124170002AEFD108A9194466
S21440BAC07E2001F8140C002B4FD09AF80010202945
S21440BAD014D0514603E011F8010F20280ED0013251
S21440BAE09A42F8D1072B0BD808A91944013311F80C
S21440BAF0141C0AF802100132072A07D8072BF3D97C
S21440BB0020210AF802100132072AF7D920460021E0
S21440BB10B84710BB2046C047F8B909F101091FFADB
S21440BB2089F9B9F1640F9ED107208EE74A46B4E7FB
S21440BB302B88002B3FF43AAF002301339BB235F8F5
S21440BB401320002AF9D14A4A193382FB0319DB171E
S21440BB50C3EBA9091FFA89F92AE704287FF475AFD1
S21440BB60019B8AF80B30E5611CE71A46C6E7184683
S21440BB7009B0BDE8F08F51462046B8470346002836
S21440BB80F5D1A269834602F10B0012F8013B4FEA59
S21440BB90CB1141EA5B0B53FA8BFB82425FFA8BFB7D
S21440BBA0F3D109F1FF391FFA89F9DFF8D080CDF8D3
S21440BBB000B0CB4620682169B04703460028D6D15E
S21440BBC05FFA8BFA6569009BD4F81C906B730AF198
S21440BBD0FF3202EB42010F27034602EB8101EF7270
S21440BBE02873A876E87602464FF6FF77FF2010E0E7
S21440BBF039F8113005F80E300132AE444FEA132CB6
S21440BC00002B08BF3B460D2A01F101018EF801C00A
S21440BC100CD0BB4218F802E0EAD105EB0E0C01321C
S21440BC200D2A05F80E008CF80100F2D14FF6FF728F
S21440BC30934202D039F811300BB94AF0400A85F8E1
S21440BC4000A023680B4A0121197120460021904725
S21440BC50034600288BD10BF1FF3B1FFA8BFBBBF151
S21440BC60000FA7D1D1E600BF4DB4400041AE400022
S21440BC704FECC44ECDB640000DB84000DCB041009D
S21440BC802DE9F04104460D46A369164FDFF858806B
S21440BC909D4220D2012D0BD920462946B84706465C
S21440BCA0C8B1012804D0013018D0A3699D4202D300
S21440BCB00220BDE8F081002229462046C0470122E6
S21440BCC068B92369591C02D0134423616271A36981
S21440BCD035469D42DED30020BDE8F0810120BDE818
S21440BCE0F08100BF81B34000F5B440002DE9F04F2D
S21440BCF00B782F2B83B08946064600F033815C2BA9
S21440BD0000F030810024B46099F800001F2840F20B
S21440BD103281A74D01E019F8010F2F28FBD05C288F
S21440BD20F9D01F28F76940F2EC802F282DD05C28E8
S21440BD302BD00121A7F1020BCA460124A84700B325
S21440BD407F2809D822281CD09A4A01E0984218D069
S21440BD5012F8013F002BF9D12BF8020F1AF8010F09
S21440BD601F2804F1010340F2CE802F280FD05C2814
S21440BD700DD0B3F5807F04D001211C46A84700288B
S21440BD80DED1062003B0BDE8F08F0024012399449D
S21440BD904FF0000B002CF4D007EB440030F8022D97
S21440BDA0202A01D02E2A02D1013CF7D1E9E7002310
S21440BDB027F81430B36907EB440003F10B01202247
S21440BDC003F8012B8B42FBD1BB1E4FF0000A01E06B
S21440BDD00AF1010A33F8022F202AF9D02E2AF7D08A
S21440BDE0BAF1000F01D04BF0030B034633F8021DA7
S21440BDF02E2901D0013CF9D14FF0000C1046E04608
S21440BE0008230AF1010A78B320281FD02E281BD019
S21440BE109C4520D254457AD07F2800F283802B2838
S21440BE2000F09080644A02E0884200F08B8012F86E
S21440BE30011F0029F8D1A0F14101192900F2A6807E
S21440BE4048F00208C0B280E0544560D04BF0030B87
S21440BE5037F81A00D5E70B2B00F0A680544558D08B
S21440BE60A2454BF0030B54D9B1690878E52875D044
S21440BE70082B04BF4FEA88025FFA82F808F00C03EA
S21440BE800C2B68D008F00300032864D01BF0020F88
S21440BE9009D108F00302012A08BF4BF0100B042B0F
S21440BEA008BF4BF0080B81F80BB030460021434BDF
S21440BEB09847D0B9424B30469847B369DB7AB0B919
S21440BEC059073FF55FAF7369DA7AD20668D55C7D6D
S21440BED01A7DD87E997E42EA042241EA002343EA4C
S21440BEE00243B36099F8000017E7B369DB7A042889
S21440BEF07FF448AF13F0040F08BF052003B0BDE839
S21440BF00F08F0024012399444FF0040B42E70B2B9B
S21440BF104AD04FEA88025FFA82F8A2460B234FF0D7
S21440BF20080C95E700218DE80810A8479DE8081002
S21440BF3048B3244A10444BF0020B10F8800C0028FB
S21440BF407FF46DAF4BF0030B5F20B16901F80C0036
S21440BF500CF1010C7CE74BF0020B97E705200870CC
S21440BF60B16985E709F101090024B46099F8000039
S21440BF701F283FF6CEAE30462146104B9847746198
S21440BF8003B0BDE8F08F4BF0020BDBE7A0F1610198
S21440BF90192997BF2038C0B2C0B248F00108D4E78C
S21440BFA0052003B0BDE8F08F4BF0030B0B235BE797
S21440BFB0FDC84000C8B04100D4B041004DB4400078
S21440BFC00DB8400048B04100F0B410B10B20F0BCB2
S21440BFD070470B4D2B685BB10A4C074626462258E5
S21440BFE0934208BF87510C302428F8D100221A709B
S21440BFF009B100230B7029600020F0BC704700BFD9
S21440C00044170020201700202DE9F04FADF50F7D96
S21440C010002303601646019102F01E029A4B044626
S21440C02005A901A8984702AB0EAA0B930C9206F0FE
S21440C0301F0730B116F01C0F1AD10DF50F7DBDE865
S21440C040F08F0199914B05A898470A9D0028F1D199
S21440C050002D00F0AB8037F001080CBF0021012115
S21440C06005A88B4B984716F01C0F1BD0002850D0C5
S21440C0700428E2D1874B1A682AB1DA681AB19B695C
S21440C0801220002BD9D105A8834B984747F00807C4
S21440C0900A9D0028D1D1380700F18A80059E27F0F6
S21440C0A0010811E00028C8D1EB7AD9063ED4B20781
S21440C0B001D5DB0735D406F00803DBB2059E1BB17D
S21440C0C047F0200727F00108F36A0798BDF81AC022
S21440C0D0724AE3612562002352F8081CB1422AD016
S21440C0E00133032B02F10C02F6D16A4A1368002B87
S21440C0F000F09A80D368002B00F095809369002B5F
S21440C10000F0AC800023022063620DF50F7DBDE891
S21440C110F08FEB7A13F0110F03D17607BBD50820CA
S21440C1208BE707200DF50F7DBDE8F08F04200DF559
S21440C1300F7DBDE8F08F52F8041C8142D0D11188A3
S21440C1406145CDD15900534AC81802EB800040895A
S21440C150B8F1000F61D1013080B2194402EB810280
S21440C160013350816362002B52D0A771687DA97E4F
S21440C1702A7DEB7E42EA002241EA032343EA024359
S21440C1802361AB7FE87F297F6A7F26601B0443EAF2
S21440C19000630B43002043EA0223E360A060A061F3
S21440C1A0F388A3800DF50F7DBDE8F08F062041E7AC
S21440C1B03B4B984795F815C0AB7E297DEA7E059E99
S21440C1C0A8734FEA104841EA0C2143EA0222C0F322
S21440C1D00729002385F81080000E4FF0010C52EA24
S21440C1E0014885F80F906874EB722B776B77AB77C6
S21440C1F0EB77AB76EB762B756B7586F804C03FF421
S21440C2005FAFE045D6F82C9002D0B369984527D367
S21440C21002200DF50F7DBDE8F08F00287FF472AF49
S21440C2204FF4807099E70123590001EB030C4FEA65
S21440C2308C0C02EB0C0042F80C60DDF81CB0BDF82C
S21440C2401AA0C0F804B04FF0000CA0F808A0A0F860
S21440C2500AC0B8F1000FE3D140467CE70223E3E78B
S21440C260304641460F4B984700287FF4E6AE059887
S21440C2700D4B08F1FF324946C260984700287FF4CC
S21440C280DCAE059E1CE700BF51B04000EDBC400050
S21440C290D1AD40002017002075B940002817002077
S21440C2A079AD400081BC400041AE40002DE9F04FE2
S21440C2B09B4606460023CBF8003083B00D46006808
S21440C2C0B188624B1446984728B9B3791F0605D4FF
S21440C2D0D80707D4072003B0BDE8F08F022003B08C
S21440C2E0BDE8F08FB168F7687F1ABC4238BF274672
S21440C2F0002F00F0A880C1F30803DFF85881DFF86C
S21440C3005891002B3ED130688378013B03EA512395
S21440C31013F0FF034BD072698169A2F1020C023917
S21440C3208C4571D28278816A02FB0C1100296BD051
S21440C3307C0A01EB030A43D01919914288BFC3EB2C
S21440C3400204E3B2407829465246C047B3790028F3
S21440C35061D15A0604D5B369CAEB03039C425FD841
S21440C3606202B168AB181144B160DBF80010BF1A26
S21440C37011441D46CBF8001065D0B168C1F30803E0
S21440C380002BC0D0C3F5007203F12804BA4228BF80
S21440C3903A4634442B46002AE5D0AB18294614F8D2
S21440C3A0015B01F8015B9942F9D1B168DBE729BB33
S21440C3B03269012A28D9511C2CD030687261ABE70B
S21440C3C0B269524514D0B3795B0606F1280409D504
S21440C3D0012340782146C847B379E0B923F04003AB
S21440C3E03068B3714078214652460123C04788B929
S21440C3F0B168C6F818A0C1F30803C3E771690129FC
S21440C40002D98269914218D3B37963F07F03B3713E
S21440C410022060E7B37963F07F03B37101205AE7E7
S21440C42005EB432303F5007006F1280212F8011BC2
S21440C43003F8011B8342F9D192E70193044A9047DF
S21440C440019B0246B5E7002045E700BF9DAF400090
S21440C45081B3400021AC400095AC40002DE9F84F38
S21440C4601E460446002333600F460068A1886F4B83
S21440C4701546984728B9A379180604D4990705D4D1
S21440C4800720BDE8F88F0220BDE8F88FE268D54265
S21440C49009D3A16843F02003914288BFE160A371AD
S21440C4A00020BDE8F88F002DF3D0DFF888A1A26801
S21440C4B0C2F30803002B6BD1206890F802C00CF141
S21440C4C0FF3C0CEA522C1CF0FF0B0DD1002A40F02A
S21440C4D089802169002900F08E80012900F09F8024
S21440C4E04A1C78D020686161A279530666D4616997
S21440C4F08269A1F10208023A904580F090808178E6
S21440C500826A08FB0122002A00F089805FEA5529EA
S21440C5100BEB020831D009EB0B028A4288BFCBEB0B
S21440C52001094078394642465FFA89F3D0470028E9
S21440C53051D1A269C8EB0208C1450FD907EB482282
S21440C54004F1280304F50A7012F8011B03F8011BD6
S21440C5508342F9D1A37923F04003A3714FEA4920DF
S21440C560A26839180244A26033682D1A03440F4665
S21440C57033609CD1E268A3798BE7A2694245A26802
S21440C58002D0E1688A423ED3C4F81880C2F308035A
S21440C590C3F50070A84228BF2846283323443946AE
S21440C5A038B1391817F8012B03F8012B8F42F9D10F
S21440C5B0A268A37943F04003A371D3E74078A26909
S21440C5C004F128010123D04728B9A279206822F037
S21440C5D04002A2718BE7A37963F07F03A371012029
S21440C5E0BDE8F88F6169DFF848C0E047014600299A
S21440C5F07FF473AFBEE70E4B984701462061002993
S21440C6007FF46BAFB6E74078DFF82CC004F1280122
S21440C61042460123E0470028DDD1A268B4E7A3796B
S21440C62063F07F03A3710220BDE8F88F9DAF400002
S21440C630F5B5400095AC400021AC400038B5044606
S21440C640274B0068A1889847D0B9A27902F020030A
S21440C65003F0FF00A3B153060DD52146A26951F859
S21440C660283B204D58780123A847002836D1A37987
S21440C67023F04003A3712068E1691B4B984700B143
S21440C68038BD256A194AEB7A43F02003EB72E3681B
S21440C6902B77A3891B0A6B77E389AB77E37BEB7732
S21440C6A02369AB76238A1B0AEB76638A2B75638AEB
S21440C6B01B0A6B759047C0F30721020C030EE97501
S21440C6C02A76A8756B76A0792368094A20F0200060
S21440C6D00121A07119712068904738BD0120CFE72D
S21440C6E09DAF400095AC400041AE400079AD400063
S21440C6F0C5AE4000F8B5104B0446984798B9636AF3
S21440C700013B022B10D85D000C49EA1801EB82026F
S21440C7100832568826F4807747B1013EB6B2568036
S21440C7202EB100232360F8BD0220F8BD50802B4474
S21440C7309B000022CA50F4E73DC640002017002068
S21440C7402DE9F04104460D460068A188664B98479F
S21440C750002849D1A379180648D4E268AA4203D2F1
S21440C76013F0020F08BF15460023A268A360002DF1
S21440C7703FD020688678760242B1013A691EB2FB05
S21440C780F6F3B1FBF6F1994280F08E802269002ADA
S21440C79000F090806261002A2ED1A3681546C3F34C
S21440C7A00802002A00F09080A269AA4200F08C801D
S21440C7B0A3795B0669D404F1280623684B4F587862
S21440C7C031462A460123B847002857D1A368E26875
S21440C7D0A5619A4207D2A279E36042F02003A37192
S21440C7E00020BDE8F0810020BDE8F0810220BDE8D1
S21440C7F0F0812846BDE8F081B54273D92068DFF85D
S21440C800F8803B4FA1798B07C6EB05050AD4012A71
S21440C81002D9836993422DD861F07F01A17102202D
S21440C820BDE8F0811146B8470246002859D0511C51
S21440C83024D0012A51D9206883699A424DD2A368F0
S21440C84062613344AE42A360DCD32B44C5F3080197
S21440C850A360002943D021688869023A02388242A0
S21440C86034D28878896A00FB0212002A2ED002EB66
S21440C870552594E71146C0470246D8E7A37963F0AA
S21440C8807F03A3710120BDE8F0812368194F5878D3
S21440C89004F1280601233146B847A3790028EED193
S21440C8A023F04003A37188E773421A40A260AD1A92
S21440C8B0626970E711460E4B98470128024605D03C
S21440C8C0411CDBD0206165E7E26882E7A37963F02C
S21440C8D07F03A3710220BDE8F081A1799CE70D4655
S21440C8E05DE73546A368B0E79DAF400021AC400009
S21440C8F0F5B5400095AC400081B340007F2810B4A9
S21440C9000ED981B90E4B01E0802915D033F8022F9D
S21440C91082428CB201F10101F6D104F1800080B26E
S21440C9205DF8044B7047FF2806D88038054B5DF805
S21440C930044B33F81000704700205DF8044B7047F6
S21440C940CAB24100CCB2410061280AD00749002251
S21440C95001E0834206D031F8023F0132002BF8D185
S21440C96070470022024B33F812007047ECB041008B
S21440C970CCB3410000F108034FF0FF310022816044
S21440C9804360C36003610260704700BF00230361D9
S21440C990704700BF43685A684A6042688A605A686F
S21440C9A091605960416008610368013303607047D5
S21440C9B010B40C68631C16D0C3681A68944200F121
S21440C9C0080304D35B685A6812689442FAD25A68DD
S21440C9D04A6091608B605960086103685DF8044B5B
S21440C9E00133036070470369F1E700BF436882681C
S21440C9F09A60836842685A6003695A68824204BFF4
S21440CA0082685A60002202611A68013A1A607047CA
S21440CA1010B400234FF0807440F8081C40F8202CD7
S21440CA2040F8044C40F80C3C5DF8044B40387047E6
S21440CA30064B19680868B0E8F00F80F309884FF095
S21440CA40000080F311884EF00D0E70473C18002011
S21440CA5002480068006880F3088800DF08ED00E0C0
S21440CA60F8B50B4B0B481C680B4E0C490C4F0D4A47
S21440CA7044F47F041C601C68072544F07F441C6017
S21440CA803760002405600C6090472046F8BD00BF24
S21440CA9020ED00E010E000E014E000E03000002070
S21440CAA0BFD4010051CA4000024B4FF080521A607A
S21440CAB0704700BF04ED00E04FF0000080F311889F
S21440CAC0024B1A6801321A60704700BF30000020DF
S21440CAD0044A1368013B13601BB94FF0000080F313
S21440CAE01188704730000020EFF309800C4B1A681D
S21440CAF020E9F00F10602DE908404FF0000080F369
S21440CB00118800F0FFFE4FF0000080F31188BDE86A
S21440CB10084019680868B0E8F00F80F30988704745
S21440CB203C18002008B5074B4FF080521A604FF073
S21440CB30000080F31188044B98474FF0000080F3C4
S21440CB40118808BD04ED00E029D5400010B5054B1E
S21440CB50044698472046044B9847044B044698475B
S21440CB60204610BDEDD440006D0E410055D6400025
S21440CB7010B5044630B1044B9847044B20469847BE
S21440CB80034B984710BD00BFEDD440007D0E4100DA
S21440CB9055D6400038B5036C044633B90568002DB9
S21440CBA028D0A36B0133A36338BD82B91A46806888
S21440CBB0134B9847A168236C62680B449342A3606A
S21440CBC0EFD32368A360A36B0133A36338BD1A4633
S21440CBD0C0680B4B9847226CE36821685242134466
S21440CBE08B42E360DDD263681A44A36BE260013394
S21440CBF0A36338BD4068034B98476560D1E700BFE4
S21440CC00C513410099DC400038B5046864B1C36878
S21440CC10026C45681344AB42C36024BF2346C460DD
S21440CC2008461946014B984738BD00BFC51341001A
S21440CC302DE9F0410446234FB847A36C002B18DD7E
S21440CC40636AB3B104F124061F4DDFF8808006E026
S21440CC50A36C013B002BA3640BDD636A4BB13046EB
S21440CC60A8470028F4D0C047A36C013B002BA36420
S21440CC70F3DC4FF0FF33A364DFF85480C047B84777
S21440CC80636C002B17DD2369ABB104F110060E4D23
S21440CC900E4F06E0636C013B002B63640BDD23699B
S21440CCA04BB13046A8470028F4D0B847636C013BE8
S21440CCB0002B6364F3DC4FF0FF336364C047BDE88A
S21440CCC0F08100BFB9CA4000F1DA4000F5DB400011
S21440CCD0D1CA40002DE9F04106460F4630B34C20FD
S21440CCE0174DA847044608B307FB06F808F10100AD
S21440CCF0A84705462060E8B1C7EB0800284405EB86
S21440CD0008014FF0FF330022A560E060E66304F1BF
S21440CD10100027646160A2636364A364094DA8475A
S21440CD2004F12400A8472046BDE8F08100242046B0
S21440CD30BDE8F0812046044B98472C46F3E700BFF9
S21440CD404DCB400075C9400071CB40002DE9F04FF7
S21440CD50374F384DDFF8FCA0DFF8FC8087B004463C
S21440CD60039201910293B946002621E004AEB847EB
S21440CD70C047A847636C013304BF00236364A36CB9
S21440CD80013304BF0023A364B847304603A92A4BA7
S21440CD90984700283AD1A847D4F838B0E66BC84739
S21440CDA0B34512D0254B20469847254B9847012639
S21440CDB0A847A26BE36B9A4216D3039800B3002EA3
S21440CDC0D4D104AE3046D047D1E704F110000399E1
S21440CDD01C4B9847194B20469847194B98470028B4
S21440CDE0E5D1194B9847E2E7184B0199029A20463D
S21440CDF09847636A9BB9B847012007B0BDE8F08FF3
S21440CE000090B847009807B0BDE8F08F20460B4B1F
S21440CE1098470B4B9847002007B0BDE8F08F04F1C9
S21440CE2024000B4B98470128E5D1074B9847E2E78B
S21440CE30D1CA4000B9CA400079DB400031CC40003E
S21440CE4055D6400069DA4000A9CA400095CB40005C
S21440CE50F1DA400061DB4000EDD4400070B54C2074
S21440CE600F4B98470446C0B100254FF0FF330122D0
S21440CE70C26343648364456005608560C5608563BE
S21440CE800564084E1030B04704F12400B0472946E8
S21440CE902A462B462046044DA847204670BD00BF74
S21440CEA04DCB400075C940004DCD400070B504469E
S21440CEB016464FF0000080F31188A56BE06B854264
S21440CEC006D300234FF0000080F31188184670BD4B
S21440CED01A4620460A4B9847A36C5A1C03D0013387
S21440CEE0A3640123EEE7636A002BFAD004F1240022
S21440CEF0044B98470028F4D001233360E2E700BF94
S21440CF0095CB4000F1DA40002DE9F04F464F474DB3
S21440CF10DFF840A1DFF8409187B0044603920191C4
S21440CF200293B84600262AE004AEB847C847A8474A
S21440CF30636C013304BF00236364A36C013304BFF6
S21440CF400023A364B847304603A9394B98470028C6
S21440CF504DD1A847D4F838B0344EC047BBF1000F87
S21440CF6019D1236803B304F124000399314B984741
S21440CF70314B20469847314B984790B10126A847F9
S21440CF80A36BBBB9039800282BD0002ECCD104AE9F
S21440CF903046D047C9E72046274B9847274B984707
S21440CFA0ECE7274B9847E9E7B0476068254B98473A
S21440CFB0C047D8E7244B0199E56820469847029B2E
S21440CFC0F3B9A26B2368013AA26343B32369D3B192
S21440CFD004F110001D4B9847012814D1184B984770
S21440CFE011E00090B847009807B0BDE8F08F2046A3
S21440CFF0114B9847114B9847002007B0BDE8F08F7B
S21440D000636AE56023B9B847012007B0BDE8F08FF2
S21440D01004F124000D4B98470028F4D0DEE70C4B73
S21440D02098476060D2E700BFD1CA4000B9CA400006
S21440D03079DB400069DA400031CC400055D64000EC
S21440D040A9CA400029DC400009CC4000F1DA400083
S21440D05001DC400061DB4000EDD4400010B50446E2
S21440D060034B9847A46B034B9847204610BD00BF20
S21440D070B9CA4000D1CA400038B504460C4B0D46EC
S21440D0809847636C013304BF00236364A36C013389
S21440D09004BF0023A364074B9847A36B23B92946D4
S21440D0A004F12400044B98472046044B984738BD6B
S21440D0B0B9CA4000D1CA4000B9DA400031CC40007D
S21440D0C02DE9F04F4B681E4F5B684B6001F1080638
S21440D0D0B34204BF5B684B60D3F80C9085B088467B
S21440D0E0824693465B68C8F804309E4204BF736825
S21440D0F0C8F80430DD682B6B1A78A52A4FF0000478
S21440D10006D113F8012F0134A52AA4B2F9D0A408F9
S21440D110EA6A6B6C02938DE814000A490A480B4C85
S21440D12005F134025B46A04750460749B8474D458F
S21440D13002D0D8F80430D5E705B0BDE8F08F00BF80
S21440D1405D184100ACB54100401800203117410041
S21440D15010B50D4B0D4A1968126848609042044657
S21440D1600BD30B490B4A08681968043190470A4BA1
S21440D1701A68944238BF1C6010BD0849054A0868C2
S21440D18019680431904710BD3C1800205017002005
S21440D19010180020B1C9400038000020F4170020C5
S21440D1A02DE9F04F83B08146DFF8C4810D9E0E9C7A
S21440D1B04C208A4615469B46C0470746002800F046
S21440D1C08780002C79D00463AA002046A521534BC3
S21440D1D0534C984705F18045386B524B013D00EB68
S21440D1E08505514625F0070A0C9D102207F13400AC
S21440D1F09847072D28BF0725002207F1040887F81F
S21440D2004320FD62BD644046A047C5F1080507F1CE
S21440D2101800A0475046BD613F617F6249465A4666
S21440D220414CA047386006B13760404A404C904772
S21440D230404A1168013111602168002935D03E4EC0
S21440D24032682AB3DFF82C913C49FA6A0D683C48AC
S21440D250AA4288BF0A603B4903680D687D649A42CB
S21440D26088BF0260013502EB82000D6009EB80004A
S21440D2704146354B9847354B9847336823B123682A
S21440D2800C9ADB6A9A420CD8012003B0BDE8F08FB6
S21440D29022680C98D26ADFF8DC90904228BF27605C
S21440D2A0D2E72B4B98470120EFE727601268DFF85C
S21440D2B0C490012A11D0204EC6E7AA00104601921B
S21440D2C0C0473863019A002880D13846214B98479A
S21440D2D04FF0FF3003B0BDE8F08FDFF89CA04D461E
S21440D2E009F1A00628461435D047B542DFF888B085
S21440D2F0F8D1DFF888A0184D0F4E5046D84728463C
S21440D300D8471648D8471648D8471648D8471649E3
S21440D310164AC1F800A0156096E700BFF914410010
S21440D3208DC94000951C410011CA4000B9CA400052
S21440D3303C180020141800202C180020C01800208C
S21440D340481700203418002095C94000D1CA400034
S21440D350A9CA400071CB40009C1800201818002035
S21440D360F81700207418002010180020F41700202A
S21440D3704DCB40005417002075C940008818002047
S21440D380F8B5154B04469847144B1A6894421DD07E
S21440D3902746DCB1251D2846114EB047A36A13B177
S21440D3A004F11800B04729460E480F4B98470F4BDC
S21440D3B00F4A196814680F48013101341960146027
S21440D3C080470D4B1B6803B11FB1F8BD1C68002792
S21440D3D0E0E70A4B9847F8E7B9CA40003C180020F7
S21440D3E0EDC94000F817002095C9400034180020C9
S21440D3F04C170020D1CA40002C180020A9CA400073
S21440D40070B5044658B1164D2B68984207D0154B58
S21440D4109847154A6369934202D0144B984770BDAB
S21440D420A36A134A9342F8D0002BF6D1261D304605
S21440D430104B9847104AE36A116810488B4288BFE1
S21440D440136003EB83030E4A00EB8300314690479C
S21440D4502B68E26ADB6A9A42DFD30A4B9847DCE7DE
S21440D4603C180020B9CA400074180020D1CA4000B9
S21440D47018180020EDC94000481700205417002017
S21440D48095C94000A9CA400030B585B00024009434
S21440D49001940294039423460D480E490E4D4FF4D2
S21440D4A08072A847012801D005B030BD0B4B984785
S21440D4B001280346F8D14FF0000080F31188084950
S21440D4C00848094A03600C60904705B030BD00BF6D
S21440D4D099D74000C0B54100A1D1400081DD400051
S21440D4E0501700202C18002061CA4000024B1A68D2
S21440D4F001321A60704700BFB018002010B5044BC8
S21440D5009847044A044B14689847204610BD00BF0D
S21440D510B9CA400050170020D1CA4000014B1868D5
S21440D520704700BF141800202DE9F04F3E4B1B6893
S21440D53083B0002B50D13D4C2368013323602368D1
S21440D540002B50D03A4A01921368226837499A42D3
S21440D55046D3384D2B681B68002B36D02B68DB68CB
S21440D560D3F80CB00968DBF804208A4257D8324F0B
S21440D570324EDFF8D890DFF8D88009E02D4A13689D
S21440D580DB68D3F80CB02168DBF804208A4246D822
S21440D5900BF1040A5046B847DBF828200BF1180078
S21440D5A00AB1254A9047DBF82C303268934203EBA9
S21440D5B0830088BF214A09EB8000514688BF13602C
S21440D5C0C0472B681B68002BD8D1019A4FF0FF3319
S21440D5D0136003B0BDE8F08F194B1A6801321A6029
S21440D5E003B0BDE8F08F134B16491868164A0D680D
S21440D5F01D6008601168013111601A68126832B9FE
S21440D6000B4B0B4A01934FF0FF3313609DE71B68AB
S21440D610074ADB680192DB685B68136095E7019B0D
S21440D6201A6003B0BDE8F08FB018002050170020F5
S21440D6303800002010180020EDC940004817002090
S21440D640B4180020F4170020BC18002054170020FF
S21440D65095C940002DE9F0472D4B98472D4B1A6849
S21440D660013A1A601E68002E3CD12B4B1B68002BDB
S21440D67038D0DFF8CC90294FDFF8C880CA461EE085
S21440D680DAF80C30DC6804F11800251DB847284647
S21440D690B847E36AD8F800E02149224A03EB830002
S21440D6A0734501EB8000294688BFC8F80030904794
S21440D6B01D4BE26A1B68DB6A9A4228BF0126D9F8EE
S21440D6C00030002BDCD1194C23688BB123683BB16A
S21440D6D0174DA8472368013B23602368002BF8D1E9
S21440D6E0144B0BE00024144B98472046BDE8F087C7
S21440D6F0012EF5D00F4B1A68012AF3D100210F4AAC
S21440D7001960012490470C4B98472046BDE8F087A7
S21440D710B9CA4000B018002014180020EDC94000D7
S21440D7205417002095C940003C180020B41800202B
S21440D73029D5400030180020D1CA4000A9CA400070
S21440D740181800204817002038B510B90B4B9847DA
S21440D75038BD0B4B0B491D680B4C0C4A01351D6000
S21440D76024680B680444181D9047094B2046984788
S21440D770084B98470028E9D038BD00BFA9CA4000EA
S21440D780B01800203C18002050170020EDC940007B
S21440D79051D1400055D640001E4C1F4EDFF89880B1
S21440D7A01E4D2DE98848A1461D4FDFF890B002E097
S21440D7B02B68012B2BD82368002BF9D03368013314
S21440D7C03360D7F800A0C047BAF1000FF0D0154A32
S21440D7D09047134AD368D3F80CA0134B0AF10400C1
S21440D7E09847DBF80030114A013BCBF80030D9F8B7
S21440D7F00030013BC9F8003090470D4BDAF8300056
S21440D800984750460A4A90472B68012BD3D9094B74
S21440D8109847D0E74C170020B01800205417002037
S21440D820F8170020B9CA4000EDC94000D1CA4000F0
S21440D83071CB4000A9CA400055D6400014180020BD
S21440D8402DE9F041254B2649264A0C681D68264E90
S21440D85011889278DFF8A4800746013504EB8400EF
S21440D8601D603980BA70013406EB800501E0143D36
S21440D8706CB1013C04EB840356F82330002BF6D001
S21440D880294638465222C047143D002CF1D1174B4A
S21440D8901A681268E2B9164B1A68126892B91549A6
S21440D8A00B6853B914490B681BB138465322134BC7
S21440D8B09847134B9847BDE8F081384644220F4BB3
S21440D8C09847EFE719680D4B384642229847E6E7F7
