:020000040040BA
:100000004890012025984000ED984000D19C400088
:10001000D99C4000E19C4000E99C400000000000A9
:100020000000000000000000000000009D62400091
:10003000ED9840000000000089634000C563400067
:10004000ED984000ED984000ED984000ED9840009C
:10005000ED984000ED984000ED984000ED9840008C
:10006000B95C40001D5D400000000000C1934000ED
:10007000D9934000F1934000855D4000ED5D400064
:100080000000000000000000ED9840004D0440001A
:100090005D044000ED984000ED984000ED98400070
:1000A000ED984000ED984000ED984000ED9840003C
:1000B000ED984000ED984000ED984000ED9840002C
:1000C000ED984000ED9840007D1D400010B5054CB6
:1000D000237833B9044B13B10448AFF300800123F4
:1000E000237010BDC00A002000000000E43A410067
:1000F00008B5064B1BB106480649AFF30080064819
:10010000036813B1054B03B1984708BD0000000018
:10011000E43A4100C40A0020E43A41000000000033
:1001200090B58BB000AF78600023BB60002387F8E8
:100130002730814A7B681B0113441B68BB61B86987
:100140007E4B98477861B8697D4B984703467A693A
:1001500013407B617B6903F40053002B76D0764A11
:100160007B681B0113445B6818464FF40071754BA4
:100170009847B8694FF40051734B984700233B628E
:10018000BB691B6AFB74FB7C03F00403002B00D0EB
:100190000BE03B6A01333B623B6AB3F1FF3F03D1A3
:1001A000012387F8273000E0EAE7BB6902221A60E2
:1001B000664B7A6853F8322064497B68DB000B4455
:1001C0005B68013B13441B781A46BB695A63BB69E1
:1001D0001B6AFB74FB7C03F00103002B00D00BE0D7
:1001E0003B6A01333B623B6AB3F1FF3F03D101231A
:1001F00087F8273000E0EAE7554A7B68DB001344C4
:100200005B68002B0CD0524A7B68DB0013445A68B1
:1002100007F10803104600211A4600234D4CA04761
:100220003B6AB3F1FF3F11D0494B7A6853F8323043
:10023000002B0BD0464B7A6853F8322007F10803A5
:10024000104600211A460023424CA0477B6903F464
:100250008053002B00F0AA800023FB61364A7B68A4
:100260001B0113445B6818460221364B9847B86956
:100270004FF48051344B9847BB691B6AFB60FB68A5
:1002800003F00203002B00D008E0FB690133FB619F
:10029000FB69B3F1FF3F00D100E0EDE7BB6902224B
:1002A0001A602A4B7A6853F8322028497B68DB00B1
:1002B0000B445B68023B1344BA69126BD2B21A70EA
:1002C000BB691B6AFB60FB6803F00203002B00D0D4
:1002D00008E0FB690133FB61FB69B3F1FF3F00D12B
:1002E00000E0EDE7FB69B3F1FF3F35D0174B7A68CB
:1002F00053F8322015497B68DB000B445B68013BF7
:100300001344BA69126BD2B21A700023FB61BB6945
:100310001B6AFB60FB6803F00103002B00D01BE0AD
:10032000FB690133FB61FB69B3F1FF3F03D101239B
:1003300087F8273010E0EAE73C354100194E4000CD
:10034000314E400065824000F94D4000FC0A00201B
:10035000DC0A00208D694000354A7B68DB001344CD
:100360005B68002B0CD0324A7B68DB0013445A6870
:1003700007F10803104600211A4600232D4CA04720
:10038000FB69B3F1FF3F11D02B4B7A6853F8323041
:10039000002B0BD0284B7A6853F8322007F1080362
:1003A000104600211A460023224CA0477B6903F423
:1003B0005073002B03D197F82730002B2FD01F4A02
:1003C0007B681B0113445B68184640F202211C4BFA
:1003D00098477B6903F48073002B02D1BB6902222A
:1003E0001A60B8694FF40051164B9847B8694FF43A
:1003F0008051144B98470E4A7B68DB0013445B68BE
:10040000002B0CD00A4A7B68DB0013445A6807F1C2
:100410000803104600211A460023064CA047BB687B
:10042000002B01D0084B98472C37BD4690BD00BF2C
:10043000DC0A00208D694000EC0A00203C354100B8
:1004400065824000F94D40001163400080B500AF67
:100450000020014B984780BD2101400080B500AFCE
:100460000120014B984780BD2101400080B483B03A
:1004700000AFEFF310833B603B68002B14BF0023F9
:100480000123DBB27B6072B6BFF35F8F044B0022A7
:100490001A707B6818460C37BD465DF8047B7047C0
:1004A0000C02002080B483B000AF78607B68002B22
:1004B0000CBF00230123DBB218460C37BD465DF8A4
:1004C000047B704780B582B000AF78607868074BD6
:1004D00098470346002B05D0054B01221A70BFF345
:1004E0005F8F62B60837BD4680BD00BFA5044000DF
:1004F0000C02002080B483B000AF0023BB71414BDD
:1005000000221A70BA79404B002123F81210BA79F0
:100510003E4913469B0013445B000B44A1221A7012
:10052000BA793A4913469B0013445B000B442022DE
:100530005A70BA79354913469B0013445B000B444B
:1005400000225A80BB79002B02D10023FB7102E00C
:100550000023FB7100BFBA79FB7999B22B4813468F
:100560009B0013445B0003440A469A80BA792749EA
:1005700013469B0013445B000B440222DA80BA79D5
:10058000224913469B0013445B000B4408330022AE
:100590001A80BA791E491346DB009B1A0B440022CD
:1005A0001A70002262F07B025A70002242F00302AD
:1005B0009A700022DA70BA7915491346DB009B1A4B
:1005C0000B4400221A71BA7911491346DB009B1AB9
:1005D0000B4400225A71BA790D491346DB009B1A6D
:1005E0000B4408229A71074B1B78DBB20133DAB255
:1005F000044B1A70012318460C37BD465DF8047B86
:10060000704700BF240B0020140B0020180B0020A3
:100610000C0B002080B582B000AF0023FB712A4B89
:1006200000221A70FB79294A0021D154FB79284A0B
:100630000021D154FB79274A0021D154FA79264B65
:10064000002123F82210FB79234A9B001344002247
:100650005A80FA79214B002123F81210FB791846B1
:100660001F4B9847FB791F4A0021D154FB791E4A42
:100670000021D154FA791D4B002123F82210FA7978
:100680001B4B002123F81210FB791846194B984791
:10069000034683F00103DBB2002B01D000230FE0FF
:1006A000094B1B78DBB20133DAB2074B1A70064BE9
:1006B0001B78DBB2012B02D10F4B01221A700123F0
:1006C00018460837BD4680BD250B0020440C00208D
:1006D000480C00203C0C0020380C0020400C00206E
:1006E000A90A4000B40B0020AC0B0020A80B00208E
:1006F000B00B002095084000260B002080B400AF0E
:10070000054B1B78DBB2013BDAB2034B1A70BD46D6
:100710005DF8047B704700BF240B002080B483B0D9
:1007200000AF094B1B78DBB2013BDAB2064B1A7003
:10073000054B1B78FB71054B00221A700C37BD4628
:100740005DF8047B704700BF250B0020260B0020BE
:1007500080B582B000AF2B4B98470346FB712A4B04
:100760001B78DBB25BB2002B1CDA274B1B7803F043
:100770006003202B16D1244B5B78212B12D1224B06
:10078000DB88072B01D0002338E0FA791346DB0021
:100790009B1A1E4A1A441C4B9A601B4B07229A81D3
:1007A00001232BE0184B1B78DBB25BB2002B24DB60
:1007B000154B1B7803F06003202B1ED1124B5B7886
:1007C000202B02D0222B16D017E00F4BDB88072BF3
:1007D00001D0002312E00C4B0D4A1A61FA7913463E
:1007E000DB009B1A094A1A44074B9A60064B072202
:1007F0009A81012302E0012300E000231846083714
:10080000BD4680BD4D084000884F01200C0B0020E4
:100810007D08400080B400AF00231846BD465DF857
:10082000047B704780B400AF00231846BD465DF8D6
:10083000047B704780B500AF024B1B781846024B13
:10084000984780BD4C0C0020A90A400080B483B0BA
:1008500000AF094B9B88DBB2002B02D10023FB7158
:1008600002E00023FB7100BFFB7918460C37BD4640
:100870005DF8047B704700BF884F012080B582B0CF
:1008800000AF034B98470346FB710837BD4680BD58
:100890004D08400090B589B002AF0346FB710023BC
:1008A000BB752C4B98473861BB7D2B4AD35CFB73DF
:1008B000BB7D2A4AD35CDBB2002B0DD1BA7D284B1D
:1008C00033F812309AB2B87DF97B264B40000144D0
:1008D00033F811309A4204D23869234B98470023E9
:1008E00033E0BA7D1E4B002123F81210BB7DFA7B4A
:1008F000002A14BF00220122D2B21146164AD15456
:10090000BB7D164A0121D1543869174B9847BB7DEE
:100910001846164B9847BB7D002B02D10223FB756E
:1009200002E00223FB7500BFBA7DFB7B520013443B
:100930009A010F4B1344FA7D0E4900911046012194
:100940001A4640230C4CA047034618461C37BD46A8
:1009500090BD00BF6D044000AC0B0020B40B002024
:10096000B00B0020A80B0020C5044000D10C4000B3
:10097000280B00207D0940007125400090B587B00C
:1009800002AF396013460246FA71BB71BB79022B84
:1009900002D10023FB7302E00023FB7300BFFB794D
:1009A000002B00D02EE0FB7B184AD35CDBB2002B7F
:1009B00014BF00230123DBB2BB733B68002B10D1B3
:1009C000FA7BBB7B520013449A01114B1344BA7952
:1009D00010490091104601211A4640230E4CA047B1
:1009E00010E0F87BBA7B3B6899B20C4B40000244A4
:1009F00023F81210FB7B0A4A0021D154FB7B1846D6
:100A0000084B98471437BD4690BD00BFAC0B002083
:100A1000280B00207D09400071254000A80B002014
:100A2000B40B00209508400080B584B000AF396059
:100A300013460246FA71BB71BB79812B02D10023A8
:100A4000FB7302E00023FB7300BFFB79002B00D097
:100A50001CE0F97BFB7B0F4AD35CDBB2002B14BF9D
:100A600000230123DBB21A460B4B49000A44002144
:100A700023F81210FB7B094A0021D154FB7B084A62
:100A80000021D154FB7B1846064B98471037BD46D2
:100A900080BD00BF3C0C0020380C0020480C00201A
:100AA000440C0020A90A400090B589B002AF03466B
:100AB000FB7100237B757B7D5F4AD35CDBB2002B2F
:100AC00000D0B5E05D4B98470346002B09D07A7DF6
:100AD0005B4B33F812405B4B984703469C420AD16C
:100AE000A6E07A7D564B33F81240574B98470346A1
:100AF0009C4200D19CE0554B984738617B7D544A1D
:100B0000D35CFB75797DFA7D524B49000A4433F87A
:100B10001230002B1FD1504B1B8801339AB24E4B21
:100B20001A80464B9847034683F00103DBB2002B43
:100B300003D0494B1B88632B09D9404B9847034688
:100B4000002B08D0444B1B88B3F5487F03D238698B
:100B5000424B98476CE0404B00221A807B7D404A14
:100B6000D35CDBB283F00103DBB2002B0AD07B7DC8
:100B7000FA7D002A14BF00220122D2B21146344A63
:100B8000D15406E0FB7D002B14BF00230123DBB210
:100B9000FB757B7D284A0121D15438692F4B98473A
:100BA000797DFA7D2B4B49000A4433F81230402BF3
:100BB0000CBF00230123FB73FB7B002B16D01F4BC4
:100BC00098470346002B08D07C7D1E4B9847034670
:100BD0001A461B4B23F814200DE07C7D1A4B9847D6
:100BE00003461A46164B23F8142004E07A7D144B72
:100BF000002123F812107B7D002B02D18123BB75CD
:100C000002E08123BB7500BF7A7DFB7D5200134457
:100C10009A01144B1A44787DF97D0E4B4000014433
:100C200033F81130B87DF97B0F4C00940F4CA0477E
:100C30001C37BD4690BD00BF440C00202D20400055
:100C4000400C0020F1204000D12040006D04400005
:100C50003C0C0020380C00204E0C0020C504400045
:100C6000480C0020B80B0020290A400071254000E4
:100C700080B586B000AF0346FB710023FB750F4BB8
:100C800098473861FA7D0E4B33F81230FB81F97DBD
:100C9000FB7D0C4AD35CDBB21A460B4B49000A447D
:100CA00033F812301A46FB89D31ABB603869074BF8
:100CB0009847BB6818461837BD4680BD6D04400094
:100CC000B00B0020AC0B0020A80B0020C504400096
:100CD00080B582B000AF0346FB71FB791846064B26
:100CE00098470346002B0CBF00230123DBB21846B4
:100CF0000837BD4680BD00BF710C400080B500AF15
:100D00000020024B98470346184680BDD10C400096
:100D100080B586B000AF0346FB7100237B610023E2
:100D2000BB74BA7C2A491346DB009B1A0B449B799F
:100D3000092B14BF00230123FB74264B9847F8604E
:100D4000BA7C254B33F812307B81BB7C234AD35CC1
:100D50007B72F868224B984700BFB97C7A7A214BA6
:100D600049000A4433F812307A899A420AD31E4B5A
:100D70001B78DBB283F00103DBB2002B01D0002330
:100D800022E0DAE7B87C797A7B89184A400001448E
:100D900089010B4413441B787A6913437B61BA7C45
:100DA0007B89013399B20C4B23F81210BB7C184697
:100DB0000F4B9847FB7C002B05D00023FB747B690D
:100DC0001B027B61B9E77B6918461837BD4680BDB9
:100DD0000C0B00206D044000B00B0020AC0B002079
:100DE000C5044000A80B0020260B0020280B002083
:100DF0009508400080B500AF0020024B984703469D
:100E0000184680BD110D400080B588B000AF034684
:100E1000FB710023FB76284B98477861FB7E274ABD
:100E2000D35CFB74F97EFA7C254B49000A4433F805
:100E30001230FB61F97EFB7C002B14BF00230123E1
:100E4000DBB21A461E4B49000A4433F81230FB60ED
:100E5000FB69402B23D1FB7E1A4AD35CDBB283F0C3
:100E60000103DBB2002B1AD0FB7E174AD35CDBB246
:100E700083F00103DBB2002B11D0FB7E124A01216B
:100E8000D154FB7EFA7C002A14BF00220122D2B288
:100E900011460A4AD1540023FB614023FB60FB69E1
:100EA000C3F14003BB607869084B9847BB6818469C
:100EB0002037BD4680BD00BF6D0440003C0C0020C3
:100EC000380C0020440C0020480C0020C5044000D1
:100ED00080B582B000AF0346FB71FB791846064B24
:100EE00098470346002B0CBF00230123DBB21846B2
:100EF0000837BD4680BD00BF090E400080B500AF79
:100F00000020024B98470346184680BDD10E400092
:100F1000F0B587B000AF03463960FB710023BB75A5
:100F2000BA7D29491346DB009B1A0B449B79092B98
:100F300014BF00230123FB75BB7D1846234B984744
:100F4000034683F00103DBB2002B0AD0204B1B7851
:100F5000DBB283F00103DBB2002B01D000232EE0D3
:100F6000EAE71C4B98473861BB7D1B4AD35CFB7397
:100F7000BC7DF87BB97DFA7B184B4D00154433F8E6
:100F800015305D1CAEB2154D49000A44314625F8B6
:100F900012103A68D2B2124964002044800103441E
:100FA0000B441A7038690F4B9847FB7D002B05D016
:100FB0000023FB753B681B123B60BDE7012318460D
:100FC0001C37BD46F0BD00BF0C0B0020D10E400009
:100FD000260B00206D0440003C0C0020380C002043
:100FE000B80B0020C504400080B582B000AF786027
:100FF00000207968034B9847034618460837BD46DA
:1010000080BD00BF110F400080B400AF064B1B68CD
:101010001A68054B1B681B685B889BB21344184613
:10102000BD465DF8047B70475C0C002080B584B041
:1010300000AF78600B46FB70114B9847F8607B68F7
:101040001B787A6813447B6010E07B685B78042B24
:1010500000D10FE07B685B78FA789A4201D17B6817
:1010600009E07B681B787A6813447B60FA687B68C8
:101070009A42EAD8002318461037BD4680BD00BF0B
:101080000910400080B584B000AF02460B46FA71EB
:10109000BB711E4B1B78002B01D1002332E01C4B8F
:1010A0001B681B681B79FA799A4201D3002329E057
:1010B000174B1B681A68174B1A60174B9847F86054
:1010C0001AE0144B1B685B78042B0DD1114B1B6885
:1010D0009B78FA799A4207D10E4B1B68DB78BA7974
:1010E0009A4201D101230DE00A4B1A68094B1B6893
:1010F0001B781A44074B1A60064B1B68FA689A4221
:10110000DFD8002318461037BD4680BD580C00209C
:101110005C0C0020600C00200910400080B584B0F9
:1011200000AF0346FB71FB79184600211E4B984720
:10113000034683F00103DBB2002B01D000232FE034
:101140001A4B1B685A68FB799B0013441B68BB60F1
:10115000BB68DB6898470346FA7910461946124B7C
:101160009847034683F00103DBB2002B01D0002334
:1011700016E00F4B1B68FB60F86805210D4B984784
:10118000F860FB68002B05D100BFBB685B6898471F
:10119000012305E0FB689B781846074B9847EBE76F
:1011A00018461037BD4680BD851040005C0C0020FD
:1011B000600C00202D104000A922400080B584B0B2
:1011C00000AF02460B46FA71BB71FA79BB79104643
:1011D00019461D4B9847034683F00103DBB2002BF1
:1011E00001D000232BE0194B1B68FB60F868052138
:1011F000174B9847F860FB68002B0BD100BF154BCD
:101200001B685A68FB799B0013441B681B6898474E
:10121000034614E0FB689978FB68DA78FB689B88E2
:101220009BB2084611461A460B4B9847034683F07B
:101230000103DBB2002B01D0002300E0D6E7184603
:101240001037BD4680BD00BF85104000600C0020F7
:101250002D1040005C0C00202921400080B500AF1B
:10126000014B984780BD00BF3D1F400080B582B054
:1012700000AF0F4B1B78002B10D00023FB7106E052
:10128000FB7918460B4B9847FB790133FB710A4BEE
:101290001B681B681B79FA799A42F1D3044B002230
:1012A0001A70064B01221A800837BD4680BD00BF68
:1012B000580C00201D1140005C0C0020500C002038
:1012C00080B582B000AF134B1B78002B1FD00023DA
:1012D000FB7115E0104B1B685A68FB799B001344A7
:1012E0001B681B69002B08D00B4B1B685A68FB79E5
:1012F0009B0013441B681B699847FB790133FB7102
:10130000054B1B681B681B79FA799A42E2D30837B0
:10131000BD4680BD580C00205C0C002080B500AF9D
:10132000064BDB88022B01D0002304E00448022195
:10133000044B98470123184680BD00BF884F012009
:10134000500C00200121400080B500AF0B4BDB8822
:10135000022B01D000230EE0084B9B88DBB218461D
:10136000074B984703461A46064B1A800548022148
:10137000054B98470123184680BD00BF884F0120C8
:10138000F1224000640C00200121400080B400AF35
:101390000C4BDB88002B01D000230DE0094B5B8850
:1013A000012B08D1084B1B8823F002039AB2064B8D
:1013B0001A80012300E000231846BD465DF8047B37
:1013C000704700BF884F0120500C002080B500AF4F
:1013D0000A4BDB88002B01D000230CE0074B5B8815
:1013E000002B07D1054B9B88DBB21846044B98476E
:1013F000034600E00023184680BD00BF884F01204F
:101400005924400080B400AF094BDB88002B01D089
:10141000002307E0064B5B88012B02D000BF0023AE
:1014200000E000231846BD465DF8047B704700BF0E
:10143000884F012080B500AF0D4BDB88002B01D019
:10144000002312E00A4B5B88002B0DD1084B9B88D0
:10145000DBB21846074B9847054B9B88DBB2184612
:10146000054B9847034600E00023184680BD00BFA7
:10147000884F0120C92640006523400080B500AF99
:10148000044B5B88DBB203F07F03DBB21846024BF0
:10149000984780BD884F01203D20400080B400AFB8
:1014A000074BDB88002B01D0002303E0044B054AE7
:1014B0001A6101231846BD465DF8047B704700BFE2
:1014C000884F01207D14400080B584B000AF002318
:1014D000FB71214B5B88DBB2012B08D0022B0BD0B8
:1014E000002B0ED11D4804211D4B98470BE007230C
:1014F000FB711C4BBB6006E00A23FB711A4BBB60FF
:1015000001E0002323E0FB79002B1FD00023FB73B5
:101510000BE0FB7BFA7BB9680A44127813495B0045
:101520000B445A80FB7B0133FB73FA7BFB799A42B5
:10153000EFD3FB790133DBB25B00DAB20B4B1A70ED
:101540000A4B1B7809481946054B98470123184652
:101550001037BD4680BD00BF884F01202800002005
:10156000012140002C000020340000204000002019
:1015700080B582B000AF414B5B88FB713F4B5B880D
:101580001B0A9BB2DBB2013B0E2B66D801A252F8BC
:1015900023F000BFD1154000E5154000451640007E
:1015A0005B1640005B1640005B1640005B16400077
:1015B0005B1640005B1640005B1640005B16400067
:1015C0005B1640005B1640005B164000231640008F
:1015D0002B4B1A682A4B1B681B7810461946294B5F
:1015E00098473CE0264B1B685B7CFA799A4201D312
:1015F00000233FE0224B5A68FB79DB0013441A6852
:101600001F4B5968FB79DB000B441B685B889BB25E
:10161000104619461B4B9847184B9B6802225A707C
:101620001DE0174B9B68002B01D1002322E0144BD7
:101630009A68134B9B685B889BB210461946114B06
:1016400098470CE0104B9847034683F00103DBB248
:10165000002B01D000230DE001E000230AE0074B3E
:10166000DA88064B9B899A4203D2044BDA88034BF3
:101670009A81012318460837BD4680BD884F012056
:10168000F401002001214000C914400080B500AFE2
:10169000064BDB88012B01D0002304E00448012124
:1016A000044B98470123184680BD00BF884F012096
:1016B000580C00200121400080B582B000AF274BBC
:1016C000DB88002B01D0002343E0254B98470346DD
:1016D000002B01D100233CE0204B5B88DAB2214B88
:1016E0001B685B7C9A4201DD002332E01E4B984769
:1016F0001A4B5B88DAB21D4B1A701C4B1B78002BFF
:1017000001D1012325E0174B5A68184B1B7803F1D0
:101710000053013BDB001A44154B1A600023FB7198
:101720000FE0FB7918460021124B9847034683F0DF
:101730000103DBB2002B01D000230AE0FB79013367
:10174000FB710B4B1B681B681B79FA799A42E8D333
:10175000012318460837BD4680BD00BF884F0120D1
:10176000A1204000F40100206D124000580C002020
:101770005C0C0020BD11400080B582B000AF1E4B54
:10178000DB88012B01D0002332E01C4B1B78002B9F
:1017900001D100232CE0184B9B88FB71184B1B6870
:1017A0001B681B79FA799A4201D3002320E0FB7968
:1017B00018460021134B9847034683F00103DBB220
:1017C000002B01D0002313E00D4B1B685A68FB79F6
:1017D0009B0013441B683B603B68DB6898470346EB
:1017E0001A46094B1A7008480121084B98470123F3
:1017F00018460837BD4680BD884F0120580C002090
:101800005C0C002085104000540C00200121400099
:1018100080B582B000AF144BDB88002B01D00023D1
:101820001EE0124B1B78002B01D1002318E00E4B59
:101830009B88FB710C4B5B88BB71FB7918460C4B8A
:101840009847034683F00103DBB2002B01D000234D
:1018500006E0FA79BB7910461946064B98470346CD
:1018600018460837BD4680BD884F0120580C00201F
:101870001D114000BD11400080B500AF4E4B1B78DC
:10188000DBB25BB2002B3FDA4B4BDB88002B01D184
:1018900000238FE0484B1B7803F01F03002B14D16B
:1018A000454B5B78062B08D0082B0AD0002B00D0C4
:1018B0000BE0424B984703467CE0414B9847034678
:1018C00078E0404B9847034674E03B4B1B7803F0AD
:1018D0001F03012B08D1384B5B780A2B00D003E0A3
:1018E000394B9847034665E0334B1B7803F01F03E1
:1018F000022B5ED1304B5B78002B01D000BF58E04B
:10190000324B9847034655E02B4B1B7803F01F03DF
:10191000002B2AD1284B5B78013B082B24D801A24D
:1019200052F823F05119400069194000591940003C
:1019300069194000491940006919400069194000BF
:101940006919400061194000214B9847034631E076
:10195000204B984703462DE01F4B9847034629E04C
:101960001E4B9847034625E000BF134B1B7803F03E
:101970001F03012B08D1104B5B780B2B00D003E029
:10198000174B9847034615E00B4B1B7803F01F03DA
:10199000022B0ED1084B5B78012B02D0032B04D015
:1019A00007E0104B9847034604E00F4B9847034667
:1019B00000E00023184680BD884F01201D13400021
:1019C000711540008D164000791740004913400002
:1019D0009D1440008D13400005144000B9164000CE
:1019E00011184000CD1340003514400080B582B07E
:1019F00000AF204B1B78002B01D1002335E01E4B9C
:101A00009B88FB711D4B1B681B681B79FA799A42F6
:101A100001D3002329E0FB7918460021184B984791
:101A2000034683F00103DBB2002B01D000231CE04E
:101A3000124B1B685A68FB799B0013441B683B6080
:101A40003B68DB6898470346FA79104619460C4B09
:101A50009847034683F00103DBB2002B01D000233B
:101A600003E03B689B689847034618460837BD4625
:101A700080BD00BF580C0020884F01205C0C002066
:101A80008510400080B582B000AF1E4B1B78002B44
:101A900001D1002331E01C4B9B88FB710023FB71BB
:101AA00023E01A4B1B685A68FB799B0013441B68A0
:101AB0003B603B68DB6898470346FA791046194655
:101AC000134B9847034683F00103DBB2002B01D090
:101AD000002312E03B689B6898470346002B01D027
:101AE00001230AE0FB790133FB71084B1B681B687B
:101AF0001B79FA799A42D4D3002318460837BD4699
:101B000080BD00BF580C0020884F01205C0C0020D5
:101B10008510400080B500AF1F4B00229A811E4BFC
:101B200000221A611C4B00225A611B4B1B78DBB24E
:101B30005BB2002B05DA184BDB88002B01D10023A8
:101B400027E0154B1B7803F06003002B06D1134BE5
:101B500098470346002B01D001231AE00E4B1B7857
:101B600003F01F03012B06D10D4B98470346002BB2
:101B700001D001230DE0084B1B7803F01F03022B5B
:101B800006D1084B98470346002B01D0012300E003
:101B90000023184680BD00BF884F012079184000FF
:101BA000ED194000851A400080B483B000AF0346B1
:101BB000FB71084B97F907205209F97901F01F01D1
:101BC000012000FA01F143F822100C37BD465DF800
:101BD000047B704700E100E080B483B000AF0346AF
:101BE0003960FB7197F90730002B0BDA0D49FB794F
:101BF00003F00F03043B3A68D2B21201D2B20B4495
:101C00001A7609E0084997F907303A68D2B212010A
:101C1000D2B20B4483F800230C37BD465DF8047B39
:101C2000704700BF00ED00E000E100E080B483B049
:101C300000AFEFF310833B603B68002B14BF002321
:101C40000123DBB27B6072B6BFF35F8F044B0022CF
:101C50001A707B6818460C37BD465DF8047B7047E8
:101C60000C02002080B483B000AF78607B68002B4A
:101C70000CBF00230123DBB218460C37BD465DF8CC
:101C8000047B704780B582B000AF78607868074BFE
:101C900098470346002B05D0054B01221A70BFF36D
:101CA0005F8F62B60837BD4680BD00BF651C40002F
:101CB0000C02002080B584B000AF0346FB71084BD6
:101CC0009847F860FB79074AD25C0132D1B2054AE5
:101CD000D154F868044B98471037BD4680BD00BF0B
:101CE0002D1C4000804F0120851C400080B584B031
:101CF00000AF0346FB71084B9847F860FB79074A31
:101D0000D25C013AD1B2054AD154F868044B9847E5
:101D10001037BD4680BD00BF2D1C4000804F012004
:101D2000851C400080B582B000AF0346FB71FB7993
:101D300083F00103DBB2002B06D00D4B1B78002B88
:101D400002D002200B4B9847FB79002B09D0084B9F
:101D50001B7883F00103DBB2002B02D00220064B7C
:101D60009847034BFA791A700837BD4680BD00BF0B
:101D7000660C0020ED1C4000B51C400080B500AF93
:101D8000614B9847034683F00103DBB2002B0CD074
:101D90005E4BDB6903F48073002B06D172B6BFF390
:101DA0005F8F5B4B00221A70ACE02220594B9847A2
:101DB000564B9B6903F40063002B0CD0534BDB693B
:101DC00003F40063002B06D0504B4FF400621A62FC
:101DD000514B984795E0514B98470346002B00D054
:101DE0008FE04F4B98470346002B00D089E0474BCC
:101DF0009B6903F40053002B05D0444BDB6903F4CB
:101E00000053002B17D1414B9B6903F40073002B47
:101E100005D03E4BDB6903F40073002B0BD13B4B29
:101E20009B6903F48063002B1DD0384BDB6903F4FE
:101E30008063002B17D0354B4FF418521A62334B86
:101E40004FF418525A610120364B98472F4B4FF4EC
:101E500080721A622D4B4FF480721A612B4B4FF433
:101E600000621A614DE0294B9B6903F48073002BDB
:101E700020D0264BDB6903F48073002B1AD0234B50
:101E80004FF480721A62214B4FF480725A611F4BDB
:101E90004FF400521A611D4B4FF400721A611B4B34
:101EA0004FF480621A6122201F4B984700201D4B7F
:101EB000984726E0154BDB6903F48053002B20D0B4
:101EC000124B4FF480521A62184B9847184B9847A0
:101ED0000E4B0E4A526822F001025A600B4B0B4A1D
:101EE000526822F002025A60124B9847124B9847F0
:101EF000064B4FF480721A61044B4FF400621A6172
:101F000000BF00BF80BD00BFD99740000040034024
:101F10000C02002065964000C1124000C130400014
:101F2000A1374000251D4000E996400015324000D1
:101F30006D124000892840003929400080B582B0E8
:101F400000AF114B984778602220104B9847104BF8
:101F50009847222005210F4B984722200E4B984787
:101F60000E4B98474FF480200D4B98470D4B0022A5
:101F70001A7000200C4B98470C4B984778680C4B14
:101F800098470837BD4680BD2D1C4000659640002F
:101F900009894000D91B4000A91B40006D31400059
:101FA000AD974000660C0020B51C4000B51F4000F6
:101FB000851C400080B582B000AF174B9847786011
:101FC0000120164B98472220154B9847154B154A70
:101FD000526F22F480725A67124B124A526F42F4C7
:101FE00000725A670F4B4FF480721A610D4B4FF419
:101FF00000521A610B4B4FF400721A61094B4FF4F7
:1020000080621A61074B4FF400621A617868064BD0
:1020100098470837BD4680BD2D1C4000251D400057
:102020006596400000400340851C400080B400AF2E
:1020300000231846BD465DF8047B704780B483B02A
:1020400000AF0346FB71154B144A526822F001029F
:102050005A60124B114A926822F480729A60FB799E
:10206000002B15D00D4B0D4A926822F07F01FA79B2
:1020700002F07F020A439A60084B084A926842F4D1
:1020800080729A60054B054A526842F001025A601C
:102090000C37BD465DF8047B704700BF004003402D
:1020A00080B400AF094B5B6803F00103002B06D03E
:1020B000064B9B68DBB203F07F03DBB200E000233A
:1020C0001846BD465DF8047B704700BF00400340E2
:1020D00080B400AF054B1B689BB2C3F30A039BB2ED
:1020E0001846BD465DF8047B704700BF00400340C2
:1020F00080B400AF00231846BD465DF8047B7047EE
:1021000080B483B000AF78600B467B80054B7A6863
:102110009A60044B7A889A810C37BD465DF8047B3F
:10212000704700BF884F012080B487B000AF1346CE
:102130000246FA710A46BA71BB80FB7903F080034C
:10214000002B0CBF00230123FB75BB7903F00303B5
:10215000012B14BF00230123BB75FB7903F00F0390
:10216000FB71FB79032B01D9002392E04C4BFA79E8
:102170000C3253F8223003F40043002B01D000232B
:1021800087E0BB7D002B07D0FB79002B02D0FB79C9
:10219000032B01D100237CE0BA88FB79042B02D009
:1021A000FB79052B02D14FF4007300E040239A42E3
:1021B00001DD00236DE0FB795A1E13469B0013449A
:1021C0009B00384A13443B61BB88C3F3090399B2AF
:1021D0003A69138A61F3090313823A69537C6FF3F6
:1021E000C71353743A69537C6FF345135374FB7DE3
:1021F000002B04D03A69537C6FF383035374284B4C
:10220000274A916AFA79012000FA02F20A439A6297
:10221000234B234A916AFA79012000FA02F2D24351
:102220000A409A621E4BFA790C3253F82230FB6056
:10223000FB6843F04F03FB60FB6823F4074323F084
:102240008003FB60FB7D002B09D0BB7943F00403C6
:10225000DBB21B0203F4E06343F4004305E0BB7907
:102260001B0203F4E06343F40043FA681343FB608A
:102270000B4BFA79F9680C3243F822100023BB604B
:1022800003E000BFBB680133BB60BB68132BF8D908
:10229000012318461C37BD465DF8047B704700BF1C
:1022A000004003406C0C002080B584B000AF0346B2
:1022B000FB71FB7903F00F03FB73FB7B032B00D94E
:1022C0000FE0094BFA7B0849F87B0C3051F82010DD
:1022D00021F400410C3243F82210FB791846034BDD
:1022E00098471037BD4680BD00400340593240003A
:1022F00080B485B000AF0346FB71FB7903F00F0398
:10230000FB73FB7B5A1E13469B0013449B00134A2E
:102310001344BB60FB7B032B01D9002317E0BB6890
:102320005B7CC3F34013DBB2002B0AD10C4BFA7970
:1023300002F00F020C3253F8223003F02803002B76
:1023400001D0012300E0002303F00103DBB21846B3
:102350001437BD465DF8047B704700BF6C0C00204D
:102360000040034080B588B000AF0346FB71FB79A5
:1023700003F08003002B0CBF00230123FB77FB79C4
:1023800003F00F03BB77BB7F5A1E13469B00134419
:102390009B002D4A1344BB61BB7F032B01D9002353
:1023A0004DE02A4B98477861FB7F002B1FD0284BCC
:1023B000BA7F0C3253F8223003F01003002B06D101
:1023C000BB695B7CC3F38103DBB2012B0FDDBA6910
:1023D000537C43F0200353741D4BBA7F012101FA53
:1023E00002F21A6178691B4B9847012327E0184BCA
:1023F000BA7F0C3253F822303B613B6943F04F0304
:102400003B613B6943F020033B61114BBA7F396963
:102410000C3243F822100023FB6003E000BFFB688E
:102420000133FB60FB68132BF8D9094BBA7F0121FC
:1024300001FA02F21A617869064B9847012318469F
:102440002037BD4680BD00BF6C0C00202D1C400015
:1024500000400340851C400080B588B000AF0346B3
:10246000FB71FB7903F00F03FB71FB79032B01D99F
:10247000002375E0FB795A1E13469B0013449B0012
:10248000394A1344FB61FA69537C6FF34513537463
:10249000364BFA790C3253F8223003F02003002B2C
:1024A0005DD0324BFA790C3253F82230BB61BB69F4
:1024B00043F04F03BB61BB6923F02003BB612B4B8F
:1024C000FA79B9690C3243F8221000237B6103E0EA
:1024D00000BF7B6901337B617B69132BF8D9234BE8
:1024E000224A916AFA79012000FA02F20A439A62BA
:1024F0001E4B1E4A916AFA79012000FA02F2D24379
:102500000A409A62194BFA790C3253F822303B6137
:102510003B6943F04F033B613B6923F008033B6198
:10252000124BFA7939690C3243F822100023FB6010
:1025300003E000BFFB680133FB60FB68132BF8D995
:10254000FB695B7CC3F30013DBB2012B07D1FA6993
:10255000537C6FF304135374FB691B689847012382
:1025600018462037BD4680BD6C0C0020004003405B
:1025700080B588B000AFBA607B600346FB730B4642
:10258000BB73FB7B03F08003002B0CBF00230123F4
:10259000FB77FB7B03F00F03FB73FB7B032B01D962
:1025A000002383E0FB7B5A1E13469B0013449B00D1
:1025B000404A1344BB61404BFA7B0C3253F8223043
:1025C00003F40043002B0FD0BB695B7CC3F34013C3
:1025D000DBB2002B08D1384BFA7B0C3253F8223097
:1025E00003F02003002B01D000235FE0334B98471A
:1025F0007861BB695B7CC3F30013DBB2012B04D1B0
:1026000078692F4B9847002350E0BA69537C43F018
:102610001003537478692A4B9847BB69BA685A60AB
:10262000BB697A689A60BB690022DA60BB69BA6AE2
:102630001A60BB7B002B02D17B68002B01D10123E8
:1026400000E00023DBB203F00103D9B2BA69537C86
:1026500061F386135374BA69537C6FF3C7135374D1
:10266000164B98477861144BFA7B012101FA02F26C
:102670001A61FB7F002B15D00F4BFA7B0C3253F8FD
:10268000223003F01103002B0CD1FB7B18460121F3
:102690000C4B98470346002B04D0FB7B18460021C7
:1026A000084B98477869064B98470123184620370E
:1026B000BD4680BD6C0C0020004003402D1C400036
:1026C000851C40008D35400080B588B000AF0346C2
:1026D000FB71FB7903F08003002B0CBF0023012367
:1026E000FB77FB7903F00F03FB71FB79032B00D918
:1026F000BAE05F4B9847B8615E4BFA79012101FA65
:1027000002F25A61B8695C4B9847FB7F002B00F0DE
:102710008680584BFA790C3253F8223003F01003BC
:10272000002B4FD0FB79002B2ED0FB79032B2BD025
:10273000504BFA794F49F8790C3051F8201021F0BC
:1027400010010C3243F8221000BF4A4BFA790C32C8
:1027500053F8223003F01003002BF6D1454BFA79E1
:102760004449F8790C3051F8201041F010010C3236
:1027700043F8221000BF3F4BFA790C3253F8223055
:1027800003F01003002BF6D03A4BFA790C3253F8D1
:1027900022307B617B6943F04F037B617B6923F0CF
:1027A00010037B61334BFA7979690C3243F82210BC
:1027B00000233B6103E000BF3B6901333B613B69A0
:1027C000132BF8D92B4BFA790C3253F82230FB60DB
:1027D000FB6843F04F03FB60FB6823F00103FB60E1
:1027E000244BFA79F9680C3243F822100023BB60BD
:1027F00003E000BFBB680133BB60BB68132BF8D993
:10280000FB795A1E1D4913469B0013449B000B4441
:1028100003F1100253786FF3830353700DE003E06C
:10282000FB791846164B9847124BFA790C3253F83D
:10283000223003F04203002BF2D10E4B0D4A916A75
:10284000FA79012000FA02F20A439A62094B094A16
:10285000916AFA79012000FA02F2D2430A409A62A0
:10286000FB791846074B98472037BD4680BD00BF0F
:102870002D1C400000400340851C40006C0C0020D3
:10288000053340005932400080B586B000AF274B79
:10289000264A926842F480729A60244B234A9268D6
:1028A00022F07F029A60214B1B6B3B613B6943F036
:1028B0004F033B613B6923F4074323F080033B61F3
:1028C0003B6943F400433B61184B3A691A630023A8
:1028D000FB6003E000BFFB680133FB60FB68132B68
:1028E000F8D9124B1B6BBB60BB6843F04F03BB6056
:1028F000BB6843F40043BB600C4BBA681A63002307
:102900007B6003E000BF7B6801337B607B68132B37
:10291000F8D9074B98477861044B01221A6178690E
:10292000044B98471837BD4680BD00BF00400340A8
:102930002D1C4000851C400080B400AF074B0022D6
:102940001A61064B00225A61044B00229A81044B03
:1029500000221A70BD465DF8047B7047884F012045
:10296000670C002080B58CB000AF6D4B1B78002B3E
:1029700003D06C4B98476C4B98476C4B1A6B6C4B65
:1029800013401B0C082B1AD0684B1B6BBB62BB6A35
:1029900043F04F03BB62BB6A23F00403BB62634B8B
:1029A000BA6A1A6300237B6203E000BF7B6A0133CB
:1029B0007B627B6A132BF8D95E4B9847ADE000230E
:1029C00087F82F300CE097F82F205B4B1344574AC1
:1029D000126DD2B21A7097F82F30013387F82F306A
:1029E00097F82F30072BEED9534B5A88524B5A8009
:1029F000514B9A88504B9A804F4BDA884E4BDA8075
:102A00004E4B9847034683F00103DBB2002B1AD0EC
:102A1000464B1B6B3B623B6A43F04F033B623B6A96
:102A200023F004033B62414B3A6A1A630023FB61C3
:102A300003E000BFFB690133FB61FB69132BF8D98D
:102A40003C4B984769E03C4B1B78DBB25BB2002BF8
:102A50003BDA364B1B6BBB61BB6943F04F03BB6179
:102A6000BB6943F08003BB61304BBA691A63002332
:102A70007B6103E000BF7B6901337B617B69132BC2
:102A8000F8D92A4B1B6B3B613B6943F04F033B6119
:102A90003B6923F004033B61244B3A691A6300232A
:102AA000FB6003E000BFFB680133FB60FB68132B96
:102AB000F8D9234B00221A80224B00221A80184B8F
:102AC00002221A70204B984727E0184B1B6BBB6003
:102AD000BB6843F04F03BB60BB6823F00403BB60DB
:102AE000124BBA681A6300237B6003E000BF7B6867
:102AF00001337B607B68132BF8D90F4BDB88002BED
:102B000002D1124B984708E00D4B00221A800D4B62
:102B100000221A80024B01221A703037BD4680BD58
:102B2000670C0020A93040003929400000400340D4
:102B30000000FF07F12F4000884F0120151B4000C7
:102B4000680C00206A0C0020512B400041304000EE
:102B500080B58EB000AF7B4B1B78032B1CD17A4B1A
:102B60001B6BBB62BB6A43F04F03BB62BB6A23F0C3
:102B70000103BB62744BBA6A1A6300237B6203E0F1
:102B800000BF7B6A01337B627B6A132BF8D96F4BE2
:102B900098476F4B9847D1E06E4B9A896E4B1B88D4
:102BA000D31AFB86FB8E002B3FD16C4B1A886A4BE5
:102BB0001B8813449AB2694B1A80664BDA88674BBC
:102BC0001B889A4203D0664B1B78002B1AD0654BAA
:102BD00098475D4B1B6B3B623B6A43F04F033B6284
:102BE0003B6A23F001033B62574B3A6A1A630023A6
:102BF000FB6103E000BFFB690133FB61FB69132B41
:102C0000F8D99BE0534B5B69002B0ED0514B5B69AD
:102C10009847034683F00103DBB2002B05D14E4BEE
:102C200000221A804B4B9B89FB86FB8E3F2B05D9DC
:102C30004023FB864A4B00221A7002E0484B0122D7
:102C40001A70444B9A68444B1B8813443B63464BB1
:102C50009847F8623C4B1B6B03F00203002B1ED01D
:102C6000F86A424B9847374B04221A70364B1B6B5D
:102C7000BB61BB6943F04F03BB61BB6923F0010338
:102C8000BB61314BBA691A6300237B6103E000BF6B
:102C90007B6901337B617B69132BF8D94EE00023FC
:102CA00087F835300AE0284A3B6B591C39631B789A
:102CB000136597F83530013387F8353097F835309C
:102CC0009BB2FA8E9A42EED8234B1A88FB8E13449D
:102CD0009AB2214B1A801C4B1B6B3B613B6943F042
:102CE0004F033B613B6943F010033B61164B3A696C
:102CF0001A630023FB6003E000BFFB680133FB6045
:102D0000FB68132BF8D9104B1B6BBB60BB6843F0FF
:102D10004F03BB60BB6823F00103BB600A4BBA687A
:102D20001A6300237B6003E000BF7B6801337B6094
:102D30007B68132BF8D9F86A0C4B98473837BD4697
:102D400080BD00BF670C002000400340A930400058
:102D500039294000884F01206A0C0020680C0020AF
:102D6000A80C0020913040002D1C4000851C400024
:102D700080B58EB000AF8F4B1B78012B27D08D4BC9
:102D80001B78022B03D08B4B1B78042B02D18A4B70
:102D9000984701E0894B9847894B1B6BFB62FB6AA4
:102DA00043F04F03FB62FB6A23F00203FB62844B98
:102DB000FA6A1A630023BB6203E000BFBB6A0133F7
:102DC000BB62BB6A132BF8D97E4B98470DE17C4B55
:102DD0001A6B7D4B13401B0CBB867C4B9B891A46A0
:102DE0007B4B1B881946BB8E0B449A4205DA774B06
:102DF0009A89774B1B88D31ABB86744B9A68744B9D
:102E00001B8813443B63002387F837300BE03B6B90
:102E10005A1C3A636A4A126DD2B21A7097F8373068
:102E2000013387F8373097F837309BB2BA8E9A4221
:102E3000EDD8674B1A88BB8E13449AB2644B1A8044
:102E4000BB8E402B0AD1614BDB881A46614B1B8835
:102E500019465F4B1B880B449A4246DC5C4B1A8830
:102E60005A4B9A81594B5B69002B23D0574B5B69B6
:102E70009847034683F00103DBB2002B1AD04F4B77
:102E800098474F4B1B6B7B627B6A43F04F037B621F
:102E90007B6A23F002037B62494B7A6A1A63002340
:102EA0003B6203E000BF3B6A01333B623B6A132B8A
:102EB000F8D99AE0424B1B6BFB61FB6943F04F036F
:102EC000FB61FB6923F00203FB613D4BFA691A6366
:102ED0000023BB6103E000BFBB690133BB61BB6979
:102EE000132BF8D93C4B98477FE0384B9A89384BE5
:102EF0001B889A424DD1354B5B69002B1AD12F4B61
:102F000098472F4B1B6B7B617B6943F04F037B61C1
:102F10007B6923F002037B61294B7A691A630023E2
:102F20003B6103E000BF3B6901333B613B69132B0D
:102F3000F8D95AE0254B5B699847034683F00103B3
:102F4000DBB2002B1AD01D4B98471D4B1B6BFB604F
:102F5000FB6843F04F03FB60FB6823F00203FB6058
:102F6000174BFA681A630023BB6003E000BFBB681D
:102F70000133BB60BB68132BF8D936E0154B1A88B8
:102F8000134B1B8813449AB2124B1A80104B002229
:102F90001A800B4B1B6B7B607B6843F04F037B609D
:102FA0007B6823F002037B60054B7A681A63002379
:102FB0003B6017E0670C0020A9304000F12F400073
:102FC00000400340392940000000FF07884F0120DE
:102FD0006A0C0020680C00204130400000BF3B68B4
:102FE00001333B603B68132BF8D93837BD4680BDB1
:102FF00080B483B000AF104B05221A700F4B1B6BCF
:103000007B607B6843F04F037B607B6843F0200369
:103010007B600A4B7A681A6300233B6003E000BFC1
:103020003B6801333B603B68132BF8D90C37BD4636
:103030005DF8047B704700BF670C00200040034030
:1030400080B483B000AF104B03221A700F4B1B6B80
:103050007B607B6843F04F037B607B6843F0100329
:103060007B600A4B7A681A6300233B6003E000BF71
:103070003B6801333B603B68132BF8D90C37BD46E6
:103080005DF8047B704700BF670C002000400340E0
:1030900080B400AF034B04221A70BD465DF8047B78
:1030A000704700BF670C002080B500AF034B1B6961
:1030B000002B02D0014B1B69984780BD884F01202F
:1030C00080B582B000AF254BDB6903F00103002B14
:1030D00001D100233EE0214B1B6B03F00403002BC6
:1030E00003D01F4B9847012334E01C4B1B6B03F0AC
:1030F0000103002B03D01B4B984701232AE0174BF9
:103100001B6B03F00203002B03D0174B98470123DE
:1031100020E0124B1B6B03F00803002B19D00F4B60
:103120001B6B7B607B6843F04F037B607B6823F005
:1031300008037B60094B7A681A6300233B6003E055
:1031400000BF3B6801333B603B68132BF8D9012378
:1031500000E0002318460837BD4680BD004003400C
:1031600065294000512B4000712D400080B483B090
:1031700000AF0023FB7143E0FA79254913469B0019
:1031800013449B000B4403F1100253786FF3830345
:103190005370FA791E4913469B0013449B000B445D
:1031A00003F1100253786FF304135370FA7918493E
:1031B00013469B0013449B000B4403F11002537809
:1031C0006FF345135370FA79114913469B0013446A
:1031D0009B000B4403F1100253786FF38613537076
:1031E000FA790B4913469B0013449B000B4403F1EF
:1031F000100253786FF3C7135370FB790133FB71DF
:10320000FB79022BB8D90C37BD465DF8047B7047BB
:103210006C0C002080B582B000AF0023FB7111E080
:10322000FA7913469B0013449B00094A1A44FB7920
:103230000133DBB2104601211A46064B9847FB7951
:103240000133FB71FB79022BEAD90837BD4680BDFB
:103250006C0C00209532400080B582B000AF034670
:10326000FB71FB7903F00F03FB71FB795A1E1346C8
:103270009B0013449B00054A1A44FB791046012128
:103280001A46034B98470837BD4680BD6C0C00209A
:103290009532400080B584B000AFF860B960134645
:1032A000FB71FB685B7CC3F30013DBB2002B00D126
:1032B00023E0FA68537C6FF304135374FB681B68B4
:1032C000002B00D119E00E4BFA790C3253F8223062
:1032D00003F48063002B03D0FB7963F07F03FB7161
:1032E000FB681B68BA68012A14BF00220122D2B20F
:1032F0001046FA689168FA7998471037BD4680BD44
:103300000040034080B489B000AF0346FB71FB79F5
:103310005A1E13469B0013449B003D4A1344FB6115
:103320003C4BFA790C3253F8223003F04203422B23
:1033300014D0384BFA790C3253F8223003F00203E0
:10334000002B05D0FA69537C6FF38303537405E0B7
:10335000FA69537C012161F383035374FB695B7C3D
:10336000C3F38103DBB2002B2AD12A4BFA790C324A
:1033700053F82230BB61BB6943F04F03BB61BB69AB
:1033800023F00203BB61234BFA79B9690C3243F88D
:10339000221000237B6103E000BF7B6901337B6166
:1033A0007B69132BF8D9FB79002B2CD0FB79032BED
:1033B00029D0FA69537C012161F38303537422E01D
:1033C000144BFA790C3253F822303B613B6943F0DD
:1033D0004F033B613B6923F040033B610D4BFA799E
:1033E00039690C3243F822100023FB6003E000BF70
:1033F000FB680133FB60FB68132BF8D9FA69537C37
:103400006FF3830353742437BD465DF8047B704724
:103410006C0C00200040034080B489B000AF03462C
:10342000FB71FB795A1E13469B0013449B00554ABF
:1034300013443B613B695A683B69DB681344FB6199
:103440003B699A683B69DB68D31AFB603B691B8A5E
:10345000C3F309039BB2BB610023FB75FA68BB6928
:103460009A4203D2FB68BB610123FB753B69DA68B2
:10347000BB691A443B69DA605AE0434AF879FB6950
:10348000591CF9611B78194600F1140342F8231006
:103490003D4AF879FB69591CF9611B78194600F11E
:1034A000140342F82310384AF879FB69591CF96172
:1034B0001B78194600F1140342F82310324AF879B8
:1034C000FB69591CF9611B78194600F1140342F895
:1034D00023102D4AF879FB69591CF9611B781946AC
:1034E00000F1140342F82310274AF879FB69591CAC
:1034F000F9611B78194600F1140342F82310224A9F
:10350000F879FB69591CF9611B78194600F114031D
:1035100042F823101C4AF879FB69591CF9611B78A1
:10352000194600F1140342F82310BB69083BBB6144
:10353000BB69072BA1D80DE0134AF879FB69591C28
:10354000F9611B78194600F1140342F82310BB6996
:10355000013BBB61BB69002BEED13B695B7CC3F3D4
:103560008103DBB2013303F00303D9B23A69537C20
:1035700061F383035374FB7D18462437BD465DF821
:10358000047B70476C0C00200040034080B586B07F
:1035900000AF02460B46FA71BB71FB795A1E134607
:1035A0009B0013449B00364A13447B617B695B7C20
:1035B000C3F38103DBB21A46FB79002B02D0FB79FF
:1035C000032B01D1012300E002239A4201DB0123F6
:1035D00052E07B69DA687B699B689A4208D37B6911
:1035E0005B7CC3F38013DBB2002B01D1002343E0EB
:1035F000FB791846234B98470346FB74BB79002B95
:103600001DD0214BFA790C3253F82230FB60FB6855
:1036100043F04F03FB60FB6843F01003FB601A4B61
:10362000FA79F9680C3243F822100023BB6003E0FA
:1036300000BFBB680133BB60BB68132BF8D9FB7CB0
:10364000002B04D07A69537C6FF3861353747B6923
:10365000DA687B699B689A420DD37B695B7CC3F314
:103660008013DBB2002B06D17A69537C43F08003D0
:103670005374002300E0012318461837BD4680BD6F
:103680006C0C0020193440000040034080B58AB023
:1036900000AF0346FB71FB795A1E13469B0013448F
:1036A0009B003A4A13447B6100237B627B699A68E2
:1036B0007B69DB68D31A3B617B691B8AC3F309030F
:1036C0009BB2FB607B695A687B69DB681344FB61D2
:1036D0000023FB762E4BFA790C3253F822202D4B27
:1036E00013401B0C7B627A6AFB689A422CBF002352
:1036F0000123FB727B6A002B21D07A6A3B699A42D4
:1037000003D33B697B620123FB767B69DA687B6AC2
:103710001A447B69DA6000233B620CE0FB695A1CA7
:10372000FA611B4AF979143152F82120D2B21A7089
:103730003B6A01333B623A6A7B6A9A42EED3FB7979
:103740001846154B9847FB7E002B02D1FB7A002BC5
:1037500018D00F4BFA790C3253F8223003F02003C3
:10376000002B0FD10A4BFA79012101FA02F25A61BA
:103770007B69DA687B699A60FB79786900211A466F
:10378000064B98472837BD4680BD00BF6C0C002013
:10379000004003400000FF07053340009532400021
:1037A00080B598B000AF012387F85F3047E2AC4B9B
:1037B0009A6997F85F30012101FA03F31340002B57
:1037C00000D137E297F85F305A1E13469B0013442E
:1037D0009B00A44A1344BB65A14B97F85F200C32B1
:1037E00053F8223003F04203002B06D097F85F30E5
:1037F00018469D4B9847012327E2994B97F85F2085
:103800000C3253F8223003F00103002B00F0D58175
:10381000BB6D5B7CC3F38103DBB2033303F00303B3
:10382000D9B2BA6D537C61F383035374BB6D5B7C77
:10383000C3F34013DBB2002B00F08F80BB6D5B7CC9
:10384000C3F38103DBB2002B40D0854B97F85F2098
:103850000C3253F822303B653B6D43F04F033B6520
:103860003B6D43F010033B657D4B97F85F20396D4E
:103870000C3243F822100023FB6403E000BFFB6C12
:103880000133FB64FB6C132BF8D9754B97F85F2061
:103890000C3253F82230BB64BB6C43F04F03BB6463
:1038A000BB6C23F00103BB646D4B97F85F20B96CD0
:1038B0000C3243F8221000237B6403E000BF7B6CD2
:1038C00001337B647B6C132BF8D944E0644B97F88D
:1038D0005F200C3253F822303B643B6C43F04F03C3
:1038E0003B643B6C23F001033B645D4B97F85F2026
:1038F000396C0C3243F822100023FB6303E000BF55
:10390000FB6B0133FB63FB6B132BF8D9544B97F81C
:103910005F200C3253F82230BB63BB6B43F04F0384
:10392000BB63BB6B43F02003BB634D4B97F85F2039
:10393000B96B0C3243F8221000237B6303E000BF15
:103940007B6B01337B637B6B132BF8D9BA6D537C94
:103950006FF345135374012377E1BB6D5B7CC3F3B5
:10396000C013DBB2002B0FD0BA6D537C6FF3C713BB
:103970005374BB6DDA68BB6D9A6097F85F30B86DB1
:1039800000211A46394B9847BB6DDA68BB6D9B68BE
:103990009A423CD3BB6D5B7CC3F38013DBB2002B3C
:1039A00035D1BB6D5B7CC3F38103DBB2002B2ED121
:1039B0002F4B984778652A4B97F85F20012101FA31
:1039C00002F25A61786D2B4B9847254B97F85F2090
:1039D0000C3253F822303B633B6B43F04F033B63A5
:1039E0003B6B23F001033B631D4B97F85F20396B62
:1039F0000C3243F822100023FB6203E000BFFB6A95
:103A00000133FB62FB6A132BF8D901231DE197F800
:103A10005F30002B5ED097F85F30032B5AD0BB6D20
:103A20005B7CC3F38103DBB2002B53DD0C4B97F8B7
:103A30005F200C3253F82230BB62BB6A43F04F0365
:103A4000BB62BB6A43F01003BB62054B97F85F2073
:103A5000B96A0C3243F8221000237B6210E000BFE9
:103A6000004003406C0C00208D3640009532400031
:103A70002D1C4000851C400000BF7B6A01337B6227
:103A80007B6A132BF8D9734B97F85F200C3253F8ED
:103A900022303B623B6A43F04F033B623B6A23F0B8
:103AA00001033B626B4B97F85F20396A0C3243F895
:103AB00022100023FB6103E000BFFB690133FB61BF
:103AC000FB69132BF8D997F85F3018460021624B39
:103AD000984770E097F85F30002B46D097F85F303A
:103AE000032B42D097F85F30184601215A4B984774
:103AF000034683F00103DBB2002B0FD0BA6D537C79
:103B00006FF3C7135374BB6DDA68BB6D9A6097F897
:103B10005F30B86D00211A46504B98474D4B97F8CF
:103B20005F200C3253F82230BB61BB6943F04F0376
:103B3000BB61BB6923F00103BB61464B97F85F2073
:103B4000B9690C3243F8221000237B6103E000BF07
:103B50007B6901337B617B69132BF8D997F85F3060
:103B6000184600213C4B984725E097F85F301846EF
:103B70000121394B9847374B97F85F200C3253F8A7
:103B800022303B613B6943F04F033B613B6923F0CB
:103B900001033B612F4B97F85F2039690C3243F8E2
:103BA00022100023FB6003E000BFFB680133FB60D1
:103BB000FB68132BF8D9012347E0264B97F85F20C9
:103BC0000C3253F8223003F00803002B32D0214B83
:103BD00097F85F200C3253F82230BB60BB6843F08B
:103BE0004F03BB60BB6823F00803BB60194B97F819
:103BF0005F20B9680C3243F8221000237B6003E099
:103C000000BF7B6801337B607B68132BF8D9114BB5
:103C100097F85F200C3253F8223003F4E063B3F5D9
:103C2000807F05D00B4B97F85F200C3253F8223081
:103C300001230AE097F85F30013387F85F3097F887
:103C40005F30032B7FF6B3AD002318466037BD46C7
:103C500080BD00BF004003408D35400095324000DC
:103C600080B483B000AF78607B68072B25D801A2B1
:103C700052F823F0953C40009B3C4000A13C4000A2
:103C8000A73C4000AB3C4000AF3C4000B33C400090
:103C9000B73C40004FF4FA4310E04FF400430DE00E
:103CA0004FF400430AE0084B08E0084B06E0084BDD
:103CB00004E0074B02E0064B00E0002318460C37F7
:103CC000BD465DF8047B704700093D0000127A0094
:103CD000001BB70080B500AF0620044B9847024692
:103CE00013469B0013449B00184680BD613C400076
:103CF00080B500AF024B984703465B08184680BD6D
:103D0000D53C400080B582B000AF78607868024B47
:103D100098470837BD4680BD6596400080B58CB099
:103D200000AF78603960314B984703467B623B684F
:103D30001B68BB623B689B68FB623B681B68FB605F
:103D40003B685B683B613B689B687B613B681B7BB6
:103D5000BB610023FB617A68254B9A4208D1082099
:103D6000244B984707F1240378681946224B98475B
:103D70007A68224B9A4208D109201E4B984707F1D6
:103D80002403786819461C4B98477A681C4B9A4262
:103D900012D10E20174B9847144B9847034607F152
:103DA0000C02786811461A46164B98477868164BED
:103DB00098477868154B98477A68154B9A4212D104
:103DC0000F200C4B9847094B9847034607F10C020C
:103DD000786811461A460B4B984778680A4B984703
:103DE00078680A4B98473037BD4680BDF13C4000AB
:103DF00000060E40053D40003185400000080E40A1
:103E000000400240314F4000B54F4000E54F4000B8
:103E10000080024080B582B000AF78600B46FB7036
:103E20007A68204B9A420AD100BFFB78786819461D
:103E30001D4B98470346002BF7D101232DE07A68EC
:103E40001A4B9A420AD100BFFB7878681946164B84
:103E500098470346002BF7D101231EE07A68144BE4
:103E60009A420AD100BFFB7878681946114B9847EF
:103E70000346002BF7D101230FE07A680E4B9A42DC
:103E80000AD100BFFB78786819460A4B9847034669
:103E9000002BF7D1012300E0002318460837BD4668
:103EA00080BD00BF00060E40C985400000080E40DE
:103EB00000400240A15040000080024080B584B024
:103EC00000AF786039600023FB607A681E4B9A422D
:103ED00007D100BF786839681C4B98470346002B10
:103EE000F8D17A681A4B9A4207D100BF78683968CE
:103EF000164B98470346002BF8D17A68154B9A4227
:103F00000DD100BF07F10C0378681946124B984792
:103F10000346002BF6D1FB68DAB23B681A707A6868
:103F20000E4B9A420DD100BF07F10C037868194679
:103F3000094B98470346002BF6D1FB68DAB23B6881
:103F40001A701037BD4680BD00060E40F98540004E
:103F500000080E4000400240D55040000080024062
:103F600080B582B000AF786039600F4B7A681A6014
:103F70000E4B0F4A1A600F4B0F4A1A607868396867
:103F80000E4B98470E4B1B689B68184600210D4B43
:103F900098470B4B1B685B6818460021094B9847F4
:103FA0000837BD4680BD00BF3C600120386001205D
:103FB000153E4000A44F0120BD3E40001D3D400085
:103FC0004006002085A5400090B585B000AF0A4BA3
:103FD0003C460FCB84E80F003B4608481946084B87
:103FE0009847084B1B689B6818460021064B98476A
:103FF0001437BD4690BD00BF5C35410000080E403F
:10400000613F40004006002085A5400080B500AF1C
:10401000144B98471448154B984704200121144B22
:104020009847C820134B98470020134B984700BF70
:10403000124B98470346002BFAD011480021114B30
:1040400098470F48104B98470D48104B984706204B
:104050000121074B98470E4B98470E4B98470E4B44
:10406000984780BD89454000880000203D524000AF
:10407000A5524000697040008D944000C5944000F6
:1040800060140E408582400015854000FD8440008C
:104090009D404000C93F40005D12400080B500AF28
:1040A0000748084B98470346002B00D0FEE7064818
:1040B000044B98470346002B00D0FEE780BD00BFAD
:1040C00058000020115740007000002090B587B0C4
:1040D00000AF78600523FB753869124B984703469B
:1040E000FB75114B1B78DBB2FA7D9A4215D0FB7D34
:1040F000032B0FD102233B730C4B1B68002B09D001
:104100000A4B1A6807F10C031046194605220023D2
:10411000074CA047044BFA7D1A704FF4FA70054B18
:104120009847D9E7394140008C000020B00C0020AE
:104130001D6840006970400080B584B000AF7860B1
:104140000023FB730023BB737B689A7807F10E038F
:1041500010461946174B9847BA7BFB7B1343DBB2DB
:1041600043F00103FB737B681A7807F10E031046D6
:104170001946104B9847BB7B5B00DAB2FB7B1343BD
:10418000DBB243F00103FB737B685A7807F10E033F
:1041900010461946074B9847BB7B9B00DAB2FB7B66
:1041A0001343DBB243F00103FB73FB7B184610376C
:1041B000BD4680BD7548400090B591B000AF7860B5
:1041C0000A2036210022224B98470246214B1A60D2
:1041D00007F108031846204B98471E4B1B68002B1D
:1041E00000D131E01B4B1A6807F10803104619464D
:1041F0004FF47A720023194CA0470346012B22D1B9
:10420000BB8F002B1FD007F1080301331846144958
:104210000722144B98470346002B0ED107F10803E1
:1042200001331846104B98470346172B05D907F161
:104230000803083318460D4B984707F10803184642
:104240000B4B9847CEE7CDE74437BD4690BD00BF46
:1042500085674000AC0C002075424000496A400070
:104260006C35410021A84000C1A74000A142400098
:10427000D544400080B582B000AF78607B680133E0
:10428000184600213222054B98477B6800229A8607
:104290007B6800221A700837BD4680BDF1A440003B
:1042A00090B591B006AF786007F1240207F12003C2
:1042B00007F11C01009107F11801019107F11401A8
:1042C000029107F11001039107F10C010491786844
:1042D0000B490C4CA0470346072B0DD179693A696D
:1042E000FB680948094CA047796A3A6AFB69B869D2
:1042F00000900548064CA0472C37BD4690BD00BF36
:1043000084354100E1A6400060140E40B9824000AF
:10431000C183400090B5A1B000AF7860624B7A686D
:104320001A6007F144031846604B984707F10C03E5
:1043300018465E4B98475C4B1B685B6818465C4BA5
:1043400098470346002B00D0AAE0574B1B681B6818
:104350001846574B98470346002B00D0A0E0002397
:10436000FB720023FB67504B1B681A6807F10B03B5
:10437000104619464F4B98470346002B10D14A4B25
:104380001B685A68FB7A104619464B4B98474B4BB3
:1043900098470346002B03D0FB7A1846484B9847B2
:1043A000414B1B685A6807F10B0310461946414BF5
:1043B00098470346002B33D1B7F87830302B2AD8F2
:1043C000B7F878305A1C92B2A7F87820FA7A07F139
:1043D00080010B4403F83B2CFB7A0A2B20D1B7F861
:1043E000783007F180021344002203F83B2C354B50
:1043F0001B68002B09D0334B1A6807F144031046A1
:10440000194605220023304CA04707F14403184603
:10441000264B984704E007F144031846234B98477E
:104420002A4B98470346002B39D0294B9847F86709
:10443000B7F84030302B2CD8B7F840305A1C92B225
:10444000A7F84020FA6FD2B207F180010B4403F8BD
:10445000732CFB6FDBB20A2B21D1B7F8403007F188
:1044600080021344002203F8732C164B1B68002BA8
:1044700009D0144B1A6807F10C031046194605229F
:104480000023114CA04707F10C031846074B98472F
:1044900069E707F10C031846044B984763E762E7A6
:1044A0008437BD4690BD00BFA04F0120754240003B
:1044B000395C4000B95B4000D15A4000FD0E40001D
:1044C000E90F4000AC0C00201D684000FD0C4000CE
:1044D000F50D400080B582B000AF7860084B1B68D6
:1044E00019687B685A1C7B689B8E084611461A46E1
:1044F000044B9847002318460837BD4680BD00BFCF
:10450000A04F0120755C400080B483B000AF03462B
:10451000FB71084B97F907205209F97901F01F0147
:10452000012000FA01F143F822100C37BD465DF876
:10453000047B704700E100E080B489B000AF786090
:104540007B68FB61FB69BB61BB697B617B695B0964
:104550003B613B6903F5001303F207735B02DA6BFF
:10456000FB69FB60FB6803F01F03012101FA03F301
:104570001340002B0CBF00230123DBB21846243765
:10458000BD465DF8047B704780B584B000AF002362
:10459000FB730F237B600023BB600023BB6010E034
:1045A000BB681A010B4B134418460B4B9847034644
:1045B000002B03D0FB7B43F00103FB73BB6801338B
:1045C000BB60BA687B689A42EADBFB7B184610370F
:1045D000BD4680BD90000020DD45400090B58DB007
:1045E00002AF7860002387F8233000237B627B686A
:1045F0001B79012B40F08F807B6A43F020537B6254
:104600007B681B7B012B03D17B6A43F001037B6238
:104610007B685B7B012B10D17B681B6818464D4B78
:104620009847F8617B681B6818464B4B9847B86100
:10463000F869B9690522494B98477B681B68184699
:10464000474B98477B681B681846796A454B9847E3
:1046500000237B627B689B79032B1FD801A252F851
:1046600023F000BF754640007F4640008946400069
:10467000934640007B6A43F070037B620FE07B6AE5
:1046800043F050037B620AE07B6A43F030037B62B5
:1046900005E07B6A43F010037B6200E000BF7B68AB
:1046A0001B6818462B4B984778617B681B68184637
:1046B000294B984738617B6A03F07003002B21D0A7
:1046C0007B681B681846284B9847F8607B689B6896
:1046D00000937869F9683A697B6A244CA047786945
:1046E0003969234B98477A69224B9A4203D10B20B0
:1046F000214B984706E07A69204B9A4202D10C2060
:104700001D4B98477B69D3F890203B691A437B691E
:10471000C3F8902017E07B685B79012B04D17B6A9A
:1047200043F060537B6203E07B6A43F040537B625B
:104730007B681B6818460A4B98477B681B681846BD
:10474000796A084B984797F8233018462C37BD46AE
:1047500090BD00BF2192400069924000BD8C400096
:10476000659640006D90400049924000599340008A
:10477000518F4000000E0E400945400000100E40D1
:1047800080B584B000AF02460B46FA71BB710023BE
:10479000FB720023FB60FB79324A1B0113441B7937
:1047A000002B01D0012359E0FB792E4A1B01134451
:1047B0000833DB79022B07D0FB792A4A1B0113440B
:1047C0000833DB79032B1AD1BB79012B0AD1FB68A3
:1047D00043F06053FB60234B1B681846F968224B7B
:1047E00098470CE0BB79002B09D1FB6843F040539C
:1047F000FB601C4B1B681846F9681B4B9847BB793C
:10480000032B2AD801A252F823F000BF2F48400002
:104810001D484000414840005B484000FB79114A78
:104820001B0113441B681846104B984715E0FB7991
:104830000C4A1B0113441B6818460D4B98470CE0AB
:10484000FB6843F0205343F00103FB60054B1B68FA
:104850001846F968044B984700BFFB7A1846103792
:10486000BD4680BD900000206D904000BD8F40008F
:10487000E98F400080B584B000AF03463960FB711A
:104880000023FB73FB790D4A1B0113441B68184678
:104890000B4B98470346BB73BB7B83F00103DBB232
:1048A000002B03D03B6800221A7002E03B68012213
:1048B0001A70FB7B18461037BD4680BD9000002063
:1048C0003945400080B584B000AF0346FB7100233A
:1048D000FB73FB79054A1B0113441B681846044B04
:1048E0009847FB7B18461037BD4680BD90000020DE
:1048F0001590400090B58BB002AF0B463A6002466F
:10490000FA71BB710123FB770023BB61FB79254A58
:104910001B0113441B681846234B98477861FB79A9
:10492000204A1B0113441B681846204B98473861E6
:10493000FB791C4A1B0113441B6818461C4B984703
:10494000F860BB79002B04D17023BB610023FB7797
:1049500016E0BB79012B04D15023BB610023FB7708
:104960000EE0BB79022B04D13023BB610023FB771F
:1049700006E0BB79032B03D11023BB610023FB7737
:104980003B6800937869F9683A69BB69094CA047AC
:1049900078693969BA69084B9847FB7F184624370C
:1049A000BD4690BD900000202192400069924000D9
:1049B0004992400059934000E58E400080B584B094
:1049C00000AF786039600E4BD3F8A03018460D4B1D
:1049D0009847F8600C48F9680C4B98470A4BDB6C19
:1049E000BB60FA683B689A4203D1054B012283F809
:1049F000AE200548F968064B98471037BD4680BD84
:104A00009000002069924000000E0E40718F40001F
:104A1000518F400080B584B000AF786039600E4B94
:104A20001B6A18460D4B9847F8600D48F9680D4B06
:104A300098470B4BDB6CBB60FA683B689A4203D12A
:104A4000054B012283F82E200548F968064B98474C
:104A50001037BD4680BD00BF900000206992400025
:104A6000000E0E40718F4000518F400080B584B021
:104A700000AF786039600E4B1B6B18460D4B9847A2
:104A8000F8600D48F9680D4B98470B4BDB6CBB6029
:104A9000FA683B689A4203D1054B012283F83E2015
:104AA0000548F968064B98471037BD4680BD00BFE2
:104AB0009000002069924000000E0E40718F40006F
:104AC000518F400080B48BB000AF78600B46FB7014
:104AD0007B687B62FB7887F823307B6AFB61FB692C
:104AE000BB61BB695B097B617B6903F5001303F262
:104AF00007735B023B6197F82330002B09D07B6A78
:104B0000FB60FB6803F01F0301229A403B691A63B4
:104B100008E07B6ABB60BB6803F01F0301229A4078
:104B20003B695A632C37BD465DF8047B704700BF74
:104B300080B489B000AF78607B68FB61FB69BB61C2
:104B4000BB697B617B695B093B613B6903F50013D2
:104B500003F207735B02DA6BFB69FB60FB6803F02F
:104B60001F03012101FA03F31340002B0CBF0023A4
:104B70000123DBB218462437BD465DF8047B70473D
:104B800090B589B004AF78603F4B98473F48404BA1
:104B900098470A2001213F4A3F4B98473220042181
:104BA00000223E4B984702463D4B1A603D4B009316
:104BB0003D484FF47A61002200233C4CA047024656
:104BC0003B4B1A600023FB600223009300230193F8
:104BD0000023029300230393364837494FF4407271
:104BE000364B374CA047F860FB68012B03D03548A3
:104BF000F968274B9847052300930023019300236E
:104C0000029300230393304830494FF4807200230D
:104C10002B4CA047F860FB68012B03D02C48F968A7
:104C20001B4B984703230093002301930023029317
:104C300000230393274828494FF44072274B204C08
:104C4000A047F860FB68012B03D02148F968104B9E
:104C5000984704200121224B98470220214B984776
:104C6000034683F00103DBB2002B04D05720002160
:104C70001D4B984703E0572001211B4B98474FF4E9
:104C8000FA701A4B9847E8E70D4040009C35410008
:104C900095A340005D4D4000F54840008567400009
:104CA000B00C0020F14C4000B0354100157C4000B4
:104CB000B40C0020CD404000C035410088010020E8
:104CC000A96E4000C8354100B9414000F0354100AF
:104CD000F4354100154340001836410080010020A2
:104CE00081474000314B4000C54A40006970400098
:104CF00090B583B000AF00233B710023FB80064BCF
:104D00001A683B1D1046194605220023034CA04794
:104D10000C37BD4690BD00BFB00C00201D684000A0
:104D200090B583B002AF0A200121084A084B98478A
:104D3000084B1B6800220092184601210022002324
:104D4000054CA0470437BD4690BD00BF5D4D4000F7
:104D5000F5484000B40C0020917C400090B583B031
:104D600002AF0A200021094A094B9847094B1C68E9
:104D7000094B9847034600220092204600211A461C
:104D80000023064CA0470437BD4690BD214D40008E
:104D9000F5484000B40C0020B5724000917C400002
:104DA00080B586B000AFF860B9607A6000237B619F
:104DB000FB68002B02D04FF0FF3314E00FE00C4BE8
:104DC0001B680C4A12681046B9689847BB680133E3
:104DD000BB607B6901337B617B68013B7B607B68E7
:104DE000002BECDC7B6918461837BD4680BD00BF40
:104DF000A44F01203C60012080B483B000AF7860F4
:104E000039607B683A689A627B681B6A0C37BD46DA
:104E10005DF8047B704700BF80B483B000AF78605A
:104E20007B681B6A18460C37BD465DF8047B7047EB
:104E300080B483B000AF78607B68DB6A18460C37BB
:104E4000BD465DF8047B704780B489B000AFF86060
:104E5000B9607A60BB681A017B689A4202D8102355
:104E6000FB6101E00823FB617B68DA00FB69B9683C
:104E700001FB03F35B081A44FB69B96801FB03F308
:104E8000B2FBF3F3BB61BB69DB087B61BB6903F079
:104E900007033B617B69002B03D07B69B3F5803F3F
:104EA00001D301230FE0FB69082B05D1FB685B6888
:104EB00043F40022FB685A603B691A047B691A4379
:104EC000FB681A62002318462437BD465DF8047B50
:104ED000704700BF80B582B000AF786078680E4B35
:104EE00098477B6800225A607B6800225A627B6880
:104EF00000229A627868094B98477868084B98476F
:104F00007868084B98477868074B98477868074B4C
:104F100098470837BD4680BD3D514000CD4F400009
:104F2000FD4F40004D50400085504000695040000A
:104F300080B584B000AFF860B9607A60F8681A4B49
:104F400098471A4B00221A60BB68002B09D0BB6837
:104F50001B68F86819467A68154B98470346002B7A
:104F600001D001231BE0BB685A68BB689B681A43E9
:104F7000BB681B691A43BB68DB681A430B4B1B6891
:104F80001A430A4B1A60094B1A68084B1A60FB68EF
:104F90005A68064B1B681A43FB685A600023184680
:104FA0001037BD4680BD00BFD54E4000B80C002074
:104FB000494E400080B483B000AF78607B684022E7
:104FC0001A600C37BD465DF8047B704780B483B02F
:104FD00000AF78607B6888221A600C37BD465DF8A8
:104FE000047B704780B483B000AF78607B68102288
:104FF0001A600C37BD465DF8047B704780B483B0FF
:1050000000AF78607B6824221A600C37BD465DF8DB
:10501000047B704780B483B000AF786039607B68F0
:105020003A689A600C37BD465DF8047B704700BF54
:1050300080B483B000AF786039607B683A68DA602A
:105040000C37BD465DF8047B704700BF80B483B069
:1050500000AF78607B684FF480721A600C37BD46F1
:105060005DF8047B704700BF80B483B000AF786008
:105070007B684FF400321A600C37BD465DF8047B44
:10508000704700BF80B483B000AF78607B684FF496
:1050900000221A600C37BD465DF8047B704700BFE4
:1050A00080B483B000AF786039607B685B6903F0DF
:1050B0000203002B01D1012305E03B68C3F3080282
:1050C0007B68DA61002318460C37BD465DF8047B27
:1050D000704700BF80B483B000AF786039607B68F0
:1050E0005B6903F00103002B01D1012306E07B681B
:1050F0009B69C3F308023B681A60002318460C370B
:10510000BD465DF8047B704780B483B000AF786023
:10511000396000BF7B685B6903F00103002BF9D0A5
:105120007B689B69C3F308023B681A60002318463A
:105130000C37BD465DF8047B704700BF80B483B078
:1051400000AF78607B68044AC3F8E4200C37BD46A2
:105150005DF8047B704700BF0041535590B585B0A2
:1051600002AF78602F4B1B78002B4DD12E4B1B7854
:10517000052B47D801A252F823F000BF95514000FB
:10518000A1514000AD514000B9514000CF51400005
:10519000EF514000254B1B781846254B984732E0CD
:1051A000224B5B781846224B98472CE01F4B9B788C
:1051B00018461F4B984726E01C4B1B7818461C4B83
:1051C00098471A4B9B781846194B98471BE0174B8A
:1051D0001B781846164B9847144B9B781846144B6F
:1051E0009847124B5B781846114B98470BE00F4BD2
:1051F0009B7818460E4B98470C4B5B7818460C4B27
:10520000984700E000BF09E00A4B1B6800220092AB
:105210001846012100220023074CA0470C37BD4649
:1052200090BD00BFB04F0120A84F0120B44F012016
:10523000C5484000AC4F0120917C400090B587B03C
:1052400002AF78600023FB737B681A780F4B1A70EB
:105250007B685A780D4B5A707B689A780B4B9A7022
:105260000B4B00930B48FA2101220B4B0B4CA04730
:1052700002460B4B1A600A4B1B68002B01D101231D
:10528000FB73FB7B18461437BD4690BDB44F01201D
:105290005D51400024364100BC0C0020157C4000CC
:1052A000AC4F012090B587B002AF02460B46FA71B1
:1052B000BB710023FB736B4B1B68002B11D0694B38
:1052C0001B681846684B98470346002B09D0654B6E
:1052D0001B68002200921846012100220023634C23
:1052E000A047634B1B7818460121624B9847604BDF
:1052F0005B78184601215F4B98475D4B9B781846B9
:1053000001215C4B98475C4BFA791A705B4BBA7978
:105310001A70FB79062B66D801A252F823F000BF61
:105320003D5340004B5340005953400067534000E9
:1053300081534000A7534000C15340004C4B1B78A1
:10534000184600214B4B98474EE0494B5B78184676
:105350000021484B984747E0454B9B781846002171
:10536000444B984740E0424B1B7818460021414B84
:1053700098473F4B9B78184600213E4B984733E0B7
:105380003B4B1B78184600213A4B9847384B9B788B
:1053900018460021374B9847354B5B78184600215B
:1053A000344B984720E0324B9B7818460021314B14
:1053B00098472F4B5B78184600212E4B984713E0F7
:1053C0002B4B1B78184601212A4B9847284B9B787A
:1053D00018460121274B9847254B5B781846012139
:1053E000244B984700E000BFBB79002B14BF00237B
:1053F0000123DAB2FB79062B0CBF00230123DBB2B9
:105400001340DBB2002B11D0164B1B68002B23D0AE
:10541000144B1C681A4B9847034600220092204602
:1054200000211A460023114CA04715E00D4B1B68C4
:10543000002B11D00B4B1B6818460B4B98470346AB
:10544000002B09D0074B1B6800220092184601214F
:1054500000220023054CA047FB7B18461437BD46AD
:1054600090BD00BFAC4F0120BD814000917C400049
:10547000B44F012081474000A84F0120B04F0120C8
:105480008972400080B483B000AF0346FB71084BC3
:1054900097F907205209F97901F01F01012000FA5C
:1054A00001F143F822100C37BD465DF8047B7047CC
:1054B00000E100E080B483B000AF78607B68072B28
:1054C00025D801A252F823F0E9544000EF544000DF
:1054D000F5544000FB544000FF5440000355400089
:1054E000075540000B5540004FF4FA4310E04FF4CD
:1054F00000430DE04FF400430AE0084B08E0084B7E
:1055000006E0084B04E0074B02E0064B00E00023F6
:1055100018460C37BD465DF8047B704700093D0016
:1055200000127A00001BB70080B500AF0620044BC4
:105530009847024613469B0013449B00184680BDC3
:10554000B554400080B500AF024B984703465B0856
:10555000184680BD2955400080B582B000AF786004
:105560007868024B98470837BD4680BD6596400075
:1055700080B58CB000AF78603960314B98470346F6
:105580007B623B681B68BB623B689B68FB623B6855
:105590001B68FB603B685B683B613B689B687B61A9
:1055A0003B681B7BBB610023FB617A68254B9A42F9
:1055B00008D10820244B984707F12403786819463E
:1055C000224B98477A68224B9A4208D109201E4BF9
:1055D000984707F12403786819461C4B98477A6866
:1055E0001C4B9A4212D10E20174B9847144B9847E8
:1055F000034607F10C02786811461A46164B984785
:105600007868164B98477868154B98477A68154B19
:105610009A4212D10F200C4B9847094B98470346EA
:1056200007F10C02786811461A460B4B98477868C8
:105630000A4B984778680A4B98473037BD4680BD7B
:105640004555400000060E40595540003185400048
:1056500000080E4000400240314F4000B54F40006E
:10566000E54F40000080024080B582B000AF786016
:105670000B46FB707A68204B9A420AD100BFFB7838
:10568000786819461D4B98470346002BF7D1012334
:105690002DE07A681A4B9A420AD100BFFB787868ED
:1056A0001946164B98470346002BF7D101231EE0FD
:1056B0007A68144B9A420AD100BFFB787868194681
:1056C000114B98470346002BF7D101230FE07A686E
:1056D0000E4B9A420AD100BFFB78786819460A4BF4
:1056E00098470346002BF7D1012300E0002318461A
:1056F0000837BD4680BD00BF00060E40C98540008A
:1057000000080E4000400240A150400000800240CE
:1057100080B584B000AF78600023FB737B681A68A3
:105720007A4B9A4203D17B6800225A611CE07B6865
:105730001A68774B9A4203D17B6801225A6113E0C1
:105740007B681A68734B9A4203D17B6802225A61C4
:105750000AE07B681A68704B9A4203D17B68032287
:105760005A6101E00123A9E17B685B69002B03DB3F
:105770007B685B69042B01DD01239FE17B685A692B
:10578000664913465B0113445B010B4403F5007348
:105790009B79DBB2012B01D101238FE17B681A6871
:1057A0007B680433104619465D4B98477B681B683D
:1057B00018464FF0FF315B4B98477B681A68534B94
:1057C0009A421ED10B20584B9847584B4FF4C06259
:1057D0005A64564B4FF4C0621A66544B534A126FC8
:1057E00022F4C0621A67514B504A526F22F4C062D1
:1057F0005A674E4B4FF4C0625A6008204C4B984792
:105800009AE07B681A68424B9A421BD10C20464BA7
:105810009847484B0C225A64464B0C221A66454B5B
:10582000444A126F22F00C021A67424B414A526FEF
:1058300022F00C025A673F4B0C225A6009203C4B65
:10584000984779E07B681A68324B9A4227D10B203F
:10585000354B9847354B60225A64344B60221A66A8
:10586000324B324A126F22F064021A672F4B2F4AD2
:10587000526F22F064025A672C4B60225A602B4B05
:1058800004221A66294B04225A63284B04221A6107
:10589000264B04221A600E20254B98474CE07B686B
:1058A0001A681D4B9A422ED10B201F4B98471F4B55
:1058B0004FF4C0025A641D4B4FF4C0021A661B4BD2
:1058C0001A4A126F22F4C0021A67184B174A526F15
:1058D00022F4C0025A67154B4FF4C0025A60134BB2
:1058E0004FF400021A66114B4FF400025A630F4B3B
:1058F0004FF400021A610D4B4FF400021A600F20A2
:105900000B4B984718E00123D8E000BF00060E407B
:1059100000080E400040024000800240B84F0120C5
:10592000715540003150400059554000000E0E4066
:105930008554400000100E407B685A696149134647
:105940005B0113445B010B4403F5007301229A7160
:105950007B681B68184640F201215B4B98477B68C7
:105960005A6913465B0113445B01564A13441846B7
:1059700000214FF40072554B98477B685A69514992
:1059800013465B0113445B010B4403F500730022D3
:105990001A807B685A694B4913465B0113445B01CB
:1059A0000B4403F5007300225A807B685A6945490D
:1059B00013465B0113445B010B4403F502730022A1
:1059C0001A707B685A693F4913465B0113445B01B7
:1059D0000B4403F500730022DA717B685A69394978
:1059E00013465B0113445B010B4403F50273002271
:1059F0005A707B685A69334913465B0113445B0153
:105A00000B4403F5007300229A807B685A691346A1
:105A10005B0113445B0103F504722A4B13441846DF
:105A200000214FF40072294B98477B685A69254939
:105A300013465B0113445B010B4403F582630022B0
:105A40001A807B685A691F4913465B0113445B0146
:105A50000B4403F5826300225A807B685A69194916
:105A600013465B0113445B010B4403F58263002280
:105A7000DA717B685A69134913465B0113445B0171
:105A80000B4403F5826300229A717B685A690D49C1
:105A900013465B0113445B010B4403F5836300224F
:105AA0001A707B685A69074913465B0113445B010E
:105AB0000B4403F5826300229A80FB7B1846103763
:105AC000BD4680BDB84F012015504000F1A44000F4
:105AD00080B586B000AF78600B46FB700023FB7585
