:020000040040BA
:10000000F070002049BD400011BE4000B5C1400065
:10001000BDC14000C5C14000CDC14000000000008E
:10002000000000000000000000000000DD61400052
:1000300011BE400000000000B5624000D5C1400084
:1000400011BE400011BE400011BE400011BE400074
:1000500011BE400011BE400011BE40000000000073
:10006000818F4000E58F4000000000001DBA400075
:1000700035BA4000000000004D904000B5904000AF
:10008000000000000000000011BE400011BE400052
:1000900011BE400011BE400011BE400011BE400024
:1000A00011BE400011BE4000000000000000000032
:1000B0000000000011BE400011BE400011BE400013
:1000C00011BE400011BE400011BE400010B5054CED
:1000D000237833B9044B13B10448AFF300800123F4
:1000E000237010BD940D0020000000001472410028
:1000F00008B5064B1BB106480649AFF30080064819
:10010000036813B1054B03B1984708BD0000000018
:1001100014724100980D002014724100000000008C
:1001200080B487B000AFF86079813A81FB717A8939
:100130003B89D31A0733002B00DA0733DB10013B6E
:10014000FA6813441B781A463B8903F0070342FA06
:1001500003F37B613B8903F00702FB791344082B0F
:1001600016DD7A893B89D31A0733002B00DA07336F
:10017000DB10023BFA6813441B781A463B8903F0F4
:100180000703C3F1080302FA03F37A6913437B619F
:100190003B8903F00702FB791344102B16DD7A89A3
:1001A0003B89D31A0733002B00DA0733DB10033BFC
:1001B000FA6813441B781A463B8903F00703C3F11E
:1001C000100302FA03F37A6913437B613B8903F05E
:1001D0000702FB791344102B16DD7A893B89D31A69
:1001E0000733002B00DA0733DB10033BFA681344B4
:1001F0001B781A463B8903F00703C3F1100302FA88
:1002000003F37A6913437B61FB79012202FA03F35A
:10021000013B7A6913407B617B6918461C37BD46F8
:100220005DF8047B704700BF80B483B000AF786096
:100230007B68072B25D801A252F823F05D0240000D
:1002400063024000690240006F02400073024000F8
:10025000770240007B0240007F0240004FF4FA43E7
:1002600010E04FF400430DE04FF400430AE0084B68
:1002700008E0084B06E0084B04E0084B02E0074B9F
:1002800000E0002318460C37BD465DF8047B70473C
:1002900000093D0000127A00001BB7000024F400A2
:1002A00080B500AF0620044B9847024613461B0159
:1002B0009B1A184680BD00BF2902400080B500AFE0
:1002C000024B984703465B08184680BDA1024000D8
:1002D00080B489B000AF78607B68FB61FB69BB616B
:1002E000BB697B617B695B093B613B6903F500137B
:1002F00003F207735B02DA6BFB69FB60FB6803F0D8
:100300001F03012101FA03F31340002B0CBF00234C
:100310000123DBB218462437BD465DF8047B7047E5
:100320002DE9B04F00AF2B4B1B68002B13D12A4B8C
:1003300001221A70274C294B98470246284BA3FBF1
:1003400002135B0A4FF47A7202FB03F36360214BE2
:1003500001221A603BE0204B00221A701F4B984785
:10036000034618464FF0000102460B464FEA830B46
:100370004BEA927B4FEA820A52465B465D0145EAB0
:10038000D2655401A41A65EB0305241845EB010559
:100390004FEAC50949EA54794FEAC40844464D4634
:1003A0002046294643F2AF624FF00003121843EB98
:1003B00001030C4C1046194643F2B0624FF00003A3
:1003C000A04702460B4613461846074B9847BDE820
:1003D000B08F00BF10E000E0BC0D0020BD02400067
:1003E000D34D621025C340000100002080B400AF4F
:1003F0000C4B1B7883F00103DBB2002B01D00123EF
:100400000BE0094B1B6803F48033002B04D0064B30
:1004100000221A60012300E000231846BD465DF863
:10042000047B7047BC0D002010E000E080B400AFFA
:10043000054B1B78002B02D0044B00221A60BD46EE
:100440005DF8047B704700BFBC0D002010E000E0A9
:1004500080B582B000AF41F268037B6044F2015086
:100460001749184B9847034683F00103DBB2002B72
:1004700001D000231FE0144B984738603B68002BE5
:1004800010DA3B6803F0C043B3F1804F09D10F4B42
:100490001B680E4A1268D27B42F00802D2B2DA73AD
:1004A00008E007E07B685A1E7A60002B01D1002328
:1004B00001E0D3E7012318460837BD4680BD00BFE1
:1004C00000801F40F920400045214000B40D00206D
:1004D00080B586B000AF0346FB7140F634033B6144
:1004E00041F237100021224B9847034683F0010365
:1004F000DBB2002B01D0002335E04FF4FC137B610D
:10050000FB79002B03D07B6943F080437B6144F28D
:1005100029507969164B9847034683F00103DBB2F3
:10052000002B01D000231EE0124B9847F860FB68B7
:10053000002B0FDAFB6803F08043002B09D00E4B31
:100540001B680D4A1268D27B42F00802D2B2DA73FD
:1005500008E007E03B695A1E3A61002B01D10023F5
:1005600001E0BDE7012318461837BD4680BD00BF36
:10057000F920400045214000B40D002080B400AFB8
:1005800001231846BD465DF8047B704790B593B0D3
:1005900002AF012300932E482E49402201232E4C06
:1005A000A047034683F00103DBB2002B01D00023F8
:1005B0004AE03B4618460121284B9847034683F002
:1005C0000103DBB2002B01D000233DE0244B984710
:1005D000034683F00103DBB2002B01D0002333E09C
:1005E000204B9847034603F08003002B01D00023E3
:1005F0002AE03B4618464FF400714FF4BC720423C6
:10060000194CA04703460F2B01D101231CE03B46A8
:1006100018464FF400714FF488721023124CA04713
:100620000346002B01D000230EE0104B9847104BDF
:100630001B68012283F822200D4B1B680C4A1268AC
:10064000126852001A60012318464437BD4690BD17
:100650000611080001FFFF80C521400095234000DE
:10066000452440004521400021014000B9204000C0
:10067000B40D002080B584B000AF0346FB71FB7958
:10068000042B04D0082B05D1134BFB6005E0134B62
:10069000FB6002E0124BFB6000BF43F20610F968FA
:1006A000104B9847034683F00103DBB2002B01D0C7
:1006B00000230DE00C4B9847034603F08003002B0A
:1006C00001D0002304E0094B1B68FA795A74012316
:1006D00018461037BD4680BD0002B7010001B701C2
:1006E0000000B701F920400045214000B40D002072
:1006F00080B500AF43F206100F49104B98470346F0
:1007000083F00103DBB2002B01D0002312E00C4B7D
:100710009847034603F08003002B01D0002309E033
:10072000084B1B68012283F82220064B1B68064AEF
:100730001A600123184680BD0001B903F92040006A
:1007400045214000B40D00200075190380B584B028
:1007500000AF78607B6800221A7045F208504FF4B1
:10076000D571114B9847034683F00103DBB2002B90
:1007700001D0012314E00D4B9847F860FB68B3F1FA
:10078000FF3F01D101230BE0FB68C3F30B03B3F57B
:10079000D57F01D0002303E07B6801221A7001237A
:1007A00018461037BD4680BDF92040004521400065
:1007B00090B589B002AF78600023009336480021DD
:1007C0004FF400720123354CA047034683F0010328
:1007D000DBB2002B01D0002359E00023FB820FE0A5
:1007E00007F1100318462E4B9847034683F0010388
:1007F000DBB2002B01D0002349E0FB8A0133FB82EE
:10080000FB8A312BECD93B69DBB203F00203DAB28D
:100810007B681A70234B1B681233184680213E22D6
:100820000C23214CA047024640F6FF739A4219D18F
:100830000FE007F10C031846194B9847034683F065
:100840000103DBB2002B01D0002320E0FB8A01333F
:10085000FB82FB8A352BECD9124B1B68FA685208D5
:100860005A6010E00FE007F10C0318460C4B984754
:10087000034683F00103DBB2002B01D0002306E026
:10088000FB8A0133FB82FB8A7F2BECD901231846BC
:100890001C37BD4690BD00BF08110800C5214000AF
:1008A000F9224000B40D00202101400080B500AFC6
:1008B0000C4B1B689B891B0441F6093019460A4BF7
:1008C0009847034683F00103DBB2002B01D00023DD
:1008D00006E0044B1B6812331846044B984701236B
:1008E000184680BDB40D0020F92040005921400079
:1008F000B0B584B000AF484B1B6812331846802156
:100900007A220423454CA0470346013B032B0BD816
:1009100001A252F823F000BF330940003D09400016
:1009200047094000510940003B4B1B6812221A74D2
:1009300013E0394B1B6814221A740EE0364B1B6807
:1009400022221A7409E0344B1B6830221A7404E026
:10095000314B1B6840221A7400BF2F4B1B681233A7
:1009600018468021602208232C4CA047F860FB68C1
:1009700003F007022A4B53F82230BB60FB68DB0808
:1009800003F00F02274B53F822307B60224B1B6889
:10099000BA68796801FB02F24FF47A7101FB02F246
:1009A0001A601D4B1B681233184680213E220C230F
:1009B0001A4CA047024640F6FF739A4229D0164BC4
:1009C0001B681233184680213E220C23134CA0478B
:1009D00003465C1C104B1B681233184680212F22E3
:1009E00003230E4DA8470346023304FA03F33B608A
:1009F000094B1C68084B1B68123318468021502293
:100A00000423064DA84703463A6802FA03F39B0AFB
:100A100063601037BD46B0BDB40D00202101400019
:100A20006C5E4100C85E4100B0B584B000AF364B8B
:100A30001B6812331846802160220823334CA047DC
:100A4000F860FB6803F00702314B53F82230BB60BB
:100A5000FB68DB0803F00F022E4B53F822307B605B
:100A6000294B1B68BA68796801FB02F24FF47A716E
:100A700001FB02F21A60244B1B68123318468021D6
:100A80007E220223214CA0470346002B0FD01E4B91
:100A90001C681D4B1B681233184680213022162318
:100AA0001A4DA847034601335B02636029E0164BE9
:100AB0001B681233184680213E220C23134CA0479A
:100AC00003465C1C104B1B681233184680212F22F2
:100AD00003230E4DA8470346023304FA03F33B6099
:100AE000094B1C68084B1B681233184680215022A2
:100AF0000423064DA84703463A6802FA03F39B0A0B
:100B000063601037BD46B0BDB40D00202101400028
:100B10006C5E4100885E410080B582B000AF144B2E
:100B20007B60144B1B689B891B0441F20D10194616
:100B3000114B9847034683F00103DBB2002B01D031
:100B4000002311E00D4B9847034603F48073002BFC
:100B500002D000BF012307E07B685A1E7A60002B99
:100B600001D1002300E0DCE718460837BD4680BD10
:100B7000400D0300B40D0020F92040004521400045
:100B800080B500AF124B1B689B891B0441F23710E4
:100B90001946104B9847034683F00103DBB2002B44
:100BA00001D0002311E041F206100221094B9847C1
:100BB000034683F00103DBB2002B01D0002304E0E5
:100BC000034B1B6804225A740123184680BD00BFE2
:100BD000B40D0020F920400090B585B002AF374B2E
:100BE0001B689B891B0441F237101946344B984708
:100BF000034683F00103DBB2002B01D0002359E050
:100C0000012300932F480021082201232E4CA047E6
:100C1000034683F00103DBB2002B01D0002349E03F
:100C20003B4618460121294B9847034683F00103B0
:100C3000DBB2002B01D000233CE0254B9847034654
:100C400083F00103DBB2002B01D0002332E03B46EE
:100C500018464021382204231E4CA0470346012B8E
:100C600009D0012B02D3022B0AD01DE0134B1B68C5
:100C700010221A741DE0114B1B681A221A7418E016
:100C80003B46184640212F220123124CA047034621
:100C9000012B04D1094B1B6830221A7409E0074B61
:100CA0001B6820221A7404E0044B1B6810221A747B
:100CB00000BF012318460C37BD4690BDB40D00207F
:100CC000F920400033110800C52140009523400061
:100CD000452440002101400080B582B000AF0346AA
:100CE000FB71FB79002B01D00423A8E0FA79564967
:100CF0001346DB0013449B000B4408331B68184663
:100D0000524B9847034683F00103DBB2002B18D007
:100D1000FA794D491346DB0013449B000B4408331A
:100D20009B79012B01D14A4B9847FA7946491346E2
:100D3000DB0013449B000B44083304229A71022306
:100D40007DE0FA7940491346DB0013449B000B44D5
:100D500008339B79042B0DD1FA793B491346DB000C
:100D600013449B000B44083301229A71394B984776
:100D7000022364E0FA7934491346DB0013449B00F4
:100D80000B4408339B79012B30D1334B98470346F2
:100D900083F00103DBB2002B01D002234FE0FA798C
:100DA00029491346DB0013449B000B4408330222FD
:100DB0009A71FA7924491346DB0013449B000B44D3
:100DC000264A1A60FA7920491346DB0013449B0037
:100DD0000B44103301225A70FA791B491346DB0089
:100DE00013449B000B44203300229A70FA79164971
:100DF0001346DB0013449B000B4408339B79032B01
:100E000001D103231BE0164BFA791A70FA791346C5
:100E1000DB0013449B000C4A1A44124B1A60124B1D
:100E20009847FA7908491346DB0013449B000B44AA
:100E300008339B79022B14BF00230123DBB2184631
:100E40000837BD4680BD00BF1C000020D102400015
:100E50002D04400021034000ED034000801A0600ED
:100E6000B00D0020B40D00206D0E400098B500AF0D
:100E7000094B1878094B1B681968084B1B685A7C8A
:100E8000064B1B6893F82230002B0CBF0023012374
:100E9000DBB2034CA04798BDB00D0020B40D00207C
:100EA0001120400080B500AF044B1B78002B04D10B
:100EB000024B1B781846024B984780BDB00D0020AE
:100EC000A520400090B583B000AF0023FB717D4B9F
:100ED0001B680122DA737B4B1B6800221A74794B62
:100EE0001B6800229A81784B98474FF4804000217C
:100EF000764B9847034683F00103DBB2002B01D009
:100F00000023DAE0FB1D1846714B9847034683F037
:100F10000103DBB2002B01D00023CEE06D4B9847DC
:100F2000034683F00103DBB2002B01D00023C4E0B1
:100F3000644B1B68DB7B03F00103002B11D0FB79B2
:100F40001846654B9847034683F00103DBB2002B3C
:100F500007D05C4B1B680222DA73604B984703464C
:100F6000ABE0584B1B68DB7B03F00103002B0CD07C
:100F700045F602300021554B9847034683F00103A4
:100F8000DBB2002B01D0002397E045F203100021D3
:100F90004E4B9847034683F00103DBB2002B01D090
:100FA00000238AE0474B1C684D4B984703461B0CB7
:100FB0009BB2A381434B1B68DB7B03F00103002B37
:100FC0000BD0484B9847034683F00103DBB2002B5C
:100FD00001D0002371E0444B98473A4B1B689B8932
:100FE0001B0443F207101946384B9847034683F019
:100FF0000103DBB2002B01D000235EE0314B1B6804
:10100000DB7B03F00103002B09D0384B98470346E4
:1010100083F00103DBB2002B01D000234DE0344B01
:101020001B781846334B98470346032B12D9254BA0
:101030001B68DB7B03F00103002B09D02E4B984784
:10104000034683F00103DBB2002B01D0002334E020
:101050002A4B98472A4B98470346002B17D0194B29
:101060001B68DB7B03F00103002B0ED0154B1B68C4
:101070001B7C102B09D9234B9847034683F00103AF
:10108000DBB2002B01D0002317E01C4B98470D4B1F
:101090001B68DB7B03F00103002B0DD041F2101025
:1010A0004FF40071094B9847034683F00103DBB20C
:1010B000002B01D0002300E0012318460C37BD4669
:1010C00090BD00BFB40D0020B9204000F9204000C1
:1010D0004D0740007D054000D1044000091140004B
:1010E00045214000AD084000290A4000D90B4000CE
:1010F000B00D0020DD1F4000810B40006D0E400050
:10110000012040008D05400080B582B000AF4FF453
:1011100080400021564B9847034683F00103DBB221
:10112000002B01D000239FE0524B9847034683F0E9
:101130000103DBB2002B01D0002395E045F602301D
:1011400000214B4B9847034683F00103DBB2002B91
:1011500001D0002388E0484B1B6801229A81464B4E
:101160001B689B891B0441F203101946404B9847AA
:10117000034683F00103DBB2002B01D0002373E0B0
:101180003E4B9847034683F00103DBB2002B01D0AE
:10119000002369E03A4B9847374B1B689B891B0437
:1011A00043F207101946324B9847034683F0010378
:1011B000DBB2002B01D0002356E02F4B1B681B7CB9
:1011C0003F2B3BD9BB1D18462E4B9847034683F057
:1011D0000103DBB2002B01D0002345E02A4B1B7832
:1011E00018462A4B98470346032B12D9264B1B78E7
:1011F0001846264B984703461846254B9847034602
:1012000083F00103DBB2002B01D000232CE0214B43
:101210009847214B98470346002B11D0BB79002BF0
:101220000ED01E4B9847034683F00103DBB2002B20
:1012300001D0002318E0174B984701E0154B984761
:101240000A23FB710AE041F210104FF40071084BC1
:1012500098470346002B01D0012305E0FB795A1E75
:10126000FA71002BEFD1002318460837BD4680BD28
:10127000F920400051044000B40D0020AD084000AA
:10128000F1084000B1074000B00D0020DD1F400014
:10129000750640006D0E400001204000F106400040
:1012A00080B582B000AF0023FB710CE0FA790B49E6
:1012B0001346DB0013449B000B44083304229A714D
:1012C000FB790133FB71FB79002BEFD0044BFF223C
:1012D0001A70044B98470837BD4680BD1C0000209B
:1012E000B00D0020A11F400080B584B000AF0346C0
:1012F000FB71FB791846114B98470346FB73FB7B48
:10130000012B03D00E4B9847FB7B13E00D4B984706
:101310000346002B07D00C4B1B6800229A73084B26
:101320009847012306E0084B1B6803229A73044B7D
:101330009847032318461037BD4680BDD90C40009E
:10134000A50E4000C50E4000B40D002080B582B04F
:1013500000AF0346FB71FB791846084B98470346DC
:10136000002B01D0002304E0054B9847054B1B6878
:10137000DB7B18460837BD4680BD00BFD90C400056
:10138000A50E4000B40D002080B582B000AF03462A
:10139000FB71FB791846084B98470346002B01D098
:1013A000002304E0054B9847054B1B685B68184613
:1013B0000837BD4680BD00BFD90C4000A50E4000D7
:1013C000B40D002080B483B000AF0346FB7100234E
:1013D00018460C37BD465DF8047B704790B589B060
:1013E00002AF396013460246FA71BB80FB7918469A
:1013F000294B98470346FB73FB7B002B01D0FB7BFB
:1014000046E0264B9847034683F00103DBB2002BEE
:1014100003D0234B984705233AE0BB88012B02D920
:10142000204B7B6101E0204B7B61204B1B68DB7B09
:1014300003F00803002B02D03B683B6102E03B68ED
:101440005B023B61BB8801220092786939694FF4E5
:101450000072174CA047034683F00103DBB2002B58
:1014600003D00F4B9847052312E0124B9847B86002
:10147000BA68114B1340002B03D0094B9847052342
:1014800006E00E4BBA881A800D4BBA881A800023EA
:1014900018461C37BD4690BDD90C4000190B4000C2
:1014A000A50E40001211100011110800B40D00200B
:1014B000C521400045214000000058E4BA0D00203D
:1014C000B80D002080B582B000AF78600B467B80FD
:1014D0007B88786819460C4B9847034683F00103D4
:1014E000DBB2002B04D0094B00221A80052307E051
:1014F000064B1A887B88D31A9AB2044B1A800023B1
:1015000018460837BD4680BD95234000BA0D00201F
:1015100080B582B000AF0346FB711B4B9847034672
:1015200083F00103DBB2002B01D0052327E0FB7918
:10153000002B03D0154B00221A8005E0134B1B88AB
:10154000002B01D000231AE0114B1B88012B03D183
:10155000104B9847002312E043F20C1000210E4B71
:101560009847034683F00103DBB2002B04D043F21B
:101570000C100021084B9847064B9847002318464B
:101580000837BD4680BD00BF45244000BA0D00208D
:10159000B80D0020A50E4000F920400090B589B09C
:1015A00002AF396013460246FA71BB80FB791846D8
:1015B000294B98470346FB73FB7B002B01D0FB7B39
:1015C00045E0FB791846254B98470346002B03D08E
:1015D000234B984707233AE0BB88012B02D9214BC4
:1015E0007B6101E0204B7B61204B1B68DB7B03F0C0
:1015F0000803002B02D03B683B6102E03B685B02C2
:101600003B61BB8801220092786939694FF400720E
:10161000174CA047034683F00103DBB2002B03D035
:101620000F4B9847052312E0124B9847B860BA68F1
:10163000114B1340002B03D0094B9847052306E0BC
:101640000E4BBA881A800E4BBA881A8000231846AF
:101650001C37BD4690BD00BFD90C4000C5134000EB
:10166000A50E40001991100018910800B40D00203B
:10167000C521400045214000000058E4BA0D00207B
:10168000B80D002080B582B000AF78600B467B803B
:101690007B88786819460C4B9847034683F0010312
:1016A000DBB2002B04D0094B00221A80052307E08F
:1016B000064B1A887B88D31A9AB2044B1A800023EF
:1016C00018460837BD4680BDD5244000BA0D00201D
:1016D00080B582B000AF0346FB711A4B98470346B2
:1016E00083F00103DBB2002B01D0052326E0FB7958
:1016F000002B03D0144B00221A8005E0124B1B88EC
:10170000002B01D0002319E0104B1B88012B03D1C3
:101710000F4B9847002311E043F20C1000210D4BB2
:101720009847034683F00103DBB2002B03D0084B3C
:101730009847052302E0064B9847002318460837D0
:10174000BD4680BD85254000BA0D0020B80D0020A3
:10175000A50E4000F920400080B582B000AF0346DE
:10176000FB71FB791846154B98470346012B17D0A0
:10177000022B17D0002B1BD1FB79114AD35C002B15
:1017800001D0022315E0FB7918460E4B984703461B
:1017900003F00303002B01D000230AE0022308E03A
:1017A000032306E0FB79064A0021D154022300E01E
:1017B000012318460837BD4680BD00BFE91240002E
:1017C000C00D00204D13400080B500AF0020024B3B
:1017D00098470346184680BD5917400080B500AFB2
:1017E0000120024B98470346184680BD5917400018
:1017F00080B582B000AF03463960FB71FB791846B3
:10180000074B984703465B005A1E3B681A60FB79FA
:101810001846044B9847034618460837BD4680BD16
:10182000891340005917400080B582B000AF78603E
:1018300000207968034B9847034618460837BD4691
:1018400080BD00BFF117400080B582B000AF786066
:1018500001207968034B9847034618460837BD4670
:1018600080BD00BFF117400080B483B000AF0246D6
:101870000B46FA71BB71FB79044AB979D154012343
:1018800018460C37BD465DF8047B7047C00D00203C
:1018900080B582B000AF0346FB71FB79002019468A
:1018A000034B9847034618460837BD4680BD00BF26
:1018B0006918400080B582B000AF0346FB71FB7928
:1018C00001201946034B9847034618460837BD4682
:1018D00080BD00BF6918400080B582B000AF0346EC
:1018E000FB71FB791846034B9847034618460837A7
:1018F000BD4680BDC513400080B500AF0020024B3F
:1019000098470346184680BDD918400080B500AFFF
:101910000120024B98470346184680BDD918400065
:1019200080B483B000AF0346FB71012318460C3727
:10193000BD465DF8047B704780B500AF0020024BC8
:1019400098470346184680BD2119400080B500AF76
:101950000120024B98470346184680BD21194000DC
:1019600080B584B000AF0346B9607A60FB73FB7B3F
:101970001846B9680122114B98470346002B05D041
:10198000022B01D1022314E0012312E000BF78688A
:1019900001210B4B98470346002B01D0012308E09F
:1019A0000020084B98470346002B01D0012300E09C
:1019B000002318461037BD4680BD00BFDD13400030
:1019C000C51440001115400080B582B000AF7860AA
:1019D0003960002079683A68034B984703461846F7
:1019E0000837BD4680BD00BF6119400080B582B098
:1019F00000AF78603960012079683A68034B9847F6
:101A0000034618460837BD4680BD00BF6119400037
:101A100080B584B000AF0346B9607A60FB73FB7B8E
:101A20001846B9680122114B98470346002B05D090
:101A3000022B01D1022314E0012312E000BF7868D9
:101A400001210B4B98470346002B01D0012308E0EE
:101A50000020084B98470346002B01D0012300E0EB
:101A6000002318461037BD4680BD00BF9D154000BD
:101A700085164000D116400080B582B000AF786076
:101A80003960002079683A68034B98470346184646
:101A90000837BD4680BD00BF111A400080B582B036
:101AA00000AF78603960012079683A68034B984745
:101AB000034618460837BD4680BD00BF111A4000D6
:101AC00080B584B000AF0346FB71FB79012B07D8CA
:101AD000FB79074A5B0113441B689847034600E003
:101AE0000123FB73FB7B18461037BD4680BD00BF4A
:101AF000385F410080B584B000AF03463960FB71A8
:101B0000FB79012B08D8FB79074A5B0113445B681A
:101B100038689847034600E00123FB73FB7B1846B7
:101B20001037BD4680BD00BF385F410080B485B02E
:101B300000AF0346FB71FB79012B8CBF002301230F
:101B4000DBB2FB73FB7B18461437BD465DF8047BA4
:101B5000704700BF80B584B000AF0346FB71FB79CE
:101B6000012B09D8FB79094A5B01134408335B68F0
:101B700098470346002B01D0012300E00023FB73AC
:101B8000FB7B18461037BD4680BD00BF385F410063
:101B900080B586B000AF0346B9607A60FB73FB7B0B
:101BA000012B0AD8FB7B084A5B01134410335B68A6
:101BB000B86879689847034600E00123FB75FB7D10
:101BC00018461837BD4680BD385F410080B586B0E5
:101BD00000AF0346B9607A60FB73FB7B012B0AD828
:101BE000FB7B084A5B01134418331B68B8687968AB
:101BF0009847034600E00123FB75FB7D1846183724
:101C0000BD4680BD385F410080B586B000AFF8604A
:101C1000B9607A6000237B61FB68002B02D04FF033
:101C2000FF3314E00FE00C4B1B680C4A126810469F
:101C3000B9689847BB680133BB607B6901337B613E
:101C40007B68013B7B607B68002BECDC7B69184682
:101C50001837BD4680BD00BFC0240020C824002026
:101C600080B586B000AFF860B9607A6000237B6110
:101C7000FB68012B08D0FB68022B05D0FB68032B07
:101C800002D04FF0FF331BE016E00F4B1A680F4BEA
:101C90001968BB68581CB8601B78084619469047FD
:101CA0000346002B02DA4FF0FF3309E07B69013372
:101CB0007B617B68013B7B607B68002BE5D17B69A6
:101CC00018461837BD4680BDC4240020C824002013
:101CD00080B483B000AF78607B68072B25D801A261
:101CE00052F823F0051D40000B1D4000111D40005F
:101CF000171D40001B1D40001F1D4000231D4000FC
:101D0000271D40004FF4FA4310E04FF400430DE06C
:101D10004FF400430AE0084B08E0084B06E0084B8C
:101D200004E0084B02E0074B00E0002318460C37A4
:101D3000BD465DF8047B704700093D0000127A0043
:101D4000001BB7000024F40080B500AF0620044B50
:101D50009847024613461B019B1A184680BD00BFD8
:101D6000D11C400080B500AF024B984703465B088A
:101D7000184680BD491D400080B487B000AF4FF0C9
:101D800080435B687B614FF080439B683B614FF011
:101D90008043DB68FB604FF08043DB69BB604FF042
:101DA00080435B6D7B604FF0804380221A604FF070
:101DB00080437A695A604FF080433A699A604FF0E5
:101DC0008043FA68DA604FF08043BA68DA614FF016
:101DD00080437A685A654FF0804305221A601C37A9
:101DE000BD465DF8047B704780B485B000AF786075
:101DF00039600023FB600023BB607B685A003B68AE
:101E00009A421BD27B685B003A68B2FBF3F3FB603B
:101E10007B685A003B68B3FBF2F102FB01F29B1AAC
:101E2000BB60BB68002B02D0FB680133FB60FB6822
:101E3000002B05D0FB68013BFB6001E00023FB6049
:101E40004FF080434FF08042526822F0FF025A6008
:101E50004FF080434FF080425168FA68D2B20A4393
:101E60005A601437BD465DF8047B704780B582B078
:101E700000AF4FF0FF337B604FF080431B6C3B6043
:101E80007B685A1E7A60002B03D1094B98470023C8
:101E90000AE03B6803F02003002BEDD03B6803F021
:101EA0001003002BE8D1012318460837BD4680BD3A
:101EB000791D400080B586B000AFF860B9607A60E7
:101EC000BB6803F03F03FA681343FB60BB6803F48D
:101ED0008073002B1BD0FB6843F48053FB60BB680E
:101EE00003F40063002B04D0FB6843F08003FB6025
:101EF0000DE0BB6803F40053002B04D0FB6843F0F3
:101F0000C003FB6003E0FB6843F04003FB60BB6879
:101F100003F48043002B03D0FB6843F40063FB60B1
:101F20004FF080437A681A614FF08043FA685A6133
:101F30004FF080431B6C7B61BB6803F48053002B24
:101F400008D07B6903F41F03002B0CD0124B984779
:101F500000231DE07B6903F41B03002B03D00E4B11
:101F60009847002314E07B6903F00103002BDFD0C6
:101F7000BB6803F40053002B09D0084B9847034675
:101F800083F00103DBB2002B01D0002300E001232A
:101F900018461837BD4680BD791D40006D1E4000B3
:101FA00080B500AF12200C4B98474FF0804372224F
:101FB0009A604FF080437222DA614FF08043112221
:101FC0005A654FF080434FF4E0625A604FF080430F
:101FD00005221A6080BD00BFA9BC400080B483B058
:101FE00000AF0346FB71FB79002B01D1042300E015
:101FF000002318460C37BD465DF8047B704700BFD0
:1020000080B400AF01231846BD465DF8047B7047DD
:1020100080B584B000AF39600146F971BA717B7147
:102020000023FB600023BB607B79002B08D04FF0BE
:1020300080434FF08042526D42F480725A6507E04F
:102040004FF080434FF08042526D22F480725A6507
:10205000124B9847034638681946114B9847FB794D
:10206000002B02D10023FB6000BFBB79042B06D0FC
:10207000082B07D0012B08D10023BB6005E080238B
:10208000BB6002E0C023BB6000BF4FF08043F96833
:10209000BA680A43DA601037BD4680BD651D40004E
:1020A000E91D400080B483B000AF0346FB710C37DC
:1020B000BD465DF8047B704780B400AF4FF08043AD
:1020C0004FF08042526822F460525A604FF08043D1
:1020D00000221A614FF080434FF410625A6100BF32
:1020E0004FF080431B6C03F00103002BF8D0BD467A
:1020F0005DF8047B704700BF80B582B000AF7860A8
:1021000039604FF080434FF08042526822F46052B1
:102110005A604FF080434FF08042526822F40042F0
:102120005A604FF0804300229A61002079683A6833
:10213000034B9847034618460837BD4680BD00BF8D
:10214000B51E400080B400AF4FF080431B6A1846B4
:10215000BD465DF8047B704780B485B000AF786001
:102160000023FB7325E04FF080431B6ABB60BB6814
:102170001B0EDAB27B681A707B6801337B60BB6828
:102180001B0CDAB27B681A707B6801337B60BB681A
:102190001B0ADAB27B681A707B6801337B60BB680C
:1021A000DAB27B681A707B6801337B60FB7B01339A
:1021B000FB73FB7B032BD6D91437BD465DF8047B3C
:1021C000704700BF80B586B000AFF860B960FA8094
:1021D000BB8097F82030002B08D04FF080434FF0A1
:1021E0008042526842F400425A6007E04FF0804358
:1021F0004FF08042526822F400425A604FF0804310
:102200004FF08042526842F4C0525A60FB8803F09B
:102210000303002B08D04FF080434FF080425268F8
:1022200042F400525A6007E04FF080434FF0804282
:10223000526822F400525A60FB6803F40043002BFA
:1022400003D04FF480337B6102E04FF4A0237B6125
:10225000FB6803F48033002B0AD07B6943F400133E
:102260007B614FF08043FA88C2F308029A6128E04C
:102270004FF08043FA881104BA880A439A61FB68D8
:1022800003F40033002B04D07B6943F420137B61FB
:1022900017E0FB6803F48023002B04D07B6943F430
:1022A00080137B610DE0FB6803F40023002B08D151
:1022B000FB6803F48013002B03D07B6943F40023F5
:1022C0007B61094B00221A60084BFA881A80084B80
:1022D000BA881A807869F968BA68064B9847034645
:1022E00018461837BD4680BDC40D0020C80D00201B
:1022F000CA0D0020B51E400080B584B000AF7860E4
:102300004FF080431B6CFB60FA681D4B1340002BA1
:1023100003D01C4B984700232DE0FB6803F0020319
:10232000002BEDD04FF080431A6B7B681A60164B80
:102330001B681A1D144B1A60144B1B88144A128810
:1023400002FB03F2104B1B689A4201D9012312E0F1
:102350004FF080431B6CFB60FA68094B1340002B65
:1023600003D0084B9847002305E0FB6803F00063A7
:10237000002BEDD0012318461037BD4680BD00BFAD
:10238000000060C0791D4000C40D0020C80D002071
:10239000CA0D002080B485B000AF78600B467B800A
:1023A0007B88264A128802FB03F3FB607B6803F0FC
:1023B0000303002B05D1214B1B8803F00303002BE3
:1023C00008D04FF080434FF08042526842F40052F0
:1023D0005A6007E04FF080434FF08042526822F489
:1023E00000525A604FF080437A68C3F800214FF0E2
:1023F00080424FF080435B6803F40053002B02D10E
:10240000FB689B0800E0FB68C2F804314FF0804392
:102410000022C3F814214FF080430122C3F8202189
:10242000074B1A68FB681A44054B1A6001231846CB
:102430001437BD465DF8047B704700BFC80D00200F
:10244000C40D002080B582B000AF4FF080431B6CFC
:102450007B607A681A4B1340002B09D04FF0804301
:1024600040F20222C3F82021164B9847002323E0B4
:102470007B6803F48043002BE7D0134B1B88134A7F
:10248000128802FB03F2124B1B689A4201D9012306
:1024900012E04FF080431B6C7B607A68084B13405E
:1024A000002B03D0074B9847002305E07B6803F01F
:1024B0000063002BEDD0012318460837BD4680BDD0
:1024C000000060C0791D4000C80D0020CA0D00202A
:1024D000C40D002080B485B000AF78600B467B80CF
:1024E0007B88264A128802FB03F3FB607B6803F0BB
:1024F0000303002B05D1214B1B8803F00303002BA2
:1025000008D04FF080434FF08042526842F40052AE
:102510005A6007E04FF080434FF08042526822F447
:1025200000525A604FF080437A68C3F808214FF098
:1025300080424FF080435B6803F40053002B02D1CC
:10254000FB689B0800E0FB68C2F80C314FF0804349
:102550000022C3F81C214FF080434FF48072C3F86F
:102560002021074B1A68FB681A44054B1A600123A7
:1025700018461437BD465DF8047B7047C80D00202F
:10258000C40D002080B582B000AF4FF080431B6CBB
:102590007B607A681A4B1340002B09D0194B98477F
:1025A0004FF0804340F20222C3F82021002323E0B1
:1025B0007B6803F40043002BE7D0134B1B88134ABE
:1025C000128802FB03F2124B1B689A4201D90123C5
:1025D00012E04FF080431B6C7B607A68084B13401D
:1025E000002B03D0074B9847002305E07B6803F0DE
:1025F0002003002BEDD0012318460837BD4680BDCF
:10260000000060C0791D4000C80D0020CA0D0020E8
:10261000C40D002080B483B000AF786039603B689F
:10262000002B06D07B685B6843F001027B685A6030
:1026300005E07B685B6823F001027B685A600C3719
:10264000BD465DF8047B704780B487B000AFF8608A
:10265000B9607A603B60FB689B687B6102E0FB6865
:102660009B687B61FB689A687B699A42F7D1BB687B
:10267000002B1CD07B6903F47C131B0C3B613B6972
:102680001A0913469B0013445B001A463B6903F08A
:102690000F031A44BB681A607B6903F48003002BA4
:1026A00005D0BB681B6803F10C02BB681A607B682D
:1026B000002B11D07B6903F4FE431B0A3B613B698D
:1026C0001A0913469B0013445B001A463B6903F04A
:1026D0000F031A447B681A603B68002B10D07B699B
:1026E00003F07F033B613B691A0913469B001344C7
:1026F0005B001A463B6903F00F031A443B681A60FB
:102700001C37BD465DF8047B704700BF80B489B0BC
:1027100000AFF860B9607A603B60FB68DB68FB6122
:1027200002E0FB68DB68FB61FB68DA68FB699A42E0
:10273000F7D1BB68002B25D0FB6903F07F03BB6199
:10274000BB691A0913469B0013445B001A46BB6918
:1027500003F00F0313447B61FB6903F47F431B0AFF
:10276000BB617B69642202FB03F1BB691A09134652
:102770009B0013445B00CA18BB6903F00F031A44A3
:10278000BB681A607B68002B11D0FB6903F4F81357
:102790001B0CBB61BB691A0913469B0013445B0009
:1027A0001A46BB6903F00F031A447B681A603B6842
:1027B000002B11D0FB6903F07C531B0EBB61BB697E
:1027C0001A0913469B0013445B001A46BB6903F0C9
:1027D0000F031A443B681A60BB6A002B05D0FB69E3
:1027E00003F460035A0DBB6A1A602437BD465DF8D6
:1027F000047B704780B485B000AF786039600023F7
:10280000FB607B68AC221A603B681A683B685B68B7
:10281000B2FBF3F31B09FB60FB68002B03D0FB68E2
:10282000B3F5803F01D301230FE07B68FA681A6299
:102830003B689A687B685A607B6840F20222C3F862
:1028400020217B6850221A60002318461437BD46A9
:102850005DF8047B704700BF80B483B000AF786040
:1028600039607B683A68DA600C37BD465DF8047BF6
:10287000704700BF80B483B000AF78607B685B694D
:1028800018460C37BD465DF8047B704780B483B0B2
:1028900000AF78600B46FB707B685B6903F0020356
:1028A000002B01D1012303E0FA787B68DA61002371
:1028B00018460C37BD465DF8047B704780B483B082
:1028C00000AF786039607B685B6903F00103002B1F
:1028D00001D1012305E07B689B69DAB23B681A707D
:1028E000002318460C37BD465DF8047B704700BFD7
:1028F00080B489B000AFF860B9607A60BB681A0133
:102900007B689A4202D81023FB6101E00823FB6137
:102910007B68DA00FB69B96801FB03F35B081A44C2
:10292000FB69B96801FB03F3B2FBF3F3BB61BB695D
:10293000DB087B61BB6903F007033B617B69002B0C
:1029400003D07B69B3F5803F01D301230FE0FB691E
:10295000082B05D1FB685B6843F40022FB685A60D2
:102960003B691A047B691A43FB681A620023184604
:102970002437BD465DF8047B704700BF80B582B048
:1029800000AF786078680E4B98477B6800225A60E9
:102990007B6800225A627B6800229A627868094B41
:1029A00098477868084B98477868084B9847786844
:1029B000074B98477868074B98470837BD4680BD56
:1029C000E52B4000752A4000A52A4000F52A40006A
:1029D0002D2B4000112B400080B584B000AFF86073
:1029E000B9607A60F8681A4B98471A4B00221A604F
:1029F000BB68002B09D0BB681B68F86819467A6869
:102A0000154B98470346002B01D001231BE0BB6800
:102A10005A68BB689B681A43BB681B691A43BB684A
:102A2000DB681A430B4B1B681A430A4B1A60094BAD
:102A30001A68084B1A60FB685A68064B1B681A43F1
:102A4000FB685A60002318461037BD4680BD00BFA2
:102A50007D294000CC0D0020F128400080B483B0D7
:102A600000AF78607B6840221A600C37BD465DF885
:102A7000047B704780B483B000AF78607B688822A5
:102A80001A600C37BD465DF8047B704780B483B094
:102A900000AF78607B6810221A600C37BD465DF885
:102AA000047B704780B483B000AF78607B682422D9
:102AB0001A600C37BD465DF8047B704780B483B064
:102AC00000AF786039607B683A689A600C37BD4621
:102AD0005DF8047B704700BF80B483B000AF7860BE
:102AE00039607B683A68DA600C37BD465DF8047B74
:102AF000704700BF80B483B000AF78607B684FF44C
:102B000080721A600C37BD465DF8047B704700BFC9
:102B100080B483B000AF78607B684FF400321A60F5
:102B20000C37BD465DF8047B704700BF80B483B0AE
:102B300000AF78607B684FF400221A600C37BD4606
:102B40005DF8047B704700BF80B483B000AF78604D
:102B500039607B685B6903F00203002B01D101231C
:102B600005E03B68C3F308027B68DA61002318467E
:102B70000C37BD465DF8047B704700BF80B483B05E
:102B800000AF786039607B685B6903F00103002B5C
:102B900001D1012306E07B689B69C3F308023B680F
:102BA0001A60002318460C37BD465DF8047B704759
:102BB00080B483B000AF7860396000BF7B685B6928
:102BC00003F00103002BF9D07B689B69C3F3080273
:102BD0003B681A60002318460C37BD465DF8047B3D
:102BE000704700BF80B483B000AF78607B68044A50
:102BF000C3F8E4200C37BD465DF8047B704700BF86
:102C00000041535580B584B000AF0346FB711748AF
:102C10000021174B9847FB79022B01D9012321E0B2
:102C20000023FB600CE0FB791846124B98470346E3
:102C3000FB72FB7A032B00D005E0FB680133FB60DD
:102C4000FB68012BEFDDFB7A002B01D0012309E0AB
:102C5000FB791846084B98470346002B01D0042304
:102C600000E0002318461037BD4680BD60140E40BA
:102C700015264000C11A4000551B400080B582B0A7
:102C800000AF0346FB71FB791846084B9847034693
:102C9000002B02D0022B02D003E0002302E003232A
:102CA00000E0012318460837BD4680BDC11A400028
:102CB00080B588B000AFB9607A600246FA73BB7322
:102CC000FB7B1846234B98470346FB76FB7E002B85
:102CD00001D1012339E0FA7B07F1140310461946AC
:102CE0001D4B9847BB7BFA7E02FB03F31A467B68B9
:102CF0001A447B690133F97E01FB03F39A4201D93F
:102D0000042322E00023FB611AE0FB7EFA6902FB48
:102D100003F27B681A44FB7EF96901FB03F35B0253
:102D2000B9680B44F97B084611461A460B4B984785
:102D30000346002B01D0012307E0FB690133FB614F
:102D4000BA7BFB699A42E0D8002318462037BD467B
:102D500080BD00BF2D1B4000F51A4000911B4000B4
:102D600080B588B000AFB9607A600246FA73BB7371
:102D7000FB7B1846234B98470346FB76FB7E002BD4
:102D800001D1012339E0FA7B07F1140310461946FB
:102D90001D4B9847BB7BFA7E02FB03F31A467B6808
:102DA0001A447B690133F97E01FB03F39A4201D98E
:102DB000042322E00023FB611AE0FB7EFA6902FB98
:102DC00003F27B681A44FB7EF96901FB03F35B02A3
:102DD000B9680B44F97B084611461A460B4B9847D5
:102DE0000346002B01D0012307E0FB690133FB619F
:102DF000BA7BFB699A42E0D8002318462037BD46CB
:102E000080BD00BF2D1B4000F51A4000CD1B4000C7
:102E100080B584B000AF0B463A600246FA71BB71D0
:102E20000423FB73BB79032B45D801A252F823F08E
:102E30009D2E40004D2E4000692E4000412E400046
:102E40003B6801221A600023FB7336E0FA7907F130
:102E50000803104619461B4B9847BB685A1C3B6831
:102E60001A600023FB7328E0FB791846164B98473D
:102E70000346BB73BB7B012B0AD0BB7B022B07D065
:102E8000BB7B042B04D0BB7B082B01D0012315E0B6
:102E90003B6800221A700023FB730EE0FB79184692
:102EA0000A4B98470346002B02D10023FB7304E032
:102EB0000323FB7301E00423FB73FB7B18461037ED
:102EC000BD4680BDF51A40002D1B4000C11A4000D0
:102ED00090B58BB002AF07F1180107F1140207F1AA
:102EE00010031248124CA04707F10C0107F1080229
:102EF0003B1D384600900D480E4CA047FB68A3F2DE
:102F0000BC735A06BB685B051A437B681B041A43F3
:102F1000BB69DB021A437B695B011A433B691343BC
:102F2000FB61FB6918462437BD4690BD60140E4016
:102F3000492640000D27400080B487B000AFF860FC
:102F4000B9607A60FB687B61BB683B6107E07B69C5
:102F50005A1C7A613A69511C396112781A707B687F
:102F60005A1E7A60002BF2D11C37BD465DF8047BF7
:102F7000704700BF80B487B000AFF860B9607A6076
:102F8000FB687B6105E07B695A1C7A61BA68D2B242
:102F90001A707B685A1E7A60002BF4D11C37BD462C
:102FA0005DF8047B704700BF80B489B000AFF86063
:102FB000B9607A60FB68FB61BB68BB6100237B6121
:102FC00000BF7B685A1E7A60002B0DD0FB695A1C2B
:102FD000FA611B781A46BB69591CB9611B78D31A70
:102FE0007B617B69002BECD07B6918462437BD469A
:102FF0005DF8047B704700BF80B483B000AF786099
:10300000396002E07B6801337B607B681B78002BB2
:1030100005D07B681B781A463B689A42F2D17B68E0
:103020001B7818460C37BD465DF8047B704700BF1F
:1030300080B485B000AF786039600023BB60BB68A6
:10304000FB6035E02E49FA6813465B0013449B0091
:103050000B441B68002B25D02949FA6813465B00F6
:1030600013449B000B441A687B681B689A421CD16E
:103070002349FA6813465B0013449B000B445A68CB
:103080007B689B689A4210D11D49FA6813465B0021
:1030900013449B000B4408331A887B68DB889A42F0
:1030A00003D108E0BB680133BB60FB680133FB6000
:1030B000FB68022BC6D9FB68032B09D1BB68002B28
:1030C00002D13B68022B01D1002313E0122311E04F
:1030D0003B68002B0BD10A49FA6813465B00134486
:1030E0009B000B4408335B88B3F5807F01D110232C
:1030F00000E0002318461437BD465DF8047B704796
:10310000D80D002080B483B000AF00237B6002E0C4
:103110007B6801337B607B68022B09D80A497A6897
:1031200013465B0013449B000B441B68002BEFD13C
:103130007B68032B0CBF00230123DBB218460C373E
:10314000BD465DF8047B7047D80D002080B485B083
:1031500000AF786039600023FB6028E05149FA68CD
:1031600013465B0013449B000B441A687B681B6882
:103170009A4219D14B49FA6813465B0013449B00ED
:103180000B445A687B689B689A420DD14549FA689E
:1031900013465B0013449B000B4408331A887B687A
:1031A000DB889A4200D105E0FB680133FB60FB68D5
:1031B000022BD3D9FB68032B41D10023FB6002E033
:1031C000FB680133FB60FB68022B09D83549FA68BC
:1031D00013465B0013449B000B441B68002BEFD18C
:1031E000FB68032B01D1002355E07B6819682D484B
:1031F000FA6813465B0013449B00034419607B6824
:1032000099682848FA6813465B0013449B000344FE
:1032100059607B68D9882348FA6813465B001344D9
:103220009B00034408330A461A801E49FA68134675
:103230005B0013449B000B44083300225A803B6818
:10324000002B0CD01749FA6813465B0013449B000F
:103250000B4408335B88002B01D000231BE03B6844
:10326000002B0BD10F49FA6813465B0013449B00F7
:103270000B4408335B8801339AB201E04FF480724B
:103280000848F9680B465B000B449B000344083375
:103290005A80FB68013318461437BD465DF8047B3D
:1032A000704700BFD80D002080B485B000AF7860B3
:1032B0007B68013B7B607B68022B2ED81B497A68B8
:1032C00013465B0013449B000B4408335B88FB816F
:1032D000FB89B3F5807F01D10023FB81FB89002BA3
:1032E00002D0FB89013BFB8110497A6813465B00E1
:1032F00013449B000B440833FA895A80FB89002B46
:1033000008D10A497A6813465B0013449B000B44BA
:1033100000221A6000237B7301E002237B737B7B16
:1033200018461437BD465DF8047B7047D80D002061
:1033300080B485B000AF78600023FB6016E00F49D1
:10334000FA6813465B0013449B000B441A687B68C1
:103350009A4208D10949FA6813465B0013449B005E
:103360000B4400221A60FB680133FB60FB68022BF0
:10337000E5D91437BD465DF8047B7047D80D0020B1
:1033800090B585B000AF786039607B68DB6AFB6020
:10339000FA683B689A424BD07B681B79002B32D08D
:1033A0007B685A787B68303310461946FA680123E7
:1033B000224CA0470346002B01D0012339E07B6853
:1033C00000221A717B681A6A7B68DB691A44FB6801
:1033D0009A4218D97B68DB78FB7211E07B68DB6965
:1033E000FA681344FB607B685A787B683033104678
:1033F0001946FA680123114CA047FB7A013BFB7286
:10340000FB7A012BEAD83B68002B11D07B685A78F5
:103410007B683033104619463A680123084CA047B0
:103420000346002B01D0012303E07B683A68DA628F
:10343000002318461437BD4690BD00BF612D4000E3
:10344000B12C400090B585B000AF7860786800215D
:103450004F4B98470346FB73FB7B002B40F0928059
:103460007B681B78032B40F081807B685B79002BA5
:103470007CD07B680022DA627B68303318460021FA
:103480004FF40072434B98477B68552283F82E22F5
:103490007B68AA2283F82F227B68522283F830208F
:1034A0007B68522283F831207B68612283F83220C6
:1034B0007B68412283F833207B68722283F81422D0
:1034C0007B68722283F815227B68412283F81622DA
:1034D0007B68612283F817227B681B69DAB27B68FC
:1034E00083F818227B681B699BB21B0A9BB2DAB275
:1034F0007B6883F819227B681B691B0CDAB27B6836
:1035000083F81A227B681B691B0EDAB27B6883F88A
:103510001B227B68DB68DAB27B6883F81C227B683D
:10352000DB689BB21B0A9BB2DAB27B6883F81D2270
:103530007B68DB681B0CDAB27B6883F81E227B6831
:10354000DB681B0EDAB27B6883F81F227B68597830
:103550007B6803F130027B685B69084611461A46B6
:1035600001230D4CA0477B6800225A717B685B7871
:10357000184600210022094B98470346002B01D032
:103580000123FB73FB7B18461437BD4690BD00BF7B
:1035900081334000752F4000612D4000112E400006
:1035A00080B483B000AF786039603B68023B3B6019
:1035B0007B689B699A1E3B689A4201D8002307E00A
:1035C0007B689B783A6802FB03F27B689B6A134432
:1035D00018460C37BD465DF8047B704780B586B051
:1035E00000AF786039603B68012B04D97B689A6929
:1035F0003B689A4201D8012396E07B681B78022B36
:1036000047D0032B65D0012B40F08C803B687B6159
:103610007B695B087A6913447B617B681A6A7B6902
:103620005B0A134478681946414B98470346002BC0
:1036300000D077E07B69C3F308037A68134493F8FA
:1036400030303B617B6901337B617B681A6A7B693F
:103650005B0A134478681946354B98470346002B9C
:1036600000D05FE07B69C3F308037A68134493F8E2
:1036700030301B023A6913433B613B6803F001039E
:10368000002B02D03B691B0902E03B69C3F30B032B
:103690004AE07B681A6A3B681B0A1344786819463B
:1036A000234B98470346002B00D03BE03B685B0070
:1036B00003F4FF7330337A681344FB60FB68013313
:1036C0001B781B029AB2FB681B7813439BB29BB218
:1036D0002AE07B681A6A3B68DB091344786819465C
:1036E000134B98470346002B00D01BE03B689B0020
:1036F00003F4FE7330337A681344FB60FB680333D2
:103700001B781A06FB6802331B781B041A43FB68FC
:1037100001331B781B021A43FB681B78134323F009
:10372000704301E04FF0FF3318461837BD4680BDA7
:103730008133400080B588B000AFF860B9607A602E
:10374000BB68012B04D9FB689A69BB689A4202D80E
:103750000223FB77E3E0FB681B78022B70D0032B7E
:1037600000F09280012B40F0D580BB68BB61BB6943
:103770005B08BA691344BB61FB681A6ABB695B0AE0
:103780001344F8681946684B98470346FB77FB7F5C
:10379000002B00D0C0E0BB69C3F308033033FA68E4
:1037A00013447B61BB6803F00103002B0DD07B69E0
:1037B0001B78DBB203F00F03DAB27B68DBB21B01CC
:1037C000DBB21343DBB2DBB201E07B68DBB27A69C8
:1037D0001370BB690133BB61FB6801221A71FB687E
:1037E0001A6ABB695B0A1344F86819464E4B98473E
:1037F0000346FB77FB7F002B00D08DE0BB69C3F352
:1038000008033033FA6813447B61BB6803F001039B
:10381000002B03D07B681B09DBB20EE07B691B78B1
:10382000DBB223F00F03DAB27B681B0ADBB203F0D2
:103830000F03DBB21343DBB2DBB27A6913706BE0C8
:10384000FB681A6ABB681B0A1344F8681946364BB2
:1038500098470346FB77FB7F002B00D05CE0BB68FA
:103860005B0003F4FF733033FA6813447B617B68B9
:10387000DAB27B691A707B6901337A6892B2120AF4
:1038800092B2D2B21A7047E0FB681A6ABB68DB09D1
:103890001344F8681946244B98470346FB77FB7F8F
:1038A000002B00D038E0BB689B0003F4FE7330337C
:1038B000FA6813447B617B6903331B781A067B69C2
:1038C00002331B781B041A437B6901331B781B02EC
:1038D0001A437B691B78134303F070437A681343E0
:1038E0007B607B68DAB27B691A707B6901337A6826
:1038F00092B2120A92B2D2B21A707B6902337A681B
:10390000120CD2B21A707B6903337A68120ED2B2EB
:103910001A7001E00223FB77FB6801221A71FB7F1A
:1039200018462037BD4680BD8133400080B584B045
:1039300000AF786039603B68012B04D97B689A69D5
:103940003B689A4202D80223FB7337E00023FB73E3
:103950002FE0786839681C4B9847B860BB68002B2B
:1039600000D12BE0BB68012B02D10223FB7325E0C1
:10397000BB68B3F1FF3F02D10123FB731EE07868FF
:1039800039680022114B98470346FB73FB7B002BE1
:1039900000D013E07B681B69B3F1FF3F07D07B6861
:1039A0001B695A1C7B681A617B6801225A71BB68CB
:1039B0003B607B689A693B689A42CAD8FB7B184691
:1039C0001037BD4680BD00BFDD35400035374000B3
:1039D00080B586B000AF786039603B68002B0DD1B0
:1039E0007B68DB683B613B69002B04D07B689A698C
:1039F0003B699A4215D801233B6112E07868396827
:103A0000394B9847B860BB68012B01D8012366E0A9
:103A10007B689A69BB689A4201D9BB685FE03B68E2
:103A20003B613B697B617B6901337B617B689A69A0
:103A30007B699A4207D802237B617A693B699A4283
:103A400001D900234BE078687969274B9847B86023
:103A5000BB68002B0CD100BF786879696FF07042A9
:103A6000224B98470346FB73FB7B002B1AD10FE0D8
:103A7000BB68B3F1FF3F02D0BB68012B01D1BB682B
:103A80002DE07A693B699A4201D1002327E0CAE719
:103A90003B68002B06D0786839687A69134B9847E1
:103AA0000346FB73FB7B002B10D17B687A69DA60DD
:103AB0007B681B69B3F1FF3F10D07B681B695A1EFE
:103AC0007B681A617B6801225A7107E0FB7B012B3E
:103AD00002D14FF0FF3300E001237B617B69184680
:103AE0001837BD4680BD00BFDD354000353740008A
:103AF00080B584B000AF78600B467B807B687A88A5
:103B0000DA807B689B68FB60FB68012B05D07B68D3
:103B10001B689A69FB689A4201D8022364E0FB683B
:103B2000002B08D17B681B681B78032B03D17B68B3
:103B30001B685B6AFB60FB68002B14D17B68FA682A
:103B4000DA607B681B681B897A889A4201D302235A
:103B50004AE07B681B685A6A7B881B099BB21A443F
:103B60007B681A6135E07B681B689B781B017B8151
:103B70001BE07B681B681846F9681D4B9847F86086
:103B8000FB68B3F1FF3F01D101232DE0FB68012B5E
:103B900005D97B681B689A69FB689A4201D80223A1
:103BA00022E07A887B89D31A7B807A887B899A4243
:103BB000DFD27B68FA68DA607B681B681846F968B0
:103BC0000C4B984702467B881B099BB21A447B68C2
:103BD0001A617B681A687B8803F00F035B0130333E
:103BE0001A447B685A61002318461037BD4680BDD1
:103BF000DD354000A135400090B585B000AF78605C
:103C000039607B68DB8801333B813B89002B03D023
:103C10007B681B69002B01D10423BCE03B8903F0C6
:103C20000F039BB2002B40F0A8807B681B695A1CD5
:103C30007B681A617B68DB68002B08D17B681B6896
:103C40001B893A899A42C0F098800423A3E03B89FB
:103C50001B099BB21A467B681B689B78013B13408B
:103C6000002B40F08A807B681A687B68DB6810460E
:103C700019464B4B9847F860FB68012B01D802238B
:103C800089E0FB68B3F1FF3F01D1012383E07B684A
:103C90001B689A69FB689A4263D83B68002B01D184
:103CA000042378E07B681A687B68DB681046194655
:103CB0003C4B9847F860FB68002B01D107236AE072
:103CC000FB68012B01D1022365E0FB68B3F1FF3FE4
:103CD00001D101235FE07B681B6818460021324B4D
:103CE00098470346002B01D0012354E07B681B68F2
:103CF0003033184600214FF400722C4B98477B68F4
:103D00001C687B681B681846F968294B984703466E
:103D1000E3620023FB7216E07B681B6801221A71C4
:103D20007B681B68184600211F4B98470346002BF1
:103D300001D001232FE07B681B68DA6A0132DA6266
:103D4000FB7A0133FB727B681B689B78FA7A9A4294
:103D5000E2D37B681B687A681268D16AFA7A8A1A99
:103D6000DA627B68FA68DA607B681B681846F96873
:103D70000F4B984702467B681A617B683A89DA8064
:103D80007B681A683B8903F00F035B0130331A44E8
:103D90007B685A61002318461437BD4690BD00BFAA
:103DA000DD354000D139400081334000752F40009F
:103DB000A135400080B586B000AF786039603B68BF
:103DC0001B7823F040035A1E13465B0013449B00EC
:103DD00013447B6100233B610123FB81294A3B693A
:103DE00013441B7801333A6813441B781B029AB2C0
:103DF00024493B690B441B7839680B441B781343F7
:103E00009BB2BB81FB89002B18D0BB8918461E4B87
:103E100098470346FB817B69FE2B0DD87B695A1CB2
:103E20007A615B007A6813441B881846164B9847E2
:103E30000346FA899A4208D000231FE0BA894FF658
:103E4000FF739A4201D0002318E03B6901333B61C4
:103E50003B690C2BC2D93B681B7803F04003002B55
:103E60000BD0FB89002B08D07B695B007A68134478
:103E70001B88002B01D0002300E0012318461837CF
:103E8000BD4680BD785F41001D5F400080B489B0B1
:103E900000AFF860B960FA71BB71BB680D33BA79D5
:103EA0001A70BB680B330F221A70BB680C330022E8
:103EB0001A70BB681A3300221A70BB681B330022C9
:103EC0001A70FB795A1E13465B0013449B0013447F
:103ED000FB610023FB820023BB61FA8A4FF6FF736C
:103EE0009A4207D0FB695A1CFA615B00FA681344D6
:103EF0001B88FB821C4ABB6913441B78BA681344B5
:103F0000FA8AD2B21A70184ABB6913441B7801337B
:103F1000BA681344FA8A120A92B2D2B21A70FB8AB1
:103F2000002B02D14FF6FF73FB82BB690133BB61EB
:103F3000BB690C2BD1D9FA8A4FF6FF739A4206D08F
:103F4000FB695B00FA6813441B88002B03D1FB79E3
:103F500043F04003FB71BB68FA791A702437BD4601
:103F60005DF8047B704700BF785F410080B58AB080
:103F700000AFF860B9607A607B80F868B9680B229E
:103F8000334B98477B88052B0FD97B889AB2520810
:103F9000DB0313439AB27B68991C79601B88134436
:103FA0007B807B681B88002BEFD107233B627B88DB
:103FB000DBB203F00F03DBB2303387F8273097F81A
:103FC0002730392B04D997F82730073387F8273063
:103FD0003B6A5A1E3A6207F128010B4497F82720E2
:103FE00003F8142C7B881B097B807B88002BDED197
:103FF00007F114023B6A13447E221A700023FB610E
:1040000002E0FB690133FB61FA693B6A9A4205D21F
:10401000FA68FB6913441B78202BF2D1FB695A1C08
:10402000FA61FA681A443B6A072B08D83B6A591CA4
:10403000396207F128010B4413F8143C00E02023F7
:104040001370FB69072BE9D92837BD4680BD00BF37
:10405000392F400080B485B000AF78600023FB7337
:104060000B23BB60FB7BDAB25208DB011343DAB2ED
:104070007B68591C79601B781344FB73BB68013B58
:10408000BB60BB68002BEDD1FB7B18461437BD46E7
:104090005DF8047B704700BF80B586B000AF7860E4
:1040A00078680021504B98470346FB75FB7D002B39
:1040B00001D0FB7D93E0FF233B753B7D7B757B68E7
:1040C0001A687B681B6910461946484B9847034697
:1040D000FB75FB7D002B00D080E07B685B693B615A
:1040E0003B691B78BB75BB7D002B02D10423FB759C
:1040F00074E03B690B331B7803F03F03FB73BB7D1C
:10410000E52B07D0FB7B03F00803002B05D0FB7BDE
:104110000F2B02D0FF237B7556E0FB7B0F2B2FD19B
:104120007B68DB69002B4FD0BB7D03F04003002B85
:104130000CD03B695B7B3B75BB7D23F04003BB75BB
:10414000BB7D7B757B68DA887B681A84BA7D7B7D52
:104150009A4212D13B690D331B783A7D9A420CD1B9
:104160007B68DB6918463969214B98470346002B69
:1041700003D07B7D013BDBB200E0FF237B7523E0B6
:104180007B7D002B07D138691A4B984703463A7D4F
:104190009A4200D122E0FF237B757B684FF6FF72C5
:1041A0001A847B689B690B331B7803F00103002B97
:1041B0000AD17B689B69386919460B220E4B9847D8
:1041C0000346002B00D109E0786800210B4B98478B
:1041D0000346FB75FB7D002B3FF471AFFB7D18465A
:1041E0001837BD4680BD00BFF13A40008133400022
:1041F000B53D400055404000A92F4000F93B40002C
:1042000090B58DB000AF78607B689B697B627B68FE
:10421000DB693B6207F10C031846796A0C22924B6A
:104220009847FB7D03F00103002B35D07B6A0B33ED
:1042300000221A707B680022DA610123BB8515E039
:1042400007F10C02BB8D786A11463A6A874CA04789
:104250007868874B9847034687F82F3097F82F30B8
:10426000002B00D005E0BB8D0133BB85BB8D632BDC
:10427000E6D9BB8D642B01D10723F0E097F82F30EE
:10428000042B02D097F82F30E9E07B6A0B33FA7DDC
:104290001A707B683A6ADA61FB7D03F00203002B37
:1042A00016D000237B8502E07B8D01337B857B8DDF
:1042B0005B003A6A13441B88002BF5D17B8D1933C0
:1042C0006C4A82FB03129210DB17D31A7B8501E044
:1042D00001237B8578680021674B9847034687F860
:1042E0002F3097F82F30002B02D097F82F30B6E000
:1042F00000233B853B8DBB857B681A687B681B6907
:10430000104619465D4B9847034687F82F3097F8BB
:104310002F30002B00D025E07B685B691B78FB7792
:10432000FB7FE52B02D0FB7F002B0ED1BB8D002B3A
:1043300002D17B68DB883B85BB8D0133BB85BA8DA1
:104340007B8D9A4200D10DE001E00023BB857868A7
:1043500001214B4B9847034687F82F3097F82F30B1
:10436000002BC9D097F82F30002B46D17B8D012B25
:1043700043D93B8D786819463F4B9847034687F8E9
:104380002F3097F82F30002B37D17B689B69184668
:104390003C4B98470346BB777B8D013B7B857B6815
:1043A0001A687B681B6910461946344B98470346C8
:1043B00087F82F3097F82F30002B00D01DE07B6856
:1043C000D8697B6859697B8DDAB2BB7F2E4CA047D8
:1043D0007B681B6801221A7178680021284B984776
:1043E000034687F82F3097F82F30002B05D17B8DAF
:1043F000013B7B857B8D002BD1D197F82F30002B93
:104400002BD17B681A687B681B69104619461B4BC9
:104410009847034687F82F3097F82F30002B1CD190
:104420007B685B69BB61B86900212022174B984704
:104430007B689B69B86919460B220B4B9847BB698F
:104440000C337A6892690B32127802F01802D2B2F9
:104450001A707B681B6801221A7197F82F30184672
:104460003437BD4690BD00BF392F40006D3F40003E
:10447000994040004FECC44EF13A40008133400077
:10448000F93B4000554040008D3E4000752F4000F4
:1044900080B58AB000AF786039603B681B683B61CB
:1044A00002E03B6901333B613B691B782F2BF8D05D
:1044B0003B691B785C2BF4D07B68DB69FB600023D5
:1044C0007B617B69BB61BB695A1CBA613A69134461
:1044D0001B78BB84BB8C1F2B2FD9BB8C2F2B2CD0D4
:1044E000BB8C5C2B29D07B69FE2B01D9062381E193
:1044F000BB8CDBB2BB84BB8C18460121934B984725
:104500000346BB84BB8C002B01D1062372E1BB8C1C
:104510007F2B09D8BB8C8E4819468E4B9847034693
:10452000002B01D0062365E17B695A1C7A615B0090
:10453000FA681344BA8C1A80C5E73A69BB691A4411
:104540003B681A60BB8C1F2B01D8042300E00023BA
:1045500087F8263012E07B6903F10043013B5B00E2
:10456000FA6813441B88BB84BB8C202B03D0BB8C04
:104570002E2B00D005E07B69013B7B617B69002B22
:10458000E9D17B69002B01D1062333E17B695B0014
:10459000FA68134400221A807B689B691846202120
:1045A0000B226D4B98470023BB6102E0BB690133CE
:1045B000BB61BB695B00FA6813441B88202BF5D0F4
:1045C000BB695B00FA6813441B882E2BEED0BB69D5
:1045D000002B06D097F8263043F0030387F82630E7
:1045E00003E002E07B69013B7B617B69002B09D022
:1045F0007B6903F10043013B5B00FA6813441B88AD
:104600002E2BEFD100233B62002387F827300823AD
:10461000FB61BB695A1CBA615B00FA6813441B88D2
:10462000BB84BB8C002B00D19CE0BB8C202B06D024
:10463000BB8C2E2B0AD1BA697B699A4206D097F8B7
:10464000263043F0030387F826307EE03A6AFB69A0
:104650009A4203D2BA697B699A4224D1FB690B2B37
:1046600006D197F8263043F0030387F8263079E027
:10467000BA697B699A4205D097F8263043F0030364
:1046800087F82630BA697B699A4200D96AE07B696B
:10469000BB6108233B620B23FB6197F827309B002B
:1046A00087F8273051E0BB8C7F2B14D9BB8C184680
:1046B0000021264B98470346BB84BB8C002B04D0BB
:1046C000BB8C803B254AD35CBB8497F8263043F0F3
:1046D000020387F82630BB8C002B07D0BB8C204808
:1046E00019461C4B98470346002B08D05F23BB8418
:1046F00097F8263043F0030387F826301BE0BB8C85
:10470000402B09D9BB8C5A2B06D897F8273043F099
:10471000020387F827300EE0BB8C602B0BD9BB8CD3
:104720007A2B08D897F8273043F0010387F8273011
:10473000BB8C203BBB847B689A693B6A591C3962FD
:104740001344BA8CD2B21A7063E762E7A55E4000E8
:10475000885F4100F92F4000752F40009C5F4100A9
:10476000945F41007B689B691B78E52B03D17B68D4
:104770009B6905221A70FB69082B04D197F8273032
:104780009B0087F8273097F8273003F00C030C2B99
:1047900005D097F8273003F00303032B05D197F8D2
:1047A000263043F0020387F8263097F8263003F0CE
:1047B0000203002B17D197F8273003F00303012BD6
:1047C00005D197F8263043F0100387F8263097F884
:1047D000273003F00C03042B05D197F8263043F063
:1047E000080387F826307B689B690B3397F82620EF
:1047F0001A70002318462837BD4680BD80B584B0A6
:1048000000AF786039603B681B782F2B03D03B6882
:104810001B785C2B02D13B6801333B607B68002234
:104820009A603B681B781F2B09D8786800212F4BB2
:1048300098470346FB737B6800225A6151E03B4670
:10484000786819462A4B98470346FB73FB7B002B7D
:1048500000D046E07868274B98470346FB737B6897
:104860009B69DB7ABB73FB7B002B0CD0FB7B042B9F
:1048700000D036E0BB7B03F00403002B02D10523FC
:10488000FB732EE02DE0BB7B03F00403002B00D074
:1048900027E07B685B69BB60BB680B331B7803F068
:1048A0001003002B02D10523FB731AE0BB681533FC
:1048B0001B781B029AB2BB6814331B7813439BB25C
:1048C0009BB21A04BB681B331B781B0299B2BB68EE
:1048D0001A331B780B439BB29BB21A437B689A60D6
:1048E000ADE7FB7B18461037BD4680BDF13A40006E
:1048F000914440009940400090B583B000AF78608B
:1049000039607B685A787B683033104619463A68BC
:104910000123274CA0470346002B01D0032342E08C
:104920007B6893F82F321B029AB27B6893F82E3281
:1049300013439BB21AB21F4B9A4201D0022332E0BA
:104940007B6893F869301A067B6893F868301B041B
:104950001A437B6893F867301B021A437B6893F80D
:104960006630134323F07F42134B9A4201D1002358
:1049700019E07B6893F885301A067B6893F88430D9
:104980001B041A437B6893F883301B021A437B682D
:1049900093F88230134323F07F42074B9A4201D1B0
:1049A000002300E0012318460C37BD4690BD00BF30
:1049B000B12C400055AAFFFF4641540090B593B07A
:1049C00000AFF860B9601346FB71FB681B68FB62BF
:1049D000FB6A1B78303B3B643B6C092B0BD8FB6AB2
:1049E00001331B783A2B06D1FB6A0233FB62FB686A
:1049F000FA6A1A6001E000233B643B6C002B01D093
:104A00000B2377E2A64B3A6C53F82230BB62BB68AB
:104A1000BA6A1A60BB6A002B01D10C236AE2BB6A36
:104A20001B78002B1AD0BB6A5B7818469D4B9847C1
:104A3000034687F8273097F8273003F00103002B4F
:104A40000CD1FB79002B07D097F8273003F0040333
:104A5000002B01D00A234DE200234BE2BB6A002267
:104A60001A703B6CDAB2BB6A5A70BB6A5B78184644
:104A70008D4B9847034687F8273097F8273003F087
:104A80000103002B01D0032334E2FB79002B07D074
:104A900097F8273003F00403002B01D00A2329E202
:104AA0000023FB63B86AF96B804B9847034687F88D
:104AB000473097F84730012B33D1002387F8463031
:104AC00097F84630002B04D097F84630013B87F822
:104AD000463097F846301B0103F5DF733033BA6A6E
:104AE00013443B623B6A04331B78002B19D03B6AAA
:104AF0000B331B781A063B6A0A331B781B041A43D4
:104B00003B6A09331B781B021A433B6A08331B7844
:104B10001343FB63B86AF96B644B9847034687F805
:104B2000473097F84730032B01D10123E2E197F892
:104B30004730002B01D00D23DCE1BB6A93F83C30F9
:104B40001B029AB2BB6A93F83B3013439BB21BB271
:104B5000B3F5007F01D00D23CCE1BB6A93F8473059
:104B60001B029AB2BB6A93F8463013439BB29BB2C6
:104B7000BB63BB6B002B12D1BB6A93F857301A068C
:104B8000BB6A93F856301B041A43BB6A93F855303E
:104B90001B021A43BB6A93F854301343BB63BB6ACE
:104BA000BA6BDA61BB6A93F84030FB77BB6AFA7F75
:104BB000DA70FB7F012B04D0FB7F022B01D00D2389
:104BC00098E1FA7FBB6B02FB03F3BB63BB6A93F80C
:104BD0003D30FB77BB6AFA7F9A70FB7F002B05D0D4
:104BE000FA7FFB7F013B1340002B01D00D2381E1B5
:104BF000BB6A93F842301B029AB2BB6A93F8413009
:104C000013439BB29AB2BB6A1A81BB6A1B8903F039
:104C10000F039BB2002B01D00D236BE1BB6A93F80D
:104C200044301B029AB2BB6A93F8433013439BB2E1
:104C30009BB27B637B6B002B12D1BB6A93F8533022
:104C40001A06BB6A93F852301B041A43BB6A93F8E6
:104C500051301B021A43BB6A93F8503013437B63F5
:104C6000BB6A93F83F301B029AB2BB6A93F83E309E
:104C700013439BB2BB83BB8B002B01D10D2339E1C6
:104C8000BA8BBB6B1A44BB6A1B891B099BB21344CA
:104C9000BB617A6BBB699A420AD20D232AE100BF3D
:104CA000D00D00207D2C4000052C4000F94840002C
:104CB0007A6BBB69D21ABB6A9B78B2FBF3F37B6158
:104CC0007B69002B01D10D2314E1012387F84730C4
:104CD0007A6940F6F5739A4202D9022387F8473081
:104CE0007A694FF6F5739A4202D9032387F8473061
:104CF0007B699A1CBB6A9A61FA6BBB691A44BB6AEE
:104D00009A62BA8BFB6B1A44BB6A1A6297F84730F7
:104D1000032B1ED1BB6A1B89002B01D00D23E9E0B8
:104D2000BB6A93F85F301A06BB6A93F85E301B04C7
:104D30001A43BB6A93F85D301B021A43BB6A93F8AF
:104D40005C301A43BB6A5A62BB6A9B699B003B6337
:104D50001FE0BB6A1B89002B01D10D23CAE0BB6A8F
:104D60001A6ABB6B1A44BB6A5A6297F84730022B27
:104D700003D1BB6A9B695B000AE0BB6A9A69134670
:104D80005B0013445A08BB6A9B6903F00103134498
:104D90003B63BB6ADA693B6B03F2FF135B0A9A421F
:104DA00001D20D23A6E0BB6A4FF0FF321A61BB6A45
:104DB0000022DA6097F84730032B40F08380BB6A0B
:104DC00000225A71BB6A93F861301B029AB2BB6A27
:104DD00093F8603013439BB29BB21A46FB6B1A44A4
:104DE000BB6A5A61BB6A5978BB6A03F13002BB6A7D
:104DF0005B69084611461A460123404CA04703460A
:104E0000002B5FD1BB6A93F82F321B029AB2BB6AA8
:104E100093F82E3213439BB21AB2394B9A4251D1B6
:104E2000BB6A93F833301A06BB6A93F832301B041E
:104E30001A43BB6A93F831301B021A43BB6A93F8DA
:104E400030301A432F4B9A423CD1BB6A93F8173249
:104E50001A06BB6A93F816321B041A43BB6A93F80E
:104E600015321B021A43BB6A93F814321A43264BBD
:104E70009A4227D1BB6A93F81F321A06BB6A93F88D
:104E80001E321B041A43BB6A93F81D321B021A43DD
:104E9000BB6A93F81C321A43BB6ADA60BB6A93F8A8
:104EA0001B321A06BB6A93F81A321B041A43BB6AF8
:104EB00093F819321B021A43BB6A93F818321A434B
:104EC000BB6A1A61BB6A97F847201A700F4B1B88A0
:104ED00001339AB20D4B1A800C4B1A88BB6ADA80E8
:104EE000BB6A0022DA62BB6A00221A71B86A084BF8
:104EF0009847002318464C37BD4690BDB12C400062
:104F000055AAFFFF5252614172724161D40D0020D7
:104F10003133400080B582B000AF78600B467B80B3
:104F20007B68002B08D07B681B78002B04D07B6843
:104F3000DB887A889A4201D009230CE07B685B7891
:104F40001846074B9847034603F00103002B01D096
:104F5000032300E0002318460837BD4680BD00BF8C
:104F60007D2C400080B584B000AF03463960FB71F2
:104F7000FB79002B01D00B2319E0FA790E4B53F883
:104F80002230FB60FB68002B05D0F8680B4B98477C
:104F9000FB6800221A703B68002B02D03B6800229D
:104FA0001A70FA79044B396843F822100023184626
:104FB0001037BD4680BD00BFD00D0020313340000A
:104FC00080B5ADF5147D00AF07F10C03186007F153
:104FD00008031960FB1D1A7007F10C031B680022FF
:104FE0001A60FB1DFA1D127802F01F021A70FB1DD9
:104FF0001B7823F00103DBB207F1080107F5077204
:10500000084611461A469B4B9847034687F84F328D
:1050100007F50473C7F8343207F11003C7F83832C4
:1050200097F84F32002B0BD107F108031B6807F5E7
:10503000077210461946904B9847034687F84F323F
:10504000D7F83032C7F8483297F84F32002B19D1D1
:10505000D7F84832002B03D1062387F84F3211E0EE
:10506000FB1D1B7823F00103002B0CBF0023012341
:10507000DBB207F5077210461946804B9847034686
:1050800087F84F32FB1D1B7803F01C03002B00F048
:10509000E08097F84F32002B1DD097F84F32042B49
:1050A0000ED1774B98470346002B06D007F50773C0
:1050B0001846744B9847034600E0122387F84F3296
:1050C000FB1DFA1D127842F008021A70D7F8303230
:1050D000C7F8483214E0D7F848320B331B7803F096
:1050E0001103002B03D0072387F84F3208E0FB1D84
:1050F0001B7803F00403002B02D0082387F84F32FB
:1051000097F84F32002B40F0A380FB1D1B7803F073
:105110000803002B00F09C805B4B9847C7F84402C3
:10512000D7F848320E33D7F84422D2B21A70D7F8E3
:1051300048320F33D7F8442292B2120A92B2D2B256
:105140001A70D7F848321033D7F84422120CD2B272
:105150001A70D7F848321133D7F84422120ED2B25F
:105160001A70D7F848320B3300221A70D7F8483239
:105170001C3300221A70D7F848321D3300221A70EF
:10518000D7F848321E3300221A70D7F848321F333E
:1051900000221A70D7F8483215331B781B029AB2D6
:1051A000D7F8483214331B7813439BB29BB21A04CE
:1051B000D7F848321B331B781B0299B2D7F8483214
:1051C0001A331B780B439BB29BB21343C7F8403290
:1051D000D7F848321A3300221A70D7F848321B33F6
:1051E00000221A70D7F84832143300221A70D7F808
:1051F0004832153300221A70D7F81C3201221A7176
:10520000D7F84032002B23D0D7F81C32DB6AC7F81E
:105210004432D7F81C321846D7F840121B4B984737
:10522000034687F84F3297F84F32002B10D1D7F84A
:105230001C32D7F84022013ADA60D7F81C321846FF
:10524000D7F84412124B9847034687F84F3232E0A2
:1052500031E097F84F32002B2DD1D7F848320B337D
:105260001B7803F01003002B14D0042387F84F326F
:1052700021E000BFBD494000FD4740003130400003
:105280000531400001424000D12E40002D39400040
:1052900081334000FB1D1B7803F00203002B0AD072
:1052A000D7F848320B331B7803F00103002B02D0F0
:1052B000072387F84F3297F84F32002B35D1FB1D6B
:1052C0001B7803F00803002B05D0FB1DFA1D127894
:1052D00042F020021A70D7F81C32DA6A07F10C0388
:1052E0001B68DA6107F10C031B68D7F848221A62C1
:1052F000FB1D1B7823F00103002B0CBF00230123AF
:10530000DBB207F5077210461946394B984702463B
:1053100007F10C031B685A6207F10C031B685B6AF8
:10532000002B02D1022387F84F3297F84F32002B1F
:1053300056D107F10C031B68FA1D12789A71D7F841
:10534000483215331B781B029AB2D7F8483214330F
:105350001B7813439BB29BB21A04D7F848321B3315
:105360001B781B0299B2D7F848321A331B780B43CB
:105370009BB29BB21A4307F10C031B681A61D7F862
:1053800048321F331B781A06D7F848321E331B7871
:105390001B041A43D7F848321D331B781B021A43EB
:1053A000D7F848321C331B781A4307F10C031B68EB
:1053B000DA6007F10C031B6800229A6007F10C0306
:1053C0001B6800229A61D7F81C2207F10C031B68A6
:1053D0001A60D7F81C32DA8807F10C031B689A8030
:1053E00097F84F32184607F51477BD4680BD00BFC9
:1053F0004D31400090B58DB000AFF860B9607A6073
:105400003B60BB683B623B6800221A60FB681A681D
:10541000FB689B8810461946874B98470346FB77E5
:10542000FB7F002B01D0FB7F47E1FB689B79DBB260
:105430005BB2002B01DA02233FE1FB689B7903F0AA
:105440000103002B01D1072337E1FB68DA68FB6811
:105450009B68D31ABB617A68BB699A4202D9BB695F
:105460007B6025E124E1FB689B68C3F30803002B04
:1054700040F0F180FB689B685B0ADAB2FB681B684E
:105480009B78013BDBB21340FB75FB7D002B2CD1DD
:10549000FB689B68002B03D1FB681B69FB6208E07B
:1054A000FB681A68FB685B6910461946634B9847AE
:1054B000F862FB6A012B08D8FB689B7963F07F03D5
:1054C000DAB2FB689A710223F7E0FB6AB3F1FF3F9F
:1054D00008D1FB689B7963F07F03DAB2FB689A71AD
:1054E0000123EAE0FB68FA6A5A61FB681A68FB6804
:1054F0005B6910461946524B984738613B69002B4F
:1055000008D1FB689B7963F07F03DAB2FB689A717C
:105510000223D2E0FB7D3A6913443B617B685B0A5E
:105520007B627B6A002B44D0FA7D7B6A1A44FB685D
:105530001B689B789A4206D9FB681B689B781A46C1
:10554000FB7DD31A7B62FB681B685A787B6ADBB2EF
:105550001046396A3A693B4CA0470346002B08D0F5
:10556000FB689B7963F07F03DAB2FB689A710123D1
:10557000A3E0FB689B7903F04003002B15D0FB6888
:105580009A693B69D21A7B6A9A420ED2FB689A6981
:105590003B69D31A5B023A6A1A44FB682833104607
:1055A00019464FF40072284B98477B6A5B02BB6236
:1055B0006AE0FB689A693B699A4249D0FB689B792B
:1055C00003F04003002B20D0FB681B685978FB6870
:1055D00003F12802FB689B69084611461A4601231D
:1055E0001A4CA0470346002B08D0FB689B7963F058
:1055F0007F03DAB2FB689A7101235EE0FB689B7956
:1056000023F04003DAB2FB689A71FB681B685A7892
:10561000FB682833104619463A690123094CA04714
:105620000346002B14D0FB689B7963F07F03DAB24A
:10563000FB689A71012340E0154F4000DD354000C2
:10564000A1354000B12C4000392F4000612D4000B1
:10565000FB683A699A61FB689B68C3F30803C3F56A
:105660000073BB62BA6A7B689A4201D97B68BB62ED
:10567000FB689B68C3F308032833FA681344386A4D
:105680001946BA6A0F4B98473A6ABB6A13443B62A1
:10569000FB689A68BB6A1A44FB689A603B681A68A0
:1056A000BB6A1A443B681A607A68BB6AD31A7B608B
:1056B0007B68002B7FF4D7AE002318463437BD46F5
:1056C00090BD00BF392F400090B58BB000AFF8609F
:1056D000B9607A603B60BB68BB613B6800221A60BE
:1056E000FB681A68FB689B8810461946934B9847DD
:1056F0000346FB75FB7D002B01D0FB7D77E1FB684A
:105700009B79DBB25BB2002B01DA02236FE1FB680D
:105710009B7903F00203002B01D1072367E1FB68AB
:10572000DA687B681A44FB68DB689A4202D200237D
:105730007B6046E145E1FB689B68C3F30803002BEF
:1057400040F00B81FB689B685B0ADAB2FB681B6860
:105750009B78013BDBB21340BB75BB7D002B3DD179
:10576000FB689B68002B10D1FB681B697B627B6A1E
:10577000002B13D1FB681B6818460021704B98471B
:105780007862FB687A6A1A6108E0FB681A68FB684D
:105790005B69104619466A4B984778627B6A002B12
:1057A00000D112E17B6A012B08D1FB689B7963F081
:1057B0007F03DAB2FB689A71022318E17B6AB3F1C6
:1057C000FF3F08D1FB689B7963F07F03DAB2FB6887
:1057D0009A7101230BE1FB687A6A5A61FB689B7935
:1057E00003F04003002B20D0FB681B685978FB684E
:1057F00003F12802FB689B69084611461A460123FB
:10580000504CA0470346002B08D0FB689B7963F0FF
:105810007F03DAB2FB689A710123E8E0FB689B79A9
:1058200023F04003DAB2FB689A71FB681A68FB68E0
:105830005B6910461946444B984738613B69002B19
:1058400008D1FB689B7963F07F03DAB2FB689A7139
:105850000223CCE0BB7D3A6913443B617B685B0A61
:10586000FB61FB69002B46D0BA7DFB691A44FB68DB
:105870001B689B789A4206D9FB681B689B781A467E
:10588000BB7DD31AFB61FB681B685A78FB69DBB2EE
:105890001046B9693A692B4CA0470346002B08D043
:1058A000FB689B7963F07F03DAB2FB689A7101238E
:1058B0009DE0FB689A693B69D21AFB699A4216D24D
:1058C000FB6803F12802FB6899693B69CB1A5B020C
:1058D000B9690B44104619464FF400721B4B9847A8
:1058E000FB689B7923F04003DAB2FB689A71FB698D
:1058F0005B023B6251E0FB689A693B699A4229D09E
:10590000FB689A68FB68DB689A4223D2FB681B68D5
:105910005A78FB682833104619463A6901230C4C23
:10592000A0470346002B15D0FB689B7963F07F03EB
:10593000DAB2FB689A71012359E000BF154F4000AD
:10594000D1394000612D4000A1354000392F400081
:10595000B12C4000FB683A699A61FB689B68C3F30D
:105960000803C3F500733B623A6A7B689A4201D927
:105970007B683B62FB689B68C3F308032833FA68C3
:1059800013441846B9693A6A1B4B9847FB689B79E0
:1059900043F04003DAB2FB689A71BA693B6A134478
:1059A000BB61FB689A683B6A1A44FB689A603B6873
:1059B0001A683B6A1A443B681A607A683B6AD31AD1
:1059C0007B607B68002B7FF4B6AEFB689A68FB684F
:1059D000DB689A4203D9FB689A68FB68DA60FB6867
:1059E0009B7943F02003DAB2FB689A7100231846D2
:1059F0002C37BD4690BD00BF392F400090B587B011
:105A000000AF78607B681A687B689B8810461946EF
:105A10005B4B98470346FB75FB7D002B40F0AB804A
:105A20007B689B7903F02003002B00F0A4807B6847
:105A30009B7903F04003002B19D07B681B685978D1
:105A40007B6803F128027B689B69084611461A4669
:105A500001234C4CA0470346002B01D001238BE0CF
:105A60007B689B7923F04003DAB27B689A717B688C
:105A70001A687B68DB6910461946434B9847034612
:105A8000FB75FB7D002B76D17B681B6A3B613B6914
:105A90000B333A690B32127842F02002D2B21A70FC
:105AA0003B691C337A68D268D2B21A703B691D33E5
:105AB0007A68D26892B2120A92B2D2B21A703B6974
:105AC0001E337A68D268120CD2B21A703B691F3347
:105AD0007A68D268120ED2B21A703B691A337A68A9
