:020000040040BA
:10000000A064002039DF400001E04000A5E340008B
:10001000ADE34000B5E34000BDE340000000000058
:10002000000000000000000000000000F57C40001F
:1000300001E0400000000000CD7D4000C5E340002D
:1000400001E0400001E0400001E0400001E040002C
:1000500001E0400001E0400001E04000000000003D
:1000600011BA400075BA400000000000E5DB400016
:10007000FDDB400000000000DDBA400045BB400051
:10008000000000000000000001E0400001E040002E
:1000900001E0400001E0400001E0400001E04000DC
:1000A00001E0400001E0400000000000000000000E
:1000B0000000000001E0400001E0400001E04000DD
:1000C00001E0400001E0400001E0400010B5054CB7
:1000D000237833B9044B13B10448AFF300800123F4
:1000E000237010BD940D00200000000054964100C4
:1000F00008B5064B1BB106480649AFF30080064819
:10010000036813B1054B03B1984708BD0000000018
:1001100054964100980D00205496410000000000C4
:1001200080B483B000AF78607B68034A1A600C37F4
:10013000BD465DF8047B7047050000A590B585B00D
:1001400002AF7860204B1B78002B30D11F4B1B78FF
:10015000042B2AD801A252F823F000BF71014000FD
:100160007901400081014000890140009701400071
:100170000E20174B984719E00D20154B984715E0B6
:100180000C20134B984711E00E20114B98470C2080
:100190000F4B98470AE00E200D4B98470C200C4B54
:1001A00098470D200A4B984700E000BF09E0094B33
:1001B0001B68002200921846012100220023064CF1
:1001C000A0470C37BD4690BD7C1F0020741F002047
:1001D0008DAA4000781F0020F595400090B587B0AB
:1001E00002AF78600023FB737B681A78124B1A7099
:1001F0007B685A78104B5A707B689A780E4B9A70CD
:100200000E4B00930E48FA21012200230D4CA0470B
:1002100002460D4B1A600C4B1B68002B07D10A4B92
:100220001B680A4819460A4B98470123FB73FB7B5E
:1002300018461437BD4690BD801F00203D01400088
:100240002480410089954000781F002030804100C3
:10025000DDEA400090B587B002AF02460B46FA7166
:10026000BB710023FB73554B1B681846544B9847D2
:100270000346002B16D0514B1B68002200921846F3
:100280000121002200234F4CA0474C4B1C684E4BD1
:100290009847034600220092204600211A46002378
:1002A000484CA0470E200121484B98470D200121C2
:1002B000464B98470C200121444B9847444BFA7910
:1002C0001A70444BBA791A70FB79052B40D801A2F9
:1002D00052F823F0ED024000F70240000103400015
:1002E0000B0340001D034000370340000E20002197
:1002F000364B98472DE00D200021344B984728E0DD
:100300000C200021314B984723E00E2000212F4B79
:1003100098470C2000212D4B98471AE00E20002111
:100320002A4B98470C200021284B98470D2000218C
:10033000264B98470DE00E200121244B98470C20B6
:100340000121224B98470D200121204B984700E0C6
:1003500000BFBB79002B14BF00230123DAB2FB7965
:10036000052B0CBF00230123DBB21340DBB2002BB3
:100370000DD0124B1C68144B984703460022009284
:10038000204600211A4600230E4CA04711E00B4BDB
:100390001B6818460A4B98470346002B09D0074BA9
:1003A0001B68002200921846012100220023054C00
:1003B000A047FB7B18461437BD4690BD781F002030
:1003C000D99A4000F5954000558A4000D9A94000CF
:1003D000741F00207C1F002080B59EB000AF7860A5
:1003E00000237B6707F108026423104600211A46A8
:1003F0000D4B984700233B677B68FB66FB6E1A68D2
:1004000007F10803104619466422084B9847034633
:10041000002B05D107F1080318466421044B9847C7
:100420000A20044B9847E9E791F1400085B7400066
:100430002D0640005588400080B584B000AF0023F1
:10044000FB600923BB6003237B605D485D4B9847DD
:100450000023FB6025E05C48F9685A4B98475B4AEB
:10046000FB682C2101FB03F3134418335B685848E5
:100470001946544B9847554AFB682C2101FB03F35E
:10048000134410335B681846524B98470346524852
:1004900019464C4B98470120504B9847FB68013355
:1004A000FB60FA687B689A42D5D34D48454B984724
:1004B0000023FB6055E04B49FA681346DB009B1AAA
:1004C000DB000B441B68484819463E4B984745499A
:1004D000FA681346DB009B1ADB000B4418335B6899
:1004E00042481946374B98473E49FA681346DB00A5
:1004F0009B1ADB000B4420331B683D481946314BE7
:1005000098470120354B98473649FA681346DB0077
:100510009B1ADB000B4420339B6836481946294B55
:1005200098473049FA681346DB009B1ADB000B44FE
:1005300030335B6830481946224B98472949FA689E
:100540001346DB009B1ADB000B4420335B682B480F
:1005500019461C4B98470120204B9847FB680133F4
:10056000FB60FA68BB689A42A5D3254B1B682548F7
:100570001946144B98470120184B9847224B1B688B
:10058000224819460F4B9847214B1B681846214BB0
:10059000984703463B60204839680A4B98471F4BF1
:1005A000984703461E481946064B98471D481E4B60
:1005B00098471C48034B98471037BD4680BD00BF85
:1005C0005C804100DDEA400070804100E0020020D4
:1005D0007880410055B74000908041005588400028
:1005E000A8804100B0000020B8804100C4804100D4
:1005F000D8804100F0804100088141002C814100F9
:100600001412002048814100A01D00206481410097
:10061000981D00208183400080814100818A400034
:1006200098814100B40D0020998A400080B584B0C3
:1006300000AF786039600023FB73786885493A68B9
:10064000854B98470346002B03D18448844B984739
:100650007CE1786883493A687F4B98470346002BD2
:1006600003D181487E4B984770E178687F493A68AA
:10067000794B98470346002B04D17B483968784B67
:10068000984763E178687A493A68734B984703461C
:10069000002B12D17748784B98477848764B98478B
:1006A0007748754B98477748774B984777486C4B16
:1006B0009847774B01221A7048E1786875493A6883
:1006C000654B98470346002B12D16A48724B9847F6
:1006D0006A48714B98476A486F4B984769486F4B17
:1006E00098476F485E4B9847694B00221A702DE17E
:1006F00078686C493A68584B98470346002B0AD1F2
:100700000A200021684B98476848554B9847604B32
:1007100000221A701AE1786865493A684E4B98478A
:100720000346002B0AD10A2001215F4B98476148FC
:100730004B4B9847564B00221A7007E178685E4988
:100740003A68454B98470346002B19D10B200021EE
:10075000554B984709200021534B98473220574B5F
:1007600098470B200121504B9847092001214E4BFF
:10077000984753483A4B9847454B00221A70E5E09A
:10078000786850493A68344B98470346002B11D19A
:100790004D484E4B98474E484C4B98474D484B4B15
:1007A00098474D4B98474D482D4B9847384B002262
:1007B0001A70CBE078684A490722274B98470346CE
:1007C000002B0CD17868474B98470346172B40F213
:1007D000BD807B6807331846434B9847B6E078687E
:1007E000424903221C4B98470346002B14D1404832
:1007F00040491B4B984740484049414A184B98474D
:1008000040484149164B9847404B9847034640485B
:100810001946134B984799E078683E493A680E4B61
:1008200098470346002B09D12A483B4B98473B4841
:10083000394B98472648384B984787E078683849BD
:100840003A68054B98470346002B6DD1354B9847C6
:100850007CE000BFA881410079F84000B8814100E8
:10086000DDEA4000DC814100F0814100148241005A
:1008700020824100E0020020CDCB40000C0300208C
:100880003803002064030020F5C140002C824100A1
:10089000B00D002044824100F5CB400019C2400059
:1008A0005082410068824100D9A94000788241000D
:1008B0008882410098824100A8824100558840000A
:1008C000B4824100C082410064000020D5B64000DF
:1008D0007C0000209400002011A84000D08241003C
:1008E000F082410019F8400071094000F88241008F
:1008F000FC824100148341001C834100308341008D
:100900003C83410048834100381B0020E50940003A
:100910005C834100708341001DB940004C00002001
:10092000808341003904400078680B493A680B4BDA
:1009300098470346002B03D109480A4B984705E026
:1009400009487968094B98470023FB73FB7B1846DD
:100950001037BD4680BD00BF8C83410079F8400050
:1009600000140E402101400094834100DDEA400064
:1009700090B591B006AF786007F1240207F120032B
:1009800007F11C01009107F11801019107F1140111
:10099000029107F11001039107F10C0104917868AD
:1009A0000B490C4CA0470346072B0DD179693A69D6
:1009B000FB680948094CA047796A3A6AFB69B8693B
:1009C00000900548064CA0472C37BD4690BD00BF9F
:1009D000B483410015F4400060140E40AD3F400068
:1009E0009D41400090B587B002AF07F10C0107F1BF
:1009F00008023B1D0748084CA047FA68BB687968A5
:100A0000009106480649074CA047044B1846143786
:100A1000BD4690BD60140E40E93E4000A80F002086
:100A2000CC834100C9F3400090B587B000AF786037
:100A300000237B6100233B610023FB60434B98470D
:100A40000246434B1A60434B30221A70404B1B68DE
:100A5000184600210A2200233F4CA0470346012BE1
:100A60001DD13E4B1B68002B11D03C4B1B68B3F5CE
:100A7000007F0CD8394B1B6839483A491A463A4B23
:100A80009847364B1B687B61344B00221A60304B11
:100A90001B681846002100220023344CA047344B29
:100AA0001B78012B08D13348334B9847334B002236
:100AB0001A702F4B00221A70304B1B78DBB2002BC0
:100AC00040D07B69002B3DD000233B6123E02B4BC2
:100AD0001B78DBB2002B0DD03A69214B1A4407F189
:100AE0000C03244811467A69254CA04703461A4650
:100AF000244B1A70FB687A69D31A7B61FB683A69E8
:100B000013443B61204B1A68FB681A441E4B1A6061
:100B100001201E4B98477B69002BD8D115481C4BF0
:100B2000984703461A46174B1A70164B1B78002B32
:100B300005D0144B1B7817481946174B98470120CE
:100B4000124B98470A20114B98477FE7957F40004A
:100B50000C1000201C140020DD8140001012002029
:100B600018120020101000205DF040001980400095
:100B700019140020841F0020AD76400018140020B6
:100B8000E1714000B4140020141200205588400088
:100B900015754000DC834100DDEA400090B585B06A
:100BA00000AF786039600023FB731A4B1B6818464E
:100BB000002105220023184CA0470346012B21D118
:100BC000164B1A683B681344B3F5007F0FD2134BE2
:100BD0001A68134B1344184679683A68114B9847C2
:100BE0000E4B1A683B681A440C4B1A6001E0012353
:100BF000FB73084B1B6818460021002200230A4C97
:100C0000A04701E00123FB73FB7B18461437BD4668
:100C100090BD00BF0C100020DD81400010120020AC
:100C2000101000205DF040001980400090B5ADF537
:100C3000557D02AF614B07F534740FCB07C4238099
:100C400002341B0C237007F50E731A4696231046C8
:100C500000211A465A4B984707F50B7300221A6079
:100C6000584B1B78DBB2012B01D10123A1E03A1DC7
:100C700007F53473104619461322534B9847034621
:100C800087F8473397F84733002B01D0012390E0D2
:100C90003B1DDB68002B04D107F50B7301221A60A2
:100CA00022E0391D07F5387207F50D730846114625
:100CB0006422464CA047034687F8473397F84733EA
:100CC000002B01D0012374E007F5387207F50B7390
:100CD00010463F491A463F4B984707F50B731B6870
:100CE0005A1C07F50B731A6007F50B731B6807F5A1
:100CF0003872104638491A46384B98473B1D1846FB
:100D00000021374B984707F538731846354B9847FD
:100D10000246381D07F5387107F50C73324CA047B1
:100D2000034687F8473397F84733002B01D0012358
:100D30003FE03B1D18462D4B984707F50B731B688A
:100D400000932B4896212B4A2B4B2C4CA0472C4B25
:100D50001B6818460021642200232A4CA047034642
:100D6000012B26D1284822491222174B98470346C7
:100D700087F8473397F84733002B03D12348244B98
:100D8000984702E02348224B98471F4BDB681E48D8
:100D90001946134B9847034687F84733094B0122FE
:100DA0001A70174B1B6818460021002200231A4CAA
:100DB000A047184607F55377BD4690BD4C844100C7
:100DC00091F1400018140020D96A40000D6F4000D6
:100DD000FC83410015F4400004844100C9F3400045
:100DE000F176400019F84000E1714000AD76400016
:100DF0001C1400200C844100381B002061F34000CB
:100E00000C100020DD814000841F00202884410058
:100E1000DDEA4000348441001980400098B500AFFD
:100E20000F4B1B78DBB2002B01D1012315E00D4BDA
:100E30001B6818460021642200230B4CA047034680
:100E4000012B0AD1094B01221A70064B1B68184668
:100E5000002100220023064CA047184698BD00BF81
:100E6000181400200C100020DD814000191400200F
:100E70001980400080B483B000AF78607B68072B96
:100E800025D801A252F823F0A90E4000AF0E400071
:100E9000B50E4000BB0E4000BF0E4000C30E400028
:100EA000C70E4000CB0E40004FF4FA4310E04FF461
:100EB00000430DE04FF400430AE0084B08E0084B04
:100EC00006E0084B04E0084B02E0074B00E000237B
:100ED00018460C37BD465DF8047B704700093D009D
:100EE00000127A00001BB7000024F40080B500AFA8
:100EF0000620044B9847024613461B019B1A1846CE
:100F000080BD00BF750E400080B500AF024B984712
:100F100003465B08184680BDED0E400080B582B0E8
:100F200000AF786000200021024B98470837BD468B
:100F300080BD00BF2910400080B483B000AF78604E
:100F4000034B01221A700C37BD465DF8047B7047D5
:100F5000C814002090B587B002AF7860244B00938E
:100F60002448254900220023244CA0470246244B54
:100F70001A60234B1B68002B05D1214B1B682148AD
:100F80001946214B98470A200421204B98470246D6
:100F90001F4B1A601E4B1B68002B03D11D481A4BB8
:100FA000984721E000233B730023FB81184B1A680C
:100FB00007F10C031046194605220023164CA047E2
:100FC000134B1A6807F10C031046194664220023DC
:100FD000124CA0470346012B02D1F868104B9847EA
:100FE0003220104B9847EBE71437BD4690BD00BF49
:100FF0001D0F40005C844100E0930400899540008F
:10100000B02100206C844100DDEA4000CD7E40002C
:10101000B81400209484410019804000DD81400014
:10102000951040005588400090B585B000AF02464D
:101030000B46FA71BB800023FB73FB793B72BB88C4
:101040007B810C4B1B68002B0ED00A4B1A6807F1F2
:1010500008031046194605220023074CA047034603
:10106000012B01D00123FB73FB7B18461437BD46CF
:1010700090BD00BFB81400201980400080B400AFBC
:10108000034B1B781846BD465DF8047B704700BFD4
:10109000BC14002080B584B000AF78603B790B2B86
:1010A00000F2E38001A252F823F000BFDD104000FF
:1010B0004B114000251140009B1140006B12400075
:1010C000911140009B1140009B114000AD11400068
:1010D000DB1140009B1140004B124000654B1B7818
:1010E000042B02D1644B984719E0624B1B78022B0A
:1010F00002D1624B984712E05E4B1B78032B02D162
:101100005F4B98470BE05B4B1B78052B02D15D4B87
:10111000984704E0574B1B78012B00D1A6E05A4BAF
:101120009847A3E0534B1B78032B04D1544B9847AB
:10113000564B984708E04F4B1B78042B04D14E4B7D
:101140009847534B984791E090E04A4B1B78042B0B
:1011500002D1494B984711E0464B1B78022B00D136
:1011600084E0444B1B78032B02D1454B984705E0A4
:10117000404B1B78052B01D1424B9847454B1B68D0
:10118000012B02D1444B984770E0444B98476DE0E7
:10119000384B1B78012B00D168E0364B1B78042BB1
:1011A00001D1354B98473D4B98475FE0314B1B7859
:1011B000042B02D1304B98470CE02E4B1B78032BAD
:1011C00002D12F4B984705E02A4B1B78052B01D104
:1011D0002C4B98472C4B984748E0264B1B78022B0A
:1011E00000D043E02E4B1B780133DAB22C4B1A703F
:1011F0000023FB6012E0FB881A46FB689A420AD182
:101200000122FB6802FA03F3DAB2264B1B78134380
:10121000DAB2244B1A70FB680133FB60FB68022BC7
:10122000E9DD1F4B1B78022B02D81F4B98470BE0C0
:101230001C4B1B78052B02D1154B984704E00A2064
:1012400000211A4B984711E010E00A4B1B78012B44
:1012500000D00BE0164B98470346002B02D10E4BF3
:10126000984703E00D4B984700E000BF1037BD469C
:1012700080BD00BFBC140020AD154000011540002A
:101280003D164000AD164000B51240003515400037
:10129000F5154000301B0020291440006516400061
:1012A000AC210020AD210020D516400029104000BF
:1012B000151840002DE9F04F83B000AF474B0122D5
:1012C0001A7005200121464B98474648464B9847DF
:1012D0004648454B9847464B00221A60072001219B
:1012E000444B984708200121424B98474248434BC2
:1012F0009847434B98474AE00020424B9847424B5F
:101300009847034618464FF0000102460B464FEA45
:10131000830949EA92794FEA820842464B465D01C9
:1013200045EAD2655401A41A65EB0305241845EB80
:1013300001054FEAC50B4BEA547B4FEAC40A5446F9
:101340005D462046294643F2AF624FF00003121873
:1013500043EB01032D4E1046194643F2B0624FF0A5
:101360000003B04702460B4613461846284B9847E1
:1013700000202849284B9847264B1B78002B03D187
:10138000244B01221A7002E0224B00221A70214BDA
:101390001B78002BB0D01F4B00221A701F4B9847B0
:1013A00007200021134B984708200021114B984734
:1013B0000B233B710023FB80194B1B68002B08D0CB
:1013C000174B1A683B1D1046194605220023154C81
:1013D000A0470C37BD46BDE8F08F00BFBC1400200D
:1013E00055024000E002002069CF40003803002091
:1013F000301B0020D9A94000D4844100DDEA400020
:1014000049174000F5DE4000090F4000E1E44000CC
:1014100001000020B82100203DAA4000B51740007F
:10142000B81400201980400090B589B004AF0023A3
:10143000FB7309233B710023FB80234B02221A70AC
:1014400001200021214B9847214B00221A700720D0
:101450000121204B9847082001211E4B984764200A
:101460001D4B9847072000211A4B98470820002160
:10147000184B98476420184B9847184B5B6A002B11
:1014800016D007230093164B0193002302930023E9
:101490000393144814494FF48072104B134CA04727
:1014A000B860BB68012B03D01148B968114B98474D
:1014B0001148124B984703461A46FB7B1343FB73B4
:1014C0001437BD4690BD00BFBC140020550240003B
:1014D000AC210020D9A9400055884000E00200203E
:1014E000C0140020E1C94000EC8441003186400076
:1014F000F0844100DDEA400064030020DDC14000CB
:1015000080B500AF09200021074B98470B20002130
:10151000054B9847054B1B68002B04D0034B1B68F9
:101520001846034B984780BDD9A94000C01400203D
:10153000A987400080B500AF104B04221A70104BF1
:101540001A68104B1A60002000210F4B98470F4B70
:10155000984740F6B8300E4B9847002001210A4BBF
:1015600098470C480C4B98470C480B4B98470C4835
:10157000094B98470B480C4B984780BDBC14002082
:101580003C1F0020C4140020550240002D0C4000D8
:1015900055884000E0020020CDCB40000C03002025
:1015A0003803002064030020F5C1400080B500AF7F
:1015B0000848094B98470948074B98470848064B85
:1015C00098470848084B98476420084B9847084BB1
:1015D000984780BDE0020020F5CB40000C030020BE
:1015E000380300206403002019C2400055884000E1
:1015F0001D0E400090B583B002AF0B4B03221A7052
:101600000A4B1C680A4B984703460022009220466A
:1016100000211A460023074CA04702200121064B57
:1016200098470437BD4690BDBC140020B02100206F
:10163000558A4000F59540005502400090B583B0B2
:1016400002AF064B1B6800220092184601210022BF
:101650000023034CA0470437BD4690BDB0210020B5
:10166000F595400090B583B002AF0B4B05221A7080
:101670000A4B1C680A4B98470346002200922046FA
:1016800000211A460023074CA04703200021064BE7
:1016900098470437BD4690BDBC140020B0210020FF
:1016A000558A4000F59540005502400090B583B042
:1016B00002AF064B1B68002200921846012100224F
:1016C0000023034CA0470437BD4690BDB021002045
:1016D000F595400090B587B004AF134B1B78012BF4
:1016E00002D1114B02221A700F4B1B782C2202FBE5
:1016F00003F20E4B1344072200920D4A019200227E
:101700000292002203920B480B494FF480720B4C5B
:10171000A04778607B68012B03D009487968094BA2
:1017200098470C37BD4690BDAC210020E002002058
:10173000C0140020E1C94000EC8441003186400023
:10174000F0844100DDEA400080B500AF00200021B8
:10175000104B984703461A460F4B1A700F4B052241
:101760001A600F4B5B6918460E4B98470C4B1B6C6D
:1017700018460C4B98470A4BDB6E1846094B9847A6
:101780000948084B9847094B98470020084B984751
:1017900080BD00BF7D6A4000C914002010E000E059
:1017A000E0020020D5B640004C00002009AC40000B
:1017B000B5AB400080B500AF00200E4B98470E4BF4
:1017C00098470E4B5B6918460D4B98470B4B1B6CAB
:1017D00018460B4B9847094BDB6E1846084B984749
:1017E0000848074B98470848084B9847084B07227A
:1017F0001A6080BD7DAB400099A74000E002002048
:10180000DDB140004C00002014854100DDEA4000BD
:1018100010E000E090B585B002AF0123FB717B1DA5
:10182000102019464F4B98477B79012B04D04E4B23
:1018300000221A70FB7990E04C4B00934C484FF417
:101840009671002200234B4CA04702464A4B1A6077
:10185000494B1B68002B05D1474B1B68474819466D
:10186000474B9847444B1C68464B98470346002219
:101870000092204600211A460023434CA047002036
:10188000424B98470346BB71BB79012B15D14048A9
:101890003B4B98473F483A4B984700BF00203E4B90
:1018A00098470346022B0CBF00230123DBB21A46E4
:1018B0002D4B1B781343002BF0D1BB79002B0CBFB1
:1018C00000230123DBB21A46274B1B781343002B5E
:1018D000D5D1254B00221A70274B1B68002200929D
:1018E0001846012100220023274CA047224B1B68E9
:1018F000002200921846032100220023224CA04718
:10190000BB79002B28D1254800214FF40C72244BC1
:10191000984700202149234B984703461A46224BFB
:101920001A70214B1B780B2B04D12048144B98477D
:10193000FB7912E00023FB711D481E4B98470346BC
:10194000002B06D00123FB711B480D4B9847FB79F8
:1019500003E01A4B01221A60FB7918460C37BD468A
:1019600090BD00BF3DAA4000C8140020390F4000C0
:101970002885410089954000B42100206C844100F5
:10198000DDEA4000558A4000F5954000F92F4000FF
:101990004485410058854100892B4000CC1400202B
:1019A00091F140007D6A4000FC16002080854100D6
:1019B0009885410021A04000A8854100301B0020EF
:1019C00080B487B000AFF86079813A81FB717A8981
:1019D0003B89D31A0733002B00DA0733DB10013BB6
:1019E000FA6813441B781A463B8903F0070342FA4E
:1019F00003F37B613B8903F00702FB791344082B57
:101A000016DD7A893B89D31A0733002B00DA0733B6
:101A1000DB10023BFA6813441B781A463B8903F03B
:101A20000703C3F1080302FA03F37A6913437B61E6
:101A30003B8903F00702FB791344102B16DD7A89EA
:101A40003B89D31A0733002B00DA0733DB10033B43
:101A5000FA6813441B781A463B8903F00703C3F165
:101A6000100302FA03F37A6913437B613B8903F0A5
:101A70000702FB791344102B16DD7A893B89D31AB0
:101A80000733002B00DA0733DB10033BFA681344FB
:101A90001B781A463B8903F00703C3F1100302FACF
:101AA00003F37A6913437B61FB79012202FA03F3A2
:101AB000013B7A6913407B617B6918461C37BD4640
:101AC0005DF8047B704700BF80B483B000AF7860DE
:101AD0007B68072B25D801A252F823F0FD1A40009D
:101AE000031B4000091B40000F1B4000131B40005C
:101AF000171B40001B1B40001F1B40004FF4FA4304
:101B000010E04FF400430DE04FF400430AE0084BAF
:101B100008E0084B06E0084B04E0084B02E0074BE6
:101B200000E0002318460C37BD465DF8047B704783
:101B300000093D0000127A00001BB7000024F400E9
:101B400080B500AF0620044B9847024613461B01A0
:101B50009B1A184680BD00BFC91A400080B500AF6F
:101B6000024B984703465B08184680BD411B400066
:101B700080B489B000AF78607B68FB61FB69BB61B2
:101B8000BB697B617B695B093B613B6903F50013C2
:101B900003F207735B02DA6BFB69FB60FB6803F01F
:101BA0001F03012101FA03F31340002B0CBF002394
:101BB0000123DBB218462437BD465DF8047B70472D
:101BC0002DE9B04F00AF2B4B1B68002B13D12A4BD4
:101BD00001221A70274C294B98470246284BA3FB39
:101BE00002135B0A4FF47A7202FB03F36360214B2A
:101BF00001221A603BE0204B00221A701F4B9847CD
:101C0000034618464FF0000102460B464FEA830B8D
:101C10004BEA927B4FEA820A52465B465D0145EAF7
:101C2000D2655401A41A65EB0305241845EB0105A0
:101C30004FEAC50949EA54794FEAC40844464D467B
:101C40002046294643F2AF624FF00003121843EBDF
:101C500001030C4C1046194643F2B0624FF00003EA
:101C6000A04702460B4613461846074B9847BDE867
:101C7000B08F00BF10E000E0081700205D1B40009F
:101C8000D34D6210E1E440000100002080B400AFB9
:101C90000C4B1B7883F00103DBB2002B01D0012336
:101CA0000BE0094B1B6803F48033002B04D0064B78
:101CB00000221A60012300E000231846BD465DF8AB
:101CC000047B70470817002010E000E080B400AFEC
:101CD000054B1B78002B02D0044B00221A60BD4636
:101CE0005DF8047B704700BF0817002010E000E09B
:101CF00080B582B000AF41F268037B6044F20150CE
:101D00001749184B9847034683F00103DBB2002BB9
:101D100001D000231FE0144B984738603B68002B2C
:101D200010DA3B6803F0C043B3F1804F09D10F4B89
:101D30001B680E4A1268D27B42F00802D2B2DA73F4
:101D400008E007E07B685A1E7A60002B01D100236F
:101D500001E0D3E7012318460837BD4680BD00BF28
:101D600000801F4099394000E539400000170020ED
:101D700080B586B000AF0346FB7140F634033B618B
:101D800041F237100021224B9847034683F00103AC
:101D9000DBB2002B01D0002335E04FF4FC137B6154
:101DA000FB79002B03D07B6943F080437B6144F2D5
:101DB00029507969164B9847034683F00103DBB23B
:101DC000002B01D000231EE0124B9847F860FB68FF
:101DD000002B0FDAFB6803F08043002B09D00E4B79
:101DE0001B680D4A1268D27B42F00802D2B2DA7345
:101DF00008E007E03B695A1E3A61002B01D100233D
:101E000001E0BDE7012318461837BD4680BD00BF7D
:101E100099394000E53940000017002080B400AF38
:101E200001231846BD465DF8047B704790B593B01A
:101E300002AF012300932E482E49402201232E4C4D
:101E4000A047034683F00103DBB2002B01D000233F
:101E50004AE03B4618460121284B9847034683F049
:101E60000103DBB2002B01D000233DE0244B984757
:101E7000034683F00103DBB2002B01D0002333E0E3
:101E8000204B9847034603F08003002B01D000232A
:101E90002AE03B4618464FF400714FF4BC7204230D
:101EA000194CA04703460F2B01D101231CE03B46F0
:101EB00018464FF400714FF488721023124CA0475B
:101EC0000346002B01D000230EE0104B9847104B27
:101ED0001B68012283F822200D4B1B680C4A1268F4
:101EE000126852001A60012318464437BD4690BD5F
:101EF0000611080001FFFF80653A4000353C4000B4
:101F0000E53C4000E5394000C11940005939400026
:101F10000017002080B584B000AF0346FB71FB7949
:101F2000042B04D0082B05D1134BFB6005E0134BA9
:101F3000FB6002E0124BFB6000BF43F20610F96841
:101F4000104B9847034683F00103DBB2002B01D00E
:101F500000230DE00C4B9847034603F08003002B51
:101F600001D0002304E0094B1B68FA795A7401235D
:101F700018461037BD4680BD0002B7010001B70109
:101F80000000B70199394000E539400000170020F2
:101F900080B500AF43F206100F49104B9847034637
:101FA00083F00103DBB2002B01D0002312E00C4BC5
:101FB0009847034603F08003002B01D0002309E07B
:101FC000084B1B68012283F82220064B1B68064A37
:101FD0001A600123184680BD0001B90399394000F9
:101FE000E5394000001700200075190380B584B062
:101FF00000AF78607B6800221A7045F208504FF4F9
:10200000D571114B9847034683F00103DBB2002BD7
:1020100001D0012314E00D4B9847F860FB68B3F141
:10202000FF3F01D101230BE0FB68C3F30B03B3F5C2
:10203000D57F01D0002303E07B6801221A700123C1
:1020400018461037BD4680BD99394000E53940003B
:1020500090B589B002AF7860002300933648002124
:102060004FF400720123354CA047034683F001036F
:10207000DBB2002B01D0002359E00023FB820FE0EC
:1020800007F1100318462E4B9847034683F00103CF
:10209000DBB2002B01D0002349E0FB8A0133FB8235
:1020A000FB8A312BECD93B69DBB203F00203DAB2D5
:1020B0007B681A70234B1B681233184680213E221E
:1020C0000C23214CA047024640F6FF739A4219D1D7
:1020D0000FE007F10C031846194B9847034683F0AD
:1020E0000103DBB2002B01D0002320E0FB8A013387
:1020F000FB82FB8A352BECD9124B1B68FA6852081D
:102100005A6010E00FE007F10C0318460C4B98479B
:10211000034683F00103DBB2002B01D0002306E06D
:10212000FB8A0133FB82FB8A7F2BECD90123184603
:102130001C37BD4690BD00BF08110800653A40003D
:10214000993B400000170020C119400080B500AF46
:102150000C4B1B689B891B0441F6093019460A4B3E
:102160009847034683F00103DBB2002B01D0002324
:1021700006E0044B1B6812331846044B98470123B2
:10218000184680BD0017002099394000F9394000F9
:10219000B0B584B000AF484B1B681233184680219D
:1021A0007A220423454CA0470346013B032B0BD85E
:1021B00001A252F823F000BFD3214000DD214000EE
:1021C000E7214000F12140003B4B1B6812221A74AA
:1021D00013E0394B1B6814221A740EE0364B1B684F
:1021E00022221A7409E0344B1B6830221A7404E06E
:1021F000314B1B6840221A7400BF2F4B1B681233EF
:1022000018468021602208232C4CA047F860FB6808
:1022100003F007022A4B53F82230BB60FB68DB084F
:1022200003F00F02274B53F822307B60224B1B68D0
:10223000BA68796801FB02F24FF47A7101FB02F28D
:102240001A601D4B1B681233184680213E220C2356
:102250001A4CA047024640F6FF739A4229D0164B0B
:102260001B681233184680213E220C23134CA047D2
:1022700003465C1C104B1B681233184680212F222A
:1022800003230E4DA8470346023304FA03F33B60D1
:10229000094B1C68084B1B681233184680215022DA
:1022A0000423064DA84703463A6802FA03F39B0A43
:1022B00063601037BD46B0BD00170020C119400053
:1022C000C885410024864100B0B584B000AF364BCC
:1022D0001B6812331846802160220823334CA04724
:1022E000F860FB6803F00702314B53F82230BB6003
:1022F000FB68DB0803F00F022E4B53F822307B60A3
:10230000294B1B68BA68796801FB02F24FF47A71B5
:1023100001FB02F21A60244B1B681233184680211D
:102320007E220223214CA0470346002B0FD01E4BD8
:102330001C681D4B1B68123318468021302216235F
:102340001A4DA847034601335B02636029E0164B30
:102350001B681233184680213E220C23134CA047E1
:1023600003465C1C104B1B681233184680212F2239
:1023700003230E4DA8470346023304FA03F33B60E0
:10238000094B1C68084B1B681233184680215022E9
:102390000423064DA84703463A6802FA03F39B0A52
:1023A00063601037BD46B0BD00170020C119400062
:1023B000C8854100E485410080B582B000AF144B70
:1023C0007B60144B1B689B891B0441F20D1019465E
:1023D000114B9847034683F00103DBB2002B01D079
:1023E000002311E00D4B9847034603F48073002B44
:1023F00002D000BF012307E07B685A1E7A60002BE1
:1024000001D1002300E0DCE718460837BD4680BD57
:10241000400D03000017002099394000E5394000C5
:1024200080B500AF124B1B689B891B0441F237102B
:102430001946104B9847034683F00103DBB2002B8B
:1024400001D0002311E041F206100221094B984708
:10245000034683F00103DBB2002B01D0002304E02C
:10246000034B1B6804225A740123184680BD00BF29
:10247000001700209939400090B585B002AF374B66
:102480001B689B891B0441F237101946344B98474F
:10249000034683F00103DBB2002B01D0002359E097
:1024A000012300932F480021082201232E4CA0472E
:1024B000034683F00103DBB2002B01D0002349E087
:1024C0003B4618460121294B9847034683F00103F8
:1024D000DBB2002B01D000233CE0254B984703469C
:1024E00083F00103DBB2002B01D0002332E03B4636
:1024F00018464021382204231E4CA0470346012BD6
:1025000009D0012B02D3022B0AD01DE0134B1B680C
:1025100010221A741DE0114B1B681A221A7418E05D
:102520003B46184640212F220123124CA047034668
:10253000012B04D1094B1B6830221A7409E0074BA8
:102540001B6820221A7404E0044B1B6810221A74C2
:1025500000BF012318460C37BD4690BD0017002070
:102560009939400033110800653A4000353C40007D
:10257000E53C4000C119400080B582B000AF034681
:10258000FB71FB79002B01D00423A8E0FA795649AE
:102590001346DB0013449B000B4408331B681846AA
:1025A000524B9847034683F00103DBB2002B18D04F
:1025B000FA794D491346DB0013449B000B44083362
:1025C0009B79012B01D14A4B9847FA79464913462A
:1025D000DB0013449B000B44083304229A7102234E
:1025E0007DE0FA7940491346DB0013449B000B441D
:1025F00008339B79042B0DD1FA793B491346DB0054
:1026000013449B000B44083301229A71394B9847BD
:10261000022364E0FA7934491346DB0013449B003B
:102620000B4408339B79012B30D1334B9847034639
:1026300083F00103DBB2002B01D002234FE0FA79D3
:1026400029491346DB0013449B000B440833022244
:102650009A71FA7924491346DB0013449B000B441A
:10266000264A1A60FA7920491346DB0013449B007E
:102670000B44103301225A70FA791B491346DB00D0
:1026800013449B000B44203300229A70FA791649B8
:102690001346DB0013449B000B4408339B79032B48
:1026A00001D103231BE0164BFA791A70FA7913460D
:1026B000DB0013449B000C4A1A44124B1A60124B65
:1026C0009847FA7908491346DB0013449B000B44F2
:1026D00008339B79022B14BF00230123DBB2184679
:1026E0000837BD4680BD00BF1C000020711B4000A4
:1026F000CD1C4000C11B40008D1C4000801A06000C
:10270000FD160020001700200D27400098B500AFEF
:10271000094B1878094B1B681968084B1B685A7CD1
:10272000064B1B6893F82230002B0CBF00230123BB
:10273000DBB2034CA04798BDFD1600200017002017
:10274000B138400080B500AF044B1B78002B04D19A
:10275000024B1B781846024B984780BDFD1600209F
:102760004539400090B583B000AF0023FB717D4B2D
:102770001B680122DA737B4B1B6800221A74794BA9
:102780001B6800229A81784B98474FF480400021C3
:10279000764B9847034683F00103DBB2002B01D050
:1027A0000023DAE0FB1D1846714B9847034683F07F
:1027B0000103DBB2002B01D00023CEE06D4B984724
:1027C000034683F00103DBB2002B01D00023C4E0F9
:1027D000644B1B68DB7B03F00103002B11D0FB79FA
:1027E0001846654B9847034683F00103DBB2002B84
:1027F00007D05C4B1B680222DA73604B9847034694
:10280000ABE0584B1B68DB7B03F00103002B0CD0C3
:1028100045F602300021554B9847034683F00103EB
:10282000DBB2002B01D0002397E045F2031000211A
:102830004E4B9847034683F00103DBB2002B01D0D7
:1028400000238AE0474B1C684D4B984703461B0CFE
:102850009BB2A381434B1B68DB7B03F00103002B7E
:102860000BD0484B9847034683F00103DBB2002BA3
:1028700001D0002371E0444B98473A4B1B689B8979
:102880001B0443F207101946384B9847034683F060
:102890000103DBB2002B01D000235EE0314B1B684B
:1028A000DB7B03F00103002B09D0384B984703462C
:1028B00083F00103DBB2002B01D000234DE0344B49
:1028C0001B781846334B98470346032B12D9254BE8
:1028D0001B68DB7B03F00103002B09D02E4B9847CC
:1028E000034683F00103DBB2002B01D0002334E068
:1028F0002A4B98472A4B98470346002B17D0194B71
:102900001B68DB7B03F00103002B0ED0154B1B680B
:102910001B7C102B09D9234B9847034683F00103F6
:10292000DBB2002B01D0002317E01C4B98470D4B66
:102930001B68DB7B03F00103002B0DD041F210106C
:102940004FF40071094B9847034683F00103DBB253
:10295000002B01D0002300E0012318460C37BD46B0
:1029600090BD00BF00170020593940009939400040
:10297000ED1F40001D1E4000711D4000A9294000B0
:10298000E53940004D214000C92240007924400033
:10299000FD1600207D384000212440000D27400016
:1029A000A13840002D1E400080B582B000AF4FF42A
:1029B00080400021564B9847034683F00103DBB269
:1029C000002B01D000239FE0524B9847034683F031
:1029D0000103DBB2002B01D0002395E045F6023065
:1029E00000214B4B9847034683F00103DBB2002BD9
:1029F00001D0002388E0484B1B6801229A81464B96
:102A00001B689B891B0441F203101946404B9847F1
:102A1000034683F00103DBB2002B01D0002373E0F7
:102A20003E4B9847034683F00103DBB2002B01D0F5
:102A3000002369E03A4B9847374B1B689B891B047E
:102A400043F207101946324B9847034683F00103BF
:102A5000DBB2002B01D0002356E02F4B1B681B7C00
:102A60003F2B3BD9BB1D18462E4B9847034683F09E
:102A70000103DBB2002B01D0002345E02A4B1B7879
:102A800018462A4B98470346032B12D9264B1B782E
:102A90001846264B984703461846254B9847034649
:102AA00083F00103DBB2002B01D000232CE0214B8B
:102AB0009847214B98470346002B11D0BB79002B38
:102AC0000ED01E4B9847034683F00103DBB2002B68
:102AD00001D0002318E0174B984701E0154B9847A9
:102AE0000A23FB710AE041F210104FF40071084B09
:102AF00098470346002B01D0012305E0FB795A1EBD
:102B0000FA71002BEFD1002318460837BD4680BD6F
:102B100099394000F11C4000001700204D21400071
:102B20009121400051204000FD1600207D384000DA
:102B3000151F40000D274000A1384000911F4000A4
:102B400080B582B000AF0023FB710CE0FA790B492D
:102B50001346DB0013449B000B44083304229A7194
:102B6000FB790133FB71FB79002BEFD0044BFF2283
:102B70001A70044B98470837BD4680BD1C000020E2
:102B8000FD1600204138400080B584B000AF0346F8
:102B9000FB71FB791846114B98470346FB73FB7B8F
:102BA000012B03D00E4B9847FB7B13E00D4B98474E
:102BB0000346002B07D00C4B1B6800229A73084B6E
:102BC0009847012306E0084B1B6803229A73044BC5
:102BD0009847032318461037BD4680BD792540002D
:102BE00045274000652740000017002080B582B0CF
:102BF00000AF0346FB71FB791846084B9847034624
:102C0000002B01D0002304E0054B9847054B1B68BF
:102C1000DB7B18460837BD4680BD00BF79254000E4
:102C2000452740000017002080B582B000AF034662
:102C3000FB71FB791846084B98470346002B01D0DF
:102C4000002304E0054B9847054B1B685B6818465A
:102C50000837BD4680BD00BF7925400045274000AC
:102C60000017002080B483B000AF0346FB7100233F
:102C700018460C37BD465DF8047B704790B589B0A7
:102C800002AF396013460246FA71BB80FB791846E1
:102C9000294B98470346FB73FB7B002B01D0FB7B42
:102CA00046E0264B9847034683F00103DBB2002B36
:102CB00003D0234B984705233AE0BB88012B02D968
:102CC000204B7B6101E0204B7B61204B1B68DB7B51
:102CD00003F00803002B02D03B683B6102E03B6835
:102CE0005B023B61BB8801220092786939694FF42D
:102CF0000072174CA047034683F00103DBB2002BA0
:102D000003D00F4B9847052312E0124B9847B86049
:102D1000BA68114B1340002B03D0094B9847052389
:102D200006E00E4BBA881A800D4BBA881A80002331
:102D300018461C37BD4690BD79254000B923400098
:102D40004527400012111000111108000017002043
:102D5000653A4000E5394000000058E406170020BD
:102D60000417002080B582B000AF78600B467B80EE
:102D70007B88786819460C4B9847034683F001031B
:102D8000DBB2002B04D0094B00221A80052307E098
:102D9000064B1A887B88D31A9AB2044B1A800023F8
:102DA00018460837BD4680BD353C40000617002058
:102DB00080B582B000AF0346FB711B4B98470346BA
:102DC00083F00103DBB2002B01D0052327E0FB7960
:102DD000002B03D0154B00221A8005E0134B1B88F3
:102DE000002B01D000231AE0114B1B88012B03D1CB
:102DF000104B9847002312E043F20C1000210E4BB9
:102E00009847034683F00103DBB2002B04D043F262
:102E10000C100021084B9847064B98470023184692
:102E20000837BD4680BD00BFE53C400006170020C6
:102E300004170020452740009939400090B589B01B
:102E400002AF396013460246FA71BB80FB7918461F
:102E5000294B98470346FB73FB7B002B01D0FB7B80
:102E600045E0FB791846254B98470346002B03D0D5
:102E7000234B984707233AE0BB88012B02D9214B0B
:102E80007B6101E0204B7B61204B1B68DB7B03F007
:102E90000803002B02D03B683B6102E03B685B0209
:102EA0003B61BB8801220092786939694FF4007256
:102EB000174CA047034683F00103DBB2002B03D07D
:102EC0000F4B9847052312E0124B9847B860BA6839
:102ED000114B1340002B03D0094B9847052306E004
:102EE0000E4BBA881A800E4BBA881A8000231846F7
:102EF0001C37BD4690BD00BF79254000652C4000C1
:102F00004527400019911000189108000017002073
:102F1000653A4000E5394000000058E406170020FB
:102F20000417002080B582B000AF78600B467B802C
:102F30007B88786819460C4B9847034683F0010359
:102F4000DBB2002B04D0094B00221A80052307E0D6
:102F5000064B1A887B88D31A9AB2044B1A80002336
:102F600018460837BD4680BD753D40000617002055
:102F700080B582B000AF0346FB711A4B98470346F9
:102F800083F00103DBB2002B01D0052326E0FB799F
:102F9000002B03D0144B00221A8005E0124B1B8833
:102FA000002B01D0002319E0104B1B88012B03D10B
:102FB0000F4B9847002311E043F20C1000210D4BFA
:102FC0009847034683F00103DBB2002B03D0084B84
:102FD0009847052302E0064B984700231846083718
:102FE000BD4680BD253E4000061700200417002086
:102FF000452740009939400080B582B000AF0346B4
:10300000FB71FB791846154B98470346012B17D0E7
:10301000022B17D0002B1BD1FB79114AD35C002B5C
:1030200001D0022315E0FB7918460E4B9847034662
:1030300003F00303002B01D000230AE0022308E081
:10304000032306E0FB79064A0021D154022300E065
:10305000012318460837BD4680BD00BF892B4000BC
:103060000C170020ED2B400080B500AF0020024B74
:1030700098470346184680BDF92F400080B500AF41
:103080000120024B98470346184680BDF92F4000A7
:1030900080B582B000AF03463960FB71FB791846FA
:1030A000074B984703465B005A1E3B681A60FB7942
:1030B0001846044B9847034618460837BD4680BD5E
:1030C000292C4000F92F400080B582B000AF786015
:1030D00000207968034B9847034618460837BD46D9
:1030E00080BD00BF9130400080B582B000AF7860F5
:1030F00001207968034B9847034618460837BD46B8
:1031000080BD00BF9130400080B483B000AF024664
:103110000B46FA71BB71FB79044AB979D15401238A
:1031200018460C37BD465DF8047B70470C1700202D
:1031300080B582B000AF0346FB71FB7900201946D1
:10314000034B9847034618460837BD4680BD00BF6D
:103150000931400080B582B000AF0346FB71FB79B6
:1031600001201946034B9847034618460837BD46C9
:1031700080BD00BF0931400080B582B000AF03467A
:10318000FB71FB791846034B9847034618460837EE
:10319000BD4680BD652C400080B500AF0020024BCD
:1031A00098470346184680BD7931400080B500AF8E
:1031B0000120024B98470346184680BD79314000F4
:1031C00080B483B000AF0346FB71012318460C376F
:1031D000BD465DF8047B704780B500AF0020024B10
:1031E00098470346184680BDC131400080B500AF06
:1031F0000120024B98470346184680BDC13140006C
:1032000080B584B000AF0346B9607A60FB73FB7B86
:103210001846B9680122114B98470346002B05D088
:10322000022B01D1022314E0012312E000BF7868D1
:1032300001210B4B98470346002B01D0012308E0E6
:103240000020084B98470346002B01D0012300E0E3
:10325000002318461037BD4680BD00BF7D2C4000BE
:10326000652D4000B12D400080B582B000AF786080
:103270003960002079683A68034B9847034618463E
:103280000837BD4680BD00BF0132400080B582B026
:1032900000AF78603960012079683A68034B98473D
:1032A000034618460837BD4680BD00BF01324000C6
:1032B00080B584B000AF0346B9607A60FB73FB7BD6
:1032C0001846B9680122114B98470346002B05D0D8
:1032D000022B01D1022314E0012312E000BF786821
:1032E00001210B4B98470346002B01D0012308E036
:1032F0000020084B98470346002B01D0012300E033
:10330000002318461037BD4680BD00BF3D2E40004B
:10331000252F4000712F400080B582B000AF78604B
:103320003960002079683A68034B9847034618468D
:103330000837BD4680BD00BFB132400080B582B0C5
:1033400000AF78603960012079683A68034B98478C
:10335000034618460837BD4680BD00BFB132400065
:1033600080B584B000AF0346FB71FB79012B07D811
:10337000FB79074A5B0113441B689847034600E04A
:103380000123FB73FB7B18461037BD4680BD00BF91
:103390009486410080B584B000AF03463960FB716C
:1033A000FB79012B08D8FB79074A5B0113445B6862
:1033B00038689847034600E00123FB73FB7B1846FF
:1033C0001037BD4680BD00BF9486410080B485B0F3
:1033D00000AF0346FB71FB79012B8CBF0023012357
:1033E000DBB2FB73FB7B18461437BD465DF8047BEC
:1033F000704700BF80B584B000AF0346FB71FB7916
:10340000012B09D8FB79094A5B01134408335B6837
:1034100098470346002B01D0012300E00023FB73F3
:10342000FB7B18461037BD4680BD00BF9486410027
:1034300080B586B000AF0346B9607A60FB73FB7B52
:10344000012B0AD8FB7B084A5B01134410335B68ED
:10345000B86879689847034600E00123FB75FB7D57
:1034600018461837BD4680BD9486410080B586B0A9
:1034700000AF0346B9607A60FB73FB7B012B0AD86F
:10348000FB7B084A5B01134418331B68B8687968F2
:103490009847034600E00123FB75FB7D184618376B
:1034A000BD4680BD9486410080B586B000AFF8600F
:1034B000B9607A6000237B61FB68002B02D04FF07B
:1034C000FF3314E00FE00C4B1B680C4A12681046E7
:1034D000B9689847BB680133BB607B6901337B6186
:1034E0007B68013B7B607B68002BECDC7B691846CA
:1034F0001837BD4680BD00BFBC210020C42100207C
:1035000080B586B000AFF860B9607A6000237B6157
:10351000FB68012B08D0FB68022B05D0FB68032B4E
:1035200002D04FF0FF331BE016E00F4B1A680F4B31
:103530001968BB68581CB8601B7808461946904744
:103540000346002B02DA4FF0FF3309E07B690133B9
:103550007B617B68013B7B607B68002BE5D17B69ED
:1035600018461837BD4680BDC0210020C421002068
:1035700080B483B000AF78607B68072B25D801A2A8
:1035800052F823F0A5354000AB354000B13540007E
:10359000B7354000BB354000BF354000C335400063
:1035A000C73540004FF4FA4310E04FF400430DE0FC
:1035B0004FF400430AE0084B08E0084B06E0084BD4
:1035C00004E0084B02E0074B00E0002318460C37EC
:1035D000BD465DF8047B704700093D0000127A008B
:1035E000001BB7000024F40080B500AF0620044B98
:1035F0009847024613461B019B1A184680BD00BF20
:103600007135400080B500AF024B984703465B0818
:10361000184680BDE935400080B487B000AF4FF058
:1036200080435B687B614FF080439B683B614FF058
:103630008043DB68FB604FF08043DB69BB604FF089
:1036400080435B6D7B604FF0804380221A604FF0B7
:1036500080437A695A604FF080433A699A604FF02C
:103660008043FA68DA604FF08043BA68DA614FF05D
:1036700080437A685A654FF0804305221A601C37F0
:10368000BD465DF8047B704780B485B000AF7860BC
:1036900039600023FB600023BB607B685A003B68F5
:1036A0009A421BD27B685B003A68B2FBF3F3FB6083
:1036B0007B685A003B68B3FBF2F102FB01F29B1AF4
:1036C000BB60BB68002B02D0FB680133FB60FB686A
:1036D000002B05D0FB68013BFB6001E00023FB6091
:1036E0004FF080434FF08042526822F0FF025A6050
:1036F0004FF080434FF080425168FA68D2B20A43DB
:103700005A601437BD465DF8047B704780B582B0BF
:1037100000AF4FF0FF337B604FF080431B6C3B608A
:103720007B685A1E7A60002B03D1094B984700230F
:103730000AE03B6803F02003002BEDD03B6803F068
:103740001003002BE8D1012318460837BD4680BD81
:103750001936400080B586B000AFF860B9607A6075
:10376000BB6803F03F03FA681343FB60BB6803F4D4
:103770008073002B1BD0FB6843F48053FB60BB6855
:1037800003F40063002B04D0FB6843F08003FB606C
:103790000DE0BB6803F40053002B04D0FB6843F03A
:1037A000C003FB6003E0FB6843F04003FB60BB68C1
:1037B00003F48043002B03D0FB6843F40063FB60F9
:1037C0004FF080437A681A614FF08043FA685A617B
:1037D0004FF080431B6C7B61BB6803F48053002B6C
:1037E00008D07B6903F41F03002B0CD0124B9847C1
:1037F00000231DE07B6903F41B03002B03D00E4B59
:103800009847002314E07B6903F00103002BDFD00D
:10381000BB6803F40053002B09D0084B98470346BC
:1038200083F00103DBB2002B01D0002300E0012371
:1038300018461837BD4680BD193640000D37400088
:1038400080B500AF12200C4B98474FF08043722296
:103850009A604FF080437222DA614FF08043112268
:103860005A654FF080434FF4E0625A604FF0804356
:1038700005221A6080BD00BF71DE400080B483B0B5
:1038800000AF0346FB71FB79002B01D1042300E05C
:10389000002318460C37BD465DF8047B704700BF17
:1038A00080B400AF01231846BD465DF8047B704725
:1038B00080B584B000AF39600146F971BA717B718F
:1038C0000023FB600023BB607B79002B08D04FF006
:1038D00080434FF08042526D42F480725A6507E097
:1038E0004FF080434FF08042526D22F480725A654F
:1038F000124B9847034638681946114B9847FB7995
:10390000002B02D10023FB6000BFBB79042B06D043
:10391000082B07D0012B08D10023BB6005E08023D2
:10392000BB6002E0C023BB6000BF4FF08043F9687A
:10393000BA680A43DA601037BD4680BD05364000DC
:103940008936400080B483B000AF0346FB710C376A
:10395000BD465DF8047B704780B400AF4FF08043F4
:103960004FF08042526822F460525A604FF0804318
:1039700000221A614FF080434FF410625A6100BF79
:103980004FF080431B6C03F00103002BF8D0BD46C1
:103990005DF8047B704700BF80B582B000AF7860EF
:1039A00039604FF080434FF08042526822F46052F9
:1039B0005A604FF080434FF08042526822F4004238
:1039C0005A604FF0804300229A61002079683A687B
:1039D000034B9847034618460837BD4680BD00BFD5
:1039E0005537400080B400AF4FF080431B6A184643
:1039F000BD465DF8047B704780B485B000AF786049
:103A00000023FB7325E04FF080431B6ABB60BB685B
:103A10001B0EDAB27B681A707B6801337B60BB686F
:103A20001B0CDAB27B681A707B6801337B60BB6861
:103A30001B0ADAB27B681A707B6801337B60BB6853
:103A4000DAB27B681A707B6801337B60FB7B0133E1
:103A5000FB73FB7B032BD6D91437BD465DF8047B83
:103A6000704700BF80B586B000AFF860B960FA80DB
:103A7000BB8097F82030002B08D04FF080434FF0E8
:103A80008042526842F400425A6007E04FF080439F
:103A90004FF08042526822F400425A604FF0804357
:103AA0004FF08042526842F4C0525A60FB8803F0E3
:103AB0000303002B08D04FF080434FF08042526840
:103AC00042F400525A6007E04FF080434FF08042CA
:103AD000526822F400525A60FB6803F40043002B42
:103AE00003D04FF480337B6102E04FF4A0237B616D
:103AF000FB6803F48033002B0AD07B6943F4001386
:103B00007B614FF08043FA88C2F308029A6128E093
:103B10004FF08043FA881104BA880A439A61FB681F
:103B200003F40033002B04D07B6943F420137B6142
:103B300017E0FB6803F48023002B04D07B6943F477
:103B400080137B610DE0FB6803F40023002B08D198
:103B5000FB6803F48013002B03D07B6943F400233C
:103B60007B61094B00221A60084BFA881A80084BC7
:103B7000BA881A807869F968BA68064B984703468C
:103B800018461837BD4680BD1017002014170020B6
:103B9000161700205537400080B584B000AF78601C
:103BA0004FF080431B6CFB60FA681D4B1340002BE9
:103BB00003D01C4B984700232DE0FB6803F0020361
:103BC000002BEDD04FF080431A6B7B681A60164BC8
:103BD0001B681A1D144B1A60144B1B88144A128858
:103BE00002FB03F2104B1B689A4201D9012312E039
:103BF0004FF080431B6CFB60FA68094B1340002BAD
:103C000003D0084B9847002305E0FB6803F00063EE
:103C1000002BEDD0012318461037BD4680BD00BFF4
:103C2000000060C019364000101700201417002053
:103C30001617002080B485B000AF78600B467B80FB
:103C40007B88264A128802FB03F3FB607B6803F043
:103C50000303002B05D1214B1B8803F00303002B2A
:103C600008D04FF080434FF08042526842F4005237
:103C70005A6007E04FF080434FF08042526822F4D0
:103C800000525A604FF080437A68C3F800214FF029
:103C900080424FF080435B6803F40053002B02D155
:103CA000FB689B0800E0FB68C2F804314FF08043DA
:103CB0000022C3F814214FF080430122C3F82021D1
:103CC000074B1A68FB681A44054B1A600123184613
:103CD0001437BD465DF8047B704700BF1417002001
:103CE0001017002080B582B000AF4FF080431B6CEE
:103CF0007B607A681A4B1340002B09D04FF0804349
:103D000040F20222C3F82021164B9847002323E0FB
:103D10007B6803F48043002BE7D0134B1B88134AC6
:103D2000128802FB03F2124B1B689A4201D901234D
:103D300012E04FF080431B6C7B607A68084B1340A5
:103D4000002B03D0074B9847002305E07B6803F066
:103D50000063002BEDD0012318460837BD4680BD17
:103D6000000060C01936400014170020161700200C
:103D70001017002080B485B000AF78600B467B80C0
:103D80007B88264A128802FB03F3FB607B6803F002
:103D90000303002B05D1214B1B8803F00303002BE9
:103DA00008D04FF080434FF08042526842F40052F6
:103DB0005A6007E04FF080434FF08042526822F48F
:103DC00000525A604FF080437A68C3F808214FF0E0
:103DD00080424FF080435B6803F40053002B02D114
:103DE000FB689B0800E0FB68C2F80C314FF0804391
:103DF0000022C3F81C214FF080434FF48072C3F8B7
:103E00002021074B1A68FB681A44054B1A600123EE
:103E100018461437BD465DF8047B70471417002020
:103E20001017002080B582B000AF4FF080431B6CAC
:103E30007B607A681A4B1340002B09D0194B9847C6
:103E40004FF0804340F20222C3F82021002323E0F8
:103E50007B6803F40043002BE7D0134B1B88134A05
:103E6000128802FB03F2124B1B689A4201D901230C
:103E700012E04FF080431B6C7B607A68084B134064
:103E8000002B03D0074B9847002305E07B6803F025
:103E90002003002BEDD0012318460837BD4680BD16
:103EA000000060C0193640001417002016170020CB
:103EB0001017002080B483B000AF786039603B6891
:103EC000002B06D07B685B6843F001027B685A6078
:103ED00005E07B685B6823F001027B685A600C3761
:103EE000BD465DF8047B704780B487B000AFF860D2
:103EF000B9607A603B60FB689B687B6102E0FB68AD
:103F00009B687B61FB689A687B699A42F7D1BB68C2
:103F1000002B1CD07B6903F47C131B0C3B613B69B9
:103F20001A0913469B0013445B001A463B6903F0D1
:103F30000F031A44BB681A607B6903F48003002BEB
:103F400005D0BB681B6803F10C02BB681A607B6874
:103F5000002B11D07B6903F4FE431B0A3B613B69D4
:103F60001A0913469B0013445B001A463B6903F091
:103F70000F031A447B681A603B68002B10D07B69E2
:103F800003F07F033B613B691A0913469B0013440E
:103F90005B001A463B6903F00F031A443B681A6042
:103FA0001C37BD465DF8047B704700BF80B487B006
:103FB00000AFF860B9607A603B6000237B61FB680A
:103FC0005B6803F00103002B09D0BB680C2B06D9FA
:103FD000BB680C3BBB607B6943F480037B61BA68C0
:103FE000334BA3FB0213DB081805B968304BA3FB66
:103FF0000123DA0813469B0013445B00CA1A13041A
:1040000003437A6913437B617A68294BA3FB02134C
:10401000DB0818037968264BA3FB0123DA08134653
:104020009B0013445B00CA1A130203437A691343CB
:104030007B613A681E4BA3FB0213DB081801396849
:104040001B4BA3FB0123DA0813469B0013445B00C0
:10405000CA1A40EA02037A6913437B61FB681B6852
:1040600043F00102FB681A6000BFFB689B6903F024
:104070000103002BF9D0FB680122DA61FB687A6941
:104080009A60FB681B6823F00102FB681A60FB68FA
:10409000DB6943F00402FB68DA61FB68DB6A03F06A
:1040A000010318461C37BD465DF8047B704700BF0E
:1040B000CDCCCCCC80B489B000AFF860B9607A6068
:1040C0003B60FB68DB68FB6102E0FB68DB68FB616F
:1040D000FB68DA68FB699A42F7D1BB68002B25D0F0
:1040E000FB6903F07F03BB61BB691A0913469B00A0
:1040F00013445B001A46BB6903F00F0313447B6152
:10410000FB6903F47F431B0ABB617B69642202FBEA
:1041100003F1BB691A0913469B0013445B00CA18DC
:10412000BB6903F00F031A44BB681A607B68002B5D
:1041300011D0FB6903F4F8131B0CBB61BB691A09AE
:1041400013469B0013445B001A46BB6903F00F0340
:104150001A447B681A603B68002B11D0FB6903F09E
:104160007C531B0EBB61BB691A0913469B001344A9
:104170005B001A46BB6903F00F031A443B681A60E0
:10418000BB6A002B05D0FB6903F460035A0DBB6AC0
:104190001A602437BD465DF8047B704780B487B051
:1041A00000AFF860B9607A603B6000237B61BA6859
:1041B000464BA3FB02139B091801BA68444BA3FBAF
:1041C00002135909434BA3FB0123DA0813469B0052
:1041D00013445B00CA1A40EA02037A6913437B6105
:1041E000BA683C4BA3FB0213D9083A4BA3FB01234B
:1041F000DA0813469B0013445B00CA1A1003B9681F
:10420000344BA3FB0123DA0813469B0013445B00E5
:10421000CA1A130203437A6913437B617A682D4BF0
:10422000A3FB0213DB08180579682A4BA3FB0123C3
:10423000DA0813469B0013445B00CA1A13040343B5
:104240007A6913437B613B6A5B057A6913437B613F
:104250003A68204BA3FB0213DB08180739681D4B93
:10426000A3FB0123DA0813469B0013445B00CA1A20
:10427000130603437A6913437B61FB681B6843F0B1
:104280000202FB681A6000BFFB689B6903F0010330
:10429000002BF9D0FB680122DA61FB687A69DA60E9
:1042A000FB681B6823F00202FB681A60FB68DB698D
:1042B00043F00402FB68DA61FB68DB6A03F0020387
:1042C00018461C37BD465DF8047B7047D34D62101D
:1042D0001F85EB51CDCCCCCC80B483B000AF7860DF
:1042E0007B6800221A610C37BD465DF8047B70477D
:1042F00080B483B000AF78607B68034A5A610C37A2
:10430000BD465DF8047B70470000010180B485B0B4
:1043100000AF786039600023FB607B68AC221A60D4
:104320003B681A683B685B68B2FBF3F31B09FB60F0
:10433000FB68002B03D0FB68B3F5803F01D301235A
:104340000FE07B68FA681A623B689A687B685A607B
:104350007B6840F20222C3F820217B6850221A6059
:10436000002318461437BD465DF8047B704700BF34
:1043700080B483B000AF786039607B683A68DA60F7
:104380000C37BD465DF8047B704700BF80B483B036
:1043900000AF78607B685B6918460C37BD465DF8F6
:1043A000047B704780B483B000AF78600B46FB702D
:1043B0007B685B6903F00203002B01D1012303E05A
:1043C000FA787B68DA61002318460C37BD465DF841
:1043D000047B704780B483B000AF786039607B683D
:1043E0005B6903F00103002B01D1012305E07B6829
:1043F0009B69DAB23B681A70002318460C37BD4639
:104400005DF8047B704700BF80B489B000AFF860EE
:10441000B9607A60BB681A017B689A4202D810239F
:10442000FB6101E00823FB617B68DA00FB69B96886
:1044300001FB03F35B081A44FB69B96801FB03F352
:10444000B2FBF3F3BB61BB69DB087B61BB6903F0C3
:1044500007033B617B69002B03D07B69B3F5803F89
:1044600001D301230FE0FB69082B05D1FB685B68D2
:1044700043F40022FB685A603B691A047B691A43C3
:10448000FB681A62002318462437BD465DF8047B9A
:10449000704700BF80B582B000AF786078680E4B7F
:1044A00098477B6800225A607B6800225A627B68CA
:1044B00000229A627868094B98477868084B9847B9
:1044C0007868084B98477868074B98477868074B97
:1044D00098470837BD4680BDFD4640008D454000E9
:1044E000BD4540000D46400045464000294640007D
:1044F00080B584B000AFF860B9607A60F8681A4B94
:1045000098471A4B00221A60BB68002B09D0BB6881
:104510001B68F86819467A68154B98470346002BC4
:1045200001D001231BE0BB685A68BB689B681A4333
:10453000BB681B691A43BB68DB681A430B4B1B68DB
:104540001A430A4B1A60094B1A68084B1A60FB6839
:104550005A68064B1B681A43FB685A6000231846CA
:104560001037BD4680BD00BF95444000181700209D
:104570000944400080B483B000AF78607B6840227B
:104580001A600C37BD465DF8047B704780B483B079
:1045900000AF78607B6888221A600C37BD465DF8F2
:1045A000047B704780B483B000AF78607B681022D2
:1045B0001A600C37BD465DF8047B704780B483B049
:1045C00000AF78607B6824221A600C37BD465DF826
:1045D000047B704780B483B000AF786039607B683B
:1045E0003A689A600C37BD465DF8047B704700BF9F
:1045F00080B483B000AF786039607B683A68DA6075
:104600000C37BD465DF8047B704700BF80B483B0B3
:1046100000AF78607B684FF480721A600C37BD463B
:104620005DF8047B704700BF80B483B000AF786052
:104630007B684FF400321A600C37BD465DF8047B8E
:10464000704700BF80B483B000AF78607B684FF4E0
:1046500000221A600C37BD465DF8047B704700BF2E
:1046600080B483B000AF786039607B685B6903F029
:104670000203002B01D1012305E03B68C3F30802CC
:104680007B68DA61002318460C37BD465DF8047B71
:10469000704700BF80B483B000AF786039607B683A
:1046A0005B6903F00103002B01D1012306E07B6865
:1046B0009B69C3F308023B681A60002318460C3755
:1046C000BD465DF8047B704780B483B000AF78606E
:1046D000396000BF7B685B6903F00103002BF9D0F0
:1046E0007B689B69C3F308023B681A600023184685
:1046F0000C37BD465DF8047B704700BF80B483B0C3
:1047000000AF78607B68044AC3F8E4200C37BD46EC
:104710005DF8047B704700BF0041535580B584B0FD
:1047200000AF0346FB7117480021174B9847FB79F0
:10473000022B01D9012321E00023FB600CE0FB796F
:104740001846124B98470346FB72FB7A032B00D0A6
:1047500005E0FB680133FB60FB68012BEFDDFB7AB2
:10476000002B01D0012309E0FB791846084B98473C
:104770000346002B01D0042300E000231846103725
:10478000BD4680BD60140E40B53E40006133400020
:10479000F533400080B582B000AF0346FB71FB7972
:1047A0001846084B98470346002B02D0022B02D034
:1047B00003E0002302E0032300E00123184608374A
:1047C000BD4680BD6133400080B588B000AFB960A0
:1047D0007A600246FA73BB73FB7B1846234B9847FB
:1047E0000346FB76FB7E002B01D1012339E0FA7BE7
:1047F00007F11403104619461D4B9847BB7BFA7E00
:1048000002FB03F31A467B681A447B690133F97E85
:1048100001FB03F39A4201D9042322E00023FB6148
:104820001AE0FB7EFA6902FB03F27B681A44FB7E06
:10483000F96901FB03F35B02B9680B44F97B084695
:1048400011461A460B4B98470346002B01D0012313
:1048500007E0FB690133FB61BA7BFB699A42E0D850
:10486000002318462037BD4680BD00BFCD33400031
:10487000953340003134400080B588B000AFB96056
:104880007A600246FA73BB73FB7B1846234B98474A
:104890000346FB76FB7E002B01D1012339E0FA7B36
:1048A00007F11403104619461D4B9847BB7BFA7E4F
:1048B00002FB03F31A467B681A447B690133F97ED5
:1048C00001FB03F39A4201D9042322E00023FB6198
:1048D0001AE0FB7EFA6902FB03F27B681A44FB7E56
:1048E000F96901FB03F35B02B9680B44F97B0846E5
:1048F00011461A460B4B98470346002B01D0012363
:1049000007E0FB690133FB61BA7BFB699A42E0D89F
:10491000002318462037BD4680BD00BFCD33400080
:10492000953340006D34400080B584B000AF0B4635
:104930003A600246FA71BB710423FB73BB79032B07
:1049400045D801A252F823F0B5494000654940001E
:1049500081494000594940003B6801221A60002308
:10496000FB7336E0FA7907F10803104619461B4B32
:104970009847BB685A1C3B681A600023FB7328E009
:10498000FB791846164B98470346BB73BB7B012B3C
:104990000AD0BB7B022B07D0BB7B042B04D0BB7B94
:1049A000082B01D0012315E03B6800221A70002378
:1049B000FB730EE0FB7918460A4B98470346002B21
:1049C00002D10023FB7304E00323FB7301E0042303
:1049D000FB73FB7B18461037BD4680BD9533400006
:1049E000CD3340006133400090B58BB002AF07F18A
:1049F000180107F1140207F110031248124CA047E6
:104A000007F10C0107F108023B1D384600900D48E4
:104A10000E4CA047FB68A3F2BC735A06BB685B054B
:104A20001A437B681B041A43BB69DB021A437B6988
:104A30005B011A433B691343FB61FB69184624374A
:104A4000BD4690BD60140E40E93E4000B5404000B8
:104A500080B487B000AFF860B9607A60FB687B61B2
:104A6000BB683B6107E07B695A1C7A613A69511C5B
:104A7000396112781A707B685A1E7A60002BF2D165
:104A80001C37BD465DF8047B704700BF80B487B01B
:104A900000AFF860B9607A60FB687B6105E07B6914
:104AA0005A1C7A61BA68D2B21A707B685A1E7A6050
:104AB000002BF4D11C37BD465DF8047B704700BF66
:104AC00080B489B000AFF860B9607A60FB68FB61C0
:104AD000BB68BB6100237B6100BF7B685A1E7A60A4
:104AE000002B0DD0FB695A1CFA611B781A46BB6972
:104AF000591CB9611B78D31A7B617B69002BECD000
:104B00007B6918462437BD465DF8047B704700BFBB
:104B100080B483B000AF7860396002E07B68013315
:104B20007B607B681B78002B05D07B681B781A465E
:104B30003B689A42F2D17B681B7818460C37BD4619
:104B40005DF8047B704700BF80B485B000AF78602B
:104B500039600023BB60BB68FB6035E02E49FA6812
:104B600013465B0013449B000B441B68002B25D0AD
:104B70002949FA6813465B0013449B000B441A68EA
:104B80007B681B689A421CD12349FA6813465B0074
:104B900013449B000B445A687B689B689A4210D16F
:104BA0001D49FA6813465B0013449B000B4408330D
:104BB0001A887B68DB889A4203D108E0BB6801331E
:104BC000BB60FB680133FB60FB68022BC6D9FB6846
:104BD000032B09D1BB68002B02D13B68022B01D10A
:104BE000002313E0122311E03B68002B0BD10A498C
:104BF000FA6813465B0013449B000B4408335B8840
:104C0000B3F5807F01D1102300E00023184614374C
:104C1000BD465DF8047B70472417002080B483B044
:104C200000AF00237B6002E07B6801337B607B6820
:104C3000022B09D80A497A6813465B0013449B008B
:104C40000B441B68002BEFD17B68032B0CBF0023A8
:104C50000123DBB218460C37BD465DF8047B704774
:104C60002417002080B485B000AF7860396000233D
:104C7000FB6028E05149FA6813465B0013449B002F
:104C80000B441A687B681B689A4219D14B49FA6831
:104C900013465B0013449B000B445A687B689B6877
:104CA0009A420DD14549FA6813465B0013449B00B4
:104CB0000B4408331A887B68DB889A4200D105E0F0
:104CC000FB680133FB60FB68022BD3D9FB68032B25
:104CD00041D10023FB6002E0FB680133FB60FB680D
:104CE000022B09D83549FA6813465B0013449B0030
:104CF0000B441B68002BEFD1FB68032B01D1002371
:104D000055E07B6819682D48FA6813465B00134428
:104D10009B00034419607B6899682848FA68134629
:104D20005B0013449B00034459607B68D988234887
:104D3000FA6813465B0013449B00034408330A4699
:104D40001A801E49FA6813465B0013449B000B440B
:104D5000083300225A803B68002B0CD01749FA68B0
:104D600013465B0013449B000B4408335B88002B05
:104D700001D000231BE03B68002B0BD10F49FA68E0
:104D800013465B0013449B000B4408335B880133DC
:104D90009AB201E04FF480720848F9680B465B0054
:104DA0000B449B00034408335A80FB6801331846C8
:104DB0001437BD465DF8047B704700BF2417002000
:104DC00080B485B000AF78607B68013B7B607B6816
:104DD000022B2ED81B497A6813465B0013449B00B4
:104DE0000B4408335B88FB81FB89B3F5807F01D1DD
:104DF0000023FB81FB89002B02D0FB89013BFB8157
:104E000010497A6813465B0013449B000B44083337
:104E1000FA895A80FB89002B08D10A497A6813461F
:104E20005B0013449B000B4400221A6000237B7339
:104E300001E002237B737B7B18461437BD465DF887
:104E4000047B70472417002080B485B000AF7860E1
:104E50000023FB6016E00F49FA6813465B00134419
:104E60009B000B441A687B689A4208D10949FA688A
:104E700013465B0013449B000B4400221A60FB683E
:104E80000133FB60FB68022BE5D91437BD465DF8A2
:104E9000047B70472417002090B585B000AF786080
:104EA00039607B68DB6AFB60FA683B689A424BD0EA
:104EB0007B681B79002B32D07B685A787B68303353
:104EC00010461946FA680123224CA0470346002BDE
:104ED00001D0012339E07B6800221A717B681A6ACD
:104EE0007B68DB691A44FB689A4218D97B68DB78D7
:104EF000FB7211E07B68DB69FA681344FB607B6836
:104F00005A787B68303310461946FA680123114CF1
:104F1000A047FB7A013BFB72FB7A012BEAD83B6886
:104F2000002B11D07B685A787B68303310461946C5
:104F30003A680123084CA0470346002B01D0012307
:104F400003E07B683A68DA62002318461437BD46EE
:104F500090BD00BF79484000C947400090B585B07A
:104F600000AF7860786800214F4B98470346FB7389
:104F7000FB7B002B40F092807B681B78032B40F07A
:104F800081807B685B79002B7CD07B680022DA62B1
:104F90007B683033184600214FF40072434B98472A
:104FA0007B68552283F82E227B68AA2283F82F2261
:104FB0007B68522283F830207B68522283F83120AC
:104FC0007B68612283F832207B68412283F833209A
:104FD0007B68722283F814227B68722283F8152280
:104FE0007B68412283F816227B68612283F81722AE
:104FF0007B681B69DAB27B6883F818227B681B69BF
:105000009BB21B0A9BB2DAB27B6883F819227B68D9
:105010001B691B0CDAB27B6883F81A227B681B6958
:105020001B0EDAB27B6883F81B227B68DB68DAB27E
:105030007B6883F81C227B68DB689BB21B0A9BB2EF
:10504000DAB27B6883F81D227B68DB681B0CDAB25E
:105050007B6883F81E227B68DB681B0EDAB27B68F4
:1050600083F81F227B6859787B6803F130027B68E4
:105070005B69084611461A4601230D4CA0477B6820
:1050800000225A717B685B78184600210022094B88
:1050900098470346002B01D00123FB73FB7B184686
:1050A0001437BD4690BD00BF994E40008D4A400068
:1050B000794840002949400080B483B000AF78604F
:1050C00039603B68023B3B607B689B699A1E3B688A
:1050D0009A4201D8002307E07B689B783A6802FB7C
:1050E00003F27B689B6A134418460C37BD465DF893
:1050F000047B704780B586B000AF786039603B684C
:10510000012B04D97B689A693B689A4201D8012334
:1051100096E07B681B78022B47D0032B65D0012BD0
:1051200040F08C803B687B617B695B087A69134443
:105130007B617B681A6A7B695B0A1344786819464D
:10514000414B98470346002B00D077E07B69C3F3BF
:1051500008037A68134493F830303B617B6901336C
:105160007B617B681A6A7B695B0A1344786819461D
:10517000354B98470346002B00D05FE07B69C3F3B3
:1051800008037A68134493F830301B023A691343DA
:105190003B613B6803F00103002B02D03B691B0914
:1051A00002E03B69C3F30B034AE07B681A6A3B6881
:1051B0001B0A134478681946234B98470346002B73
:1051C00000D03BE03B685B0003F4FF7330337A6848
:1051D0001344FB60FB6801331B781B029AB2FB6827
:1051E0001B7813439BB29BB22AE07B681A6A3B6828
:1051F000DB09134478681946134B98470346002B84
:1052000000D01BE03B689B0003F4FE7330337A68E8
:105210001344FB60FB6803331B781A06FB680233F8
:105220001B781B041A43FB6801331B781B021A43CB
:10523000FB681B78134323F0704301E04FF0FF330A
:1052400018461837BD4680BD994E400080B588B0DD
:1052500000AFF860B9607A60BB68012B04D9FB68C5
:105260009A69BB689A4202D80223FB77E3E0FB68A5
:105270001B78022B70D0032B00F09280012B40F0A2
:10528000D580BB68BB61BB695B08BA691344BB616D
:10529000FB681A6ABB695B0A1344F8681946684BD5
:1052A00098470346FB77FB7F002B00D0C0E0BB692B
:1052B000C3F308033033FA6813447B61BB6803F01F
:1052C0000103002B0DD07B691B78DBB203F00F03C9
:1052D000DAB27B68DBB21B01DBB21343DBB2DBB2B9
:1052E00001E07B68DBB27A691370BB690133BB6193
:1052F000FB6801221A71FB681A6ABB695B0A1344D6
:10530000F86819464E4B98470346FB77FB7F002B06
:1053100000D08DE0BB69C3F308033033FA6813444F
:105320007B61BB6803F00103002B03D07B681B0982
:10533000DBB20EE07B691B78DBB223F00F03DAB23D
:105340007B681B0ADBB203F00F03DBB21343DBB253
:10535000DBB27A6913706BE0FB681A6ABB681B0AE0
:105360001344F8681946364B98470346FB77FB7F92
:10537000002B00D05CE0BB685B0003F4FF733033AC
:10538000FA6813447B617B68DAB27B691A707B69C7
:1053900001337A6892B2120A92B2D2B21A7047E01E
:1053A000FB681A6ABB68DB091344F8681946244B8A
:1053B00098470346FB77FB7F002B00D038E0BB68A3
:1053C0009B0003F4FE733033FA6813447B617B69FE
:1053D00003331B781A067B6902331B781B041A43BC
:1053E0007B6901331B781B021A437B691B781343CB
:1053F00003F070437A6813437B607B68DAB27B69A1
:105400001A707B6901337A6892B2120A92B2D2B2F0
:105410001A707B6902337A68120CD2B21A707B69F7
:1054200003337A68120ED2B21A7001E00223FB77BE
:10543000FB6801221A71FB7F18462037BD4680BDEC
:10544000994E400080B584B000AF786039603B6809
:10545000012B04D97B689A693B689A4202D80223DF
:10546000FB7337E00023FB732FE0786839681C4B2F
:105470009847B860BB68002B00D12BE0BB68012BBC
:1054800002D10223FB7325E0BB68B3F1FF3F02D1D9
:105490000123FB731EE0786839680022114B98479E
:1054A0000346FB73FB7B002B00D013E07B681B697A
:1054B000B3F1FF3F07D07B681B695A1C7B681A61F8
:1054C0007B6801225A71BB683B607B689A693B68C4
:1054D0009A42CAD8FB7B18461037BD4680BD00BF34
:1054E000F55040004D52400080B586B000AF786066
:1054F00039603B68002B0DD17B68DB683B613B6901
:10550000002B04D07B689A693B699A4215D8012325
:105510003B6112E078683968394B9847B860BB68DE
:10552000012B01D8012366E07B689A69BB689A4227
:1055300001D9BB685FE03B683B613B697B617B698C
:1055400001337B617B689A697B699A4207D80223A1
:105550007B617A693B699A4201D900234BE0786804
:105560007969274B9847B860BB68002B0CD100BF06
:10557000786879696FF07042224B98470346FB7355
:10558000FB7B002B1AD10FE0BB68B3F1FF3F02D0C9
:10559000BB68012B01D1BB682DE07A693B699A4257
:1055A00001D1002327E0CAE73B68002B06D07868CA
:1055B00039687A69134B98470346FB73FB7B002BD2
:1055C00010D17B687A69DA607B681B69B3F1FF3FB1
:1055D00010D07B681B695A1E7B681A617B680122A8
:1055E0005A7107E0FB7B012B02D14FF0FF3300E043
:1055F00001237B617B6918461837BD4680BD00BF1B
:10560000F55040004D52400080B584B000AF786046
:105610000B467B807B687A88DA807B689B68FB60BE
:10562000FB68012B05D07B681B689A69FB689A426E
:1056300001D8022364E0FB68002B08D17B681B685B
:105640001B78032B03D17B681B685B6AFB60FB68DC
:10565000002B14D17B68FA68DA607B681B681B89B1
:105660007A889A4201D302234AE07B681B685A6A0F
:105670007B881B099BB21A447B681A6135E07B6802
:105680001B689B781B017B811BE07B681B681846AD
:10569000F9681D4B9847F860FB68B3F1FF3F01D1F3
:1056A00001232DE0FB68012B05D97B681B689A69F3
:1056B000FB689A4201D8022322E07A887B89D31AB8
:1056C0007B807A887B899A42DFD27B68FA68DA60CD
:1056D0007B681B681846F9680C4B984702467B8824
:1056E0001B099BB21A447B681A617B681A687B8825
:1056F00003F00F035B0130331A447B685A610023C7
:1057000018461037BD4680BDF5504000B9504000E6
:1057100090B585B000AF786039607B68DB88013375
:105720003B813B89002B03D07B681B69002B01D197
:105730000423BCE03B8903F00F039BB2002B40F035
:10574000A8807B681B695A1C7B681A617B68DB68D0
:10575000002B08D17B681B681B893A899A42C0F0EC
:1057600098800423A3E03B891B099BB21A467B68FF
:105770001B689B78013B1340002B40F08A807B68BC
:105780001A687B68DB68104619464B4B9847F860EF
:10579000FB68012B01D8022389E0FB68B3F1FF3FCE
:1057A00001D1012383E07B681B689A69FB689A42F8
:1057B00063D83B68002B01D1042378E07B681A682A
:1057C0007B68DB68104619463C4B9847F860FB68DD
:1057D000002B01D107236AE0FB68012B01D10223D2
:1057E00065E0FB68B3F1FF3F01D101235FE07B6817
:1057F0001B6818460021324B98470346002B01D006
:10580000012354E07B681B683033184600214FF4B5
:1058100000722C4B98477B681C687B681B68184695
:10582000F968294B98470346E3620023FB7216E0B0
:105830007B681B6801221A717B681B68184600216F
:105840001F4B98470346002B01D001232FE07B68B4
:105850001B68DA6A0132DA62FB7A0133FB727B6819
:105860001B689B78FA7A9A42E2D37B681B687A6855
:105870001268D16AFA7A8A1ADA627B68FA68DA60A0
:105880007B681B681846F9680F4B984702467B688F
:105890001A617B683A89DA807B681A683B8903F071
:1058A0000F035B0130331A447B685A6100231846AA
:1058B0001437BD4690BD00BFF5504000E95440008C
:1058C000994E40008D4A4000B950400080B586B0E6
:1058D00000AF786039603B681B7823F040035A1EA4
:1058E00013465B0013449B0013447B6100233B6120
:1058F0000123FB81294A3B6913441B7801333A6831
:1059000013441B781B029AB224493B690B441B7851
:1059100039680B441B7813439BB2BB81FB89002B76
:1059200018D0BB8918461E4B98470346FB817B69FC
:10593000FE2B0DD87B695A1C7A615B007A68134490
:105940001B881846164B98470346FA899A4208D096
:1059500000231FE0BA894FF6FF739A4201D000235B
:1059600018E03B6901333B613B690C2BC2D93B68B2
:105970001B7803F04003002B0BD0FB89002B08D0D1
:105980007B695B007A6813441B88002B01D00023DD
:1059900000E0012318461837BD4680BDD48641007B
:1059A000357A400080B489B000AFF860B960FA7110
:1059B000BB71BB680D33BA791A70BB680B330F2209
:1059C0001A70BB680C3300221A70BB681A330022AD
:1059D0001A70BB681B3300221A70FB795A1E1346DB
:1059E0005B0013449B001344FB610023FB820023F4
:1059F000BB61FA8A4FF6FF739A4207D0FB695A1CC3
:105A0000FA615B00FA6813441B88FB821C4ABB697D
:105A100013441B78BA681344FA8AD2B21A70184A2F
:105A2000BB6913441B780133BA681344FA8A120A1B
:105A300092B2D2B21A70FB8A002B02D14FF6FF73DA
:105A4000FB82BB690133BB61BB690C2BD1D9FA8ADC
:105A50004FF6FF739A4206D0FB695B00FA68134465
:105A60001B88002B03D1FB7943F04003FB71BB681B
:105A7000FA791A702437BD465DF8047B704700BF81
:105A8000D486410080B58AB000AFF860B9607A6012
:105A90007B80F868B9680B22334B98477B88052BCD
:105AA0000FD97B889AB25208DB0313439AB27B6802
:105AB000991C79601B8813447B807B681B88002BB2
:105AC000EFD107233B627B88DBB203F00F03DBB22D
:105AD000303387F8273097F82730392B04D997F8D7
