S0150000506F776572426F6172644D43552E7372656335
S214400000D8C90020EDBE4000B5BF40006DC34000DB
S21440001075C340007DC3400085C34000000000001B
S2144000200000000000000000000000003184400096
S214400030B5BF4000000000001D85400059854000C7
S214400040B5BF4000B5BF4000B5BF4000B5BF40009B
S2144000509D434000B5BF4000B5BF400000000000D3
S214400060A97E40000D7F4000000000007DB54000A6
S21440007095B5400000000000757F4000000000007D
S2144000800000000000000000000000004D0440009A
S2144000905D044000B5BF4000B5BF4000B5BF40005E
S2144000A0B5BF4000B5BF40000000000000000000A3
S2144000B000000000B5BF400000000000B5BF400093
S2144000C0B5BF4000B5BF4000951F400010B5054C79
S2144000D0237833B9044B13B10448AFF300800123AF
S2144000E0237010BD180C002000000000D4654100AD
S2144000F008B5064B1BB106480649AFF300800648D4
S214400100036813B1054B03B1984708BD00000000D3
S214400110D46541001C0C0020D4654100000000005E
S21440012090B58BB000AF78600023BB60002387F8A3
S2144001302730814A7B681B0113441B68BB61B86942
S2144001407E4B98477861B8697D4B984703467A69F5
S21440015013407B617B6903F40053002B76D0764ACC
S2144001607B681B0113445B6818464FF40071754B5F
S2144001709847B8694FF40051734B984700233B6249
S214400180BB691B6AFB74FB7C03F00403002B00D0A6
S2144001900BE03B6A01333B623B6AB3F1FF3F03D15E
S2144001A0012387F8273000E0EAE7BB6902221A609D
S2144001B0664B7A6853F8322064497B68DB000B4410
S2144001C05B68013B13441B781A46BB695A63BB699C
S2144001D01B6AFB74FB7C03F00103002B00D00BE092
S2144001E03B6A01333B623B6AB3F1FF3F03D10123D5
S2144001F087F8273000E0EAE7554A7B68DB0013447F
S2144002005B68002B0CD0524A7B68DB0013445A686C
S21440021007F10803104600211A4600234D4CA0471C
S2144002203B6AB3F1FF3F11D0494B7A6853F83230FE
S214400230002B0BD0464B7A6853F8322007F1080360
S214400240104600211A460023424CA0477B6903F41F
S2144002508053002B00F0AA800023FB61364A7B685F
S2144002601B0113445B6818460221364B9847B86911
S2144002704FF48051344B9847BB691B6AFB60FB6860
S21440028003F00203002B00D008E0FB690133FB615A
S214400290FB69B3F1FF3F00D100E0EDE7BB69022206
S2144002A01A602A4B7A6853F8322028497B68DB006C
S2144002B00B445B68023B1344BA69126BD2B21A70A5
S2144002C0BB691B6AFB60FB6803F00203002B00D08F
S2144002D008E0FB690133FB61FB69B3F1FF3F00D1E6
S2144002E000E0EDE7FB69B3F1FF3F35D0174B7A6886
S2144002F053F8322015497B68DB000B445B68013BB2
S2144003001344BA69126BD2B21A700023FB61BB6900
S2144003101B6AFB60FB6803F00103002B00D01BE068
S214400320FB690133FB61FB69B3F1FF3F03D1012356
S21440033087F8273010E0EAE74C5C4100B56740009C
S214400340CD67400035A4400095674000540C00201F
S214400350340C0020218B4000354A7B68DB00134478
S2144003605B68002B0CD0324A7B68DB0013445A682B
S21440037007F10803104600211A4600232D4CA047DB
S214400380FB69B3F1FF3F11D02B4B7A6853F83230FC
S214400390002B0BD0284B7A6853F8322007F108031D
S2144003A0104600211A460023224CA0477B6903F4DE
S2144003B05073002B03D197F82730002B2FD01F4ABD
S2144003C07B681B0113445B68184640F202211C4BB5
S2144003D098477B6903F48073002B02D1BB690222E5
S2144003E01A60B8694FF40051164B9847B8694FF4F5
S2144003F08051144B98470E4A7B68DB0013445B6879
S214400400002B0CD00A4A7B68DB0013445A6807F17D
S2144004100803104600211A460023064CA047BB6836
S214400420002B01D0084B98472C37BD4690BD00BFE7
S214400430340C0020218B4000440C00204C5C4100D2
S21440044035A4400095674000A584400080B500AFC5
S2144004500020014B984780BD2101400080B500AF89
S2144004600120014B984780BD2101400080B483B0F5
S21440047000AFEFF310833B603B68002B14BF0023B4
S2144004800123DBB27B6072B6BFF35F8F044B002262
S2144004901A707B6818460C37BD465DF8047B70477B
S2144004A06403002080B483B000AF78607B68002B84
S2144004B00CBF00230123DBB218460C37BD465DF85F
S2144004C0047B704780B582B000AF78607868074B91
S2144004D098470346002B05D0054B01221A70BFF300
S2144004E05F8F62B60837BD4680BD00BFA50440009A
S2144004F06403002080B483B000AF0023BB71414B3F
S21440050000221A70BA79404B002123F81210BA79AB
S2144005103E4913469B0013445B000B44A1221A70CD
S214400520BA793A4913469B0013445B000B44202299
S2144005305A70BA79354913469B0013445B000B4406
S21440054000225A80BB79002B02D10023FB7102E0C7
S2144005500023FB7100BFBA79FB7999B22B4813464A
S2144005609B0013445B0003440A469A80BA792749A5
S21440057013469B0013445B000B440222DA80BA7990
S214400580224913469B0013445B000B440833002269
S2144005901A80BA791E491346DB009B1A0B44002288
S2144005A01A70002262F07B025A70002242F0030268
S2144005B09A700022DA70BA7915491346DB009B1A06
S2144005C00B4400221A71BA7911491346DB009B1A74
S2144005D00B4400225A71BA790D491346DB009B1A28
S2144005E00B4408229A71074B1B78DBB20133DAB210
S2144005F0044B1A70012318460C37BD465DF8047B41
S214400600704700BF7C0C00206C0C0020700C002053
S214400610640C002080B582B000AF0023FB712A4BEB
S21440062000221A70FB79294A0021D154FB79284AC6
S2144006300021D154FB79274A0021D154FA79264B20
S214400640002123F82210FB79234A9B001344002202
S2144006505A80FA79214B002123F81210FB7918466C
S2144006601F4B9847FB791F4A0021D154FB791E4AFD
S2144006700021D154FA791D4B002123F82210FA7933
S2144006801B4B002123F81210FB791846194B98474C
S214400690034683F00103DBB2002B01D000230FE0BA
S2144006A0094B1B78DBB20133DAB2074B1A70064BA4
S2144006B01B78DBB2012B02D10F4B01221A700123AB
S2144006C018460837BD4680BD7D0C00209C0D002096
S2144006D0A00D0020940D0020900D0020980D0020C5
S2144006E0A90A40000C0D0020040D0020000D00203B
S2144006F0080D0020950840007E0C002080B400AF16
S214400700054B1B78DBB2013BDAB2034B1A70BD4691
S2144007105DF8047B704700BF7C0C002080B483B03B
S21440072000AF094B1B78DBB2013BDAB2064B1A70BE
S214400730054B1B78FB71054B00221A700C37BD46E3
S2144007405DF8047B704700BF7D0C00207E0C0020C7
S21440075080B582B000AF2B4B98470346FB712A4BBF
S2144007601B78DBB25BB2002B1CDA274B1B7803F0FE
S2144007706003202B16D1244B5B78212B12D1224BC1
S214400780DB88072B01D0002338E0FA791346DB00DC
S2144007909B1A1E4A1A441C4B9A601B4B07229A818E
S2144007A001232BE0184B1B78DBB25BB2002B24DB1B
S2144007B0154B1B7803F06003202B1ED1124B5B7841
S2144007C0202B02D0222B16D017E00F4BDB88072BAE
S2144007D001D0002312E00C4B0D4A1A61FA791346F9
S2144007E0DB009B1A094A1A44074B9A60064B0722BD
S2144007F09A81012302E0012300E0002318460837CF
S214400800BD4680BD4D08400054890020640C002041
S2144008107D08400080B400AF00231846BD465DF812
S214400820047B704780B400AF00231846BD465DF891
S214400830047B704780B500AF024B1B781846024BCE
S214400840984780BDA40D0020A90A400080B483B01C
S21440085000AF094B9B88DBB2002B02D10023FB7113
S21440086002E00023FB7100BFFB7918460C37BD46FB
S2144008705DF8047B704700BF5489002080B582B085
S21440088000AF034B98470346FB710837BD4680BD13
S2144008904D08400090B589B002AF0346FB71002377
S2144008A0BB752C4B98473861BB7D2B4AD35CFB739A
S2144008B0BB7D2A4AD35CDBB2002B0DD1BA7D284BD8
S2144008C033F812309AB2B87DF97B264B400001448B
S2144008D033F811309A4204D23869234B98470023A4
S2144008E033E0BA7D1E4B002123F81210BB7DFA7B05
S2144008F0002A14BF00220122D2B21146164AD15411
S214400900BB7D164A0121D1543869174B9847BB7DA9
S2144009101846164B9847BB7D002B02D10223FB7529
S21440092002E00223FB7500BFBA7DFB7B52001344F6
S2144009309A010F4B1344FA7D0E490091104601214F
S2144009401A4640230C4CA047034618461C37BD4663
S21440095090BD00BF6D044000040D00200C0D00202B
S214400960080D0020000D0020C5044000D10C4000BA
S214400970800C00207D0940008927400090B587B054
S21440098002AF396013460246FA71BB71BB79022B3F
S21440099002D10023FB7302E00023FB7300BFFB7908
S2144009A0002B00D02EE0FB7B184AD35CDBB2002B3A
S2144009B014BF00230123DBB2BB733B68002B10D16E
S2144009C0FA7BBB7B520013449A01114B1344BA790D
S2144009D010490091104601211A4640230E4CA0476C
S2144009E010E0F87BBA7B3B6899B20C4B400002445F
S2144009F023F81210FB7B0A4A0021D154FB7B184691
S214400A00084B98471437BD4690BD00BF040D0020E4
S214400A10800C00207D09400089274000000D002002
S214400A200C0D00209508400080B584B000AF3960BA
S214400A3013460246FA71BB71BB79812B02D1002363
S214400A40FB7302E00023FB7300BFFB79002B00D052
S214400A501CE0F97BFB7B0F4AD35CDBB2002B14BF58
S214400A6000230123DBB21A460B4B49000A440021FF
S214400A7023F81210FB7B094A0021D154FB7B084A1D
S214400A800021D154FB7B1846064B98471037BD468D
S214400A9080BD00BF940D0020900D0020A00D0020CA
S214400AA09C0D0020A90A400090B589B002AF0346CD
S214400AB0FB7100237B757B7D5F4AD35CDBB2002BEA
S214400AC000D0B5E05D4B98470346002B09D07A7DB1
S214400AD05B4B33F812405B4B984703469C420AD127
S214400AE0A6E07A7D564B33F81240574B984703465C
S214400AF09C4200D19CE0554B984738617B7D544AD8
S214400B00D35CFB75797DFA7D524B49000A4433F835
S214400B101230002B1FD1504B1B8801339AB24E4BDC
S214400B201A80464B9847034683F00103DBB2002BFE
S214400B3003D0494B1B88632B09D9404B9847034643
S214400B40002B08D0444B1B88B3F5487F03D2386946
S214400B50424B98476CE0404B00221A807B7D404ACF
S214400B60D35CDBB283F00103DBB2002B0AD07B7D83
S214400B70FA7D002A14BF00220122D2B21146344A1E
S214400B80D15406E0FB7D002B14BF00230123DBB2CB
S214400B90FB757B7D284A0121D15438692F4B9847F5
S214400BA0797DFA7D2B4B49000A4433F81230402BAE
S214400BB00CBF00230123FB73FB7B002B16D01F4B7F
S214400BC098470346002B08D07C7D1E4B984703462B
S214400BD01A461B4B23F814200DE07C7D1A4B984791
S214400BE003461A46164B23F8142004E07A7D144B2D
S214400BF0002123F812107B7D002B02D18123BB7588
S214400C0002E08123BB7500BF7A7DFB7D5200134412
S214400C109A01144B1A44787DF97D0E4B40000144EE
S214400C2033F81130B87DF97B0F4C00940F4CA04739
S214400C301C37BD4690BD00BF9C0D0020452240009D
S214400C40980D002009234000E92240006D04400032
S214400C50940D0020900D0020A60D0020C5044000F5
S214400C60A00D0020100D0020290A400089274000D2
S214400C7080B586B000AF0346FB710023FB750F4B73
S214400C8098473861FA7D0E4B33F81230FB81F97D78
S214400C90FB7D0C4AD35CDBB21A460B4B49000A4438
S214400CA033F812301A46FB89D31ABB603869074BB3
S214400CB09847BB6818461837BD4680BD6D0440004F
S214400CC0080D0020040D0020000D0020C504400043
S214400CD080B582B000AF0346FB71FB791846064BE1
S214400CE098470346002B0CBF00230123DBB218466F
S214400CF00837BD4680BD00BF710C400080B500AFD0
S214400D000020024B98470346184680BDD10C400051
S214400D1080B586B000AF0346FB7100237B6100239D
S214400D20BB74BA7C2A491346DB009B1A0B449B795A
S214400D30092B14BF00230123FB74264B9847F86009
S214400D40BA7C254B33F812307B81BB7C234AD35C7C
S214400D507B72F868224B984700BFB97C7A7A214B61
S214400D6049000A4433F812307A899A420AD31E4B15
S214400D701B78DBB283F00103DBB2002B01D00023EB
S214400D8022E0DAE7B87C797A7B89184A4000014449
S214400D9089010B4413441B787A6913437B61BA7C00
S214400DA07B89013399B20C4B23F81210BB7C184652
S214400DB00F4B9847FB7C002B05D00023FB747B69C8
S214400DC01B027B61B9E77B6918461837BD4680BD74
S214400DD0640C00206D044000080D0020040D002027
S214400DE0C5044000000D00207E0C0020800C002032
S214400DF09508400080B500AF0020024B9847034658
S214400E00184680BD110D400080B588B000AF03463F
S214400E10FB710023FB76284B98477861FB7E274A78
S214400E20D35CFB74F97EFA7C254B49000A4433F8C0
S214400E301230FB61F97EFB7C002B14BF002301239C
S214400E40DBB21A461E4B49000A4433F81230FB60A8
S214400E50FB69402B23D1FB7E1A4AD35CDBB283F07E
S214400E600103DBB2002B1AD0FB7E174AD35CDBB201
S214400E7083F00103DBB2002B11D0FB7E124A012126
S214400E80D154FB7EFA7C002A14BF00220122D2B243
S214400E9011460A4AD1540023FB614023FB60FB699C
S214400EA0C3F14003BB607869084B9847BB68184657
S214400EB02037BD4680BD00BF6D044000940D002025
S214400EC0900D00209C0D0020A00D0020C504400081
S214400ED080B582B000AF0346FB71FB791846064BDF
S214400EE098470346002B0CBF00230123DBB218466D
S214400EF00837BD4680BD00BF090E400080B500AF34
S214400F000020024B98470346184680BDD10E40004D
S214400F10F0B587B000AF03463960FB710023BB7560
S214400F20BA7D29491346DB009B1A0B449B79092B53
S214400F3014BF00230123FB75BB7D1846234B9847FF
S214400F40034683F00103DBB2002B0AD0204B1B780C
S214400F50DBB283F00103DBB2002B01D000232EE08E
S214400F60EAE71C4B98473861BB7D1B4AD35CFB7352
S214400F70BC7DF87BB97DFA7B184B4D00154433F8A1
S214400F8015305D1CAEB2154D49000A44314625F871
S214400F9012103A68D2B212496400204480010344D9
S214400FA00B441A7038690F4B9847FB7D002B05D0D1
S214400FB00023FB753B681B123B60BDE701231846C8
S214400FC01C37BD46F0BD00BF640C0020D10E40006B
S214400FD07E0C00206D044000940D0020900D0020F3
S214400FE0100D0020C504400080B582B000AF786088
S214400FF000207968034B9847034618460837BD4695
S21440100080BD00BF110F400080B58AB000AF0346D8
S214401010B9607A60FB73BB683B620023FB77FA7F5C
S21440102033491346DB009B1A0B449B79092B02D1AC
S2144010307B685B007B60FB7F18462E4B98470346D9
S21440104083F00103DBB2002B0AD02B4B1B78DBB2BC
S21440105083F00103DBB2002B01D07B6843E0EAE774
S214401060264B9847B861FB7F254AD35CFB75F97FD2
S214401070FA7D244B49000A4433F81230BB82BB8ABF
S214401080C3F140037B627A6A7B689A4201D97B68E7
S2144010907B62F97FFA7DBB8A49000A4492011A4472
S2144010A0194B13441846396A7A6A184B9847F87FA2
S2144010B0FA7D7B6A99B2BB8A0B4499B2114B4000C9
S2144010C0024423F81210B869114B98473A6A7B6A73
S2144010D013443B627A687B6AD31A7B607B68002B3A
S2144010E000D0A8E7002318462837BD4680BD00BF7D
S2144010F0640C0020D10E40007E0C00206D044000A1
S214401100940D0020900D0020100D002061CA400074
S214401110C504400080B582B000AF786039600020DA
S21440112079683A68034B9847034618460837BD46E1
S21440113080BD00BF0910400080B400AF064B1B685E
S2144011401A68054B1B681B685B889BB2134418469D
S214401150BD465DF8047B7047B40D002080B584B072
S21440116000AF78600B46FB70114B9847F8607B6881
S2144011701B787A6813447B6010E07B685B78042BAE
S21440118000D10FE07B685B78FA789A4201D17B68A1
S21440119009E07B681B787A6813447B60FA687B6852
S2144011A09A42EAD8002318461037BD4680BD00BF95
S2144011B03911400080B584B000AF02460B46FA7144
S2144011C0BB711E4B1B78002B01D1002332E01C4B19
S2144011D01B681B681B79FA799A4201D3002329E0E1
S2144011E0174B1B681A68174B1A60174B9847F860DE
S2144011F01AE0144B1B685B78042B0DD1114B1B680F
S2144012009B78FA799A4207D10E4B1B68DB78BA79FD
S2144012109A4201D101230DE00A4B1A68094B1B681C
S2144012201B781A44074B1A60064B1B68FA689A42AA
S214401230DFD8002318461037BD4680BDB00D0020CD
S214401240B40D0020B80D00203911400080B584B0A0
S21440125000AF0346FB71FB79184600211E4B9847AA
S214401260034683F00103DBB2002B01D000232FE0BE
S2144012701A4B1B685A68FB799B0013441B68BB607B
S214401280BB68DB6898470346FA7910461946124B06
S2144012909847034683F00103DBB2002B01D00023BE
S2144012A016E00F4B1B68FB60F86805210D4B98470E
S2144012B0F860FB68002B05D100BFBB685B689847A9
S2144012C0012305E0FB689B781846074B9847EBE7F9
S2144012D018461037BD4680BDB5114000B40D0020FD
S2144012E0B80D00205D114000C124400080B584B098
S2144012F000AF02460B46FA71BB71FA79BB791046CD
S21440130019461D4B9847034683F00103DBB2002B7A
S21440131001D000232BE0194B1B68FB60F8680521C1
S214401320174B9847F860FB68002B0BD100BF154B56
S2144013301B685A68FB799B0013441B681B689847D8
S214401340034614E0FB689978FB68DA78FB689B886C
S2144013509BB2084611461A460B4B9847034683F005
S2144013600103DBB2002B01D0002300E0D6E718468D
S2144013701037BD4680BD00BFB5114000B80D0020F7
S2144013805D114000B40D00204123400080B500AF01
S214401390014B984780BD00BF5521400080B582B0C4
S2144013A000AF0F4B1B78002B10D00023FB7106E0DC
S2144013B0FB7918460B4B9847FB790133FB710A4B78
S2144013C01B681B681B79FA799A42F1D3044B0022BA
S2144013D01A70064B01221A800837BD4680BD00BFF2
S2144013E0B00D00204D124000B40D0020A80D002086
S2144013F080B582B000AF134B1B78002B1FD0002364
S214401400FB7115E0104B1B685A68FB799B00134430
S2144014101B681B69002B08D00B4B1B685A68FB796E
S2144014209B0013441B681B699847FB790133FB718B
S214401430054B1B681B681B79FA799A42E2D308373A
S214401440BD4680BDB00D0020B40D002080B500AF75
S214401450064BDB88022B01D0002304E0044802211F
S214401460044B98470123184680BD00BF548900208E
S214401470A80D00201923400080B500AF0B4BDB8839
S214401480022B01D000230EE0084B9B88DBB21846A7
S214401490074B984703461A46064B1A8005480221D2
S2144014A0054B98470123184680BD00BF548900204D
S2144014B009254000BC0D00201923400080B400AF31
S2144014C00C4BDB88002B01D000230DE0094B5B88DA
S2144014D0012B08D1084B1B8823F002039AB2064B17
S2144014E01A80012300E000231846BD465DF8047BC1
S2144014F0704700BF54890020A80D002080B500AF7B
S2144015000A4BDB88002B01D000230CE0074B5B889E
S214401510002B07D1054B9B88DBB21846044B9847F7
S214401520034600E00023184680BD00BF54890020D3
S2144015307126400080B400AF094BDB88002B01D0F9
S214401540002307E0064B5B88012B02D000BF002338
S21440155000E000231846BD465DF8047B704700BF98
S2144015605489002080B500AF0D4BDB88002B01D09E
S214401570002312E00A4B5B88002B0DD1084B9B885A
S214401580DBB21846074B9847054B9B88DBB218469C
S214401590054B9847034600E00023184680BD00BF31
S2144015A054890020E12840007D25400080B500AFEA
S2144015B0044B5B88DBB203F07F03DBB21846024B7A
S2144015C0984780BD548900205522400080B400AF23
S2144015D0074BDB88002B01D0002303E0044B054A71
S2144015E01A6101231846BD465DF8047B704700BF6C
S2144015F054890020AD15400080B584B000AF00236C
S214401600FB71214B5B88DBB2012B08D0022B0BD041
S214401610002B0ED11D4804211D4B98470BE0072395
S214401620FB711C4BBB6006E00A23FB711A4BBB6088
S21440163001E0002323E0FB79002B1FD00023FB733F
S2144016400BE0FB7BFA7BB9680A44127813495B00CF
S2144016500B445A80FB7B0133FB73FA7BFB799A423F
S214401660EFD3FB790133DBB25B00DAB20B4B1A7077
S2144016700A4B1B7809481946054B984701231846DC
S2144016801037BD4680BD00BF548900203801002079
S214401690192340003C010020440100205001002056
S2144016A080B582B000AF414B5B88FB713F4B5B8897
S2144016B01B0A9BB2DBB2013B0E2B66D801A252F846
S2144016C023F000BF01174000151740007517400073
S2144016D08B1740008B1740008B1740008B1740003D
S2144016E08B1740008B1740008B1740008B1740002D
S2144016F08B1740008B1740008B1740005317400055
S2144017002B4B1A682A4B1B681B7810461946294BE8
S21440171098473CE0264B1B685B7CFA799A4201D39B
S21440172000233FE0224B5A68FB79DB0013441A68DB
S2144017301F4B5968FB79DB000B441B685B889BB2E8
S214401740104619461B4B9847184B9B6802225A7006
S2144017501DE0174B9B68002B01D1002322E0144B61
S2144017609A68134B9B685B889BB210461946114B90
S21440177098470CE0104B9847034683F00103DBB2D2
S214401780002B01D000230DE001E000230AE0074BC8
S214401790DA88064B9B899A4203D2044BDA88034B7D
S2144017A09A81012318460837BD4680BD54890020DB
S2144017B04C03002019234000F915400080B500AFC7
S2144017C0064BDB88012B01D0002304E004480121AE
S2144017D0044B98470123184680BD00BF548900201B
S2144017E0B00D00201923400080B582B000AF274BD3
S2144017F0DB88002B01D0002343E0254B9847034667
S214401800002B01D100233CE0204B5B88DAB2214B11
S2144018101B685B7C9A4201DD002332E01E4B9847F2
S2144018201A4B5B88DAB21D4B1A701C4B1B78002B88
S21440183001D1012325E0174B5A68184B1B7803F15A
S2144018400053013BDB001A44154B1A600023FB7122
S2144018500FE0FB7918460021124B9847034683F069
S2144018600103DBB2002B01D000230AE0FB790133F1
S214401870FB710B4B1B681B681B79FA799A42E8D3BD
S214401880012318460837BD4680BD00BF5489002056
S214401890B92240004C0300209D134000B00D0020AC
S2144018A0B40D0020ED12400080B582B000AF1E4B54
S2144018B0DB88012B01D0002332E01C4B1B78002B29
S2144018C001D100232CE0184B9B88FB71184B1B68FA
S2144018D01B681B79FA799A4201D3002320E0FB79F2
S2144018E018460021134B9847034683F00103DBB2AA
S2144018F0002B01D0002313E00D4B1B685A68FB7980
S2144019009B0013441B683B603B68DB689847034674
S2144019101A46094B1A7008480121084B984701237C
S21440192018460837BD4680BD54890020B00D0020BB
S214401930B40D0020B5114000AC0D00201923400026
S21440194080B582B000AF144BDB88002B01D000235B
S2144019501EE0124B1B78002B01D1002318E00E4BE3
S2144019609B88FB710C4B5B88BB71FB7918460C4B14
S2144019709847034683F00103DBB2002B01D00023D7
S21440198006E0FA79BB7910461946064B9847034657
S21440199018460837BD4680BD54890020B00D00204B
S2144019A04D124000ED12400080B500AF4E4B1B7804
S2144019B0DBB25BB2002B3FDA4B4BDB88002B01D10E
S2144019C000238FE0484B1B7803F01F03002B14D1F5
S2144019D0454B5B78062B08D0082B0AD0002B00D04E
S2144019E00BE0424B984703467CE0414B9847034602
S2144019F078E0404B9847034674E03B4B1B7803F037
S214401A001F03012B08D1384B5B780A2B00D003E02C
S214401A10394B9847034665E0334B1B7803F01F036A
S214401A20022B5ED1304B5B78002B01D000BF58E0D4
S214401A30324B9847034655E02B4B1B7803F01F0369
S214401A40002B2AD1284B5B78013B082B24D801A2D7
S214401A5052F823F0811A4000991A4000891A400033
S214401A60991A4000791A4000991A4000991A400085
S214401A70991A4000911A4000214B9847034631E09E
S214401A80204B984703462DE01F4B9847034629E0D6
S214401A901E4B9847034625E000BF134B1B7803F0C8
S214401AA01F03012B08D1104B5B780B2B00D003E0B3
S214401AB0174B9847034615E00B4B1B7803F01F0364
S214401AC0022B0ED1084B5B78012B02D0032B04D09F
S214401AD007E0104B9847034604E00F4B98470346F1
S214401AE000E00023184680BD548900204D14400075
S214401AF0A1164000BD174000A918400079144000C8
S214401B00CD154000BD14400035154000E917400093
S214401B1041194000FD1440006515400080B582B074
S214401B2000AF204B1B78002B01D1002335E01E4B25
S214401B309B88FB711D4B1B681B681B79FA799A4280
S214401B4001D3002329E0FB7918460021184B98471B
S214401B50034683F00103DBB2002B01D000231CE0D8
S214401B60124B1B685A68FB799B0013441B683B600A
S214401B703B68DB6898470346FA79104619460C4B93
S214401B809847034683F00103DBB2002B01D00023C5
S214401B9003E03B689B689847034618460837BD46AF
S214401BA080BD00BFB00D002054890020B40D002039
S214401BB0B511400080B582B000AF1E4B1B78002B9D
S214401BC001D1002331E01C4B9B88FB710023FB7145
S214401BD023E01A4B1B685A68FB799B0013441B682A
S214401BE03B603B68DB6898470346FA7910461946DF
S214401BF0134B9847034683F00103DBB2002B01D01A
S214401C00002312E03B689B6898470346002B01D0B0
S214401C1001230AE0FB790133FB71084B1B681B6804
S214401C201B79FA799A42D4D3002318460837BD4622
S214401C3080BD00BFB00D002054890020B40D0020A8
S214401C40B511400080B500AF1F4B00229A811E4B55
S214401C5000221A611C4B00225A611B4B1B78DBB2D8
S214401C605BB2002B05DA184BDB88002B01D1002332
S214401C7027E0154B1B7803F06003002B06D1134B6F
S214401C8098470346002B01D001231AE00E4B1B78E1
S214401C9003F01F03012B06D10D4B98470346002B3C
S214401CA001D001230DE0084B1B7803F01F03022BE5
S214401CB006D1084B98470346002B01D0012300E08D
S214401CC00023184680BD00BF54890020A919400053
S214401CD01D1B4000B51B400080B483B000AFEFF33F
S214401CE010833B603B68002B14BF00230123DBB20C
S214401CF07B6072B6BFF35F8F044B00221A707B681E
S214401D0018460C37BD465DF8047B704764030020D8
S214401D1080B483B000AF78607B68002B0CBF002394
S214401D200123DBB218460C37BD465DF8047B70478E
S214401D3080B582B000AF78607868074B9847034616
S214401D40002B05D0054B01221A70BFF35F8F62B699
S214401D500837BD4680BD00BF111D4000640300200B
S214401D6080B586B000AFF860B9607A60BB680E2B6D
S214401D7002D0BB680F2B02D14FF0FF3316E00D4B5D
S214401D80984778617B681B0223F07F4323F0FF036C
S214401D90BA68D2B2134343F0B443F8681946064BC8
S214401DA0984738617869054B98473B691846183715
S214401DB0BD4680BDD91C4000DD000020311D4000DE
S214401DC080B483B000AF0346FB71084B97F90720F9
S214401DD05209F97901F01F01012000FA01F143F898
S214401DE022100C37BD465DF8047B704700E100E0EA
S214401DF080B483B000AF03463960FB7197F9073073
S214401E00002B0BDA0D49FB7903F00F03043B3A68CD
S214401E10D2B21201D2B20B441A7609E0084997F9B9
S214401E2007303A68D2B21201D2B20B4483F800238C
S214401E300C37BD465DF8047B704700BF00ED00E000
S214401E4000E100E080B483B000AFEFF310833B6066
S214401E503B68002B14BF00230123DBB27B6072B6C5
S214401E60BFF35F8F044B00221A707B6818460C370E
S214401E70BD465DF8047B70476403002080B483B0A1
S214401E8000AF78607B68002B0CBF00230123DBB2D9
S214401E9018460C37BD465DF8047B704780B582B067
S214401EA000AF78607868074B98470346002B05D00C
S214401EB0054B01221A70BFF35F8F62B60837BD46E6
S214401EC080BD00BF7D1E40006403002080B584B006
S214401ED000AF0346FB71084B9847F860FB79074A0A
S214401EE0D25C0132D1B2054AD154F868044B9847C7
S214401EF01037BD4680BD00BF451E40004C890020BF
S214401F009D1E400080B584B000AF0346FB71084B71
S214401F109847F860FB79074AD25C013AD1B2054A45
S214401F20D154F868044B98471037BD4680BD00BF73
S214401F30451E40004C8900209D1E400080B582B062
S214401F4000AF0346FB71FB7983F00103DBB2002B45
S214401F5006D00D4B1B78002B02D002200B4B984727
S214401F60FB79002B09D0084B1B7883F00103DBB2CA
S214401F70002B02D00220064B9847034BFA791A7082
S214401F800837BD4680BD00BFBE0D0020051F40007F
S214401F90CD1E400080B500AF614B9847034683F0A6
S214401FA00103DBB2002B0CD05E4BDB6903F480737D
S214401FB0002B06D172B6BFF35F8F5B4B00221A70C0
S214401FC0ACE02220594B9847564B9B6903F400637C
S214401FD0002B0CD0534BDB6903F40063002B06D078
S214401FE0504B4FF400621A62514B984795E0514B64
S214401FF098470346002B00D08FE04F4B9847034648
S214402000002B00D089E0474B9B6903F40053002B1C
S21440201005D0444BDB6903F40053002B17D1414BEA
S2144020209B6903F40073002B05D03E4BDB6903F439
S2144020300073002B0BD13B4B9B6903F48063002B52
S2144020401DD0384BDB6903F48063002B17D0354B2B
S2144020504FF418521A62334B4FF418525A6101200B
S214402060364B98472F4B4FF480721A622D4B4FF4E5
S21440207080721A612B4B4FF400621A614DE0294B77
S2144020809B6903F48073002B20D0264BDB6903F456
S2144020908073002B1AD0234B4FF480721A62214B68
S2144020A04FF480725A611F4B4FF400521A611D4B19
S2144020B04FF400721A611B4B4FF480621A61222063
S2144020C01F4B984700201D4B984726E0154BDB6971
S2144020D003F48053002B20D0124B4FF480521A62E8
S2144020E0184B9847184B98470E4B0E4A526822F0AA
S2144020F001025A600B4B0B4A526822F002025A60A9
S214402100124B9847124B9847064B4FF480721A6111
S214402110044B4FF400621A6100BF00BF80BD00BF91
S214402120F5BD4000004003406403002009B840006D
S214402130F1134000D9324000B93940003D1F4000FD
S2144021408DB840002D3440009D134000A12A400029
S214402150512B400080B582B000AF114B9847786055
S2144021602220104B9847104B9847222005210F4BB2
S214402170984722200E4B98470E4B98474FF48020A6
S2144021800D4B98470D4B00221A7000200C4B984779
S2144021900C4B984778680C4B98470837BD4680BD2F
S2144021A0451E400009B84000BDAC4000F11D40004F
S2144021B0C11D40008533400051B94000BE0D00208F
S2144021C0CD1E4000CD2140009D1E400080B582B00F
S2144021D000AF174B984778600120164B984722204F
S2144021E0154B9847154B154A526F22F480725A6722
S2144021F0124B124A526F42F400725A670F4B4FF41A
S21440220080721A610D4B4FF400521A610B4B4FF41B
S21440221000721A61094B4FF480621A61074B4FF403
S21440222000621A617868064B98470837BD4680BDFD
S214402230451E40003D1F400009B840000040034096
S2144022409D1E400080B400AF00231846BD465DF892
S214402250047B704780B483B000AF0346FB71154BD8
S214402260144A526822F001025A60124B114A926890
S21440227022F480729A60FB79002B15D00D4B0D4AE4
S214402280926822F07F01FA7902F07F020A439A6050
S214402290084B084A926842F480729A60054B054A99
S2144022A0526842F001025A600C37BD465DF8047B26
S2144022B0704700BF0040034080B400AF094B5B68E6
S2144022C003F00103002B06D0064B9B68DBB203F0FD
S2144022D07F03DBB200E000231846BD465DF8047B72
S2144022E0704700BF0040034080B400AF054B1B68FA
S2144022F09BB2C3F30A039BB21846BD465DF8047B07
S214402300704700BF0040034080B400AF002318462B
S214402310BD465DF8047B704780B483B000AF7860FC
S2144023200B467B80054B7A689A60044B7A889A8184
S2144023300C37BD465DF8047B704700BF54890020CB
S21440234080B487B000AF13460246FA710A46BA71A7
S214402350BB80FB7903F08003002B0CBF00230123D6
S214402360FB75BB7903F00303012B14BF0023012345
S214402370BB75FB7903F00F03FB71FB79032B01D987
S214402380002392E04C4BFA790C3253F8223003F497
S2144023900043002B01D0002387E0BB7D002B07D0F5
S2144023A0FB79002B02D0FB79032B01D100237CE084
S2144023B0BA88FB79042B02D0FB79052B02D14FF467
S2144023C0007300E040239A4201DD00236DE0FB7974
S2144023D05A1E13469B0013449B00384A13443B61E5
S2144023E0BB88C3F3090399B23A69138A61F30903B8
S2144023F013823A69537C6FF3C71353743A69537C1C
S2144024006FF345135374FB7D002B04D03A69537C1D
S2144024106FF383035374284B274A916AFA79012055
S21440242000FA02F20A439A62234B234A916AFA79E7
S214402430012000FA02F2D2430A409A621E4BFA7911
S2144024400C3253F82230FB60FB6843F04F03FB60CE
S214402450FB6823F4074323F08003FB60FB7D002BDF
S21440246009D0BB7943F00403DBB21B0203F4E063FC
S21440247043F4004305E0BB791B0203F4E06343F4F6
S2144024800043FA681343FB600B4BFA79F9680C3249
S21440249043F822100023BB6003E000BFBB68013353
S2144024A0BB60BB68132BF8D9012318461C37BD46C2
S2144024B05DF8047B704700BF00400340C40D002019
S2144024C080B584B000AF0346FB71FB7903F00F0381
S2144024D0FB73FB7B032B00D90FE0094BFA7B0849C3
S2144024E0F87B0C3051F8201021F400410C3243F8B0
S2144024F02210FB791846034B98471037BD4680BDDF
S214402500004003407134400080B485B000AF0346BD
S214402510FB71FB7903F00F03FB73FB7B5A1E1346DC
S2144025209B0013449B00134A1344BB60FB7B032B66
S21440253001D9002317E0BB685B7CC3F34013DBB2D2
S214402540002B0AD10C4BFA7902F00F020C3253F8EA
S214402550223003F02803002B01D0012300E00023A3
S21440256003F00103DBB218461437BD465DF8047B22
S214402570704700BFC40D00200040034080B588B0BF
S21440258000AF0346FB71FB7903F08003002B0CBFC2
S21440259000230123FB77FB7903F00F03BB77BB7F58
S2144025A05A1E13469B0013449B002D4A1344BB619E
S2144025B0BB7F032B01D900234DE02A4B9847786117
S2144025C0FB7F002B1FD0284BBA7F0C3253F82230AB
S2144025D003F01003002B06D1BB695B7CC3F3810379
S2144025E0DBB2012B0FDDBA69537C43F020035374F2
S2144025F01D4BBA7F012101FA02F21A6178691B4B22
S2144026009847012327E0184BBA7F0C3253F8223004
S2144026103B613B6943F04F033B613B6943F020031A
S2144026203B61114BBA7F39690C3243F822100023C4
S214402630FB6003E000BFFB680133FB60FB68132BC5
S214402640F8D9094BBA7F012101FA02F21A6178697A
S214402650064B9847012318462037BD4680BD00BF2D
S214402660C40D0020451E4000004003409D1E400013
S21440267080B588B000AF0346FB71FB7903F00F03CB
S214402680FB71FB79032B01D9002375E0FB795A1EB9
S21440269013469B0013449B00394A1344FB61FA6976
S2144026A0537C6FF345135374364BFA790C3253F818
S2144026B0223003F02003002B5DD0324BFA790C32E7
S2144026C053F82230BB61BB6943F04F03BB61BB6923
S2144026D023F02003BB612B4BFA79B9690C3243F8DF
S2144026E0221000237B6103E000BF7B6901337B61DE
S2144026F07B69132BF8D9234B224A916AFA79012039
S21440270000FA02F20A439A621E4B1E4A916AFA790E
S214402710012000FA02F2D2430A409A62194BFA7933
S2144027200C3253F822303B613B6943F04F033B6128
S2144027303B6923F008033B61124BFA7939690C3246
S21440274043F822100023FB6003E000BFFB68013320
S214402750FB60FB68132BF8D9FB695B7CC3F3001363
S214402760DBB2012B07D1FA69537C6FF30413537421
S214402770FB691B689847012318462037BD4680BD35
S214402780C40D00200040034080B588B000AFBA605A
S2144027907B600346FB730B46BB73FB7B03F08003F7
S2144027A0002B0CBF00230123FB77FB7B03F00F03BA
S2144027B0FB73FB7B032B01D9002383E0FB7B5A1E74
S2144027C013469B0013449B00404A1344BB61404B56
S2144027D0FA7B0C3253F8223003F40043002B0FD020
S2144027E0BB695B7CC3F34013DBB2002B08D1384B8C
S2144027F0FA7B0C3253F8223003F02003002B01D032
S21440280000235FE0334B98477861BB695B7CC3F33A
S2144028100013DBB2012B04D178692F4B9847002375
S21440282050E0BA69537C43F01003537478692A4BDE
S2144028309847BB69BA685A60BB697A689A60BB6950
S2144028400022DA60BB69BA6A1A60BB7B002B02D1F1
S2144028507B68002B01D1012300E00023DBB203F0AC
S2144028600103D9B2BA69537C61F386135374BA69CB
S214402870537C6FF3C7135374164B98477861144BC9
S214402880FA7B012101FA02F21A61FB7F002B15D078
S2144028900F4BFA7B0C3253F8223003F01103002B17
S2144028A00CD1FB7B184601210C4B98470346002B66
S2144028B004D0FB7B18460021084B98477869064BA6
S2144028C09847012318462037BD4680BDC40D0020DA
S2144028D000400340451E40009D1E4000A537400076
S2144028E080B588B000AF0346FB71FB7903F08003E8
S2144028F0002B0CBF00230123FB77FB7903F00F036B
S214402900FB71FB79032B00D9BAE05F4B9847B8615F
S2144029105E4BFA79012101FA02F25A61B8695C4BC2
S2144029209847FB7F002B00F08680584BFA790C3294
S21440293053F8223003F01003002B4FD0FB79002BC6
S2144029402ED0FB79032B2BD0504BFA794F49F87990
S2144029500C3051F8201021F010010C3243F82210B0
S21440296000BF4A4BFA790C3253F8223003F010037A
S214402970002BF6D1454BFA794449F8790C3051F89A
S214402980201041F010010C3243F8221000BF3F4B9C
S214402990FA790C3253F8223003F01003002BF6D0AD
S2144029A03A4BFA790C3253F822307B617B6943F01C
S2144029B04F037B617B6923F010037B61334BFA79CD
S2144029C079690C3243F8221000233B6103E000BFD4
S2144029D03B6901333B613B69132BF8D92B4BFA79A2
S2144029E00C3253F82230FB60FB6843F04F03FB6029
S2144029F0FB6823F00103FB60244BFA79F9680C323C
S214402A0043F822100023BB6003E000BFBB680133DD
S214402A10BB60BB68132BF8D9FB795A1E1D49134679
S214402A209B0013449B000B4403F1100253786FF352
S214402A30830353700DE003E0FB791846164B984726
S214402A40124BFA790C3253F8223003F04203002B33
S214402A50F2D10E4B0D4A916AFA79012000FA02F241
S214402A600A439A62094B094A916AFA79012000FAA8
S214402A7002F2D2430A409A62FB791846074B9847BF
S214402A802037BD4680BD00BF451E40000040034085
S214402A909D1E4000C40D00201D354000713440008E
S214402AA080B586B000AF274B264A926842F48072C3
S214402AB09A60244B234A926822F07F029A60214B08
S214402AC01B6B3B613B6943F04F033B613B6923F41F
S214402AD0074323F080033B613B6943F400433B617B
S214402AE0184B3A691A630023FB6003E000BFFB689B
S214402AF00133FB60FB68132BF8D9124B1B6BBB6092
S214402B00BB6843F04F03BB60BB6843F40043BB6005
S214402B100C4BBA681A6300237B6003E000BF7B68F7
S214402B2001337B607B68132BF8D9074B9847786155
S214402B30044B01221A617869044B98471837BD4602
S214402B4080BD00BF00400340451E40009D1E400023
S214402B5080B400AF074B00221A61064B00225A6130
S214402B60044B00229A81044B00221A70BD465DF841
S214402B70047B704754890020BF0D002080B58CB080
S214402B8000AF6D4B1B78002B03D06C4B98476C4BBB
S214402B9098476C4B1A6B6C4B13401B0C082B1AD087
S214402BA0684B1B6BBB62BB6A43F04F03BB62BB6A9E
S214402BB023F00403BB62634BBA6A1A6300237B624A
S214402BC003E000BF7B6A01337B627B6A132BF8D934
S214402BD05E4B9847ADE0002387F82F300CE097F81F
S214402BE02F205B4B1344574A126DD2B21A7097F897
S214402BF02F30013387F82F3097F82F30072BEED938
S214402C00534B5A88524B5A80514B9A88504B9A8015
S214402C104F4BDA884E4BDA804E4B9847034683F04C
S214402C200103DBB2002B1AD0464B1B6B3B623B6A60
S214402C3043F04F033B623B6A23F004033B62414B45
S214402C403A6A1A630023FB6103E000BFFB69013365
S214402C50FB61FB69132BF8D93C4B984769E03C4B2A
S214402C601B78DBB25BB2002B3BDA364B1B6BBB618F
S214402C70BB6943F04F03BB61BB6943F08003BB6154
S214402C80304BBA691A6300237B6103E000BF7B695F
S214402C9001337B617B69132BF8D92A4B1B6B3B6155
S214402CA03B6943F04F033B613B6923F004033B61C0
S214402CB0244B3A691A630023FB6003E000BFFB68BD
S214402CC00133FB60FB68132BF8D9234B00221A8094
S214402CD0224B00221A80184B02221A70204B98472B
S214402CE027E0184B1B6BBB60BB6843F04F03BB60D1
S214402CF0BB6823F00403BB60124BBA681A63002318
S214402D007B6003E000BF7B6801337B607B68132BEE
S214402D10F8D90F4BDB88002B02D1124B984708E0BE
S214402D200D4B00221A800D4B00221A80024B0122C6
S214402D301A703037BD4680BDBF0D0020C1324000FE
S214402D40512B4000004003400000FF07093240007E
S214402D5054890020451C4000C00D0020C20D0020B4
S214402D60692D40005932400080B58EB000AF7B4B95
S214402D701B78032B1CD17A4B1B6BBB62BB6A43F0A0
S214402D804F03BB62BB6A23F00103BB62744BBA6A53
S214402D901A6300237B6203E000BF7B6A01337B62D9
S214402DA07B6A132BF8D96F4B98476F4B9847D1E007
S214402DB06E4B9A896E4B1B88D31AFB86FB8E002B74
S214402DC03FD16C4B1A886A4B1B8813449AB2694BA6
S214402DD01A80664BDA88674B1B889A4203D0664B4C
S214402DE01B78002B1AD0654B98475D4B1B6B3B629C
S214402DF03B6A43F04F033B623B6A23F001033B626E
S214402E00574B3A6A1A630023FB6103E000BFFB6935
S214402E100133FB61FB69132BF8D99BE0534B5B698D
S214402E20002B0ED0514B5B699847034683F0010355
S214402E30DBB2002B05D14E4B00221A804B4B9B89B0
S214402E40FB86FB8E3F2B05D94023FB864A4B002250
S214402E501A7002E0484B01221A70444B9A68444B61
S214402E601B8813443B63464B9847F8623C4B1B6BAE
S214402E7003F00203002B1ED0F86A424B9847374BAC
S214402E8004221A70364B1B6BBB61BB6943F04F0381
S214402E90BB61BB6923F00103BB61314BBA691A635E
S214402EA000237B6103E000BF7B6901337B617B6964
S214402EB0132BF8D94EE0002387F835300AE0284A2D
S214402EC03B6B591C39631B78136597F835300133D3
S214402ED087F8353097F835309BB2FA8E9A42EED85E
S214402EE0234B1A88FB8E13449AB2214B1A801C4BF4
S214402EF01B6B3B613B6943F04F033B613B6943F0CF
S214402F0010033B61164B3A691A630023FB6003E0EB
S214402F1000BFFB680133FB60FB68132BF8D9104BEE
S214402F201B6BBB60BB6843F04F03BB60BB6823F0C2
S214402F300103BB600A4BBA681A6300237B6003E058
S214402F4000BF7B6801337B607B68132BF8D9F86A37
S214402F500C4B98473837BD4680BD00BFBF0D00209C
S214402F6000400340C1324000512B400054890020AD
S214402F70C20D0020C00D0020000E0020A9324000E7
S214402F80451E40009D1E400080B58EB000AF8F4B62
S214402F901B78012B27D08D4B1B78022B03D08B4BF5
S214402FA01B78042B02D18A4B984701E0894B9847FF
S214402FB0894B1B6BFB62FB6A43F04F03FB62FB6A69
S214402FC023F00203FB62844BFA6A1A630023BB6257
S214402FD003E000BFBB6A0133BB62BB6A132BF8D960
S214402FE07E4B98470DE17C4B1A6B7D4B13401B0C78
S214402FF0BB867C4B9B891A467B4B1B881946BB8EEF
S2144030000B449A4205DA774B9A89774B1B88D31A3A
S214403010BB86744B9A68744B1B8813443B630023EF
S21440302087F837300BE03B6B5A1C3A636A4A126D9E
S214403030D2B21A7097F83730013387F8373097F89E
S21440304037309BB2BA8E9A42EDD8674B1A88BB8E01
S21440305013449AB2644B1A80BB8E402B0AD1614B04
S214403060DB881A46614B1B8819465F4B1B880B440E
S2144030709A4246DC5C4B1A885A4B9A81594B5B699C
S214403080002B23D0574B5B699847034683F00103D8
S214403090DBB2002B1AD04F4B98474F4B1B6B7B62D3
S2144030A07B6A43F04F037B627B6A23F002037B62BA
S2144030B0494B7A6A1A6300233B6203E000BF3B6ACF
S2144030C001333B623B6A132BF8D99AE0424B1B6BA9
S2144030D0FB61FB6943F04F03FB61FB6923F002038E
S2144030E0FB613D4BFA691A630023BB6103E000BFF6
S2144030F0BB690133BB61BB69132BF8D93C4B98477E
S2144031007FE0384B9A89384B1B889A424DD1354BD5
S2144031105B69002B1AD12F4B98472F4B1B6B7B615B
S2144031207B6943F04F037B617B6923F002037B613D
S214403130294B7A691A6300233B6103E000BF3B6971
S21440314001333B613B69132BF8D95AE0254B5B6949
S2144031509847034683F00103DBB2002B1AD01D4B81
S21440316098471D4B1B6BFB60FB6843F04F03FB60AF
S214403170FB6823F00203FB60174BFA681A630023D0
S214403180BB6003E000BFBB680133BB60BB68132B6A
S214403190F8D936E0154B1A88134B1B8813449AB25D
S2144031A0124B1A80104B00221A800B4B1B6B7B6015
S2144031B07B6843F04F037B607B6823F002037B60B1
S2144031C0054B7A681A6300233B6017E0BF0D00206A
S2144031D0C13240000932400000400340512B4000BD
S2144031E00000FF0754890020C20D0020C00D0020BB
S2144031F05932400000BF3B6801333B603B68132BAD
S214403200F8D93837BD4680BD80B483B000AF104B88
S21440321005221A700F4B1B6B7B607B6843F04F0395
S2144032207B607B6843F020037B600A4B7A681A63B6
S21440323000233B6003E000BF3B6801333B603B68D4
S214403240132BF8D90C37BD465DF8047B704700BF9A
S214403250BF0D00200040034080B483B000AF104B49
S21440326003221A700F4B1B6B7B607B6843F04F0347
S2144032707B607B6843F010037B600A4B7A681A6376
S21440328000233B6003E000BF3B6801333B603B6884
S214403290132BF8D90C37BD465DF8047B704700BF4A
S2144032A0BF0D00200040034080B400AF034B042213
S2144032B01A70BD465DF8047B704700BFBF0D002006
S2144032C080B500AF034B1B69002B02D0014B1B6936
S2144032D0984780BD5489002080B582B000AF254B0A
S2144032E0DB6903F00103002B01D100233EE0214BB4
S2144032F01B6B03F00403002B03D01F4B984701239E
S21440330034E01C4B1B6B03F00103002B03D01B4B1C
S214403310984701232AE0174B1B6B03F00203002B50
S21440332003D0174B9847012320E0124B1B6B03F04A
S2144033300803002B19D00F4B1B6B7B607B6843F058
S2144033404F037B607B6823F008037B60094B7A68F9
S2144033501A6300233B6003E000BF3B6801333B60D9
S2144033603B68132BF8D9012300E0002318460837A2
S214403370BD4680BD004003407D2B4000692D400087
S214403380892F400080B483B000AF0023FB7143E038
S214403390FA79254913469B0013449B000B4403F1DE
S2144033A0100253786FF383035370FA791E4913461D
S2144033B09B0013449B000B4403F1100253786FF3B9
S2144033C004135370FA79184913469B0013449B0024
S2144033D00B4403F1100253786FF345135370FA7998
S2144033E0114913469B0013449B000B4403F1100203
S2144033F053786FF386135370FA790B4913469B0044
S21440340013449B000B4403F1100253786FF3C71329
S2144034105370FB790133FB71FB79022BB8D90C371B
S214403420BD465DF8047B7047C40D002080B582B071
S21440343000AF0023FB7111E0FA7913469B0013445A
S2144034409B00094A1A44FB790133DBB2104601213E
S2144034501A46064B9847FB790133FB71FB79022BE2
S214403460EAD90837BD4680BDC40D0020AD344000C3
S21440347080B582B000AF0346FB71FB7903F00F03C3
S214403480FB71FB795A1E13469B0013449B00054A6A
S2144034901A44FB79104601211A46034B98470837D1
S2144034A0BD4680BDC40D0020AD34400080B584B01C
S2144034B000AFF860B9601346FB71FB685B7CC3F3F2
S2144034C00013DBB2002B00D123E0FA68537C6FF385
S2144034D004135374FB681B68002B00D119E00E4B95
S2144034E0FA790C3253F8223003F48063002B03D071
S2144034F0FB7963F07F03FB71FB681B68BA68012A9F
S21440350014BF00220122D2B21046FA689168FA79B6
S21440351098471037BD4680BD0040034080B489B010
S21440352000AF0346FB71FB795A1E13469B001344BB
S2144035309B003D4A1344FB613C4BFA790C3253F8EE
S214403540223003F04203422B14D0384BFA790C3227
S21440355053F8223003F00203002B05D0FA69537C5F
S2144035606FF38303537405E0FA69537C012161F3DA
S21440357083035374FB695B7CC3F38103DBB2002B8C
S2144035802AD12A4BFA790C3253F82230BB61BB69F8
S21440359043F04F03BB61BB6923F00203BB61234B7F
S2144035A0FA79B9690C3243F8221000237B6103E0B4
S2144035B000BF7B6901337B617B69132BF8D9FB79AC
S2144035C0002B2CD0FB79032B29D0FA69537C0121A0
S2144035D061F38303537422E0144BFA790C3253F8A8
S2144035E022303B613B6943F04F033B613B6923F02C
S2144035F040033B610D4BFA7939690C3243F822108F
S2144036000023FB6003E000BFFB680133FB60FB6800
S214403610132BF8D9FA69537C6FF38303537424371A
S214403620BD465DF8047B7047C40D00200040034053
S21440363080B489B000AF0346FB71FB795A1E13462F
S2144036409B0013449B00554A13443B613B695A68B0
S2144036503B69DB681344FB613B699A683B69DB68FE
S214403660D31AFB603B691B8AC3F309039BB2BB6159
S2144036700023FB75FA68BB699A4203D2FB68BB61BC
S2144036800123FB753B69DA68BB691A443B69DA601B
S2144036905AE0434AF879FB69591CF9611B78194688
S2144036A000F1140342F823103D4AF879FB69591C8F
S2144036B0F9611B78194600F1140342F82310384A82
S2144036C0F879FB69591CF9611B78194600F1140317
S2144036D042F82310324AF879FB69591CF9611B7885
S2144036E0194600F1140342F823102D4AF879FB6975
S2144036F0591CF9611B78194600F1140342F823104F
S214403700274AF879FB69591CF9611B78194600F17C
S214403710140342F82310224AF879FB69591CF961D0
S2144037201B78194600F1140342F823101C4AF87916
S214403730FB69591CF9611B78194600F1140342F8DD
S2144037402310BB69083BBB61BB69072BA1D80DE0C2
S214403750134AF879FB69591CF9611B78194600F140
S214403760140342F82310BB69013BBB61BB69002BC5
S214403770EED13B695B7CC3F38103DBB2013303F0DC
S2144037800303D9B23A69537C61F383035374FB7DD8
S21440379018462437BD465DF8047B7047C40D0020AC
S2144037A00040034080B586B000AF02460B46FA7133
S2144037B0BB71FB795A1E13469B0013449B00364A46
S2144037C013447B617B695B7CC3F38103DBB21A469F
S2144037D0FB79002B02D0FB79032B01D1012300E0BB
S2144037E002239A4201DB012352E07B69DA687B6957
S2144037F09B689A4208D37B695B7CC3F38013DBB239
S214403800002B01D1002343E0FB791846234B984711
S2144038100346FB74BB79002B1DD0214BFA790C3242
S21440382053F82230FB60FB6843F04F03FB60FB68B5
S21440383043F01003FB601A4BFA79F9680C3243F8F0
S21440384022100023BB6003E000BFBB680133BB60AF
S214403850BB68132BF8D9FB7C002B04D07A69537CC9
S2144038606FF3861353747B69DA687B699B689A4268
S2144038700DD37B695B7CC3F38013DBB2002B06D190
S2144038807A69537C43F080035374002300E001239D
S21440389018461837BD4680BDC40D0020313640005E
S2144038A00040034080B58AB000AF0346FB71FB7909
S2144038B05A1E13469B0013449B003A4A13447B61AE
S2144038C000237B627B699A687B69DB68D31A3B611D
S2144038D07B691B8AC3F309039BB2FB607B695A680A
S2144038E07B69DB681344FB610023FB762E4BFA7939
S2144038F00C3253F822202D4B13401B0C7B627A6A05
S214403900FB689A422CBF00230123FB727B6A002B84
S21440391021D07A6A3B699A4203D33B697B62012392
S214403920FB767B69DA687B6A1A447B69DA60002337
S2144039303B620CE0FB695A1CFA611B4AF979143168
S21440394052F82120D2B21A703B6A01333B623A6A7F
S2144039507B6A9A42EED3FB791846154B9847FB7E16
S214403960002B02D1FB7A002B18D00F4BFA790C3281
S21440397053F8223003F02003002B0FD10A4BFA797C
S214403980012101FA02F25A617B69DA687B699A6022
S214403990FB79786900211A46064B98472837BD467A
S2144039A080BD00BFC40D0020004003400000FF075C
S2144039B01D354000AD34400080B598B000AF0123BF
S2144039C087F85F3047E2AC4B9A6997F85F30012141
S2144039D001FA03F31340002B00D137E297F85F302B
S2144039E05A1E13469B0013449B00A44A1344BB65CF
S2144039F0A14B97F85F200C3253F8223003F0420375
S214403A00002B06D097F85F3018469D4B9847012309
S214403A1027E2994B97F85F200C3253F8223003F098
S214403A200103002B00F0D581BB6D5B7CC3F38103A3
S214403A30DBB2033303F00303D9B2BA6D537C61F3B0
S214403A4083035374BB6D5B7CC3F34013DBB2002B24
S214403A5000F08F80BB6D5B7CC3F38103DBB2002B31
S214403A6040D0854B97F85F200C3253F822303B65A8
S214403A703B6D43F04F033B653B6D43F010033B65A6
S214403A807D4B97F85F20396D0C3243F822100023A7
S214403A90FB6403E000BFFB6C0133FB64FB6C132B41
S214403AA0F8D9754B97F85F200C3253F82230BB6438
S214403AB0BB6C43F04F03BB64BB6C23F00103BB6499
S214403AC06D4B97F85F20B96C0C3243F822100023F8
S214403AD07B6403E000BF7B6C01337B647B6C132B01
S214403AE0F8D944E0644B97F85F200C3253F8223004
S214403AF03B643B6C43F04F033B643B6C23F0010359
S214403B003B645D4B97F85F20396C0C3243F82210CB
S214403B100023FB6303E000BFFB6B0133FB63FB6BDF
S214403B20132BF8D9544B97F85F200C3253F82230B9
S214403B30BB63BB6B43F04F03BB63BB6B43F02003DD
S214403B40BB634D4B97F85F20B96B0C3243F822109D
S214403B5000237B6303E000BF7B6B01337B637B6B9F
S214403B60132BF8D9BA6D537C6FF345135374012366
S214403B7077E1BB6D5B7CC3F3C013DBB2002B0FD089
S214403B80BA6D537C6FF3C7135374BB6DDA68BB6D65
S214403B909A6097F85F30B86D00211A46394B9847BF
S214403BA0BB6DDA68BB6D9B689A423CD3BB6D5B7C51
S214403BB0C3F38013DBB2002B35D1BB6D5B7CC3F304
S214403BC08103DBB2002B2ED12F4B984778652A4BCA
S214403BD097F85F20012101FA02F25A61786D2B4B6B
S214403BE09847254B97F85F200C3253F822303B63BA
S214403BF03B6B43F04F033B633B6B23F001033B635C
S214403C001D4B97F85F20396B0C3243F82210002387
S214403C10FB6203E000BFFB6A0133FB62FB6A132BC7
S214403C20F8D901231DE197F85F30002B5ED097F856
S214403C305F30032B5AD0BB6D5B7CC3F38103DBB292
S214403C40002B53DD0C4B97F85F200C3253F8223094
S214403C50BB62BB6A43F04F03BB62BB6A43F01003D0
S214403C60BB62054B97F85F20B96A0C3243F82210C6
S214403C7000237B6210E000BF00400340C40D0020DC
S214403C80A5384000AD344000451E40009D1E400013
S214403C9000BF7B6A01337B627B6A132BF8D9734B78
S214403CA097F85F200C3253F822303B623B6A43F071
S214403CB04F033B623B6A23F001033B626B4B97F832
S214403CC05F20396A0C3243F822100023FB6103E080
S214403CD000BFFB690133FB61FB69132BF8D997F8EA
S214403CE05F3018460021624B984770E097F85F3087
S214403CF0002B46D097F85F30032B42D097F85F30C2
S214403D00184601215A4B9847034683F00103DBB21D
S214403D10002B0FD0BA6D537C6FF3C7135374BB6D33
S214403D20DA68BB6D9A6097F85F30B86D00211A4626
S214403D30504B98474D4B97F85F200C3253F8223043
S214403D40BB61BB6943F04F03BB61BB6923F0010312
S214403D50BB61464B97F85F20B9690C3243F8221096
S214403D6000237B6103E000BF7B6901337B617B6995
S214403D70132BF8D997F85F30184600213C4B9847EC
S214403D8025E097F85F3018460121394B9847374B66
S214403D9097F85F200C3253F822303B613B6943F082
S214403DA04F033B613B6923F001033B612F4B97F880
S214403DB05F2039690C3243F822100023FB6003E091
S214403DC000BFFB680133FB60FB68132BF8D9012367
S214403DD047E0264B97F85F200C3253F8223003F02A
S214403DE00803002B32D0214B97F85F200C3253F853
S214403DF02230BB60BB6843F04F03BB60BB6823F018
S214403E000803BB60194B97F85F20B9680C3243F83B
S214403E10221000237B6003E000BF7B6801337B6099
S214403E207B68132BF8D9114B97F85F200C3253F868
S214403E30223003F4E063B3F5807F05D00B4B97F850
S214403E405F200C3253F8223001230AE097F85F30A7
S214403E50013387F85F3097F85F30032B7FF6B3ADBA
S214403E60002318466037BD4680BD00BF0040034073
S214403E70A5374000AD34400080B483B000AF034661
S214403E80FB71084B97F907205209F97901F01F0199
S214403E90012000FA01F143F822100C37BD465DF8C8
S214403EA0047B704700E100E080B483B000AF034677
S214403EB0FB71094B97F907205209F97901F01F0168
S214403EC0012000FA01F1203243F822100C37BD469B
S214403ED05DF8047B704700BF00E100E080B483B02B
S214403EE000AF0346FB71094B97F907205209F97951
S214403EF001F01F01012000FA01F1603243F8221060
S214403F000C37BD465DF8047B704700BF00E100E01B
S214403F1080B483B000AF03463960FB7197F9073031
S214403F20002B0BDA0D49FB7903F00F03043B3A688C
S214403F30D2B21201D2B20B441A7609E0084997F978
S214403F4007303A68D2B21201D2B20B4483F800234B
S214403F500C37BD465DF8047B704700BF00ED00E0BF
S214403F6000E100E080B483B000AF78607B68072B48
S214403F7025D801A252F823F0993F40009F3F4000C9
S214403F80A53F4000AB3F4000AF3F4000B33F40003E
S214403F90B73F4000BB3F40004FF4FA4310E04FF4B9
S214403FA000430DE04FF400430AE0084B08E0084B9E
S214403FB006E0084B04E0084B02E0074B00E0002315
S214403FC018460C37BD465DF8047B704700093D0037
S214403FD000127A00001BB7000024F40080B500AF42
S214403FE00620044B9847024613461B019B1A184668
S214403FF080BD00BF653F400080B500AF024B98478C
S21440400003465B08184680BDDD3F400080B582B061
S21440401000AF78607868024B98470837BD4680BD49
S21440402009B8400080B58CB000AF78603960264B48
S214404030984703467B623B681B68BB623B689B684D
S214404040FB623B681B68FB603B685B683B613B68A8
S2144040509B687B613B681B7BBB610023FB617A6886
S2144040601A4B9A4208D10820194B984707F1240367
S21440407078681946174B98477A68174B9A4208D182
S2144040800920134B984707F1240378681946114BCB
S21440409098477A68114B9A4212D10E200C4B98479B
S2144040A0094B9847034607F10C02786811461A46B2
S2144040B00B4B984778680B4B984778680A4B98475D
S2144040C03037BD4680BD00BFF93F400000060E4079
S2144040D00D404000ADA8400000080E4000400240A1
S2144040E0E96840006D6940009D69400080B582B037
S2144040F000AF78600B46FB707A68184B9A420AD13C
S21440410000BFFB7878681946154B98470346002B46
S214404110F7D101231EE07A68124B9A420AD100BFBB
S214404120FB78786819460E4B98470346002BF7D124
S21440413001230FE07A680C4B9A420AD100BFFB7805
S21440414078681946094B98470346002BF7D1012358
S21440415000E0002318460837BD4680BD00060E40E6
S2144041605DA9400000080E4000400240596A4000E9
S21440417080B584B000AF786039600023FB607A6811
S214404180154B9A4207D100BF78683968134B984759
S2144041900346002BF8D17A68114B9A4207D100BFEC
S2144041A0786839680D4B98470346002BF8D17A68F3
S2144041B00C4B9A420DD100BF07F10C0378681946A4
S2144041C0094B98470346002BF6D1FB68DAB23B68AA
S2144041D01A701037BD4680BD00060E408DA94000BF
S2144041E000080E40004002408D6A400080B582B014
S2144041F000AF786039600F4B7A681A600E4B0F4AF2
S2144042001A600F4B0F4A1A60786839680E4B984709
S2144042100E4B1B689B68184600210D4B98470B4B6E
S2144042201B685B6818460021094B98470837BD460F
S21440423080BD00BFC8990020C4990020ED404000D2
S21440424070890020714140002540400098070020BA
S21440425095CC400090B585B000AF0A4B3C460FCB9E
S21440426084E80F003B4608481946084B9847084BD9
S2144042701B689B6818460021064B98471437BD4676
S21440428090BD00BF6C5C410000060E40ED41400012
S2144042909807002095CC400080B500AF184B984753
S2144042A0184B98471848194B984704200121184B3B
S2144042B09847C820174B98470020174B984700BF91
S2144042C0164B98470346002BFAD015480021154B4D
S2144042D098471348144B98471148144B9847072063
S2144042E001210B4B9847124B9847124B9847124B5D
S2144042F098471248124B98471248134B984780BD30
S214404300C143400051534000980100207D73400057
S214404310E57340003992400031B6400069B640002F
S21440432060140E4055A4400091A8400079A8400073
S2144043304D434000554240008D1340009C010020F4
S214404340BD6B4000D4010020A95A400080B500AFA4
S2144043500748084B98470346002B00D0FEE7064820
S214404360044B98470346002B00D0FEE780BD00BFB5
S21440437068010020357840008001002080B500AFFD
S2144043800348044B98470448024B984780BD00BFFB
S21440439068010020CD7C40008001002080B500AF41
S2144043A00348044B98470448044B984780BD00BFD9
S2144043B050140E40D5BE400000140E40C1A9400027
S2144043C090B583B000AF0420134B984713484FF482
S2144043D00041134B984778607A684FF6FF739A42CD
S2144043E000D1FEE70F4B3B607B689AB27B689BB27E
S2144043F00D4839680D4CA04704200D4B98470420C3
S2144044000C4B9847042000210B4B984704200B4B3D
S21440441098470C37BD4690BD09B840008096980036
S21440442025BE40000020003050140E4075BE4000AF
S214404430A93E4000DD3E4000113F4000793E40002E
S21440444090B5A3B000AF7860002387F882307B68D1
S214404450FB67052387F87B300023A7F886300023C8
S214404460A7F872300023A7F87030022387F885300B
S214404470002387F86F30022387F88430002387F8BC
S2144044806E30032387F88330032387F86D3007F1B7
S21440449008026423104600211A46AC4B9847F86F32
S2144044A0AB4B9847034687F87B3007F17203A94821
S2144044B01946A94B984707F16F030B201946A74B9F
S2144044C0984797F86F3097F885209A421CD097F80F
S2144044D06F30012B03D1042387F8743002E00523A4
S2144044E087F874309E4B1B68002B09D09C4B1A688B
S2144044F007F174031046194605220023994CA0473D
S21440450097F86F3087F8853007F16E030A20194612
S214404510924B984797F86E3097F884209A4211D07D
S21440452097F86E30012B06D18F4B00221A608F48C9
S2144045308F4B984702E08F488D4B984797F86E30E0
S21440454087F8843097F88430002B04D1864B1B685C
S2144045505A1C854B1A60844B1B680A2B10D10023CB
S21440456087F874307E4B1B68002B09D07C4B1A684A
S21440457007F174031046194605220023794CA047DC
S21440458007F16D0309201946744B984797F86D302C
S21440459097F883209A4218D097F86D3087F8833082
S2144045A097F86D30002B10D1002387F874306C4B91
S2144045B01B68002B09D06A4B1A6807F17403104633
S2144045C0194605220023674CA0476B4B1B78DBB28D
S2144045D097F87B209A4200F0848097F87B30013B26
S2144045E0062B72D801A252F823F000BFBB4640000B
S2144045F01B4640005D46400025464000CB464000F6
S21440460011464000094640000023A7F8863064E083
S21440461003200121594B98475FE003200121574B67
S21440462098475AE007F170034A481946544B984752
S214404630B7F8703007F10802104652491A46524BF6
S214404640984707F108031846494B984741484F4B4F
S214404650984702200121494B98473EE0022387F8BD
S21440466074303F4B1B68002B22D007F1700339484B
S2144046701946434B9847B7F8703007F10802104682
S21440468043491A46404B984707F108031846384BAB
S2144046909847304844F698013E4B9847304B1A6846
S2144046A007F1740310461946052200232D4CA047F7
S2144046B000200121314B98470FE0062001212F4B67
S2144046C0984735482A4B984707E03448284B984740
S2144046D007200121294B984700BF274B97F87B209E
S2144046E01A70B7F87230B7F886209A4262D0B7F898
S2144046F07230A7F88630204B1B78DBB2072B59D197
S214404700B7F88630052B0ED8002000211B4B984763
S214404710022387F87430124B1B68002B4AD020487F
S214404720134B984746E0B7F88630082B04D800204D
S2144047300021124B98473DE0B7F886300F2B31D812
S214404740002001210D4B984734E000BF95CB400038
S214404750C5474000D4010020E15B40004D56400074
S214404760700F0020B1894000040E00207C5C4100A0
S21440477015524000985C4100E0010020E57340007F
S214404780915B4000B45C4100A5CD4000695C4000B0
S214404790EC5C4100395B4000245D41003C5D4100DB
S2144047A0585D4100B7F886300F2B03D9072001210A
S2144047B0024B9847FA20024B984770E6E573400054
S2144047C03992400080B584B000AF78600023FB7318
S2144047D00023BB737B689A7807F10E031046194690
S2144047E0194B9847BB7BDBB203F00103DAB2FB7B85
S2144047F01343DBB2FB737B685A7807F10E0310460F
S2144048001946114B9847BB7B5B00DBB203F00203B3
S214404810DAB2FB7B1343DBB2FB737B681A7807F193
S2144048200E0310461946084B9847BB7B9B00DBB2ED
S21440483003F00403DAB2FB7B1343DBB2FB73FB7B70
S21440484018461037BD4680BD4D56400090B5A1B0C5
S21440485000AF7860002387F87E300A206821002267
S214404860964B98470246964B1A6007F11003184637
S214404870944B98470023FB810023BB670023BB6013
S214404880012387F87F308E4B1B68002B00D180E2D7
S2144048908B4B1A6807F1100310461946FA2200237C
S2144048A0894CA0470346012B40F07282B7F8763019
S2144048B0002B00F06D82012387F87F3007F110034C
S2144048C00133184681490722814B98470346002BFF
S2144048D014D13B7C022B00F0518207F110030133C8
S2144048E018467C4B98470346172B40F2478207F101
S2144048F0100308331846784B98473FE207F11003F9
S2144049000133184675490922714B98470346002BD8
S2144049101CD1002387F87F30714B98473B7C002B97
S21440492009D1704B5C68704B984703462046194641
S2144049306E4B984722E23B7C012B40F01F826A4B2D
S2144049409847034618466A4B984717E207F1100304
S2144049500133184667490C225D4B98470346002BA7
S21440496037D107F10E0364481946644B984703460F
S21440497087F87E3097F87E30002B16D1FB8960484A
S21440498060491A46604B98473B7C002B06D1554BF6
S2144049905B6818465A49554B984716E03B7C012BB6
S2144049A013D15748524B98470FE03B7C002B06D11B
S2144049B04C4B5B68184655494C4B984705E03B7C4A
S2144049C0012B02D151484A4B9847002387F87F3045
S2144049D0D4E107F11003013318464D4909223C4BF8
S2144049E098470346002B37D107F10803424819463B
S2144049F0484B9847034687F87E3097F87E30002B22
S214404A0016D1BB683E4844491A463F4B98473B7CC4
S214404A10002B06D1334B5B6818463949334B9847D1
S214404A2016E03B7C012B13D13548314B98470FE0BD
S214404A303B7C002B06D12B4B5B68184637492B4BEB
S214404A40984705E03B7C012B02D13448284B9847D9
S214404A50002387F87F3091E107F1100301331846B1
S214404A602F490C221A4B98470346002B0DD10E2097
S214404A702C4B9847B867BB6F9BB21F4819462A4BCA
S214404A809847002387F87F3078E107F11003013319
S214404A901846264911220E4B98470346002B47D10D
S214404AA00720204B9847B867BB6F9BB21248194601
S214404AB01D4B9847002387F87F305FE119894000F7
S214404AC0080E00207D4E4000DD8B4000785D4100A2
S214404AD031CF4000D1CE4000694F4000805D41005C
S214404AE0A54E4000D8020020394E4000157E4000BA
S214404AF0715240008C5D4100D4010020915B400023
S214404B000C0E00209C5D4100A5CD4000B45D4100E8
S214404B10CC5D4100E15B4000D85D4100EC5D41006A
S214404B20105E4100395C4000395B4000205E410029
S214404B3007F110030133184697490E22974B9847C2
S214404B400346002B0DD10420954B9847B867BB6FA2
S214404B509BB294481946944B9847002387F87F3079
S214404B600CE107F110030133184690490D228B4B98
S214404B7098470346002B08D18A484FF6FF718A4B68
S214404B809847002387F87F30F8E007F11003013399
S214404B90184687490D22814B98470346002B1CD167
S214404BA08048844B98470346834884491A46844B3A
S214404BB098473B7C002B06D1824B5B6818467E4963
S214404BC0814B984705E03B7C012B02D17A487F4BCE
S214404BD09847002387F87F30D0E007F11003013371
S214404BE018467B4907226D4B98470346002B03D156
S214404BF07848794B9847C1E007F1100301331846CF
S214404C0076490922654B98470346002B0AD17448DB
S214404C10744B984705200121734B9847002387F82B
S214404C207F30ABE007F11003013318466F49092285
S214404C305A4B98470346002B0AD16D48694B984714
S214404C4005200021684B9847002387F87F3095E081
S214404C5007F1100301331846664909224F4B98471F
S214404C600346002B0ED164485E4B98470120002136
S214404C705D4B9847002000215B4B9847002387F800
S214404C807F307BE007F11003013318465B49092269
S214404C90424B98470346002B0ED15948514B9847F4
S214404CA001200121504B9847002001214E4B984748
S214404CB0002387F87F3061E007F110030133184680
S214404CC050490B22354B98470346002B09D107F134
S214404CD0100301334FF0005019464B4A4B4B984750
S214404CE04CE007F110030133184649490B222B4B81
S214404CF098470346002B08D146480C210122464BD4
S214404D0098473448344B984738E007F1100301334E
S214404D10184642490922214B98470346002B2DD17D
S214404D2025483F493F4A264B98473B7C002B06D1B7
S214404D30244B5B6818462049234B984705E03B7C4C
S214404D40012B02D11C48214B98471B483649374A0D
S214404D50374B1B4CA0473B7C002B06D1194B5B685E
S214404D6018461549184B984705E03B7C012B02D165
S214404D701148164B9847002387F87F3097F87F30C6
S214404D80002B05D007F1100318462A4B98477FE5BD
S214404D907EE58437BD4690BD345E410031CF40004D
S214404DA0395C4000D4010020395B4000445E41003D
S214404DB0545E41008D5C40000C0E0020645E410055
S214404DC0A5CD4000D8020020157E4000715240001C
S214404DD07C5E410000140E40C1A94000845E410044
S214404DE0905E41001552400059554000AC5E41006F
S214404DF0B85E4100D45E4100E05E4100FC5E41008A
S214404E00085F4100245F410040420F0061CA4000F5
S214404E10305F4100000A0E40611D4000405F410087
S214404E204C5F4100605F4100685F41007C5F41002D
S214404E30885F41003D52400090B587B002AF07F111
S214404E400C0107F108023B1D0748084CA047FA68CA
S214404E50BB687968009106480649074CA047044B52
S214404E6018461437BD4690BD60140E4089A44000D5
S214404E700C0F0020945F4100A5CD400080B582B065
S214404E8000AF78607B680133184600216422044BEB
S214404E9098477B680022A3F866200837BD4680BD49
S214404EA095CB4000F0B5A9B006AF022387F8203076
S214404EB007F1100107F10C0207F10803381D0090B6
S214404EC02148224CA04707F11C0107F1180207F1C0
S214404ED014031D481E4CA0473A69FB68D7F808E003
S214404EE07E68FD69BC69786907F120010131CDF81B
S214404EF000E0019602950394049008461549164C26
S214404F00A04707F1200301331846144B9847034641
S214404F109BB2A7F88630124B1B68002B0ED0104B66
S214404F201A6807F1200310461946052200230D4C47
S214404F30A0470346012B01D0012300E0002318467A
S214404F408C37BD46F0BD00BF60140E4055A64000ED
S214404F5089A44000B85F4100A5CD4000D1CE4000B6
S214404F60080E0020B189400090B591B006AF786039
S214404F7007F1240207F1200307F11C01009107F115
S214404F801801019107F11401029107F110010391F4
S214404F9007F10C01049178680B490C4CA047034676
S214404FA0072B0DD179693A69FB680948094CA04737
S214404FB0796A3A6AFB69B86900900548064CA0478A
S214404FC02C37BD4690BD00BFE45F4100F1CD4000A8
S214404FD060140E404DA540003DA7400090B5B9B0C6
S214404FE000AF78607B4B7A681A6007F17403184606
S214404FF0794B9847002387F8743007F10C0318461E
S214405000754B984701233B73724B1B685B68184689
S214405010724B98470346002B00D0D7E06D4B1B6879
S2144050201B6818466D4B98470346002B00D0CDE0D2
S2144050300023FB720023C7F8DC30664B1B681A68F7
S21440504007F10B0310461946654B98470346002B5D
S21440505034D1FB7A03F0A003A02B1DD1FB7AAA2BF8
S21440506014D1012001215F4B9847002001215D4B60
S21440507098474FF4FA705C4B984701200021594BF3
S214405080984700200021574B98471AE0FB7AAC2BF4
S21440509017D1564B984714E04E4B1B685A68FB7A1C
S2144050A010461946524B9847524B98470346002B9A
S2144050B007D0FB7A1846504B984702E001204A4BEF
S2144050C09847444B1B685A6807F10B03104619462D
S2144050D0434B98470346002B33D1B7F8DA30622B60
S2144050E02AD8B7F8DA305A1C92B2A7F8DA20FA7AF9
S2144050F007F1E0010B4403F86B2CFB7A0A2B20D116
S214405100B7F8DA3007F1E0021344002203F86B2CBC
S2144051103A4B1B68002B09D0384B1A6807F17403CA
S2144051201046194605220023354CA04707F1740364
S2144051301846294B984704E007F174031846264B57
S2144051409847304B98470346002B3BD02E4B98470A
S214405150C7F8DC00B7F87230622B2ED8B7F872303A
S2144051605A1C92B2A7F87220D7F8DC20D2B207F1C8
S214405170E0010B4403F8D32CD7F8DC30DBB20A2B23
S21440518020D1B7F8723007F1E0021344002203F84A
S214405190D32C1A4B1B68002B09D0184B1A6807F102
S2144051A00C031046194605220023154CA04707F16C
S2144051B00C031846084B984704E007F10C031846C2
S2144051C0054B98471148124B984736E7E437BD469B
S2144051D090BD00BF6C8900207D4E4000D97D4000C8
S2144051E04D7C40005955400039924000A54E400045
S2144051F0657B4000FD0E4000E90F4000080E002091
S214405200B1894000FD0C4000F50D400050140E40A2
S214405210ADBE400080B582B000AF7860054B1B68DD
S2144052201B6818467968044B984700231846083789
S214405230BD4680BD6C890020157E400080B582B09A
S21440524000AF7860084B1B6819687B685A1C7B68FF
S214405250B3F86630084611461A46044B9847002372
S21440526018460837BD4680BD6C890020657E4000E4
S21440527080B584B000AF78607868064B9847F86091
S2144052807868F968044B9847002318461037BD469F
S21440529080BD00BFD1CE40001511400080B483B021
S2144052A000AF0346FB71084B97F907205209F9797E
S2144052B001F01F01012000FA01F143F822100C37DB
S2144052C0BD465DF8047B704700E100E080B483B0E3
S2144052D000AF0346FB71094B97F907205209F9794D
S2144052E001F01F01012000FA01F1203243F822109C
S2144052F00C37BD465DF8047B704700BF00E100E018
S21440530080B489B000AF78607B68FB61FB69BB61A5
S214405310BB697B617B695B093B613B6903F50013B5
S21440532003F207735B02DA6BFB69FB60FB6803F012
S2144053301F03012101FA03F31340002B0CBF002387
S2144053400123DBB218462437BD465DF8047B704720
S21440535080B584B000AF0023FB730F237B6000232F
S214405360BB600023BB6010E0BB681A010B4B1344C4
S21440537018460B4B98470346002B03D0FB7B43F065
S2144053800103FB73BB680133BB60BA687B689A4213
S214405390EADBFB7B18461037BD4680BDE4010020A3
S2144053A0A553400090B58DB002AF7860002387F8D3
S2144053B0233000237B627B681B79012B40F093806F
S2144053C07B6A43F020537B627B681B7B012B03D1B7
S2144053D07B6A43F001037B627B685B7B012B10D1C9
S2144053E07B681B681846514B9847F8617B681B687A
S2144053F018464F4B9847B861F869B96905224D4B36
S21440540098477B681B6818464B4B98470346184698
S2144054104A4B98477B681B681846796A484B9847BA
S21440542000237B627B689B79032B1FD801A252F82E
S21440543023F000BF455440004F54400059544000AC
S214405440635440007B6A43F070037B620FE07B6AE4
S21440545043F050037B620AE07B6A43F030037B6292
S21440546005E07B6A43F010037B6200E000BF7B6888
S2144054701B6818462D4B984778617B681B68184612
S2144054802B4B984738617B6A03F07003002B21D082
S2144054907B681B681846284B9847F8607B689B6873
S2144054A000937869F9683A697B6A264CA047786920
S2144054B03969254B98477A69244B9A4203D10B2089
S2144054C0234B984706E07A69224B9A4202D10C2039
S2144054D01F4B98477B69D3F890203B691A437B69FA
S2144054E0C3F890201BE07B685B79012B04D17B6A74
S2144054F043F060537B6203E07B6A43F040537B6239
S2144055007B681B6818460C4B9847034618460B4B5F
S21440551098477B681B681846796A094B984797F8FE
S214405520233018462C37BD4690BD00BF81B340009F
S214405530C9B34000EDAD4000A9B3400009B84000F3
S214405540CDB14000B9B4400081B04000000E0E40DE
S2144055509D52400000100E4080B584B000AF024619
S2144055600B46FA71BB710023FB720023FB60FB798C
S214405570324A1B0113441B79002B01D0012359E00A
S214405580FB792E4A1B0113440833DB79022B07D0E4
S214405590FB792A4A1B0113440833DB79032B1AD1C3
S2144055A0BB79012B0AD1FB6843F06053FB60234B69
S2144055B01B681846F968224B98470CE0BB79002BCD
S2144055C009D1FB6843F04053FB601C4B1B681846F0
S2144055D0F9681B4B9847BB79032B2AD801A252F88F
S2144055E023F000BF07564000F555400019564000CE
S2144055F033564000FB79114A1B0113441B6818467A
S214405600104B984715E0FB790C4A1B0113441B6866
S21440561018460D4B98470CE0FB6843F0205343F088
S2144056200103FB60054B1B681846F968044B984716
S21440563000BFFB7A18461037BD4680BDE401002007
S214405640CDB140001DB1400049B1400080B584B0A6
S21440565000AF03463960FB710023FB73FB790D4AAC
S2144056601B0113441B6818460B4B98470346BB73F5
S214405670BB7B83F00103DBB2002B03D03B680022E8
S2144056801A7002E03B6801221A70FB7B18461037FE
S214405690BD4680BDE40100200153400080B584B083
S2144056A000AF0346FB710023FB73FB79054A1B01E1
S2144056B013441B681846044B9847FB7B1846103724
S2144056C0BD4680BDE401002075B1400080B586B07F
S2144056D000AF02460B46FA71BB710123FB750023EF
S2144056E03B61FB791C4A1B0113441B6818461B4B45
S2144056F09847F860FB79184A1B0113441B68184604
S214405700174B9847B860BB79002B04D170233B6198
S2144057100023FB7516E0BB79012B04D150233B6177
S2144057200023FB750EE0BB79022B04D130233B618E
S2144057300023FB7506E0BB79032B03D110233B61A6
S2144057400023FB75F868B9683A69064B9847FB7DB5
S21440575018461837BD4680BDE401002081B340009E
S214405760C9B3400015B0400090B58BB002AF0B46B1
S2144057703A600246FA71BB710123FB770023BB6196
S214405780FB792A4A1B0113441B681846284B984746
S2144057907861FB79254A1B0113441B681846254B44
S2144057A098473861FB79214A1B0113441B68184609
S2144057B0214B9847F860FB68184639691F4B984755
S2144057C0BB79002B04D17023BB610023FB7716E026
S2144057D0BB79012B04D15023BB610023FB770EE03D
S2144057E0BB79022B04D13023BB610023FB7706E054
S2144057F0BB79032B03D11023BB610023FB773B68A7
S21440580000937869F9683A69BB690D4CA047786996
S2144058103969BA690B4B9847FB68184639690A4B91
S2144058209847FB7F18462437BD4690BDE4010020CC
S21440583081B34000C9B34000A9B34000A1B04000C6
S214405840B9B4400015B0400081B0400080B485B087
S21440585000AF0346FB710023FB73FB79084A1B012C
S2144058601344083300229A71FB7B002B0CBF0023A5
S2144058700123DBB218461437BD465DF8047B7047FB
S214405880E401002080B586B000AF0346FB710023DC
S214405890FB75FB79144A1B0113441B681846134BCF
S2144058A098473861FB79104A1B0113441B68184619
S2144058B00F4B9847F860F86839690E4B9847FA6876
S2144058C00D4B9A4203D10B200C4B984706E0FA68E2
